:020000040800F2
:100000008016002029150008311100081515000878
:10001000151500081515000815150008000000004A
:100020000000000000000000000000002D16000885
:100030001515000800000000C5150008093A000861
:10004000F9170008F9170008F9170008F917000850
:10005000F9170008F9170008F9170008F917000840
:10006000F9170008F9170008F9170008F917000830
:10007000F9170008F9170008F9170008F917000820
:10008000F9170008F9170008F9170008F917000810
:10009000F9170008F9170008F9170008F917000800
:1000A000F9170008F9170008F9170008F9170008F0
:1000B000F9170008F9170008F9170008F9170008E0
:1000C000F9170008F9170008F9170008F9170008D0
:1000D000F9170008F9170008F9170008F9170008C0
:1000E000F9170008F9170008F9170008F9170008B0
:1000F000F9170008F9170008F9170008F9170008A0
:10010000F9170008F9170008F9170008F91700088F
:10011000F9170008F9170008F9170008F91700087F
:10012000F9170008F9170008F9170008F91700086F
:10013000F9170008F9170008F9170008F91700085F
:10014000F9170008F9170008F9170008F91700084F
:10015000F9170008F9170008F9170008F91700083F
:10016000F9170008F9170008F9170008F91700082F
:10017000F9170008F9170008F9170008F91700081F
:10018000F9170008F9170008F9170008F91700080F
:10019000F9170008F9170008F9170008F9170008FF
:1001A000F9170008F9170008F9170008F9170008EF
:1001B000F9170008F9170008F9170008F9170008DF
:1001C000F9170008F9170008F9170008F9170008CF
:0801D000F9170008F9170008F7
:1001D80081F0004102E000BF83F0004330B54FEAF0
:1001E80041044FEA430594EA050F08BF90EA020F5D
:1001F8001FBF54EA000C55EA020C7FEA645C7FEAF0
:10020800655C00F0E2804FEA5454D4EB5555B8BF12
:100218006D420CDD2C4480EA020281EA030382EA83
:10022800000083EA010180EA020281EA0303362D15
:1002380088BF30BD11F0004F4FEA01314FF4801CE8
:100248004CEA113102D0404261EB410113F0004FFA
:100258004FEA03334CEA133302D0524263EB4303B1
:1002680094EA050F00F0A780A4F10104D5F1200E4F
:100278000DDB02FA0EFC22FA05F2801841F10001AA
:1002880003FA0EF2801843FA05F359410EE0A5F17E
:1002980020050EF1200E012A03FA0EFC28BF4CF0AF
:1002A800020C43FA05F3C01851EBE37101F0004565
:1002B80007D54FF0000EDCF1000C7EEB00006EEB72
:1002C8000101B1F5801F1BD3B1F5001F0CD34908FC
:1002D8005FEA30004FEA3C0C04F101044FEA445253
:1002E80012F5800F80F09A80BCF1004F08BF5FEADA
:1002F800500C50F1000041EB045141EA050130BDBA
:100308005FEA4C0C404141EB0101013C28BFB1F5CB
:10031800801FE9D291F0000F04BF01460020B1FA16
:1003280081F308BF2033A3F10B03B3F120020CDAE9
:100338000C3208DD02F1140CC2F10C0201FA0CF0C7
:1003480021FA02F10CE002F11402D8BFC2F1200C2C
:1003580001FA02F120FA0CFCDCBF41EA0C019040E2
:10036800E41AA2BF01EB0451294330BD6FEA04042B
:100378001F3C1CDA0C340EDC04F11404C4F1200216
:1003880020FA04F001FA02F340EA030021FA04F328
:1003980045EA030130BDC4F10C04C4F1200220FA7F
:1003A80002F001FA04F340EA0300294630BD21FABD
:1003B80004F0294630BD94F0000F83F4801306BF83
:1003C80081F480110134013D4EE77FEA645C18BF77
:1003D8007FEA655C29D094EA050F08BF90EA020F0E
:1003E80005D054EA000C04BF1946104630BD91EA06
:1003F800030F1EBF0021002030BD5FEA545C05D109
:100408004000494128BF41F0004130BD14F5800447
:100418003CBF01F5801130BD01F0004545F0FE41BB
:1004280041F470014FF0000030BD7FEA645C1ABFF0
:10043800194610467FEA655C1CBF0B46024650EA27
:10044800013406BF52EA033591EA030F41F4002153
:1004580030BD00BF90F0000F04BF0021704730B5D9
:100468004FF4806404F132044FF000054FF00001AE
:1004780050E700BF90F0000F04BF0021704730B56F
:100488004FF4806404F1320410F0004548BF404244
:100498004FF000013EE700BF42004FEAE2014FEA99
:1004A80031014FEA02701FBF12F07F4393F07F4F74
:1004B80081F06051704732F07F4208BF704793F077
:1004C8007F4F04BF41F40021704730B54FF460748A
:1004D80001F0004521F000411CE700BF50EA01028D
:1004E80008BF704730B54FF000050AE050EA010236
:1004F80008BF704730B511F0004502D5404261EBA6
:1005080041014FF4806404F132045FEA915C3FF4E6
:10051800D8AE4FF003025FEADC0C18BF03325FEA83
:10052800DC0C18BF033202EBDC02C2F1200300FA34
:1005380003FC20FA02F001FA03FE40EA0E0021FA59
:1005480002F11444BDE600BF70B54FF0FF0C4CF447
:10055800E06C1CEA11541DBF1CEA135594EA0C0FF9
:1005680095EA0C0F00F0DEF82C4481EA030621EA34
:100578004C5123EA4C5350EA013518BF52EA03356F
:1005880041F4801143F4801338D0A0FB02CE4FF021
:100598000005E1FB02E506F00042E0FB03E54FF051
:1005A8000006E1FB03569CF0000F18BF4EF0010E49
:1005B800A4F1FF04B6F5007F64F5407404D25FEA45
:1005C8004E0E6D4146EB060642EAC62141EA5551F8
:1005D8004FEAC52040EA5E504FEACE2EB4F1FD0C3A
:1005E80088BFBCF5E06F1ED8BEF1004F08BF5FEAB8
:1005F800500E50F1000041EB045170BD06F000466A
:1006080046EA010140EA020081EA0301B4EB5C0416
:10061800C2BFD4EB0C0541EA045170BD41F480110E
:100628004FF0000E013C00F3AB8014F1360FDEBF33
:10063800002001F0004170BDC4F10004203C35DA0F
:100648000C341BDC04F11404C4F1200500FA05F392
:1006580020FA04F001FA05F240EA020001F0004233
:1006680021F0004110EBD37021FA04F642EB0601A9
:100678005EEA430E08BF20EAD37070BDC4F10C04D3
:10068800C4F1200500FA04F320FA05F001FA04F297
:1006980040EA020001F0004110EBD37041F1000183
:1006A8005EEA430E08BF20EAD37070BDC4F120058E
:1006B80000FA05F24EEA020E20FA04F301FA05F2F6
:1006C80043EA020321FA04F001F0004121FA04F29E
:1006D80020EA020000EBD3705EEA430E08BF20EA6E
:1006E800D37070BD94F0000F0FD101F000464000A8
:1006F80041EB010111F4801F08BF013CF7D041EA2A
:10070800060195F0000F18BF704703F0004652002D
:1007180043EB030313F4801F08BF013DF7D043EAFE
:100728000603704794EA0C0F0CEA135518BF95EAB4
:100738000C0F0CD050EA410618BF52EA4306D1D13B
:1007480081EA030101F000414FF0000070BD50EA5A
:10075800410606BF1046194652EA430619D094EAE4
:100768000C0F02D150EA013613D195EA0C0F05D1CE
:1007780052EA03361CBF104619460AD181EA030122
:1007880001F0004141F0FE4141F470014FF00000DA
:1007980070BD41F0FE4141F4780170BD70B54FF075
:1007A800FF0C4CF4E06C1CEA11541DBF1CEA1355F5
:1007B80094EA0C0F95EA0C0F00F0A7F8A4EB0504D7
:1007C80081EA030E52EA03354FEA013100F08880CE
:1007D8004FEA03334FF0805545EA131343EA126397
:1007E8004FEA022245EA111545EA10654FEA00264C
:1007F8000EF000419D4208BF964244F1FD0404F505
:10080800407402D25B084FEA3202B61A65EB030560
:100818005B084FEA32024FF480104FF4002CB6EB1D
:10082800020E75EB030E22BFB61A754640EA0C009D
:100838005B084FEA3202B6EB020E75EB030E22BFDD
:10084800B61A754640EA5C005B084FEA3202B6EB1E
:10085800020E75EB030E22BFB61A754640EA9C00DD
:100868005B084FEA3202B6EB020E75EB030E22BFAD
:10087800B61A754640EADC0055EA060E18D04FEA6B
:10088800051545EA16754FEA06164FEAC30343EA0B
:1008980052734FEAC2025FEA1C1CC0D111F4801FD8
:1008A8000BD141EA00014FF000004FF0004CB6E7D1
:1008B80011F4801F04BF01430020B4F1FD0C88BF70
:1008C800BCF5E06F3FF6AFAEB5EB030C04BFB6EB7B
:1008D800020C5FEA500C50F1000041EB045170BD6E
:1008E8000EF0004E4EEA113114EB5C04C2BFD4EB9B
:1008F8000C0541EA045170BD41F480114FF0000E1F
:10090800013C90E645EA060E8DE60CEA135594EA9A
:100918000C0F08BF95EA0C0F3FF43BAF94EA0C0F9D
:100928000AD150EA01347FF434AF95EA0C0F7FF412
:1009380025AF104619462CE795EA0C0F06D152EA66
:1009480003353FF4FDAE1046194622E750EA41064A
:1009580018BF52EA43067FF4C5AE50EA41047FF45B
:100968000DAF52EA43057FF4EBAE12E77BB972B9DB
:100978000029BEBF00204FF0004106E008BF002854
:100988001CBF6FF000414FF0FF3000F057B8ADF1D9
:10099800080C6DE904CE002909DB002B1ADB00F0F6
:1009A80062F8DDF804E0DDE9022304B07047404254
:1009B80061EB4101002B1BDB00F055F8DDF804E08A
:1009C800DDE9022304B0404261EB4101524263EB8E
:1009D80043037047524263EB430300F044F8DDF8E9
:1009E80004E0DDE9022304B0404261EB41017047B5
:1009F800524263EB430300F036F8DDF804E0DDE92A
:100A0800022304B0524263EB4303704753B94AB917
:100A1800002908BF00281CBF4FF0FF314FF0FF30FE
:100A280000F00CB8ADF1080C6DE904CE00F01BF82D
:100A3800DDF804E0DDE9022304B07047704700BF29
:100A4800430803F05533C01A00F03333800800F030
:100A58003330184400EB10104FF0013300F00F3022
:100A68005843000E70472DE9F04786468C460846E5
:100A7800089E154674461946002B40F0C2808542F0
:100A8800B2FA82F245D94AB1C2F1200300FA02FC57
:100A98002EFA03F3954043EA0C0C94404FEA154EA6
:100AA800A8B2BCFBFEF8230C0EFB18CC08FB00F91F
:100AB80043EA0C43994528D9EB1808F1FF3704D2CB
:100AC800994502D9A8F102072B44A3EB0903A4B264
:100AD800B3FBFEFC0EFB1C330CFB00F044EA0344A2
:100AE800A04214D92C190CF1FF3304D2A04202D928
:100AF800ACF102032C44241A43EA07401EB1D44047
:100B0800002334607360BDE8F0874746DDE763463D
:100B1800F1E792BB431B01214FEA154EAFB2B3FB7D
:100B2800FEFC200C0EFB1C330CFB07F840EA0343C9
:100B3800984562D9EB180CF1FF3004D2984502D9D8
:100B4800ACF102002B44A3EB0803A4B2B3FBFEFCF8
:100B58000EFB1C330CFB07F744EA0344A7424ED9AB
:100B68002C190CF1FF3304D2A74202D9ACF10203CD
:100B78002C44E41B43EA0040C0E7C2F1200320FAFA
:100B880003F1954090402EFA03F303434FEA154EC4
:100B9800AFB2B1FBFEFC0EFB1C10190C0CFB07F8E6
:100BA80041EA0041884504FA02F422D969180CF197
:100BB800FF3004D2884502D9ACF102002944A1EBE8
:100BC80008019BB2B1FBFEFC0EFB1C110CFB07F7E6
:100BD80043EA01439F420ED9EB180CF1FF3104D2CE
:100BE8009F4202D9ACF102012B44DB1B41EA0041D0
:100BF80092E76046E3E76146F7E76046A3E76346A6
:100C0800B7E7834206D916B9002108467BE7C6E94B
:100C180000E0F9E7B3FA83F78FB9834201D372454D
:100C280008D8BEEB020460EB030301209C461EB902
:100C3800002168E73846FAE7C6E9004CF8E7C7F14B
:100C4800200CBB4022FA0CF41C432EFA0CF120FABB
:100C58000CF3B84001434FEA14490EFA07F5B3FB09
:100C6800F9F81FFA84FE09FB18300B0C08FB0EFA82
:100C780043EA00439A4502FA07F240D9E31808F11B
:100C8800FF3004D29A4502D9A8F102002344A3EB0D
:100C98000A0389B2B3FBF9F809FB183308FB0EFE07
:100CA80041EA03418E452CD9611808F1FF3304D27B
:100CB8008E4502D9A8F10203214443EA0040A0FB73
:100CC8000298A1EB0E014145CE46434602D306D118
:100CD8004D4504D2B9EB020E68EB04030138002E2F
:100CE800A6D0B5EB0E0261EB030101FA0CFC22FA67
:100CF80007F34CEA0303F940C6E9003198E7404698
:100D0800C5E74346D9E700002DE9F04FB7B0B6482C
:100D180009F027F900285AD0B44809F022F9002828
:100D28005CD0B34809F01DF900285BD0B14809F040
:100D380018F900285AD0B04804F0ECFBAD48836895
:100D4800DB6804219847002854D1AA4883685B6867
:100D580098470446002851D1A849A94804F0C8FB7F
:100D68003F21A84804F0C4FB4822002124A809F028
:100D780018FE249B6FF0604262F31C03249309233E
:100D88008DF8943005218DF895103F228DF8982024
:100D98009E228DF8992006228DF89A204B208DF8F6
:100DA8009B008DF89C108DF89D2007228DF89E20C1
:100DB80008228DF89F208DF8A0300A238DF8A130E5
:100DC8000B238DF8A2300C238DF8A3301EE08E483B
:100DD80004F08EFB002037B0BDE8F08F8B4804F09C
:100DE80087FBF7E78A4804F083FBF3E7894804F0B8
:100DF8007FFBEFE7884804F07BFBEBE7874804F0CC
:100E080077FBE7E7864804F085FB0134042C10DC07
:100E18000023019300934FF0FF324FF0FF3324A9D2
:100E2800744801F03BF80028ECD07E4804F072FBCF
:100E3800EBE7002321932293239340F2111262F3EC
:100E48001C032193002340F2FF7262F31C032293D8
:100E580021AA7549674801F057F810F11C0F0ED008
:100E6800012686B1002200230FA96F4803F06AFE0D
:100E780006460028F5D16D4804F04CFBF1E76C48B4
:100E880004F048FBECE7002528E06A4900230B60E2
:100E98004B608B60CB600B614B6104EB44035F18C4
:100EA80005EB4502644802EB000C805A9CF80220CE
:100EB800C852BA704E4883681B68082298474FF496
:100EC800FA7005F064FC0134072CDED901350323E0
:100ED800B5FBF3F303EB4303ED1A0136012E01DCF6
:100EE8000024F1E7404C204605F04BFCA5682B692F
:100EF8000DAA0D21204698472B690BAA0E212046E2
:100F080098472B6909AA1021204698472B6907AAF8
:100F18001D21204698470D98FFF7ACFA04460D4668
:100F28000E98FFF7A7FA2EA3D3E90023FFF736FCA4
:100F380002460B4620462946FFF750F904460D465F
:100F48000B98FFF797FA06460F460C98FFF792FAA8
:100F580023A3D3E90023FFF721FC02460B463046C2
:100F68003946FFF73BF982468B460998FFF782FA24
:100F780006460F460A98FFF77DFA19A3D3E900231E
:100F8800FFF70CFC02460B4630463946FFF726F9B8
:100F980006460F460798FFF76DFA80468946089877
:100FA800FFF768FA0EA3D3E90023FFF7F7FB024621
:100FB8000B4640464946FFF711F9CDE90401CDE952
:100FC8000267CDE900AB22462B461C4804F090FA94
:100FD80040F6B83005F0DBFB84E700BFAFF30080D4
:100FE8000000000080842E4154AD000868AD000860
:100FF80040AD00082CAD00080CB400084B069E3F1D
:1010080054B4000868B40008A8B30008BCB30008CA
:10101800D4B30008ECB3000828B4000840B40008B2
:10102800ACB400089CB40008AC010020D8B4000897
:10103800C0B400085804002048B50008ECB4000803
:1010480008B5024B1B68984708BD00BFB8000020D0
:1010580000B585B00A4600230093019302930393D9
:1010680002238DF80230044B01930146684604F0D0
:101078000DFB05B05DF804FB49100008014B186032
:10108800704700BFB800002080B505460E461746D9
:10109800984603F0E1FC034609F04AFD0446DFF8F0
:1010A800189049F80030424639463046A84754F867
:1010B800090000F04FFA00BF0800000082B00D4B95
:1010C8000D4A1A600D4A536843F0010353600C4BF4
:1010D8009A6D42F080529A659B6D03F0805301939C
:1010E800019B084A936843F480439360002002B050
:1010F800704700BF7C0100200024F400002004E0B9
:101108000010024000700040034A536823F00203B5
:1011180053600020704700BF002004E0014B0360CB
:101128000020704754B5000808B5034B1B68984762
:1011380000F048F808BD00BFBC00002030BFFFF732
:10114800FDBF00BF38B50446084D2A46084909F0D6
:101158001AFC0848431E2B44B3FBF0F3064A00214F
:1011680000FB034009F01DFC38BD00BF0000000073
:10117800F0B00008010000000400000070B505464A
:101188000C480D4A0244013AB2FBF0F20B4B0C4CEE
:101198001C44013CB4FBF3F404FB03F300FB0234EE
:1011A8000E1B3046FFF7CEFF083EC5F8A86004F1D5
:1011B800080070BD010000000000000004000000ED
:1011C80004000000044B99685869884203D0034919
:1011D8004FF080520A6070477408002004ED00E068
:1011E80038B51546204B9B6A13F4805F19D1162435
:1011F8001D4B9B6A13F4006F00D018241A4B9B6A8E
:1012080013F4007F10D0184B9A6B9B6A13F4004FAD
:1012180009D0D9B1144A936A23F40043936219247C
:1012280002E01724E4E719240F4B9B6A13F4806F3C
:1012380000D01A240C4B9B6A13F4807F08D10A4B08
:101248009B6A13F4005F04D01C2402E01924EBE726
:101258001B24054A936A43F47F439362012105F0F6
:1012680036FB2870204638BD00ED00E0174B9B6A1E
:1012780013F0007F25D11D20144B9B6A13F0807F4B
:1012880000D01F20114B9B6A13F4002F00D021209F
:101298000E4B9B6A13F4802F00D022200B4B9B6AC5
:1012A80013F4003F00D02320084B9B6A13F4803FBF
:1012B80009D1064A936A6FEA03436FEA13439362BC
:1012C80070471E20D8E72420F3E700BF00ED00E0B8
:1012D80081690D4B5A6942F480725A61BFF34F8F8E
:1012E800BFF36F8F31F8021C5A6922F480725A6179
:1012F800BFF34F8FBFF36F8F4DF60273994201D042
:10130800002070470120704700ED00E070B50446EA
:101318001646324B9B6A13F0100F1AD110252F4B2B
:101328009B6A13F0080F00D012252C4B9B6A13F010
:10133800020F10D0294B586B9B6A13F0800F3DD0D9
:1013480000293FD0254A936A23F08003936213252E
:1013580003E01125E3E76FF01500204B9B6A13F0BB
:10136800010F00D014251D4B9B6A13F0200F00D0ED
:1013780015251A4B9B6A13F0100F04D1174B9B6A63
:1013880013F0020F04D0154B5B6813F4006F1BD1E8
:10139800124B9B6A13F0200F04D0104A536A23F4AF
:1013A800005353620D4A936A43F0FF03936201218D
:1013B800204605F08CFA3070284670BD6FF0150095
:1013C8001325CAE71325C8E7214600F0A3F900282A
:1013D800DED080F309880225DAE700BF00ED00E0DF
:1013E80038B5054600230B701A4BD86A10F0020076
:1013F8002DD10C46DB6A002B2ADB164BD86A10F07D
:10140800804025D02846FFF763FF08B128681FE011
:10141800104B9B6A13F0FF0F0DD10E4B986A10F416
:101428007F400ED10B4B9B6AB3F5803F10D3284603
:10143800FFF71CFF0CE0224601212846FFF766FF54
:1014480006E0224601212846FFF7CAFE00E00020F8
:1014580038BD00BF00ED00E030B58BB00C46264B20
:101468005968C1F30801002383F31188BFF36F8F14
:1014780002F07F43B3F17F4F15D102F00C03082B24
:1014880014D012F0080F0BD000250DF127022046CA
:1014980005F022FA86469DF8273053B10BB030BDCF
:1014A80004460125F1E700252C46EEE700252C46E9
:1014B800EBE70DF1040C20686168A268E368ACE80A
:1014C8000F0020696169A269E369ACE80F0045B1C2
:1014D800C3F308025AB96FEA53236FEA4323089308
:1014E80005E0089B23F4FF7323F00103089301A987
:1014F800704605F0E2F9D1E700ED00E0024A5369D1
:1015080043F010035361704700ED00E0EFF30880EB
:10151800EFF3098101B57246FFF79EFF01BD00BFD9
:1015280000200A490870102080F3118808484FF4F9
:101538000461401880F30988EFF3148002210843FE
:1015480080F31488BFF36F8F00F09EF8B508002071
:10155800C008002008B50A4B9B68834202D008F0F7
:10156800E1FE08BDEFF30583002BF8D0054B5A6860
:1015780042F080525A605A6A22F400425A62EEE7F8
:101588007408002000ED00E00A4A9368C3F8AC0034
:101598006FF00A01C3F8B01007494B6843F0805355
:1015A8004B60002383F31188BFF36F8F9368D3F8E0
:1015B800B00070477408002000ED00E016498A6802
:1015C8004FF030001044EFF3098C80E8F01F102032
:1015D80080F31288BFF36F8F104F4FF000664A698F
:1015E8008A603E604FF0A804141920680C4C2060F3
:1015F800D2F8AC000023C2F8AC3080F3118804B5EF
:10160800104600F017F9BDE8044002F1300090E8F8
:10161800F01F8CF3098870477408002004ED00E07F
:10162800700400201EF0040F0CBFEFF30880EFF3E6
:101638000980816911F8021C0229FFD001B505F063
:1016480040F901BD002807DB00F01F024009012313
:101658009340024A42F82030704700BF00E100E0A2
:10166800002808DB0901C9B200F1604000F56140BB
:1016780080F80013704700F00F000901C9B2014B50
:101688001954704714ED00E008B50F4B0F4A22F0CB
:101698007F029A60BFF34F8FBFF36F8FD3F8882014
:1016A80022F47002C3F88820EFF3148323F00403B4
:1016B80083F31488BFF36F8F02F07EFC03F0B6FB50
:1016C80000F07CF802F0E4FC00ED00E00000000807
:1016D80010B4A2F120040E4942F8081C21F00101BF
:1016E80042F8081C42F8203C019B42F81C3C029B33
:1016F80042F8183C039B42F8143C4FF0807342F8C0
:10170800043C04650023C0F8AC3010BC704700BF2F
:1017180091100008104B9B68BBB110F1160F0BD04D
:10172800D3F89820A2F1400C844510D8824210D9F1
:101738008A4207D800207047D3F898208A4201D8F7
:1017480000207047D3F898007047002070470020A9
:1017580070470020704700BF7408002008B50D4688
:1017680014460A4A9060D0F8A820094B1A6000F085
:1017780061F8204685F30988002163B681F3118852
:10178800BFF36F8F00220023FFF77EFC7408002050
:1017980070040020014910220A60704710ED00E033
:1017A80072B6404080F31188BFF36F8FBFF34F8F3D
:1017B80030BF62B6BFF36F8F704700BF002206E0EC
:1017C80003F00F030949194410230B760132652AE7
:1017D8000ADC53B2002BF3DB03F1604303F56143EA
:1017E800102183F80013F1E7704700BFFCEC00E01C
:1017F80001B5EFF30580A0F110004FEAC0000449DD
:10180800014409C99847BDE801400249084700005A
:101818007CAD0008CD11000808B5034B034A01212F
:10182800034805F0BEF908BD008000200000002034
:1018380054B5000808B5D0F89830403B0448036018
:1018480040234360034B8360012105F0AEF908BDD6
:101858007404002000000B15084AC2F898000B68B1
:1018680023F01F03034343F01003C2F89C308B6836
:1018780043F00103C2F8A030704700BF00ED00E05C
:10188800084BD3F89030C3F30723013B984205D89F
:1018980010B50446FFF7E0FF204610BD6FF01500B5
:1018A800704700BF00ED00E010B5034C012322781B
:1018B80005F076F8207010BDB408002008B50023A4
:1018C8000B4A127805F06CF810F1160F0FD002468B
:1018D80006E0084BC3F898200021C3F8A010013295
:1018E800044BD3F89030C3F307239342F1DC08BDCF
:1018F800B408002000ED00E0044B0522C3F8942052
:10190800BFF34F8FBFF36F8F704700BF00ED00E04C
:10191800BFF35F8F024B0022C3F89420704700BFCB
:1019280000ED00E038B51C4B1D681C4BD3F8903017
:10193800C3F307239D422BD8FFF7EAFF002409E0F1
:10194800154B5B6804EB440103EB81012046FFF76C
:1019580083FF0134A542F3D81148057005F048F813
:1019680010F1160F13D00E4B1A780C4BD3F8903099
:10197800C3F307239A4207DA084BC3F898200021DB
:10198800C3F8A0100132F0E7FFF7B6FF002038BD1A
:101998004FF0FF30FBE700BF60B5000800ED00E046
:1019A800B408002008B5024B1B689847002008BD02
:1019B80080040020034B1860034A937843F0020325
:1019C8009370704780040020C000002008B50649C5
:1019D80021F00701C1F1005202F50042034804F06A
:1019E80019FF002008BD00BF971B002084040020B9
:1019F80038B50546002401E00134E4B26B78A3420F
:101A080016D3287820441F28F6DC01238340094A8E
:101A1800526933EA0202EFD1064A5361064B53F882
:101A28003020002AE8D003EBC00359689047E3E769
:101A380038BD00BF000401409004002000239942F3
:101A48000ADD10B400EB030C044C04F80C2001333D
:101A58009942F7DC10BC7047704700BFD0000020E7
:101A680008B50246054B185601239340044A1168ED
:101A78000B43136004F053FF08BD00BFD0000020E3
:101A8800000401401F2806DC0122824002490B683D
:101A980023EA02030B6070470004014003292ED893
:101AA800DFE801F0020E192401228240144B9968E4
:101AB80021EA02019960D96821EA0202DA607047D6
:101AC800012282400E4B996811439960D96821EA36
:101AD8000202DA60704701228240094BD96811433B
:101AE800D960996821EA02029A607047012383400D
:101AF800034A916819439160D1680B43D3607047DA
:101B08000004014010B40D4B53F830308B4209D01B
:101B18008BB90A4B43F8301003EBC0035A6000201E
:101B280010BC7047054C04EBC00CDCF80440944230
:101B3800EED10020F4E76FF00F00F1E790040020E9
:101B4800034B002243F8302003EBC0035A60704770
:101B58009004002000B583B0436899680A4B9B68DD
:101B6800DB6813B101AA08489847019A42B1074BAC
:101B78001B68B3FBF2F39B0000E0013B002BFCDA8F
:101B880003B05DF804FB00BF14AC00087C01002022
:101B980038B5044681B10D46082911D8012105F050
:101BA800EBF8094B53F82520084B53F8251020462D
:101BB80005F0EAF8002038BD05F0DEF80020FAE765
:101BC8006FF01500F7E700BF6CB6000848B60008CC
:101BD80010B54468084883681B68A168984738B9F5
:101BE800236906498A6822F47C1213438B6010BD6E
:101BF8006FF00400FBE700BF14AC000800030050BE
:101C08002DE9F04147680369D7F80080D3F8B05050
:101C1800002614E00122A24042EA846204EB440355
:101C28001E3B42EA035242F0007297F92930012B19
:101C38001CD00123A34025EA03050136F6B235B3CB
:101C480095FAA5F4B4FA84F40DB94FF0FF340134D1
:101C5800E4B2013CE4B2092CDCD80122A24042EAF9
:101C6800846204EB440342EA0352DEE7094B53F86B
:101C78002610404604F0EBFF074B53F82630D8F8FF
:101C8800302022F00F021343C8F83030D1E700208B
:101C9800BDE8F081D0B6000890B6000800B583B062
:101CA80003460830D3F8883063332CBF4FF0010C5B
:101CB8004FF0000CC3F31302190D41EA0C31114423
:101CC800104AA2FB01E2D20802EB820202EB820276
:101CD8008A1A9B1A6CF1000C0B490C4A03FB02F29E
:101CE80001FB0C22A3FB01310A449B0843EA8273DF
:101CF8009208009301920022002303F057FA03B0E0
:101D08005DF804FB1F85EB51295C8FC2F5285C8FB9
:101D180008B5024805F090FA08BD00BFF0AC00080D
:101D2800F8B50446056947683E681B4808F019F984
:101D380078B3C5F8A040FF2385F8B63085F8B730EA
:101D48002046FFF745FF0021786905F098FA00283A
:101D58001EDBB36823F0204323F03F03B360B3686E
:101D680023F0104323F03F0343F08053B360142063
:101D780008F0E7F87B6803B19847204605F04DF96D
:101D8800F36823F47E63F360284605F0F5F9002034
:101D9800F8BD6FF01200FBE714AC00082DE9F04124
:101DA800069CB3F804C05D88AC441FFA8CFCA58877
:101DB80066883544ADB286B201FB00FE364FA7FBFC
:101DC8000E7ECEF38F1EA6EB0E0E1FFA8EFEE78850
:101DD800774541D2B3F80680F04528BFF046A6EB18
:101DE800080E1FFA8EFE0EF1FF3E1FFA8EFEF44516
:101DF80034D2A6EB0C081FFA88F808F1FF381FFA4E
:101E080088F8DD88454540D3A2F806804FEA5C058E
:101E1800B4F802E0BEEB5C0F04D2B3F802E0AE45C2
:101E280028BFAE46A2F802E0ACEB0E0E1FFA8EFEFB
:101E3800A2F804E09B889E451DD99380ACEB030370
:101E480053804FF47A730CFB0333B3FBF0F08142F9
:101E580019D2401ABDE8F081B846C0E7754508D9DF
:101E6800761BB6B2013E1FFA86F8474510D8AC4635
:101E7800CAE7F446C8E7A3889E45E2D29380ACEB54
:101E880003035380DDE7081AE4E74FF0FF30E1E78A
:101E98004FF0FF30DEE700BFD34D62102DE9F0436D
:101EA8008BB004460F4616461D461298D4F8088093
:101EB80050B1D8F81480139B019300902B4620460C
:101EC800C0470BB0BDE8F0830DF10C0901220021D9
:101ED800484608F0A3FAD8F81480CDF80490094BC6
:101EE800009332462B4639462046C0470028E8D1A1
:101EF8004FF0FF324FF0FF33484602F06FFF09986A
:101F0800DFE700BF3174000810B513468268946992
:101F18000A460149A04710BD3D7400082DE9F0416B
:101F280084B09846866887680D4B9A4215D80D4646
:101F3800144630363A3783689B6A03A9984710B12C
:101F480004B0BDE8F081CDF8048000943B463246E9
:101F58002946039805F0A3F9F2E76FF01500EFE7BB
:101F680040420F002DE9F04184B0984686688768A2
:101F78000D4B9A4215D80D46144648365237836899
:101F88009B6A03A9984710B104B0BDE8F081CDF869
:101F9800048000943B4632462946039805F07FF9B1
:101FA800F2E76FF01500EFE700127A002DE9F04F25
:101FB80097B006468846174699464368D3F818A04E
:101FC8004822002102A808F0ECFC01AA3946304654
:101FD80005F0E1FA88B317B0BDE8F08F9DF80D1051
:101FE80041F010018DF80D1067E0BDF85220C2F3E2
:101FF8008A02029962F31C01029170E09DF80D308B
:1020080013F0010F00F08780DAF8083003EBCB02F9
:1020180053F83B30526813B102A93046984722461C
:102028004946304605F0C3FA0028D4D101AA3946FA
:10203800304605F0B0FA0028CDD1019C14F07F0F8E
:10204800C9D0C4F3052404EBC40508EBC505ADB23B
:1020580073685B69D3F808B0082314AA2946304688
:10206800D8470028B7D19DF85630C3F3030203F0D0
:102078000F038DF80C209DF8532012F0200F05D087
:102088009DF80D1041F002018DF80D109DF85610C5
:1020980011F0200F05D09DF80D0040F004008DF8D8
:1020A8000D0011F0100F05D09DF80D1041F008013A
:1020B8008DF80D1012F0800F90D19DF857B00BF0ED
:1020C8007F0B12F0400F90D0029A149961F31C0212
:1020D80002929DF80D2042F001028DF80D200F2B81
:1020E80028BF0F23104AD35C402B98D89DF80D20A9
:1020F80012F0020F82D105F10801033372685269A8
:10210800956803F4FE7304AA89B23046A8470028EC
:102118003FF474AF5FE7DAF8043003EBCB0253F80F
:102128003B30526877E700BF10B70008F0B583B0BE
:102138000446056910354FF0FF324FF0FF3328464B
:1021480002F062FD01AA1821204605F024FA06468D
:1021580028B1284602F0DCFD304603B0F0BD019AF4
:1021680022F0100201921821204605F020FA0646B6
:102178000028EED101F024FD074601AA18212046C7
:1021880005F009FA06460028E3D1019B13F0080F71
:10219800DFD001F015FDC01B0C4B984208D801AAEE
:1021A8001821204605F0F7F906460028EDD0D0E7BB
:1021B800019A42F0100201921821204605F0F7F921
:1021C80006460028C5D16FF00A06C2E7406603013B
:1021D80070B505692B793BBB06460C4610354FF0A8
:1021E800FF324FF0FF33284602F00EFD2288013AF5
:1021F800A388013B1B0203F47F4343EA4263E2885E
:10220800013A02F07F02134321890139084A02EAA0
:1022180001421A431C21304605F0C9F904462846F4
:1022280002F076FD204670BD6FF00F04FAE700BF9C
:102238000000FF0130B583B00446056901AA5021AA
:1022480005F0A9F980B103B030BD204605F0CFFBF9
:1022580018E0204605F058FA18E001AA5021204657
:1022680005F099F90028EED10D4A019B1A40EAD0F1
:102278005021204605F09BF90028E4D1019B13F07A
:10228800607FE2D1019B13F4805FE2D1019B13F4DC
:10229800004FE2D005F1240002F078FDDDE700BF31
:1022A8000090823B2DE9F04F87B00746884691465B
:1022B8000093D0F804A0DAF81850066909790B469B
:1022C8000F2928BF0F237B4A12F803B00023049379
:1022D800059398F80530C3F340009DF8132060F388
:1022E80045128DF81320D2B263F386128DF81320AD
:1022F8009DF8162061F303028DF81620C3F3C00180
:10230800D2B261F304128DF81620C3F38001D2B261
:1023180061F345128DF81620D2B242F080028DF892
:1023280016200F2B00F2B080326812F0040F03D190
:1023380013F00C0F40F0AB80BBF1400F00F2AA8005
:1023480013F0040F33D098F804300F2B00F2A58057
:102358003379002B00F0A48003A9384605F021F951
:10236800044600287FD1039B13F0800F40F09B8028
:1023780006F12403184601934A46009B02F02EFDFD
:102388000446002840F0928006F13C094FF0FF32E5
:102398004FF0FF33484602F037FC2B7BA3420DDD9C
:1023A8002B68264653F8343053B10134F5E798F8D2
:1023B8000430082BCCD96FF0150454E04FF0FF36E9
:1023C8008DF8176098F8053013F0010F4FD0D8F842
:1023D8000020049B62F31C030493BAF83A1006EB3E
:1023E800C603DB009BB2009319447B685B69DC6819
:1023F800082304AA89B23846A047044668BB98F85F
:10240800053013F0020F13D1BAF83A300099194485
:1024180089B208310BF103037A685269D46803F46E
:10242800FE7308F1080289B23846A0470446A0B9ED
:102438002B68109A43F836202B6803EBC603119AD1
:102448005A600122B240D021384605F0B0F804465F
:10245800B0B12B68002243F83620484602F058FCF9
:10246800019802F093FC204607B0BDE8F08FD8F839
:102478000020BDF8123062F38C03ADF81230ACE7DF
:10248800484602F045FCEEE76FF08504EBE76FF095
:102498008504E8E76FF01504E5E76FF01504E2E757
:1024A8006FF07204DFE76FF07104DCE76FF00A0485
:1024B800D9E700BF10B70008F0B589B004464668F0
:1024C800B7690569002305930693ADF81C3002939C
:1024D8000393ADF8103005F1100007F098FF05F1EF
:1024E8003C0007F094FF05F12400397B0A4607F009
:1024F80095FF306820B107F034FD002800F0028114
:102508002046FFF713FE002840F0FF804FF47A7250
:102518000023204605F09FF8002840F0F980204667
:1025280005F091FB01AA1821204605F034F803466E
:1025380010B1184609B0F0BD019A22F469720192EF
:102548001821204605F033F803460028F1D101AAE6
:102558001021204605F01FF803460028E9D1019A0A
:1025680022F0100201921021204605F020F80346BF
:102578000028DED101AA0C21204605F00CF80346FC
:102588000028D6D1019A42F4000201920C2120467B
:1025980005F00DF803460028CBD101AA48212046B2
:1025A80004F0F9FF03460028C3D196F84920120227
:1025B80002F4FE42019B1A4301924821204604F08E
:1025C800F6FF03460028B4D101AA8021204604F072
:1025D800E2FF03460028ACD1019A42F02803019398
:1025E80042F02B0201928021204604F0E0FF0346CE
:1025F80000289ED1B389002B48D1B6F84230002B71
:102608004FD1F389002B5FD196F84730002B66D164
:1026180005A9204604F033FF00287CD102A92046F2
:1026280004F03EFF002879D13E4A01925421204609
:1026380004F0BDFF034600287FF47BAF9922019286
:102648005821204604F0B3FF034600287FF471AFF9
:10265800032201925C21204604F0A9FF03460028CA
:102668007FF467AF4FF0FF320192E021204604F07B
:102678009EFF034600287FF45CAF63685B691B69B3
:10268800F26B002120469847034652E7B26805A935
:102698002046FFF743FC10F1160FB2D16FF0040388
:1026A80047E7B6F84020ADF814200022ADF8162010
:1026B800ADF81830B6F84430ADF81A30B26805A94C
:1026C800204604F0BEFE9CE7326902A92046FFF7C7
:1026D80049FC10F1160F9BD16FF0040329E796F817
:1026E8004620ADF808200022ADF80A20ADF80C30DD
:1026F80096F84830ADF80E30326902A9204604F049
:10270800A0FE85E76FF0120313E76FF0040310E7EC
:102718006FF004030DE76FF012030AE76FF012037E
:1027280007E700BF99908203F82842D8A8282ED33B
:10273800A0F1A803502B3CD8DFE803F0573B3B3B04
:102748003D3B3B3B3D3B3B3B413B3B3B433B3B3BBF
:102758003D3B3B3B3B3B3B3B3B3B3B3B3D3B3B3BBD
:10276800453B3B3B473B3B3B493B3B3B4B3B3B3B7D
:102778004D3B3B3B4F3B3B3B513B3B3B3B3B3B3B65
:102788003B3B3B3B3D3B3B3B533B3B3B5500842862
:102798000FD00ED3A4280CD888280BD3A0F1880218
:1027A80092B201239340134A1A4002BB13F0805F90
:1027B80003D1704770478420704790207047982055
:1027C80070479C207047C8207047CC207047D020A5
:1027D8007047D4207047D8207047DC207047E0202D
:1027E8007047E4207047E8207047942070478420A1
:1027F800DFE700BF0101110110B50C464FF0407032
:1028080001F096FA78B1094AD2F8002512B9206089
:10281800002010BD054AD2F800255200B0FBF2F3A3
:1028280023600020F5E76FF00400F2E70060004045
:1028380038B504464368DD6C0D4807F092FBA0B13B
:102848000B4883681B68E9689847002802DB2B7EE1
:102858000BB9002038BD204605F0F5F92B7E5B0842
:10286800044AC2F800350020F4E76FF01200F1E7DF
:1028780014AC000800600040104B1B6813F4806F14
:102888000ED10E4A136843F48073136001E0012BE4
:1028980006D00A4B1B6813F48063F8D00123F6E7CF
:1028A800064A936823F0030343F001039360034B44
:1028B8009B6803F00C03042BF9D170470010024009
:1028C8001B4B1A6822F480221A601A6842F480327C
:1028D8001A6001E0012A06D0154B1A6812F400327A
:1028E800F8D00122F6E71249D1F8943043F00103F9
:1028F800C1F8943001E0012B07D00D4BD3F8943088
:1029080013F00203F7D01346F5E70949D1F89820E8
:1029180042F00102C1F8982001E0012A07D0044AD8
:10292800D2F8982012F00202F7D01A46F5E770475D
:102938000010024010B51C4B9B6803F00C030C2BD5
:102948001FD0194C236823F080732360E36823F0B9
:10295800805323F4003343F08053E360E36843F487
:102968008033E360E36823F4C003E360E36843F47F
:102978008013E36000F0FAF8236843F08073236063
:1029880009E0FFF779FF084A936823F0F0039360A2
:10299800D7E7012B06D0044B1B6813F00073F8D05F
:1029A8000123F6E710BD00BF0010024038B500F063
:1029B800FDF801F01BF91E4B9B68C3F303131D4A76
:1029C800D35C03F01F0320FA03F5137803F01F0309
:1029D800194C1C41A54222D3FFF772FFFFF7AAFF4B
:1029E800134B9A6822F0F0029A609A6842F0030248
:1029F8009A600F4B9B6803F00C030C2BF9D1A5428E
:102A080011D20E4B0C4A1A60094B9A6822F4E06204
:102A18009A609A6822F460529A60002038BD204675
:102A280001F0B4F9D8E7204601F0B0F9E9E700BFB2
:102A38000010024044BC000880FE210A7C010020EE
:102A480070B50C461546444B1E680121304605F00A
:102A580005FC2368082B79D0013B5F2B79D8DFE888
:102A680003F03C5D6065716D68783F49537878780C
:102A780078787878787878787878787878787878CE
:102A880078787878787878787878787878787878BE
:102A980078787878787878787878787878787878AE
:102AA800787878787878787878307878783078782E
:102AB8007833787878787878783678787836787857
:102AC80078392E60002046E02E60002043E0286020
:102AD800002040E0286000203DE02E6000203AE021
:102AE80000F040F802235522042105F0B0FB2860CD
:102AF800002030E000F036F802235522042105F0CA
:102B0800A6FB2860002026E000F02CF802235522BE
:102B1800042105F09CFB286000201CE000202860B0
:102B280019E04FF4FA432B60002014E000202860DD
:102B380011E005F096FB286000200CE0074B2B60A5
:102B4800002008E0064B2B60002004E06FF08500B1
:102B580001E06FF0850070BD7C0100200024F400C6
:102B6800006CDC02004870470024F40008B50C4AE9
:102B7800D2F8803023F48073C2F8803005F0EBFB84
:102B8800084AD168084B0B4040F4AA4040F0300096
:102B98000343D360D36843F08073D36008BD00BF9C
:102BA80000700040001002400C80FFF982B0064B14
:102BB8009A6D42F080529A659B6D03F080530193A1
:102BC800019B02B0704700BF0010024010B50446D8
:102BD8000A2806D0E1B2064883685B689847204611
:102BE80010BD034883685B680D219847F2E700BF72
:102BF800DCAC000810B5044C2046FEF7DBFE20468E
:102C0800FEF73CFA10BD00BFD52B000808B50548F3
:102C180007F0A7F918B1FFF7EDFF002008BD6FF026
:102C28001200FBE7DCAC000808B5436831B107487F
:102C38008268126803F10C01904708BD0348826856
:102C4800526803F10C019047F7E700BF14AC000885
:102C580001F0030C0CF102020B4B53F822200B0C71
:102C680022EA114193FAA3F35BB1B3FA83F303F0B9
:102C78001F03984001430CF1020C034A42F82C1040
:102C880070472023F3E700BF0000014070B582B011
:102C980004460D460A4A6B4692E8030083E803009F
:102CA80008488268126819469047064610B13046AF
:102CB80002B070BD2946204605F013FDF7E700BFB6
:102CC800F0B0000814AC000800F003030233084A0F
:102CD80052F82320030C02EA104093FAA3F32BB115
:102CE800B3FA83F303F01F03D84070472023F9E7B2
:102CF80000000140F8B50C46114647680269B1F575
:102D0800001F1FD01D46B1F5800F34D01D49204645
:102D1800FEF7F8FE064688BB2146B868FFF7B6FFFF
:102D2800B5F1806F23D0B5F1C06F22D0B5F1007F27
:102D38001BD031462046FEF7B1FE2046FEF790FE36
:102D48003046F8BD204605F0E3FCBB68984201D048
:102D58000026F5E72046FEF795FE2046FEF7F0FE32
:102D680000212046FEF79AFEF2E70221E2E7012160
:102D7800E0E70321DEE76FF08506E1E76FF00F0675
:102D8800DEE700BF2784000810B5044603695860D1
:102D9800074807F0E6F838B101212046FFF744FF5D
:102DA800002800DB002010BD6FF01200FBE700BF19
:102DB80014AC0008104B984213D00AD90F4B984214
:102DC80015D003F5C31303F52063984211D10A20E7
:102DD80070470B4B984206D00A4B984205D1042005
:102DE800704706207047022070470020704708206F
:102DF80070470020704700BF40420F0040E1330099
:102E0800A0860100801A06002DE9F84F8A46476817
:102E1800D0F81090D7F80CB0002400E00134FB691A
:102E2800A3421AD9BE6904EB44054FEA850806EBAC
:102E380085056868FFF7BEFFD9F830305B0883EA7C
:102E4800500313F0070FE9D156F808305345E5D180
:102E5800AB68CBF81030002049E0D9F83030C3F324
:102E68004203012B0BD0022B47D140F214554FF4EB
:102E780016774FF4FA7640F2771C01210BE041F205
:102E88005C254FF47A6740F2E2464FF4FA7CF4E7A7
:102E980001310F292FD8BAFBF1F21B4BB3FBF2F328
:102EA800B7FBF3F2B5FBF3F0BCFBF3F4B6FBF3F3BB
:102EB800013AFF2AECD80138FF28E9D80F2C18D896
:102EC800013B0F2B15D84D1E1B0503F4700343EA75
:102ED8000573240404F470242343120292B21343AA
:102EE800C0B203430F290BD8CBF810300020BDE83F
:102EF800F88F0131CDE70023F4E76FF01500F6E70E
:102F08006FF01500F3E700BF00CA9A3B104B9842D8
:102F180013D00AD90F4B984215D003F5C31303F504
:102F28002063984211D10A2070470B4B984206D073
:102F38000A4B984205D104207047062070470220AA
:102F4800704700207047082070470020704700BF76
:102F580040420F0040E13300A0860100801A0600BD
:102F680010B544680021606905F079FE002805DB8A
:102F7800044883681B686168984700B910BD6FF002
:102F88000400FBE714AC0008F0B583B00E464368B4
:102F98000569DF68002201925968194B9B68DB6854
:102FA80053B3044601AA16489847002824DB2E6329
:102FB80005F118064FF0FF324FF0FF33304601F0AD
:102FC8000DFF3B6823F001033B6095F85210204643
:102FD80005F055FE01992046FFF716FF044695F8BF
:102FE80051301BB13B6843F001033B60304601F0B0
:102FF800CDFE204603B0F0BD6FF00404F9E700BF32
:1030080014AC000870B50446466805694FF0FF32F5
:103018000021284607F002FA336820469847002323
:1030280085F8503085F8523005F118000122114614
:1030380007F0F4F90C4806F094FF88B12046FFF732
:103048008FFF3069FFF762FF40F010012046FFF75D
:103058009BFF002803DB012385F85030002070BD5A
:103068006FF01200FBE700BF14AC00082DE9F04137
:1030780084B00E46154605F017FE044690F8200069
:1030880094F82170A2690292E169039102AB00935E
:103098000123019394F82230DB004FF0000CA5FBCC
:1030A800033EBEF1000F06D1BCF1000F06D19942D4
:1030B8000CD2002303E04FF0010CF5E700233BB1ED
:1030C8004FF00008A84542D2002128E00123F6E786
:1030D8006FF00B0543E008EB480316F803E0002304
:1030E8000FE008EB4803334493F801E0F7E708EBF7
:1030F8004803334493F802E0F1E7BC4602F803C002
:103108000133072B08DCC3F1070C2EFA0CFC1CF06A
:10311800010FF2D08446F1E708320131C9B294F8C0
:1031280022308B4210D9636A13F801E0BEF1030F15
:1031380019D801A353F82EF0E7300008DF30000853
:10314800EB300008F730000808F10108BAE76946D3
:10315800204605F09FFD0546208D01F047FC2846D6
:1031680004B0BDE8F0816FF01505F8E7AF2817D86F
:10317800F8B504460D46164603090B4A52F8237063
:103188005FB1384606F0EDFE38B133462A4604F002
:103198000F01384605F0D3FAF8BD6FF01200FBE7CF
:1031A8006FF01500704700BF28BA000870B5C36BF0
:1031B80003EB830C0CF1800C4FEA2C2C0388A1EB59
:1031C800031290F904E00CFB0EFE2A4C84FB0E134C
:1031D8004FEAEE7ECEEB631EA2EB6E02B0F802E081
:1031E80090F905100CFB01F184FB0153C917C1EBE1
:1031F800631190F906300CFB03F384FB0365DB17BE
:10320800C3EB65130CFB03F39D1184FB0565DB170A
:10321800C3EB6513194401F5804101FB0EFE4FEA2B
:10322800AE2E0EFB02F2C17990F908300CFB03F3C5
:1032380084FB0354DB17C3EB641303EBC1131B11AB
:10324800911301FB01F1891201FB03F302EB630304
:103258009B124FF47A7202FB03F30749B1EB233F49
:1032680004DB1A13002A02DA002200E0024A026391
:1032780070BD00BF1F85EB51A086010038B504461C
:1032880090F92700C3179D0045EA90754FEA800C16
:103298001CEB000C43EB050340F23C501CEB000C0C
:1032A80043F10003154850F82150ACFB05C005FB5D
:1032B80003004FEA1C4C4CEA004C0514D20312F1EF
:1032C8007F4263EB030312EB0C0243EB20430C48F1
:1032D80050F82100A0FB0CC100FB05114FEA5C2C43
:1032E8004CEAC15C500840EAC3705D1010EB0C005A
:1032F80045EB6121FDF73AFB606338BDBCBA0008B5
:103308007CBA000810B50246B1F5C87F01D94FF460
:10331800C87192F90C3003EB830303EB8303214854
:1033280080FB0340DB17C3EBA01C92F9093003F5BF
:103338004473B2F90A0000F5163000F2991000FB48
:1033480001F1194880FB014EC917C1EBEE0101F5E7
:10335800481180FB01E0C917C1EBA00101FB03F391
:1033680003EBD373581000EB0C2092F8253004338C
:1033780090FBF3F092F9263003EB831203EB420340
:1033880003F5803390FBF3F0FA3800EB00104000AF
:103398003230064B83FB0023C017C0EB6310C0B26A
:1033A80010BD00BFD34D6210676666661F85EB517E
:1033B80003690D3910294FD8DFE801F009234E368B
:1033C8004E4E4E4E4E4E4E4E4E4E4E4E490000B54F
:1033D800996A234880FB01ECC917C1EB6C11116095
:1033E800996A80FB0130CB17C3EB6013642000FBA4
:1033F800131342F2107101FB03F3536000205DF8D0
:1034080004FBD86A1749A1FB00C080091060D86A7C
:10341800A1FB00139B094FF47A7101FB130301FB15
:1034280003F3536000207047186B0E49A1FB00C0DE
:1034380080091060186BA1FB00139B094FF47A7187
:1034480001FB130301FB03F35360002070475B6B20
:1034580013600020506070476FF08500704700BF10
:103468001F85EB51D34D62100369112915D11988B5
:10347800C1F30B03090B8B40094880FB0310D917D4
:10348800C1EB60111160642000FB113342F210712E
:1034980001FB03F35360002070476FF0850070470D
:1034A8001F85EB512DE9F84305460C46D0F80480FA
:1034B8000369D3F804900B79012B14D0022B15D192
:1034C8004FF480616279012A15D0022A15D07AB1A9
:1034D8004FF40056A779022F12D0042F16D0002BD4
:1034E80061D1002014E04FF4C061EBE70021E9E767
:1034F8004FF48056EEE70026ECE74FF44056E9E734
:103508000BB1002004E04FF0805001E04FF48050F0
:10351800A3F1030C5FFA8CFCBCF1010F62D90BB16B
:10352800042F62D0B6F5805F42D0B6F5405F41D037
:10353800002E3BD003239A425AD105F0E7FF874279
:1035480059D1E379C3B1012B36D0032B56D1D8F822
:1035580000302D4A93420FD0A2F5744293420BD00B
:1035680002F58062934207D002F58062934203D04D
:1035780002F55052934244D1D8F80020136823F042
:10358800010313602146284605F0D5FFD8F800202E
:10359800136843F00103136094E8030089E803000B
:1035A8000020BDE8F8834FF48050B1E70123C2E75B
:1035B8000023C0E70223BEE7D8F8002012498A4258
:1035C800DAD0A1F574418A42D6D001F580618A42E9
:1035D800D2D001F580618A42CED001F550518A429D
:1035E800B3D1C9E76FF08500DBE76FF08500D8E756
:1035F8006FF08500D5E76FF08500D2E76FF08500A2
:10360800CFE76FF08500CCE70038014008B5024AE3
:1036180006F08EF808BD00BF9F97000800B583B07C
:103628008DF80710034A0DF1070106F095F803B06D
:103638005DF804FBA797000838B545680469074892
:10364800206006F08EFC28B1206883681B68E96852
:10365800984738BD6FF01200FBE700BF14AC0008B4
:1036680070B50546446803695E682268136823F0EC
:1036780001031360606806F074FC00287ED0A1681E
:10368800606805F00EFF226852E8003F43F00C0323
:1036980042E800310029F7D13146284605F04BFFB2
:1036A800237D23B12268936843F008039360637D08
:1036B80023B12268536843F400435360A37D23B1C8
:1036C8002268536843F480335360E37D23B1226852
:1036D800536843F400335360237E002B30D02368B3
:1036E800294A93420FD0A2F5744293420BD002F5B7
:1036F8008062934207D002F58062934203D002F5BC
:10370800505293423DD16B681A68936843F48043E2
:1037180093602268617E136823F0787343EA41530B
:1037280013602268A17E136823F4F81343EA014367
:103738001360E37E23B12268936843F400439360E7
:10374800237F23B12268136843F000531360226873
:10375800136843F00103136000E03BB92168CB69AB
:1037680013F40013F9D00123F7E72AB9CA6912F450
:103778008002FAD01A46F8E7002070BD6FF01200F8
:10378800FBE76FF01500F8E700380140F0B58BB0A3
:103798000D46D0F804C0066902AC654F0FCF0FC4C0
:1037A80097E80F0084E80F00DCF800403368AB426C
:1037B80000F0B680AB88C3F34512082A02D0102A5D
:1037C80040F0B08013F4004F19D1636823F0100360
:1037D8006360DCF80C10574B9B68DB68A3B101AA47
:1037E8005448984700280FDB01231846082B0ED8A9
:1037F800019ADA402968914209D20133F5E76368F2
:1038080043F010036360E4E76FF0040053E0082816
:1038180000F28B80226822F040022260013B0AAA53
:1038280002EB830353F8203C226822F0380213434A
:103838002360AB8813F0020F3FD0236843F00203E4
:103848002360AB8813F0040F3CD0236843F00103D6
:103858002360236823F444432360AB8813F0100FDC
:1038680035D0236843F080032360236823F4005392
:103878002360AB68002B2FD0236843F400732360C8
:10388800636823F004036360AB8813F0010F3BD037
:10389800236823F482732360AB88C3F34513082B92
:1038A80037D0636843F470636360636843F480539C
:1038B8006360356000200BB0F0BD236823F002037D
:1038C8002360BEE7236823F001032360C1E7236870
:1038D80023F080032360C8E7AB8813F0010F08D0FA
:1038E800236823F400732360636823F00403636090
:1038F800CAE7236823F4007343F4802323606368D2
:1039080043F004036360BFE7236843F482732360D2
:10391800C2E7636823F4706343F4E0636360C4E759
:103928000020C8E76FF08500C5E76FF01500C2E713
:10393800F8B0000814AC000838B5056944680F48A9
:1039480006F00FFBB0B10D4883681B68E168984723
:1039580000280EDB0021606806F0E3FA002808DB87
:10396800284606F0C2FA002803DB284606F007FAC4
:10397800002038BD6FF01200FBE700BF14AC000850
:103988004FF0E023996918699A6909B90C4B1968CD
:103998000AB90B4B1A6810F4803F01D1914208D242
:1039A80008490B680648006803440B604FF0E023A1
:1039B8001B69034B1B689B1A024A1068184470471E
:1039C8006C080020680800200A4B102283F8232086
:1039D800094B44F268221A600020084B18604FF027
:1039E800E02344F267225A6198611A6942F007029B
:1039F8001A61704700ED00E06C080020680800209C
:103A080010B5FFF7BDFF11480368114A51681468E3
:103A18001B1941F1000113605160002202600D4939
:103A28000A68981A0C4BA3FB0030800B44F26823F9
:103A380000FB03F3D2184B6843F100030A604B60A4
:103A480001F0B0FAFDF7BEFB10BD00BF680800200A
:103A5800E8010020E0010020A548B9F6F8B50029E2
:103A68004CD0B0F1FF3F3ED03F4B1C6801284DDDE4
:103A780040F2DA339842A8BF1846461E4FF01003AA
:103A8800EFF3118583F31288BFF36F8FFFF778FF89
:103A98004FF0E0239F69354A13685168C31841F114
:103AA8000001136051600021314A1160314A1168E8
:103AB8005A1A2DD444F2682000FB062202F58442EB
:103AC80067322D4EA6FB0262920BC91A00FB021147
:103AD80040F226438B4238BF0B46284A914235D9DB
:103AE800214B1A6018E04FF0E022136923F001031C
:103AF80013611D4B4FF07F421A6026E01A4B1C6879
:103B0800B0F1FF3FB2D140F2D930B1E70026B5E7B6
:103B1800154B40F226421A604FF0E0239969124A89
:103B28001268013A5A6100229A618F4211D2641ACE
:103B38003C440E4A136851681B1941F10001136097
:103B4800516085F31188BFF36F8FF8BD064A136083
:103B5800E2E77F1A054A13685168DB1941F1000151
:103B680013605160EDE700BF6C080020E8010020F9
:103B780068080020E0010020A548B9F62882FF0067
:103B880038B54FF01003EFF3118583F31288BFF3B4
:103B98006F8F084B1C68084B1B68E41AFFF7F0FE90
:103BA800204485F31188BFF36F8F044BA3FB0030CB
:103BB800800B38BDE8010020E0010020A548B9F6D7
:103BC80038B54FF01003EFF3118583F31288BFF374
:103BD8006F8F054B1C68FFF7D3FE204485F31188CF
:103BE800BFF36F8F38BD00BFE80100201E4B9B68F4
:103BF80003F00C03042B33D01B4B9B6803F00C031E
:103C0800082B2FD0184B9B6803F00C030C2B01D00A
:103C180000207047144BDA6802F00302DB68C3F334
:103C280003130133032A11D01048B0FBF3F00E4BF5
:103C3800DB68C3F3062303FB00F00B4BDB68C3F31D
:103C4800416301335B00B0FBF3F070470748B0FBFA
:103C5800F3F0054BDB68C3F3062303FB00F0ECE746
:103C68000248704701487047001002400024F400E1
:103C7800044B9B68C3F30313034AD35C03F01F038D
:103C8800D84070470010024044BC0008044B9B68B1
:103C9800C3F30223034AD35C03F01F03D8407047E1
:103CA800001002403CBC00080A4AD368D068C0F340
:103CB8000620094B03FB00F0D368C3F30313013359
:103CC800B0FBF3F0D368C3F3416301335B00B0FB8F
:103CD800F3F07047001002400024F40008B5054BCB
:103CE8009B6803F00C030C2B01D0034808BDFFF7B9
:103CF800DBFFFBE7001002400024F4000A4AD36807
:103D0800D068C0F30620094B03FB00F0D368C3F367
:103D180003130133B0FBF3F0D368C3F3415301330A
:103D28005B00B0FBF3F07047001002400024F40081
:103D380008B5144BD3F888301840B0F1807F0DD007
:103D4800B0F1007F16D010B14FF0FF3008BD0D4B19
:103D5800186810F40030F9D00B48F7E7094B1868D9
:103D680010F00070F2D0D86810F48010EED0FFF791
:103D7800C5FFEBE7FFF7B2FFFFF77AFFFFF786FF14
:103D8800E4E700BF001002400024F400421E2B4B61
:103D98009A4251D82A4B1B6803F4C063B3F5007FDD
:103DA80007D0284B98422ED8274B984240D800215C
:103DB8002AE0264B984216D8254B984215D8254B11
:103DC800984214D8244B984213D8244B984212D8BE
:103DD800234B984211D8234B984210D8224B984233
:103DE8000FD8002110E008210EE007210CE0062181
:103DF8000AE0052108E0042106E0032104E002218D
:103E080002E0012100E00221184A136823F00F03A1
:103E18000B4313600222154B1B6803F00F03013A92
:103E2800994201D0002AF6D1994203D00120704767
:103E38000121E9E700207047012070477FFE210A31
:103E4800007000400024F40000127A00006889091C
:103E5800003B5808000E270700E1F50500B4C4042C
:103E680000879303005A6202002D310100200240AE
:103E7800034B00E01433034A9342FBD3704700BF5F
:103E880014AC00087CAD000838B54FF01003EFF310
:103E9800118583F31288BFF36F8F064B9C6806F079
:103EA80079F885F31188BFF36F8F2046FDF752FB31
:103EB80038BD00BF7408002070B50646134B53F890
:103EC800204009E0434219E0EA681370EA68537831
:103ED80043F0010353700834731C0C4A52F8233022
:103EE800A34212D965686DB12368002BEED028462D
:103EF800984703460028E9D00028E3DBFF2BE3DDE1
:103F0800FF23E1E723689847E5E770BD64BC000834
:103F180010B586B0B823114C03FB004400EB400CED
:103F280000EB80000E4B03EB80030E4A0592012242
:103F380004920F22039200220292019200930A4BEC
:103F48004FF4A072094901EBCC11204600F024F986
:103F5800637B23F00403637306B010BDF0010020F7
:103F68007408002054BC0008D3A3000800110020E6
:103F780008B50A4B01221A700320FFF79DFF01F0D4
:103F880057F90420FFF798FF00F06AF9FCF7BCFE28
:103F9800034A137B23F00103137308BDB5080020FF
:103FA800A802002008B50146014A0248FDF7D6FBE1
:103FB800793F0008A802002008B50348034A121AEE
:103FC800002105F0EAFF08BDE0010020B808002044
:103FD80010B50446FFF79CFFB823114903FB0411F1
:103FE800104A04EB840302EB8303D9601C7404EBCE
:103FF80044110D4B03EB811303F5046304EB8404B4
:1040080002EB84025360094BBFF35B8F53E8001F38
:10401800013143E80012002AF8D1BFF35B8F10BDCD
:10402800F001002074080020C0080020700800205B
:1040380070B586B000F008FC104D114B5D61114B56
:10404800059301230493002403940294019400949B
:104058000D4B4FF480620D49284600F09DF8064646
:104068006B7B23F004036B73284606F064F8204644
:10407800FFF7AEFF304606B070BD00BFA8020020B3
:10408800740800205CBC0008793F000880120020FA
:1040980000B5AFB00020FFF70FFF1C4B83F3088873
:1040A8001B4C636943F400736361F02384F8223086
:1040B8000025E57725766576A57684F82050636A2D
:1040C80043F4E0236362FDF719FAFDF763FB4FF051
:1040D800FF33A362E362FDF725FCFDF79DFB012496
:1040E8008DF80D408DF80C40269527952995094B9C
:1040F800C3F808D0FFF7BCFE2046FFF7DDFE02201C
:10410800FFF7DAFEFFF794FFFFF74CFF00110020DE
:1041180000ED00E0740800204FF01003EFF3118168
:1041280083F31288BFF36F8F0A4B1B6A834204D153
:104138005A6F084B1A6207E0134613B15A6F82424E
:10414800FAD10BB1426F5A6781F31188BFF36F8FB1
:10415800704700BF7408002010B5044640B11F2204
:1041680004F1780006F0D6FA002084F8970010BD14
:10417800014B9C68F3E700BF7408002008B553EAB8
:10418800020102D105F037FF08BD0249183000F0DE
:1041980089FEF9E7F5A100082DE9F04F85B004463E
:1041A8000F4615461E46DDF838A0DDF83C90DDF8D0
:1041B8004080DDF84CB000F158038365C365129B5D
:1041C8000422119905F01BFF2A463946204605F0BE
:1041D800F2FE0546CDF80880CDF80490CDF800A091
:1041E8003346024639462046FDF772FA00236365D6
:1041F8006666C4F868A0C4F86C90C4F870804FF084
:104208001003EFF3118283F31288BFF36F8F134B00
:10421800196A61671C6282F31188BFF36F8FBBF163
:10422800000F13D01F22594604F1780006F072FAE5
:10423800002384F89730094B9B685BB1D3F8A4300E
:10424800C4F8A430284605B0BDE8F08F002384F8F0
:104258007830F0E7C4F8A430F4E700BF7408002011
:1042680010B586B0184C14E0636A0593236A04936A
:10427800E3690393A3690293636901932369009334
:10428800E368A26861682068FFF786FF23685C65B9
:1042980030340E4B9C42E7D300F0B4F80A4C00E0EF
:1042A80030340A4B9C420BD2A26AE36AB3F1FF3F57
:1042B80008BFB2F1FF3FF3D02068FFF75FFFEFE7D9
:1042C80000F052FA06B010BDACB00008ACB000085F
:1042D800C3897F2B11D80E4B1B687BB190F90E2038
:1042E8000C4B1B689A420CDB437B13F01F0F0AD15F
:1042F800094B984209D0012300E0002303F0010094
:1043080070470023FAE70023F8E70023F6E700BF29
:10431800A4080020A0080020F0010020044BC01AC7
:10432800C010044B03FB00F0034B01221A547047E2
:1043380060030020ABAAAAAA9C080020B3F1FF3FA3
:1043480008BFB2F1FF3F00D1704708B502491830E5
:1043580000F0A8FD08BD00BFF5A1000870B505462E
:104368000D4B1E7C06EB46030C4C04EBC3042046A5
:1043780006F09BF80A4B00229A552846FFF7A8FF3B
:1043880000B970BD074B1A68013AD3170649204691
:1043980000F088FDF5E700BF7408002060030020E6
:1043A8009C080020A40800202543000808B50B46F7
:1043B80059B9EFF3058242B9064A506992689042AA
:1043C80003D00846FDF7E0F803E083F31188BFF354
:1043D8006F8F08BD7408002008B5034650B9EFF385
:1043E80005823AB9064A51699268914202D0FDF7AE
:1043F800CBF803E083F31188BFF36F8F08BD00BFCC
:104408007408002000234FF01002EFF3118182F3AB
:104418001288BFF36F8F09E0064B9A68D37B013B84
:10442800D37381F31188BFF36F8F0123002BF3D06F
:10443800704700BF7408002038B50446104805F0DE
:1044480073FE054670B184B90E4B9B685A7B12F017
:104458001F0F0AD1AA6942B9DA897F2A05D9094A00
:1044680053610BE0074BDD68EDE7064B9B68AB42F9
:1044780002D02846FFF772FF024B5D6138BD00BFCE
:104488008C0800207408002038B50546427B90F956
:104498000D30002B0ADB6B7B63F07F036B731B4BC8
:1044A80053F8184F9C4210D100240EE002F07F020E
:1044B80042730146164805F003FEECE763686B603B
:1044C8002C601D60656017E000246CB12146284609
:1044D80005F0C6FD0028F1DC002CF6D00B4BDB699B
:1044E8009C42F1D02468F0E7084BDA6903F118011F
:1044F80029606A601560DD61044B9868A84214BFA2
:1045080000200120FFF798FF38BD00BF7408002085
:104518008C08002038B54FF01002EFF3118382F3B6
:104528001288BFF36F8F1D46144B9C68144B1B6891
:10453800A34217D0124B00221A60104B1B7C114A61
:10454800D35C53B12046FFF7C3FE30B1637B13F051
:104558001F0F0FD02046FFF701FF85F31188BFF327
:104568006F8F38BD2046FFF7F9FE85F31188BFF33A
:104578006F8FF6E72046FFF787FFEBE77408002008
:10458800980800209C080020427B90F90D30002BF1
:1045980033DB70B5044612F01F0F01D1866906B1EE
:1045A80070BD62F07F024273144B53F8185F9D424E
:1045B80008D1354606E06B68636025601C606C6056
:1045C80017E035466DB12946204605F049FD00281B
:1045D800F1DC002DF6D0094BDB699D42F1D02D6846
:1045E800F0E7064BDA6903F1180121606260146094
:1045F800DC610020FFF720FFD2E770477408002035
:1046080010B54FF01003EFF3118483F31288BFF352
:104618006F8F437B13F0040F04D184F31188BFF329
:104628006F8F10BD23F004034373FFF7ADFF2146DE
:104638000148FFF7BBFEF4E7A808002010B50446C0
:10464800427B90F90D30002B08DB084B9868A0429C
:1046580014BF00200120FFF7EFFE10BD02F07F021B
:1046680042730146024805F02BFDEEE7740800206E
:104678008C08002010B50C4611460A4882680A4B7F
:104688001A604FF01002EFF3118382F31288BFF320
:104698006F8FDDE90223806805F0D9FD2046FCF71D
:1046A80073FF10BD74080020980800202DE9F84316
:1046B80005460F4600234FF01002EFF3118682F3F0
:1046C8001288BFF36F8F184629E063686B602C600F
:1046D8001D60656017E044466CB12146284605F028
:1046E800BFFC0028F1DC002CF6D01D4BDB699C4296
:1046F800F1D02468F0E71A4BDA6903F11801296050
:104708006A601560DD610120FFF796FE012001E077
:10471800AF73002086F31188BFF36F8F0123E3B9CD
:104728006B7B13F01F0FF3D1D5F81880B8F1000F89
:10473800EED103F07F036B73DFF8289029464846D3
:1047480005F0BEFCAF736B7B63F07F036B73D9F826
:1047580000404C45C0D14446BEE7BDE8F88300BFE1
:10476800740800208C08002010B500234FF01002B8
:10477800EFF3118482F31288BFF36F8F0CE0094BBB
:104788009A68D37B0133D3730020FFF755FE84F377
:104798001188BFF36F8F0123002BF0D005F084FC44
:1047A80010BD00BF7408002038B5437B0B4213D1FD
:1047B80004460D460B43437303F09F02427312F005
:1047C800800F0AD1082D10D00120FFF735FE102DDB
:1047D80002D02046FFF7A0FC38BD03F01F03437347
:1047E8000146094805F06CFCECE7A36813B12046C4
:1047F80005F06EFC04F1180005F057FE04F15800AE
:1048080005F0B5FCE0E700BF8C08002038B5044689
:104818000D4662B108212046FFF7C6FF094B9B6889
:10482800A34206D085F31188BFF36F8F38BD1021DE
:10483800F1E7EFF30583002BF4D12846FCF7A4FE3B
:10484800F4E700BF7408002008B5024805F066FDCB
:1048580008BD00BF88080020F8B54FF01003EFF33B
:10486800118683F31288BFF36F8F1D4CA1684B7BB1
:1048780003F07F034B7304F11807384605F020FC5A
:10488800A5686B7B63F07F036B73A469BC4208D196
:10489800002406E063686B602C601D60656017E0AB
:1048A80000246CB12146284605F0DAFB0028F1DC2B
:1048B800002CF6D00A4BDB699C42F1D02468F0E763
:1048C800074BDA6903F1180129606A601560DD6138
:1048D8000120FFF7B1FD3046FCF756FEF8BD00BFDA
:1048E800740800202DE9F04150EA010338D004464D
:1048F8000E466FF001031B1A4FF0FF3262EB010204
:10490800012B72F100022FDB6FF001052D1A4FF019
:104918001003EFF3118883F31288BFF36F8F144FDE
:10492800B868144B1860FFF789FEB868224633460A
:104938001149183000F0B6FABA68537B43F01003F7
:1049480053734046FCF720FE05F0CDFD281A63EBB3
:104958000303012873F1000300DA0020BDE8F081A9
:10496800FFF77AFF0020F9E705F0BDFD0519CEE74E
:104978007408002098080020F5A1000808B5B1F1D6
:10498800FF3F08BFB0F1FF3F22D0FFF7ABFFC317CF
:10499800093043F100030021C21820D20A4411490A
:1049A800A1FB02CE2EF0030C0CEB9E0CA2EB0C022A
:1049B800801A63F100024FF0CC3300FB03F301FBD4
:1049C8000233A0FB01010B44400840EAC37008BD54
:1049D800054B986805F047FC4FF0FF30F7E70121D9
:1049E800DCE700BFCDCCCCCC7408002008B5C217DA
:1049F800633042F10001C0F31303020D42EA0132B1
:104A0800C2F31302134403EB113303EB11730F4A80
:104A1800A2FB03C2D20802EB820202EB82029B1ABB
:104A2800C01A61F100020A490A4B00FB03F301FBBB
:104A38000233A0FB01010B44800840EA8370C117D0
:104A4800FFF750FF642303FB00F008BD1F85EB51FF
:104A5800295C8FC2F5285C8F014B9868704700BFAE
:104A6800740800202DE9104883B0089CDDE906BCD5
:104A7800CDE900BCFFF7FEFD1CB1034B9B685B69E9
:104A8800236003B0BDE81088740800202DE9F043C6
:104A980083B004460D4600F108084FF01001EFF30B
:104AA800118681F31288BFF36F8F3746006AE16879
:104AB80088420BD353EA020137D16FF0220087F303
:104AC8001188BFF36F8F03B0BDE8F083204605F06F
:104AD80003FC814680B1A2682946406905F053FF6E
:104AE8000024C9F8B040484605F025FB3146404649
:104AF800FFF75CFC2046E6E7A2682946E06905F076
:104B080042FFE369A2681344E3616269934209D0F2
:104B1800236A01332362102104F1240005F06CFD9F
:104B28000020CCE72369E361F2E7054989684D6114
:104B380000920193224631464046FFF79BFDC2E7AB
:104B4800740800202DE9F04182B00446084604F1BB
:104B580008074FF01001EFF3118581F31288BFF3B6
:104B68006F8F2E46216A59B953EA02013ED16FF080
:104B7800220086F31188BFF36F8F02B0BDE8F08181
:104B8800A268A16905F0FFFEA369A2681344A361A6
:104B98006269934209D0236A013B2362204605F0EB
:104BA8009BFB804620B90020E3E72369A361F2E775
:104BB800A2684169E06905F0E6FEE369A26813446A
:104BC800E361626993420ED0236A013323620024B1
:104BD800C8F8B040404605F0AEFA29463846FFF717
:104BE800E5FB2046C9E72369E361EDE705498968E4
:104BF800486100920193224629463846FFF73AFD5C
:104C0800BBE700BF740800202DE9F04182B00446DC
:104C18001E464FF01003EFF3118583F31288BFF39C
:104C28006F8F2B46C16899B9002951D1364A9268CD
:104C380092F90E2022610131E160334A9268A26044
:104C480083F31188BFF36F8F002002B0BDE8F081B5
:104C5800174680682C4A92689042E5D056EA0701C8
:104C680038D090F90E80414692F90E0005F0B9FB54
:104C7800804536DC4FF00008009701962246294609
:104C88002248FFF7F7FC0028DFD04FF01003EFF3BE
:104C9800118583F31288BFF36F8F2E46A36843B341
:104CA80023689C4223D013B3216993F90E0005F0C1
:104CB80098FB0146204605F09FFBE8B9B8F1000FC4
:104CC8001AD186F31188BFF36F8F6FF00A00BCE723
:104CD8002269AFE785F31188BFF36F8F6FF00F007C
:104CE800B3E70146204605F087FB8046C4E7216903
:104CF800E0E7B8F1000FE4D029460448FFF756FB77
:104D08006FF00A00A1E700BF74080020A80800207F
:104D180083688BB370B504461A4A926893422ED1C1
:104D2800C368012B03D9013BC360002070BD4FF05D
:104D38001003EFF3118583F31288BFF36F8F0169B6
:104D480005F05AFB204605F0C7FAA06068B190F953
:104D58000E3023610024C0F8B04005F0ECF9294674
:104D68000948FFF723FB2046E0E70020E06085F3D1
:104D78001188BFF36F8FD9E76FF0150070474FF0B8
:104D8800FF30D3E774080020A808002038B504468F
:104D98004FF01003EFF3118583F31288BFF36F8F81
:104DA80005F09AFA48B10022C0F8B02005F0C3F91E
:104DB80029460948FFF7FAFA38BDA368E268934222
:104DC80008D001221344A360022104F1100005F069
:104DD80013FCEDE70022F5E7A808002010B582B023
:104DE8004FF01004EFF3118184F31288BFF36F8F33
:104DF800846844B1013C846081F31188BFF36F8FEC
:104E0800002002B010BD53EA020406D000920193BC
:104E180002460548FFF72EFCF3E781F31188BFF33C
:104E28006F8F6FF00F00ECE7A808002008B5064860
:104E3800064A121A064905F0B4F8064A0649074810
:104E480005F0AFF808BD00BF00000020DC0100201D
:104E580068BD00080000000068BD000800000020D0
:104E6800034B1868984200D070470020FCE700BF49
:104E78008001002030B1044A5268904201D0006895
:104E880070470020704700BF8001002008B5044B20
:104E98001B680BB1002008BDFEF772FEFBE700BFE0
:104EA800A8080020B3F1FF3F08BFB2F1FF3F74D05C
:104EB8002DE9F047044692461D46816000234FF0D5
:104EC8001002EFF3118782F31288BFF36F8F26E089
:104ED8001AF1010845F10009FFF7D8FF18EB0003A4
:104EE80049EBE070236160613BE0521A66EB030313
:104EF800026143614368636020601C60446005E0B0
:104F0800264B5A682360626014605C60FFF7A8FF54
:104F180084423AD087F31188BFF36F8F0123002BA7
:104F280039D153466FF00101B1EB0A014FF0FF3060
:104F380060EB0502002ACBDB194A116852685B183E
:104F480042EB05026FF00101C91A60EB0203084643
:104F58001A46012973F1000301DA012000222061B9
:104F68006261FFF77DFF0028CAD00269466921699E
:104F78006369914273EB060EB7DB891A63EB06038C
:104F880021616361FFF776FFEDE705F071FA002113
:104F9800FEF764FDBEE7BDE8F0877047800100209A
:104FA8007803002070B54FF01003EFF3118683F3F8
:104FB8001288BFF36F8F2B4B1860FFF751FF044621
:104FC80024E0294A136851685B1941EBE5711360C5
:104FD800516000220023C4E90423204605F031FA79
:104FE80086F31188BFF36F8FA368204698474FF068
:104FF8001003EFF3118683F31288BFF36F8F194AFA
:1050080013685B1B1360FFF72BFF04463CB125694F
:105018006169144B1A68D317AA428B41D1DA44B19B
:10502800236962690F4909685B1A62EBE1722361BF
:1050380062610D4A0B4D2868136851681B1841EBD3
:10504800E0711360516000242C6005F011FA2146CC
:10505800FEF704FD86F31188BFF36F8FFFF75AFA46
:1050680070BD00BFA80800207803002010B50022FA
:105078004FF01003EFF3118483F31288BFF36F8F9F
:10508800134611460CE0FFF701FF074A1368516801
:10509800C31841EBE07184F31188BFF36F8F0122CD
:1050A800002AF0D0184610BD78030020F8B54FF05C
:1050B8001002EFF3118382F31288BFF36F8F1A4641
:1050C8001D46036823B182F31188BFF36F8FF8BDC3
:1050D8000446826AC36A52EA030105D0B3F1FF3F6E
:1050E80008BFB2F1FF3F29D1236B01332363236A41
:1050F8007BB185F31188BFF36F8F236A20469847E9
:105108004FF01002EFF3118382F31288BFF36F8F11
:105118001D4604F11803A469A3423FD0002C3DD0DA
:10512800204604F0A7FF0023C4F8B03085F31188A7
:10513800BFF36F8F204604F0FEFFC8E716461F46F0
:10514800012A73F1000301DA01260027013E47F125
:10515800FF3705F0CCF9013041F10001801947EB28
:105168000101012871F1000108DA6FF001024FF026
:10517800FF330D492046FFF795FEB5E705F0B7F96F
:10518800013041F10001801947EB01036FF0010282
:10519800121A4FF0FF3161EB0303EAE785F3118838
:1051A800BFF36F8F93E700BFB5500008F8B51D46F1
:1051B8004FF01003EFF3118783F31288BFF36F8F5B
:1051C800B5F1FF3F08BFB2F1FF3F1FD006461446B6
:1051D80029466FF00102121B4FF0FF3262EB050205
:1051E800002A18DB304605F060F9DDE90623C6E938
:1051F8000A230023336322462B460C493046FFF727
:1052080051FE87F31188BFF36F8FF8BD87F31188BC
:10521800BFF36F8FF9E7012C71F1000101DA012466
:105228000025013C45F1FF35DCE700BFB55000081B
:1052380008B5024801F032FB08BD00BF7CBC00087D
:1052480010B5064C05E0A2686168204605F0EFF944
:105258001434034B9C42F6D3002010BDAC0100204F
:10526800AC01002010B584B0084B029300248DF8DF
:105278000C4002AB00934FF0FF334FF480620449B7
:10528800044800F0F7F8204604B010BDA4BC00089C
:10529800C01600208003002070B338B50D460446C0
:1052A8001B4B9B6883421BD000231A46D4F8D0308E
:1052B800C3F38001C3F3C00013F0010F1FD001B185
:1052C80002B300B109B300232B60D4F8BC3073B12A
:1052D8001D60C4F8BC50204605F0C4F9012038BD53
:1052E80004F063FE08B90123DFE70023DDE7C4F813
:1052F800BC50C4F8B850EEE76FF0150070476FF077
:105308001200ECE76FF00F00E9E76FF00F00E6E737
:1053180074080020F8B50646C36823F00203C3608A
:10532800134B1D6885B12C6804B10DB1002710E03E
:105338002C46FBE72A4639460D4805F080F905F169
:105348000800FFF723FD09E02C46EFE72346254632
:105358001C4665B16B68B342ECD02F46002CF5D0E3
:105368002368002BF3D0002CF1D12346EFE7F8BDDA
:10537800AC08002070B584B0054616E0D5F8D030EA
:1053880023F00402C5F8D02013F0040F5ED10023E7
:1053980002934FF0FF324FF0FF33CDE9002305F1C0
:1053A800C00231463248FFF75DFB4FF01003EFF3C0
:1053B800118683F31288BFF36F8F3246D5F8B84051
:1053C800002CDBD02368C5F8B830D5F8BC108C4267
:1053D80039D0D5F8D03043F00203C5F8D030E368AF
:1053E80043F00101E16023F0040343F00103E360AB
:1053F800636882F31188BFF36F8F204698474FF098
:105408001003EFF3118683F31288BFF36F8FE368FD
:1054180023F00103E36013F0100F21D1E36813F0C8
:10542800020F21D1D5F8D03023F00203C5F8D030CF
:10543800C3F3002386F31188BFF36F8F002BB4D119
:10544800FFF70AFAB1E7C5F8BC30C2E705F1C804AE
:1054580000220121204604F08AFF0028F8D196E7AF
:10546800204605F039F9D9E72046FFF753FFD9E779
:10547800B4080020F0B589B004460E9D0020C4F899
:10548800B800C4F8BC0004F1C000C4F8C000C4F8F7
:10549800C40004F1C800C4F8C800C4F8CC00FDB1C9
:1054A8002879F8B90120C4F8D0004FF0FF364FF042
:1054B800FF37CDE90667002004900393029001901E
:1054C80000940A4B204604F0A5FD25B1296811B1C6
:1054D8002046FEF741FE204604F08DFD09B0F0BDE0
:1054E8000120E0E740F20110DDE700BF7D5300082E
:1054F8000FB407B5064B04AA186852F8041B0192AA
:1055080000F0C4F803B05DF804EB04B0704700BFC6
:1055180090B50008F8B50E4B1D68AB789B0706469A
:1055280012D56F6816F8014B29462CB90A20B847DE
:10553800002805DB204609E02046B8470028F1DAB4
:10554800AB7843F00403AB704FF0FF30F8BD00BFF9
:1055580090B500082DE9F04101260746B24201DC6A
:10556800BDE8F0813B461F4613F8014B002CF7D0ED
:10557800252CF8D11C78252C07F10207F2D000233E
:10558800DFF804819C461D461F2D18D8A4F1200E73
:10559800BEF1100F09D9A4F1300EBEF1090F1ED8C3
:1055A8000A2404FB03E3202504E028FA0EFE1EF07B
:1055B800010F06D017F8014B002CE5D128E07F2D0C
:1055C8001CD8A4F1300EBEF1090FE9D9242C10D152
:1055D800BCF1000F46D0B34246D00023EAE724F0DE
:1055E800040EBEF12A0FF8D06C2C09D145F08005C5
:1055F800E0E724F0040EBEF12A0FEED06C2C22D086
:105608006C2C1BD8682C23D06A2C28D04C2C26D084
:10561800BCF1000FA4D0B445A0D144F02007A7F1F5
:10562800650CBCF1020F0B6801D9612F1ED107333D
:1056380023F0070308330B6001368EE7742CB9D0CA
:105648007A2CB7D0E4E72C0648BF45F40075CDE7BF
:10565800EC0548BF45F4007545F48075AAE745F4A4
:105668002075A7E79C46B8E76324D6E7692C02D0E3
:1056780007D8632C03D02F0601D5AC05D7D4043343
:10568800D9E7732CF6E700BF892801002DE9F04F10
:1056980095B043680393837880469807CDE908124C
:1056A80017D50D920B4600251F78A7B1252F16D0C8
:1056B80001330793039B414638469847002805F174
:1056C800010580F2558498F8023043F0040388F805
:1056D80002304FF0FF35284615B0BDE8F08F5F78EF
:1056E8009A1C252F0792E5D000242646A246A346F9
:1056F800BBF11F0F32D8A7F12003102B0AD8DFE81F
:1057080003F02409092A0909091B0909092209279B
:1057180009091900A7F13003092B2DD92A2F39D1EE
:1057280054B90D9B1BF0400F53F8042B0D9329D04F
:10573800164601E04BF0010B079B13F8017B07931A
:10574800002FD5D15BE04BF0020B4BF0040BF3E7D5
:105758004BF0080BF0E74BF0100BEDE7BBF17F0FB8
:105768003FD8A7F13003092BD8D81BF0400F03D03E
:105778000A2202FB0636DFE70A2202FB0A3A4BF04E
:10578800200BD9E7B2F1000AF9DACAF1000A4BF0A6
:10579800280BD1E72E2F05D11BF0400F9BD14BF0E2
:1057A800400BC9E7242F1CD1002C00F04481099B31
:1057B8000D931BF0400F0AD1524608980DA9FFF728
:1057C800C9FE0D9B1A1DD3F800A00D92B4E732460E
:1057D80008980DA9FFF7BEFE0D9B1A1D1E680D92B5
:1057E800AAE76C2F00F0148100F20B81682F00F0FB
:1057F80017816A2F00F01C814C2F00F0198134B1F9
:10580800099B08980D9322460DA9FFF7A3FE002EC9
:1058180047F02003B8BF2BF0400B0593A3F16503B5
:10582800BCBF1FFA8BFB0026022B40F2098147F010
:105838002003612B40F08482FF4307F02003069386
:105848000D9B073323F007031BF0400FD3E900013A
:1058580003F10802069B00930D9214BF33464FF0E4
:10586800FF330EAA05F0A5F8431CDBB24BF4C05475
:105878000493DDF8389070230646A3460127059364
:1058880009F10903122B0CD909F16303C62B40F265
:10589800138109F2E73340F2CE72934294BF032793
:1058A80004279DF83C2002F00C0312F0010240F09E
:1058B8001E811BF0020F40F017811BF0040400F05A
:1058C800FD80002B40F0168120231BF4405F21D17E
:1058D800049A5032002E6A4408BF0126133A0499EC
:1058E80021B112F8011D302900F03B811BF0100F87
:1058F800049A18BF324619F1040FC0F23781B14536
:1059080080F234814A454BF4005B40F3318109F160
:105918000106961B1BF400520A9200F02B8129EA1B
:10592800E974013403B10134002E00F02A81721C9D
:105938001444A245CCBFAAEB040400241BF0090FB1
:1059480004D12C44A54240F02181002443B11846DB
:105958004146039B9847002805F10105FFF6B3AEC1
:105968001BF4006F13D0039B414630209847002852
:10597800FFF6A9AE069BC3F178004146039B00F0F1
:10598800F8009847002805F10205FFF69CAE1BF0C9
:10599800080F05D12C44AC4240F004812546002470
:1059A8000A9B002B00F02E8129EAE97AA9EB0A026A
:1059B8007642049B0592934284BF0EABD3180AF13A
:1059C800FF3A8CBF58793020564505F1010700F39E
:1059D800F380039B41469847059A002802F101028B
:1059E800FFF671AEBAF1FF3F09D1039B059241461C
:1059F8002E2098470028FFF666AE059AAF1C3D4654
:105A0800D7E7742F3FF498AE7A2F3FF495AEF6E6B9
:105A18001BF0800F18BF4BF4007B4BF0800B8BE61C
:105A28001BF4807F18BF4BF4007B4BF4807B83E62C
:105A38004BF4207B80E62646B3465446B2467BE6C6
:105A4800FF4307F0200306930D9B073323F007035A
:105A580003F10802D3E90001059B0D921BF0400FEA
:105A680008BF0626652B13D1731C0022DBB24BF44A
:105A7800805B1446112BCDE9002428BF11230EAA00
:105A880000F014FBC3B2DDF8389004930227F7E660
:105A9800059B662B05D14BF4005B3446012211238C
:105AA800E8E7F3B2012B4FF000024FF0650738BF6B
:105AB800012314460597DDE70227F2E6002B3FF4A1
:105AC80004AFBAF1030F3BDC9DF83C309A4E13F05B
