:020000040800F2
:1000000080110020110A000819060008FD090008E7
:10001000FD090008FD090008FD09000800000000B6
:10002000000000000000000000000000150B0008A8
:10003000FD09000800000000AD0A0008DD170008F7
:10004000E10C0008E10C0008E10C0008E10C0008DC
:10005000E10C0008E10C0008E10C0008E10C0008CC
:10006000E10C0008E10C0008E10C0008E10C0008BC
:10007000E10C0008E10C0008E10C0008E10C0008AC
:10008000E10C0008E10C0008E10C0008E10C00089C
:10009000E10C0008E10C0008E10C0008E10C00088C
:1000A000E10C0008E10C0008E10C0008E10C00087C
:1000B000E10C0008E10C0008E10C0008E10C00086C
:1000C000E10C0008E10C0008E10C0008E10C00085C
:1000D000E10C0008E10C0008E10C0008E10C00084C
:1000E000E10C0008E10C0008E10C0008E10C00083C
:1000F000E10C0008E10C0008E10C0008E10C00082C
:10010000E10C0008E10C0008E10C0008E10C00081B
:10011000E10C0008E10C0008E10C0008E10C00080B
:10012000E10C0008E10C0008E10C0008E10C0008FB
:10013000E10C0008E10C0008E10C0008E10C0008EB
:10014000E10C0008E10C0008E10C0008E10C0008DB
:10015000E10C0008E10C0008E10C0008E10C0008CB
:10016000E10C0008E10C0008E10C0008E10C0008BB
:10017000E10C0008E10C0008E10C0008E10C0008AB
:08018000E10C0008E10C00088D
:1001880053B94AB9002908BF00281CBF4FF0FF31F6
:100198004FF0FF3000F00CB8ADF1080C6DE904CE5B
:1001A80000F008F8DDF804E0DDE9022304B0704748
:1001B800704700BF2DE9F04786468C460846089EE2
:1001C800154674461946002B40F0C2808542B2FAA3
:1001D80082F245D94AB1C2F1200300FA02FC2EFA94
:1001E80003F3954043EA0C0C94404FEA154EA8B22D
:1001F800BCFBFEF8230C0EFB18CC08FB00F943EA05
:100208000C43994528D9EB1808F1FF3704D29945D2
:1002180002D9A8F102072B44A3EB0903A4B2B3FB4C
:10022800FEFC0EFB1C330CFB00F044EA0344A04226
:1002380014D92C190CF1FF3304D2A04202D9ACF125
:1002480002032C44241A43EA07401EB1D440002379
:1002580034607360BDE8F0874746DDE76346F1E741
:1002680092BB431B01214FEA154EAFB2B3FBFEFC14
:10027800200C0EFB1C330CFB07F840EA034398459F
:1002880062D9EB180CF1FF3004D2984502D9ACF1D1
:1002980002002B44A3EB0803A4B2B3FBFEFC0EFB45
:1002A8001C330CFB07F744EA0344A7424ED92C1928
:1002B8000CF1FF3304D2A74202D9ACF102032C445B
:1002C800E41B43EA0040C0E7C2F1200320FA03F12F
:1002D800954090402EFA03F303434FEA154EAFB210
:1002E800B1FBFEFC0EFB1C10190C0CFB07F841EAD5
:1002F8000041884504FA02F422D969180CF1FF304C
:1003080004D2884502D9ACF102002944A1EB0801C6
:100318009BB2B1FBFEFC0EFB1C110CFB07F743EA7A
:1003280001439F420ED9EB180CF1FF3104D29F42D2
:1003380002D9ACF102012B44DB1B41EA004192E7F0
:100348006046E3E76146F7E76046A3E76346B7E739
:10035800834206D916B9002108467BE7C6E900E0C2
:10036800F9E7B3FA83F78FB9834201D3724508D806
:10037800BEEB020460EB030301209C461EB900217A
:1003880068E73846FAE7C6E9004CF8E7C7F1200CF9
:10039800BB4022FA0CF41C432EFA0CF120FA0CF3A1
:1003A800B84001434FEA14490EFA07F5B3FBF9F8D0
:1003B8001FFA84FE09FB18300B0C08FB0EFA43EAFF
:1003C80000439A4502FA07F240D9E31808F1FF30D2
:1003D80004D29A4502D9A8F102002344A3EB0A03E8
:1003E80089B2B3FBF9F809FB183308FB0EFE41EAA2
:1003F80003418E452CD9611808F1FF3304D28E458C
:1004080002D9A8F10203214443EA0040A0FB029864
:10041800A1EB0E014145CE46434602D306D14D45D8
:1004280004D2B9EB020E68EB04030138002EA6D003
:10043800B5EB0E0261EB030101FA0CFC22FA07F39B
:100448004CEA0303F940C6E9003198E74046C5E79E
:100458004346D9E738B5344803F017FC08B90020FB
:1004680038BD314803F011FC0028F8D02E4803F0BD
:100478000CFC0028F3D02C4803F007FC0028EED031
:100488002A4803F002FC48B34FF4D011284802F080
:1004980062FC0028E3DB4FF4D011264802F05BFC35
:1004A8000028DCDB4FF4D011234802F054FC00286C
:1004B800D5DB4FF4D011214802F04DFC0028CEDBEB
:1004C8004FF480311E4802F046FC014678B1002303
:1004D800164A12681B4802F009FDC0E7134B196859
:1004E800194802F003FDBAE7012002F078FC002168
:1004F8000E4802F047FC041EF6DB0B4D22460C2189
:10050800284602F05FFC22460D21284602F05AFCDC
:1005180022460E21284602F055FC22460F21284685
:1005280002F050FCE0E700BF144200085042000807
:10053800DC450008CC450008C4450008BC45000857
:10054800D4450008904500086845000808B5024BE6
:100558001B68984708BD00BF0000002000B585B0A3
:100568000A460023009301930293039302238DF814
:100578000230044B01930146684602F067F905B062
:100588005DF804FB55050008014B1860704700BF73
:100598000000002080B505460E461746984601F033
:1005A800FBFF034603F08CFD0446DFF8189049F87A
:1005B8000030424639463046A84754F8090000F052
:1005C8003DFA00BF08000000064B1A6842F40072AA
:1005D8001A601A6842F480621A60034B034A1A6070
:1005E80000207047003C0240640000200024F40012
:1005F800034A536823F0020353600020704700BF8A
:10060800002004E0014B036000207047E445000827
:1006180008B5034B1B68984700F048F808BD00BFB1
:100628000400002030BFFFF7FDBF00BF38B5044607
:10063800084D2A46084903F02CFD0848431E2B4460
:10064800B3FBF0F3064A002100FB034003F02FFD43
:1006580038BD00BF00000000604500080100000030
:100668000400000070B505460C480D4A0244013AE2
:10067800B2FBF0F20B4B0C4C1C44013CB4FBF3F402
:1006880004FB03F300FB02340E1B3046FFF7CEFFDA
:10069800083EC5F8A46004F1080070BD0100000020
:1006A800000000000400000004000000044B9968EA
:1006B8005869884203D003494FF080520A60704756
:1006C8005C03002004ED00E038B51546204B9B6A1A
:1006D80013F4805F19D116241D4B9B6A13F4006F25
:1006E80000D018241A4B9B6A13F4007F10D0184BC3
:1006F8009A6B9B6A13F4004F09D0D9B1144A936AD4
:1007080023F400439362192402E01724E4E7192430
:100718000F4B9B6A13F4806F00D01A240C4B9B6A12
:1007280013F4807F08D10A4B9B6A13F4005F04D04E
:100738001C2402E01924EBE71B24054A936A43F4BE
:100748007F439362012102F0EAFB2870204638BDFE
:1007580000ED00E0174B9B6A13F0007F25D11D20A8
:10076800144B9B6A13F0807F00D01F20114B9B6AAB
:1007780013F4002F00D021200E4B9B6A13F4802F16
:1007880000D022200B4B9B6A13F4003F00D023209B
:10079800084B9B6A13F4803F09D1064A936A6FEAB3
:1007A80003436FEA1343936270471E20D8E724205F
:1007B800F3E700BF00ED00E081690D4B5A6942F490
:1007C80080725A61BFF34F8FBFF36F8F31F8021CED
:1007D8005A6922F480725A61BFF34F8FBFF36F8F4B
:1007E8004DF60273994201D00020704701207047EE
:1007F80000ED00E070B504461646324B9B6A13F0D4
:10080800100F1AD110252F4B9B6A13F0080F00D038
:1008180012252C4B9B6A13F0020F10D0294B586BF2
:100828009B6A13F0800F3DD000293FD0254A936A78
:1008380023F080039362132503E01125E3E76FF0AB
:100848001500204B9B6A13F0010F00D014251D4B97
:100858009B6A13F0200F00D015251A4B9B6A13F0E2
:10086800100F04D1174B9B6A13F0020F04D0154BDD
:100878005B6813F4006F1BD1124B9B6A13F0200FB7
:1008880004D0104A536A23F4005353620D4A936A02
:1008980043F0FF0393620121204602F040FB3070D1
:1008A800284670BD6FF015001325CAE71325C8E761
:1008B800214600F0A3F90028DED080F3098802253C
:1008C800DAE700BF00ED00E038B5054600230B70FD
:1008D8001A4BD86A10F002002DD10C46DB6A002BA7
:1008E8002ADB164BD86A10F0804025D02846FFF73F
:1008F80063FF08B128681FE0104B9B6A13F0FF0FD5
:100908000DD10E4B986A10F47F400ED10B4B9B6AA9
:10091800B3F5803F10D32846FFF71CFF0CE02246B2
:1009280001212846FFF766FF06E0224601212846F6
:10093800FFF7CAFE00E0002038BD00BF00ED00E070
:1009480030B58BB00C46264B5968C1F3080100231B
:1009580083F31188BFF36F8F02F07F43B3F17F4FAA
:1009680015D102F00C03082B14D012F0080F0BD08D
:1009780000250DF12702204602F0D6FA86469DF89A
:10098800273053B10BB030BD04460125F1E70025EF
:100998002C46EEE700252C46EBE70DF1040C206809
:1009A8006168A268E368ACE80F0020696169A26920
:1009B800E369ACE80F0045B1C3F308025AB96FEA1E
:1009C80053236FEA4323089305E0089B23F4FF733E
:1009D80023F00103089301A9704602F096FAD1E7C3
:1009E80000ED00E0024A536943F010035361704779
:1009F80000ED00E0EFF30880EFF3098101B57246DE
:100A0800FFF79EFF01BD00BF00200A4908701020B3
:100A180080F3118808484FF40461401880F309886E
:100A2800EFF314800221084380F31488BFF36F8F1B
:100A380000F09EF895030020C003002008B50A4B7B
:100A48009B68834202D003F02AFA08BDEFF30583BE
:100A5800002BF8D0054B5A6842F080525A605A6A07
:100A680022F400425A62EEE75C03002000ED00E049
:100A78000A4A9368C3F8A8006FF00A01C3F8AC10DB
:100A880007494B6843F080534B60002383F3118878
:100A9800BFF36F8F9368D3F8AC0070475C030020F6
:100AA80000ED00E016498A684FF030001044EFF37B
:100AB800098C80E8F01F102080F31288BFF36F8F35
:100AC800104F4FF000664A698A603E604FF0A404F8
:100AD800141920680C4C2060D2F8A8000023C2F832
:100AE800A83080F3118804B5104600F017F9BDE866
:100AF800044002F1300090E8F01F8CF30988704739
:100B08005C03002004ED00E0200200201EF0040F2A
:100B18000CBFEFF30880EFF30980816911F8021C1C
:100B28000229FFD001B502F0F4F901BD002807DB66
:100B380000F01F02400901239340024A42F8203086
:100B4800704700BF00E100E0002808DB0901C9B2D6
:100B580000F1604000F5614080F80013704700F034
:100B68000F000901C9B2014B1954704714ED00E098
:100B780008B50F4B0F4A22F07F029A60BFF34F8FE0
:100B8800BFF36F8FD3F8882022F47002C3F888204F
:100B9800EFF3148323F0040383F31488BFF36F8FF8
:100BA80001F072F801F0FEFC00F07CF801F0E2F8C8
:100BB80000ED00E00000000810B4A2F120040E4986
:100BC80042F8081C21F0010142F8081C42F8203CB8
:100BD800019B42F81C3C029B42F8183C039B42F8DC
:100BE800143C4FF0807342F8043C04650023C0F8BD
:100BF800A83010BC704700BF9D050008104B9B68CB
:100C0800BBB110F1160F0BD0D3F89420A2F1400C11
:100C1800844510D8824210D98A4207D800207047EC
:100C2800D3F894208A4201D800207047D3F8940062
:100C3800704700207047002070470020704700BFB1
:100C48005C03002008B50D4614460A4A9060D0F8A7
:100C5800A420094B1A6000F061F8204685F3098842
:100C6800002163B681F31188BFF36F8F0022002340
:100C7800FFF790FC5C0300202002002001491022AD
:100C88000A60704710ED00E072B6404080F31188AA
:100C9800BFF36F8FBFF34F8F30BF62B6BFF36F8F55
:100CA800704700BF002206E003F00F03094919440A
:100CB80010230B760132512A0ADC53B2002BF3DBE6
:100CC80003F1604303F56143102183F80013F1E752
:100CD800704700BFFCEC00E001B5EFF30580A0F120
:100CE80010004FEAC0000449014409C99847BDE80B
:100CF80001400249084700008C420008B506000878
:100D080008B5034B034A0121034802F072FA08BDF3
:100D18000000022000000020E445000808B5D0F8D3
:100D28009430403B0448036040234360034B836096
:100D3800012102F062FA08BD2402002000000B1510
:100D4800084AC2F898000B6823F01F03034343F0D6
:100D58001003C2F89C308B6843F00103C2F8A0303E
:100D6800704700BF00ED00E0084BD3F89030C3F3A4
:100D78000723013B984205D810B50446FFF7E0FF6A
:100D8800204610BD6FF01500704700BF00ED00E071
:100D980010B5034C0123227802F02AF9207010BD07
:100DA8009403002008B500230B4A127802F020F9BA
:100DB80010F1160F0FD0024606E0084BC3F8982032
:100DC8000021C3F8A0100132044BD3F89030C3F3CC
:100DD80007239342F1DC08BD9403002000ED00E0F6
:100DE800044B0522C3F89420BFF34F8FBFF36F8FD6
:100DF800704700BF00ED00E0BFF35F8F024B002299
:100E0800C3F89420704700BF00ED00E038B51C4BD4
:100E18001D681C4BD3F89030C3F307239D422BD891
:100E2800FFF7EAFF002409E0154B5B6804EB440177
:100E380003EB81012046FFF783FF0134A542F3D875
:100E48001148057002F0FCF810F1160F13D00E4B84
:100E58001A780C4BD3F89030C3F307239A4207DA79
:100E6800084BC3F898200021C3F8A0100132F0E71E
:100E7800FFF7B6FF002038BD4FF0FF30FBE700BF9B
:100E8800F045000800ED00E09403002008B5024B8F
:100E98001B689847002008BD30020020034B1860EB
:100EA800034A937843F0020393707047300200209E
:100EB8000800002008B5064921F00701C1F10052D9
:100EC80002F50032034801F0CDFF002008BD00BF45
:100ED800C71100203402002038B50546002401E07F
:100EE8000134E4B26B78A34216D3287820441F2833
:100EF800F6DC01238340094A526933EA0202EFD142
:100F0800064A5361064B53F83020002AE8D003EB19
:100F1800C00359689047E3E738BD00BF003C014073
:100F280040020020002399420ADD10B400EB030CB4
:100F3800044C04F80C2001339942F7DC10BC7047CC
:100F4800704700BF1800002008B50246054B185628
:100F580001239340044A11680B43136002F007F819
:100F680008BD00BF18000020003C01401F2806DC17
:100F78000122824002490B6823EA02030B60704792
:100F8800003C014003292ED8DFE801F0020E1924A5
:100F980001228240144B996821EA02019960D968BC
:100FA80021EA0202DA607047012282400E4B9968FA
:100FB80011439960D96821EA0202DA607047012278
:100FC8008240094BD9681143D960996821EA020225
:100FD8009A60704701238340034A916819439160DE
:100FE800D1680B43D3607047003C014010B40D4BEF
:100FF80053F830308B4209D08BB90A4B43F8301084
:1010080003EBC0035A60002010BC7047054C04EB8A
:10101800C00CDCF804409442EED10020F4E76FF0F5
:101028000F00F1E740020020034B002243F8302074
:1010380003EBC0035A607047400200200C4B1B684A
:1010480013F0020F09D10A4A136843F00103136031
:10105800074B1B6813F0020FFAD0054A936823F078
:1010680003039360024B9B6813F00C0FFAD170478F
:10107800003802400C4B1A6822F480221A601A6861
:1010880042F480321A60084B1B6813F4003FFAD010
:10109800054A536F43F001035367034B5B6F13F02B
:1010A800020FFAD0704700BF0038024010B5144B49
:1010B8009B6803F00C03082B1AD0114C236823F00B
:1010C80080732360636823F440336360636823F0AC
:1010D800706343F0E063636000F0DCF8236843F07A
:1010E80080732360064B1B6813F0007FFAD010BD95
:1010F800FFF7A4FF024A936823F0F0039360DCE74C
:101108000038024038B500F0DBF800F043FC1F4B14
:101118009B68C3F303131E4AD35C20FA03F51378C4
:101128001C4C1C41A54228D3FFF7A4FFFFF7BEFFC4
:10113800164A936823F0F0039360936823F003033F
:1011480043F002039360114B9B6803F00C03082BD8
:10115800F9D1A54215D2104B0E4A1A600B4A936872
:1011680023F4E05343F4A0539360936823F460435B
:1011780043F400439360002038BD204600F078FC1B
:10118800D2E7204600F074FCE5E700BF00380240D3
:10119800F4480008007A030A64000020F8B50C46F9
:1011A8001546394B1E680421304602F07FF8074681
:1011B8000221304602F07AF82368442B28D8002B05
:1011C8005BD0013B432B5BD8DFE803F0364F523945
:1011D800445A5A5A5A5A5A5A5A5A5A5A5A5A5A5A7D
:1011E8005A5A5A5A5A5A5A5A5A5A5A5A5A5A5A5A57
:1011F8005A5A5A5A5A5A5A5A5A5A5A2A5A5A5A2AA7
:101208005A5A5A2D5A5A5A5A5A5A5A305A5A5A33B4
:10121800A82B02D12E60002034E06FF0850031E069
:101228002E6000202EE02E6000202BE02F60002092
:1012380028E02860002025E02E60002022E000F051
:1012480025F802234FF4A872082102F028F8286034
:10125800002017E000F01AF807234FF4A8720821BD
:1012680002F01DF8286000200CE00020286009E04A
:101278004FF4FA432B60002004E06FF0850001E092
:101288006FF08500F8BD00BF64000020004870477B
:1012980000127A0008B502F084F8074A5168074B33
:1012A8000B4040F4A84040F00800034353605368E3
:1012B80023F44033536008BD003802400080BFFF6C
:1012C80082B0064B1A6C42F080521A641B6C03F011
:1012D80080530193019B02B0704700BF0038024061
:1012E80010B504460A2806D0E1B2064883685B6850
:1012F8009847204610BD034883685B680D219847CE
:10130800F2E700BF6442000810B5044C2046FFF71E
:10131800C5FD2046FFF738F910BD00BFE9120008E7
:1013280008B5054802F0B1FC18B1FFF7EDFF002041
:1013380008BD6FF01200FBE76442000808B5436877
:1013480031B107488268126803F10C01904708BD63
:1013580003488268526803F10C019047F7E700BF21
:10136800744100085FFA81FC0CF102020A4B53F841
:1013780022200B0C22EA114193FAA3F34BB1B3FAE2
:1013880083F3984001430CF1020C034A42F82C10F5
:1013980070472023F5E700BF0038014070B582B0E0
:1013A80004460D460A4A6B4692E8030083E80300A8
:1013B80008488268126819469047064610B13046B8
:1013C80002B070BD2946204602F0B3F9F7E700BF26
:1013D8006045000874410008C3B20233074A52F856
:1013E8002320030C02EA104093FAA3F31BB1B3FACB
:1013F80083F3D84070472023FBE700BF0038014043
:10140800F8B50C46114647680269B1F5001F1FD0B0
:101418001D46B1F5800F34D01D492046FFF7E6FD83
:10142800064688BB2146B868FFF7B8FFB5F1806F5C
:1014380023D0B5F1C06F22D0B5F1007F1BD0314663
:101448002046FFF79FFD2046FFF77EFD3046F8BD9A
:10145800204602F085F9BB68984201D00026F5E7DE
:101468002046FFF783FD2046FFF7DEFD00212046DA
:10147800FFF788FDF2E70221E2E70121E0E7032117
:10148800DEE76FF08506E1E76FF00F06DEE700BFE5
:101498007534000810B5044603695860074802F01F
:1014A800F4FB38B101212046FFF748FF002800DB94
:1014B800002010BD6FF01200FBE700BF7441000868
:1014C800AF2817D8F8B504460D46164603090B4A47
:1014D80052F823705FB1384602F0D7FB38B1334673
:1014E8002A4604F00F01384602F051F9F8BD6FF0B2
:1014F8001200FBE76FF01500704700BFD4470008E3
:1015080010B50446B2F5004F2FD04FF0000C481824
:101518004CEB0C0C40184CF1000C4FEACC0C4CEA8C
:10152800507CC00040184FEA83024FEA93734CF195
:101538000001FEF725FE2449A1FB00235B091A01DF
:1015480092B24FF0640C0CFB13031B013233A1FB66
:101558000313C3F34F1303F0F0010A4492B203F0EC
:101568000F0313449BB2A36010BD4FF0000C481842
:101578004CEB0C02401842F10002D20042EA5072D1
:10158800C000401842F10001DA184CEB0C03FEF7DA
:10159800F7FD0D49A1FB00235B091A0192B24FF038
:1015A800640C0CFB1303DB003233A1FB0313C3F3FE
:1015B8004F13590001F4F8710A4492B203F007037B
:1015C80013449BB2A360CFE71F85EB512DE9F0418F
:1015D8000C46456803695E680B79012B5BD0022BCA
:1015E8005CD14FF480676279012A5CD0022A5CD012
:1015F800002A55D04FF4005194F806E0BEF1040FCC
:1016080056D0002B57D14FF00008A3F1030C5FFA16
:101618008CFCBCF1010F5ED913B1BEF1040F5DD093
:10162800B1F5805F4CD0B1F5405F4BD0002945D073
:1016380003239A4255D1B8F1000F45D1002F48D164
:1016480003239E4550D1E3798BB1012B4FD12B68F1
:101658002A4A93420BD0A2F54C42934207D002F596
:101668008062934203D002F54C42934242D12A68E9
:10167800D36823F40053D360214602F049F92A685D
:10168800D36843F40053D36094E8030086E803006A
:101698000020BDE8F0814FF4C067A4E70027A2E767
:1016A8004FF48051A8E70021A6E74FF44051A3E783
:1016B8004FF48058A9E74FF48058A6E70123B8E70C
:1016C8000023B6E70223B4E70FB90423B9E70323DD
:1016D800B7E70223B5E76FF08500DAE76FF085001A
:1016E800D7E76FF08500D4E76FF08500D1E76FF09A
:1016F8008500CEE76FF08500CBE700BF0010014002
:1017080008B5024A02F0D8F908BD00BF333B00080B
:1017180000B583B08DF80710034A0DF1070102F0F8
:10172800E4F903B05DF804FB3B3B000838B54568B5
:1017380004690748206002F0A8FA28B12068836885
:101748001B68E968984738BD6FF01200FBE700BFD7
:10175800744100084FF0E023996918699A6909B93A
:101768000C4B19680AB90B4B1A6810F4803F01D169
:10177800914208D208490B680648006803440B6088
:101788004FF0E0231B69034B1B689B1A024A106841
:101798001844704754030020500300200A4B1022BD
:1017A80083F82320094B44F2A0121A600020084B4A
:1017B80018604FF0E02344F29F125A6198611A6949
:1017C80042F007021A61704700ED00E05403002060
:1017D8005003002010B5FFF7BDFF11480368114AF8
:1017E800516814681B1941F100011360516000220F
:1017F80002600D490A68981A0C4BA3FB0030800B55
:1018080044F2A01300FB03F3D2184B6843F1000322
:101818000A604B6000F08EFFFEF748FF10BD00BF66
:101828005003002098000020900000202D34A9F9D2
:10183800F8B500294CD0B0F1FF3F3ED03F4B1C68B3
:1018480001284DDD40F2E6339842A8BF1846461EEF
:101858004FF01003EFF3118583F31288BFF36F8FF6
:10186800FFF778FF4FF0E0239F69354A1368516806
:10187800C31841F10001136051600021314A116021
:10188800314A11685A1A2DD444F2A01000FB0622DE
:1018980002F583421F322D4EA6FB0262920BC91A33
:1018A80000FB021140F21A438B4238BF0B46284A0C
:1018B800914235D9214B1A6018E04FF0E0221369A4
:1018C80023F0010313611D4B4FF07F421A6026E09D
:1018D8001A4B1C68B0F1FF3FB2D140F2E530B1E7D6
:1018E8000026B5E7154B40F21A421A604FF0E02384
:1018F8009969124A1268013A5A6100229A618F4224
:1019080011D2641A3C440E4A136851681B1941F1FC
:1019180000011360516085F31188BFF36F8FF8BD24
:10192800064A1360E2E77F1A054A13685168DB1913
:1019380041F1000113605160EDE700BF540300203E
:101948009800002050030020900000202D34A9F9B1
:101958002094FF0038B54FF01003EFF3118583F39F
:101968001288BFF36F8F084B1C68084B1B68E41A7A
:10197800FFF7F0FE204485F31188BFF36F8F044B07
:10198800A3FB0030800B38BD980000209000002099
:101998002D34A9F908B5334B9B6803F00C03042BCD
:1019A8005BD0082B5BD12F4B5A6802F03F025B6873
:1019B80013F4800F2CD02B4B5868C0F388104FEAD3
:1019C800401CBCEB000C6EEB0E0E4FEA8E1343EA84
:1019D8009C634FEA8C11B1EB0C0163EB0E03DB0047
:1019E80043EA5173C90011EB000C43F1000359029B
:1019F80000234FEA4C2041EADC51FEF7C1FB194BAA
:101A08005B68C3F3014301335B00B0FBF3F027E0ED
:101A1800144B5868C0F388104FEA401CBCEB000C0C
:101A28006EEB0E0E4FEA8E1343EA9C634FEA8C115D
:101A3800B1EB0C0163EB0E03DB0043EA5173C90001
:101A480011EB000C43F10003990200234FEA8C20AC
:101A580041EA9C51FEF794FBD1E7034800E00348B4
:101A680008BD00BF0038024000127A000024F400CC
:101A78000246002850D02A4B1B6813F480431DD01F
:101A8800284B984204D8284B984212D9002300E0EA
:101A9800052383B125498A4201D903B9032324497F
:101AA8008A4200D94BB123498A4207D933B9012365
:101AB80004E00023EEE70423ECE702231849096851
:101AC80011F4804F14D11C498A4206D903B9042362
:101AD80016498A4201D903B9032315498A4200D914
:101AE8002BB114498A4203D913B9012300E0022318
:101AF80012490A6822F007021A430A6002210F4AB3
:101B0800126802F007020139934201D00029F6D188
:101B1800934203D00120704701207047002070478E
:101B28000070004080D1F008000E2707804A5D054C
:101B38000087930380C3C901001BB700003C024023
:101B4800034B00E01433034A9342FBD3704700BFB2
:101B5800744100088C42000838B54FF01003EFF3C9
:101B6800118583F31288BFF36F8F064B9C6802F0D0
:101B7800A5F885F31188BFF36F8F2046FEF75EFF47
:101B880038BD00BF5C03002070B50646134B53F800
:101B9800204009E0434219E0EA681370EA68537884
:101BA80043F0010353700834731C0C4A52F8233075
:101BB800A34212D965686DB12368002BEED0284680
:101BC800984703460028E9D00028E3DBFF2BE3DD34
:101BD800FF23E1E723689847E5E770BD144900084B
:101BE80010B586B0B023114C03FB004400EB400C49
:101BF80000EB80000E4B03EB80030E4A0592012296
:101C080004920F22039200220292019200930A4B3F
:101C18004FF4A072094901EBCC11204600F01CF9E1
:101C2800637B23F00403637306B010BDA00000209B
:101C38005C03002004490008F13E0008000C002065
:101C480008B50A4B01221A700320FFF79DFF00F028
:101C5800F5FD0420FFF798FF00F062F9FEF7FAFBA4
:101C6800034A137B23F00103137308BD9503002077
:101C78005001002008B50146014A0248FEF7E2FF7C
:101C8800491C00085001002008B50648064A121AE7
:101C9800002102F016F80548054A121A002102F040
:101CA80010F808BD900000209803002000000010E4
:101CB8000000001010B50446FFF792FFB023114949
:101CC80003FB0411104A04EB840302EB8303D9607D
:101CD8001C7404EB44110D4B03EB811303F50463EF
:101CE80004EB840402EB84025360094BBFF35B8F5F
:101CF80053E8001F013143E80012002AF8D1BFF36E
:101D08005B8F10BDA00000205C030020C0030020F2
:101D18005803002070B586B000F06CFB104D114BD5
:101D28005D61114B059301230493002403940294ED
:101D3800019400940D4B4FF480620D49284600F041
:101D48008BF806466B7B23F004036B73284602F07E
:101D580026F82046FFF7AEFF304606B070BD00BF3C
:101D6800500100205C0300200C490008491C0008B1
:101D7800800D002000B5ADB00020FFF705FF1C4B1B
:101D880083F308881B4C636943F400736361F02391
:101D980084F822300025E57725766576A57684F8DF
:101DA8002050636A43F4E0236362FEF71BFEFEF7EC
:101DB80065FF4FF0FF33A362E362FFF727F8FEF7F2
:101DC8009FFF01248DF80D408DF80C402595269530
:101DD8002895094BC3F808D0FFF7B2FE2046FFF755
:101DE800D3FE0220FFF7D0FEFFF794FFFFF742FF74
:101DF800000C002000ED00E05C0300204FF0100311
:101E0800EFF3118183F31288BFF36F8F0A4B1B6ABC
:101E1800834204D11A6F084B1A6207E0134613B1C4
:101E28001A6F8242FAD10BB1026F1A6781F31188D7
:101E3800BFF36F8F704700BF5C03002008B553EAFB
:101E4800020102D101F065FF08BD0249183000F017
:101E5800F1FBF9E75D3E00082DE9F04F85B0044637
:101E68000F4615461E46DDF838A0DDF83C90DDF833
:101E78004080DDF84CB000F158038365C365129BC0
:101E88000422119901F049FF2A463946204601F0FB
:101E980020FF0546CDF80880CDF80490CDF800A0C5
:101EA8003346024639462046FEF786FE0023636520
:101EB8002666C4F864A0C4F86890C4F86C804FF033
:101EC8001003EFF3118283F31288BFF36F8F134B64
:101ED800196A21671C6282F31188BFF36F8FBBF107
:101EE800000F13D01F22594604F1740002F05EF867
:101EF800002384F89330094B9B685BB1D3F8A0307A
:101F0800C4F8A030284605B0BDE8F08F002384F857
:101F18007430F0E7C4F8A030F4E700BF5C03002099
:101F280010B586B0184C14E0636A0593236A0493CD
:101F3800E3690393A3690293636901932369009397
:101F4800E368A26861682068FFF786FF23685C651C
:101F580030340E4B9C42E7D300F0A4F80A4C00E062
:101F680030340A4B9C420BD2A26AE36AB3F1FF3FBA
:101F780008BFB2F1FF3FF3D02068FFF75FFFEFE73C
:101F880000F0C8F906B010BD1C4500081C45000843
:101F9800C3897F2B11D80E4B1B687BB190F90E209B
:101FA8000C4B1B689A420CDB437B13F01F0F0AD1C2
:101FB800094B984209D0012300E0002303F00100F7
:101FC80070470023FAE70023F8E70023F6E700BF8D
:101FD8008C03002088030020A0000020044BC01AB6
:101FE800C010044B03FB00F0034B01221A54704746
:101FF80000020020ABAAAAAA8403002070B50546F7
:102008000D4B1E7C06EB46030C4C04EBC304204628
:1020180001F0AAFF0A4B00229A552846FFF7B8FF9D
:1020280000B970BD074B1A68013AD3170649204614
:1020380000F000FBF5E700BF5C0300200002002071
:10204800840300208C030020E51F000808B50B4618
:1020580059B9EFF3058242B9064A5069926890422D
:1020680003D00846FEF704FD03E083F31188BFF3AD
:102078006F8F08BD5C03002008B5034650B9EFF325
:1020880005823AB9064A51699268914202D0FEF730
:10209800EFFC03E083F31188BFF36F8F08BD00BF27
:1020A8005C03002000234FF01002EFF3118182F34C
:1020B8001288BFF36F8F09E0064B9A68D37B013B08
:1020C800D37381F31188BFF36F8F0123002BF3D0F3
:1020D800704700BF5C03002038B50446104801F083
:1020E80057FE054670B184B90E4B9B685A7B12F0B7
:1020F8001F0F0AD1AA6942B9DA897F2A05D9094A84
:1021080053610BE0074BDD68EDE7064B9B68AB427C
:1021180002D02846FFF772FF024B5D6138BD00BF51
:10212800740300205C03002038B50546427B90F913
:102138000D30002B0ADB6B7B63F07F036B731B4B4B
:1021480053F8184F9C4210D100240EE002F07F0291
:1021580042730146164801F005FEECE763686B60C0
:102168002C601D60656017E000246CB1214628468C
:1021780001F0E2FD0028F1DC002CF6D00B4BDB6906
:102188009C42F1D02468F0E7084BDA6903F11801A2
:1021980029606A601560DD61044B9868A84214BF25
:1021A80000200120FFF798FF38BD00BF5C03002026
:1021B8007403002038B54FF01002EFF3118382F357
:1021C8001288BFF36F8F1D46144B9C68144B1B6815
:1021D800A34217D0124B00221A60104B1B7C114AE5
:1021E800D35C53B12046FFF7D3FE30B1637B13F0C5
:1021F8001F0F0FD02046FFF701FF85F31188BFF3AB
:102208006F8F38BD2046FFF7F9FE85F31188BFF3BD
:102218006F8FF6E72046FFF787FFEBE75C030020A8
:102228008003002084030020427B90F90D30002BAE
:1022380033DB70B5044612F01F0F01D1866906B171
:1022480070BD62F07F024273144B53F8185F9D42D1
:1022580008D1354606E06B68636025601C606C60D9
:1022680017E035466DB12946204601F065FD002886
:10227800F1DC002DF6D0094BDB699D42F1D02D68C9
:10228800F0E7064BDA6903F1180121606260146017
:10229800DC610020FFF720FFD2E770475C030020D5
:1022A80010B54FF01003EFF3118483F31288BFF3D6
:1022B8006F8F437B13F0040F04D184F31188BFF3AD
:1022C8006F8F10BD23F004034373FFF7ADFF214662
:1022D8000148FFF7BBFEF4E79003002010B5044661
:1022E800427B90F90D30002B08DB084B9868A04220
:1022F80014BF00200120FFF7EFFE10BD02F07F029F
:1023080042730146024801F02DFDEEE75C03002010
:102318007403002010B500234FF01002EFF311846E
:1023280082F31288BFF36F8F0CE0094B9A68D37B56
:102338000133D3730020FFF7CFFE84F31188BFF376
:102348006F8F0123002BF0D001F000FD10BD00BFFE
:102358005C03002038B5437B0B4213D104460D467D
:102368000B43437303F09F02427312F0800F0AD1AC
:10237800082D10D00120FFF7AFFE102D02D0204607
:10238800FFF73CFD38BD03F01F03437301460948BE
:1023980001F0E8FCECE7A36813B1204601F0EAFC81
:1023A80004F1180001F0E0FD04F1580001F013FDFC
:1023B800E0E700BF7403002038B504460D4662B15B
:1023C80008212046FFF7C6FF094B9B68A34206D0A9
:1023D80085F31188BFF36F8F38BD1021F1E7EFF354
:1023E8000583002BF4D12846FEF742FBF4E700BF33
:1023F8005C03002008B5024801F04DFD08BD00BF90
:1024080070030020F8B54FF01003EFF3118683F343
:102418001288BFF36F8F1D4CA1684B7B03F07F03BD
:102428004B7304F11807384601F09CFCA5686B7BD8
:1024380063F07F036B73A469BC4208D1002406E0F3
:1024480063686B602C601D60656017E000246CB1E8
:102458002146284601F070FC0028F1DC002CF6D05B
:102468000A4BDB699C42F1D02468F0E7074BDA6934
:1024780003F1180129606A601560DD610120FFF72A
:102488002BFE3046FEF7F4FAF8BD00BF5C030020CF
:102498002DE9F04150EA010338D004460E466FF0AA
:1024A80001031B1A4FF0FF3262EB0102012B72F19C
:1024B80000022FDB6FF001052D1A4FF01003EFF328
:1024C800118883F31288BFF36F8F144FB868144BC9
:1024D8001860FFF703FFB8682246334611491830E1
:1024E80000F0A8F8BA68537B43F0100353734046D2
:1024F800FEF7BEFA01F056FD281A63EB0303012824
:1025080073F1000300DA0020BDE8F081FFF77AFFDD
:102518000020F9E701F046FD0519CEE75C0300202D
:10252800800300205D3E000808B5B1F1FF3F08BFF9
:10253800B0F1FF3F22D0FFF7ABFFC317093043F1DB
:1025480000030021C21820D20A441149A1FB02CE7F
:102558002EF0030C0CEB9E0CA2EB0C02801A63F11C
:1025680000024FF0CC3300FB03F301FB0233A0FB66
:1025780001010B44400840EAC37008BD054B986848
:1025880001F06EFC4FF0FF30F7E70121DCE700BFF8
:10259800CDCCCCCC5C030020014B9868704700BFC1
:1025A8005C03002008B50948094A121A094901F0D4
:1025B8008CFB094A09490A4801F087FB09480A4A7D
:1025C800121A0A4901F081FB08BD00BF0000002073
:1025D8008C000020644900080000000064490008DD
:1025E800000000200000001000000010F049000862
:1025F800034B1868984200D070470020FCE700BFE2
:102608006800002030B1044A5268904201D0006846
:1026180070470020704700BF6800002008B5044BD1
:102628001B680BB1002008BDFFF794F9FBE700BF5A
:1026380090030020B3F1FF3F08BFB2F1FF3F74D011
:102648002DE9F047044692461D46816000234FF06D
:102658001002EFF3118782F31288BFF36F8F26E021
:102668001AF1010845F10009FFF7D8FF18EB00033C
:1026780049EBE070236160613BE0521A66EB0303AB
:10268800026143614368636020601C60446005E048
:10269800264B5A682360626014605C60FFF7A8FFED
:1026A80084423AD087F31188BFF36F8F0123002B40
:1026B80039D153466FF00101B1EB0A014FF0FF30F9
:1026C80060EB0502002ACBDB194A116852685B18D7
:1026D80042EB05026FF00101C91A60EB02030846DC
:1026E8001A46012973F1000301DA01200022206152
:1026F8006261FFF77DFF0028CAD002694669216937
:102708006369914273EB060EB7DB891A63EB060324
:1027180021616361FFF776FFEDE701F008FC002116
:10272800FFF786F8BEE7BDE8F0877047680000202D
:102738001802002070B54FF01003EFF3118683F3F1
:102748001288BFF36F8F2B4B1860FFF751FF0446B9
:1027580024E0294A136851685B1941EBE57113605D
:10276800516000220023C4E90423204601F0C8FB7D
:1027780086F31188BFF36F8FA368204698474FF000
:102788001003EFF3118683F31288BFF36F8F194A92
:1027980013685B1B1360FFF72BFF04463CB12569E8
:1027A8006169144B1A68D317AA428B41D1DA44B134
:1027B800236962690F4909685B1A62EBE172236158
:1027C80062610D4A0B4D2868136851681B1841EB6C
:1027D800E0711360516000242C6001F0A8FB2146D1
:1027E800FFF726F886F31188BFF36F8FFFF7E2FC37
:1027F80070BD00BF900300201802002010B5002211
:102808004FF01003EFF3118483F31288BFF36F8F37
:10281800134611460CE0FFF701FF074A1368516899
:10282800C31841EBE07184F31188BFF36F8F012265
:10283800002AF0D0184610BD1802002008B502483A
:1028480000F054FB08BD00BF2C4900082DE9F04FEB
:102858008DB043680293837815469A07804640F105
:102868000D8100240E78002E00F00A81252E0BD051
:102878004B1C03930134029B41463046984700287D
:10288800C0F2F6800399EDE74E788B1C252E039352
:10289800F0D00027B946BB46BBF11F0F38D8A6F1C8
:1028A8002003102B0AD8DFE803F02A0909300909A8
:1028B800092109090928092D09091F00A6F1300372
:1028C800092B33D92A2E37D11BF0400F55F8043B7A
:1028D80040F08280002BA7BF4BF0200B9946C3F134
:1028E80000094BF0280B01E04BF0010B039B13F898
:1028F800016B0393002ECFD130E04BF0020B4BF06D
:10290800040BF3E74BF0080BF0E74BF0100BEDE787
:10291800BBF17F0F19D8A6F13003092BD2D81BF0D1
:10292800400F03D00A2101FB0737DFE70A2101FB2B
:1029380009394BF0200BD9E72E2E06D11BF0400F9A
:1029480040F09E804BF0400BD0E76C2E31D02BD856
:10295800682E36D06A2E3CD04C2E3AD0002F46F046
:102968002003B8BF2BF04002A3F16501BCBF1FFADA
:1029780082FB0027022901D9612B2FD1073525F0C9
:102988000705DFF8ACA2083507271BF0080F66D04B
:102998000AEB070B56465E4563D1A4EB0A0A06EB21
:1029A8000A02A9EB07096FE1742E9FD07A2E9DD0F9
:1029B800D4E71BF0800F18BF4BF4007B4BF0800B63
:1029C80094E71BF4807F18BF4BF4007B4BF4807BAB
:1029D8008CE74BF4207B89E71F4687E7A6F1630164
:1029E800122900F2F080DFE811F013004F00EE002A
:1029F800EE00EE00EE004F00EE00EE00EE00EE00FE
:102A0800EE00FE00E900EE00EE001B00EE00AF0055
:102A180055F8043B8DF8183001270DF1180AB4E772
:102A280055F804AB834BBAF1000F08BF9A461BF068
:102A3800400F14BF39464FF0FF31504601F0C6FA37
:102A48000746A2E7029B41462020984700280FDB53
:102A5800013EB742F6D34C44A41BB14698E74E4614
:102A6800F7E716F8010B029B41469847002892DACF
:102A780098F8023043F0040388F802304FF0FF342E
:102A880020460DB0BDE8F08F1BF0800F34D01BF44A
:102A9800007F2CD0073525F00705AA4669685AF843
:102AA800080B2BF010050029ADB237DA404261EB74
:102AB800410145F480650DF1180B0A235A4601F0CF
:102AC80091FAA0EB0B0301936B0662D5019B25F0ED
:102AD80001019F4289B240F3A180002E00F0998045
:102AE80015F0100240F09C80BB460D4623E0AA4634
:102AF8005AF8040BC117D4E7AA461BF4807F5AF88A
:102B0800041B01D10846F5E71BF4007F15BF48B246
:102B180008B241F3C01141F3C031C2E750EA0103E2
:102B2800C9D11BF0400FC6D0002FC4D12BF0110221
:102B380095B2BB46019740F2064115EA01021CBF57
:102B48000BF1010B00222CE02BF010021FFA82FB84
:102B58000A231BF0800C49D01BF400711DBF0735F8
:102B680025F00705AA46AA461ABF5AF8080B69684D
:102B78005AF8040B50EA010545D12BF016051BF055
:102B8800400FADB242D0002F40D12BF0170295B2C2
:102B9800019715F0100248D0019B002E42D103F195
:102BA800010B29075AD4EB0706D5D9456FDD0199E2
:102BB800A9EB0B035F18CB465B4649E04BF0100BC3
:102BC80010237826C5E7782B04D1C6F1780343F0A3
:102BD8001003BEE7029B4146252098470028FFF6D0
:102BE80047AF023447E608230026B2E7AA461BF49B
:102BF80080715AF8040BBDD01BF400711ABFC0B223
:102C0800614680B2B6E72BF0060295B20DF1180BBB
:102C180054E725F01105ADB2BB468CE70D46B8E781
:102C28003B460D4603F1020BBBE7DDF804B082E733
:102C38005B49000854490008CDE904324146029B2B
:102C4800202098470028FFF613AF049B059A01330C
:102C58009945F1DCA4EB0B01CC189B460AB3029B07
:102C68004146302098470028FFF602AF8EB901345C
:102C78002744019B391B994224DC1D465DBB019A00
:102C8800A9EB0B09224455461446914435E0019FAF
:102C980092E7023441463046029B98470028E7DA1B
:102CA800E6E640F206410D42E2D015F0020F14BFED
:102CB8002B20202015F4806F04F10104414618BF31
:102CC8002D20E9E7029B414630209847002804F16F
:102CD8000104CEDACCE606AB013D4146585D029BC5
:102CE80098470028CADAC3E6029B41462020984745
:102CF800002804F10104FFF6BBAEA9EB0403002B86
:102D0800F2DCBFE5704738B513468568046912F4EC
:102D1800801F07D012F4402F04D012F0010F01D009
:102D280082F4402323F4801213F0010F0AD02368A1
:102D38004FF0010C0CFA01FC43EA0C0323602B68EA
:102D4800984738BD23684FF0010C0CFA01FC23EAC0
:102D58000C032360F3E708B503468C46006819792D
:102D6800DA8842EA0C02FFF7CEFF08BD38B50C46F8
:102D7800056983685B68984718B923682A685340CF
:102D8800236038BD10B582B00C4601A9FFF7EEFFED
:102D980030B90123A340019A134214BF0120002037
:102DA80002B010BD08B532B1012303FA01F18368FE
:102DB800DB68984708BD012303FA01F183681B69A2
:102DC8009847F7E710B503691C6801238B401C423C
:102DD80002D0B2FA82F25209FFF7E4FF10BD08B53B
:102DE80020EAE073D9178A0042EA93729800C01863
:102DF80041EB020100184941FFF796FB08BD10B5E9
:102E0800131D50F8234074B9C36801249440234328
:102E1800C360043240F82210CB001A1D89B28152D7
:102E28000633C15210BDE2000432835A4FEAC10C86
:102E38000CF1040E20F80E300CF1060C20F80C40B2
:102E4800DB00063389B2C1528152EBE708B500EBCB
:102E5800C1035A885208B2FA82F2C2F11F02FFF780
:102E6800CEFF08BD70B50346043AC81D20F0070020
:102E78000A4422F00702121AD50818608560002358
:102E8800C360B5FA85F1C1F1200EC1F124018900B2
:102E9800CE1DF10805E003F1040C002440F82C4095
:102EA80001337345F7DB4C00A4B244804FF0000CAB
:102EB800A0F800C044F0010444806B1A4FEA430EA6
:102EC80026F00704A51C20F805E0015322F00704AA
:102ED800951C20F805C002440353538843F00103AE
:102EE8005380FFF7B3FF70BD002070470FB400B5E3
:102EF80083B004A951F8040B0191FDF72FFB03B02F
:102F08005DF804EB04B07047704708B5FEF724FE7F
:102F180008BD08B501460068FFF7F7FF08BD0020A7
:102F2800704700230B70704708B500231370CB1E41
:102F3800092B1AD8DFE803F005090D111919191919
:102F480019141146FDF7C0FC10E00021FDF752FCF2
:102F58000CE00021FDF7B8FB08E0FDF7FBFB05E0FE
:102F68001146FFF7DEFF002000E0002008BD08B58D
:102F780040B2FDF7DBFD08BD08B5013140B2FDF7F1
:102F8800E3FD08BD08B500210120FFF7BEFF08BD1D
:102F980043685A1E134206D11F2B06D903681A42EA
:102FA80005D000207047002070470020704701209E
:102FB800704700B585B00B6801934B688A68202B71
:102FC80012D9B3F1004F11D8013BB3FA83F3C3F11F
:102FD8001F035B0003F03E031343039301A9FDF7AE
:102FE800C3FE05B05DF804FB0823F5E73E23F3E7CD
:102FF8002DE9F84380460F4699461646002509E014
:103008002146F0B2FFF7D5FF064610F1160F14D08F
:1030180001360135BD4210DA05EB450408EB84049E
:103028006268002AF5D0B9F1000FE9D02046FFF711
:10303800AFFF0028E4D16FF015063046BDE8F883ED
:10304800F0B585B0054603A8FDF7DCFA064600246E
:1030580025E0B3F5801F40F0C6805768095893688B
:10306800202B64D9B3F1004F63D8013BB3FA83F343
:10307800C3F11F035B0003F03E0343F0885343F49E
:10308800302300970191029369462878FDF76CFE7A
:103098000028C0F2A8802B7801332B700134A64297
:1030A80040F2A5802001039901EB0412D3681B0D9F
:1030B8001B05B3F5000F5ED01DD8B3F5001F3AD03D
:1030C800B3F5800FC5D1576809589368202B4ED99E
:1030D800B3F1004F4DD8013BB3FA83F3C3F11F039B
:1030E8005B0003F03E0343F0E06343F400330097D2
:1030F80001910293C8E7B3F1807F56D0B3F1007F06
:1031080071D1576809589368202B68D9B3F1004FDB
:1031180067D8013BB3FA83F3C3F11F035B0003F0E5
:103128003E0343F48023009701910293ACE7082300
:10313800A3E73E23A1E7576809589368202B12D9C3
:10314800B3F1004F11D8013BB3FA83F3C3F11F0366
:103158005B0003F03E0343F0885343F400230097D9
:103168000191029390E70823F5E73E23F3E708234C
:10317800B9E73E23B7E7576809589368202B10D959
:10318800B3F1004F0FD8013BB3FA83F3C3F11F0328
:103198005B0003F03E0343F08273009701910293B2
:1031A80072E70823F7E73E23F5E75768095893685D
:1031B800202B10D9B3F1004F0FD8013BB3FA83F39A
:1031C800C3F11F035B0003F03E0343F088730097CD
:1031D8000191029358E70823F7E73E23F5E7082310
:1031E8009FE73E239DE76FF0150005B0F0BD002076
:1031F800FBE708B5FDF7CCFD08BD08B5FDF7D2FD26
:1032080008BD08B5FDF742FE002008BD08B5062236
:1032180001210020FDF786FE002211460620FFF757
:10322800ABFE072201210846FDF77CFE002211466D
:103238000720FFF7A1FE082201210220FDF772FEF8
:10324800002211460820FFF797FE092201210320DA
:10325800FDF768FE002211460920FFF78DFE0A22BD
:1032680001210420FDF75EFE002211460A20FFF727
:1032780083FE172205210846FDF754FE0022114659
:103288001720FFF779FE282206210A20FDF74AFEBB
:10329800002211462820FFF76FFE002008BDB0FB72
:1032A800F1F002FB00F0B0FBF3F07047B0FBF1F077
:1032B8007047012806D038B10338022807D96FF0C3
:1032C80085007047002070476FF085007047002028
:1032D80070470B68A3F13002782A09D803F18043BC
:1032E80003F50E334A6819680A431A6000207047CC
:1032F8006FF0850070470B68A3F13002782A0AD86E
:1033080003F1804303F50E3349681A6822EA010283
:103318001A60002070476FF08500704710B50C46A2
:103328000868FFF7C6FF00281FDB6368FF2B1DD066
:10333800DAB202F1804202F50E32C3F34231C3F32E
:1033480004239940136823EA010313606168CBB230
:1033580003F1804303F50E33C1F30242C1F30421A4
:103368008A4019680A431A60002010BD0020FCE753
:1033780008B50868A0F13003782B0BD800F180401D
:1033880000F50E3002684B68934301D0012008BD58
:103398000220FCE7FFF78DFF08B10120F7E70220C4
:1033A800F5E74FF4800070470B4639B11168196092
:1033B80041688A4209D0002313607047136803608C
:1033C80041688A42F7D14360F5E74360F3E708B5FF
:1033D8000A460368002101E019461B682BB1934295
:1033E800FAD1FFF7E1FF012000E0002008BD70B529
:1033F80004460D461646036833B1FFF7E8FF70B977
:103408001EB96FF0150006E032B123682B60256005
:10341800636843B1002070BD6FF01500FBE7002E14
:10342800F3D10020F7E765600020F4E770B50E4699
:103438001546016821B10C683CB131B90C4604E06D
:103448000C4602E0234621461C4671B18A682A4090
:1034580002D04B6830469847002CF3D02368002BE5
:10346800F1D0002CEFD12346EDE770BD08B50B462F
:1034780001228240496803F10800FFF7D7FF08BD21
:1034880010F4003F1BD010230B6010F0020F04D083
:1034980010F0040F2CD050230B6010F0100F05D043
:1034A8000B6843F400730B600020704710F0200F86
:1034B80021D00B6843F480630B600020704710F440
:1034C800803F11D000230B6010F0100F04D04FF490
:1034D80000730B600020704710F0200F0DD04FF4E0
:1034E80080630B600020704730230B60002070471A
:1034F8006FF08500704700207047002070474368D0
:103508005B681B690B600020704743685B685869FB
:1035180042400A4042405A610020704743685B6855
:1035280099610020704743685B680904996100202D
:10353800704743685A6853694B405361002070478D
:1035480008B500690830FFF752FF08BD10B40468D9
:1035580091FAA1F39BB1B3FA83F35B004FF0030C2C
:103568000CFA03F324EA030391FAA1F149B1B1FA81
:1035780081F149008A401343036010BC704720233F
:10358800EBE72021F5E710B4846891FAA1F39BB129
:10359800B3FA83F35B004FF0030C0CFA03F324EA4D
:1035A800030391FAA1F149B1B1FA81F149008A40C6
:1035B8001343836010BC70472023EBE72021F5E715
:1035C80010B4C46891FAA1F39BB1B3FA83F35B001A
:1035D8004FF0030C0CFA03F324EA030391FAA1F168
:1035E80049B1B1FA81F149008A401343C36010BC64
:1035F80070472023EBE72021F5E710B4046A91FA1D
:10360800A1F39BB1B3FA83F39B004FF00F0C0CFAB4
:1036180003F324EA030391FAA1F149B1B1FA81F164
:1036280089008A401343036210BC70472023EBE7EC
:103638002021F5E710B4446A090A91FAA1F39BB175
:10364800B3FA83F39B004FF00F0C0CFA03F324EA50
:10365800030491FAA1F149B1B1FA81F189008A40D4
:103668001443446210BC70472023EBE72021F5E7A0
:103678002DE9F8430F461546984643685E680124CD
:103688008C4002F03009C2F38013706820EA04000D
:103698008B4018437060C2F3C11221463046FFF7D1
:1036A80072FFC5F3412221463046FFF789FFB9F181
:1036B800200F07D04FEA191221463046FFF746FF80
:1036C800BDE8F883072F05DC424621463046FFF760
:1036D80094FFEFE7424621463046FFF7ABFFE9E7A4
:1036E800F0B583B007460D46144601A91046FFF70A
:1036F800C7FE064670B914F4003F05D014F4002F35
:103708000BD114F4802F0ED10023019A2946384694
:10371800FFF7AEFF304603B0F0BD0121A94038469F
:10372800FFF7FCFEF0E70121A9403846FFF7FBFE52
:10373800EAE708B54A4201F0030302F0030258BF62
:10374800534204339B000F2202FA03F30A4600296E
:1037580004DB43EAA201FDF705FE08BDCA1CF8E731
:1037680008B5424200F0030302F0030258BF534277
:1037780004339B000F2202FA03F30246002804DBFD
:1037880043EAA200FDF728FE08BDC21CF8E7F8B519
:1037980007460E4614461D46FFF76AFF112D01D055
:1037A8000020F8BD14F4006407D1002CF8D10121E1
:1037B800B1403846FFF7B7FEF2E70121B14038467D
:1037C800FFF7ACFEECE700B50368136001E00833CF
:1037D8001360136890F804C0D0F800E00EEBCC0C2E
:1037E800634505D293F805C08C45F0D1002001E06F
:1037F8006FF001005DF804FBF8B506460F4600249B
:10380800254614E002F01F0110291FD011291BD0F2
:10381800530A1B01DBB2C2F3431002F01F02294610
:103828001843FDF74DFE002813DB0134E4B2BC4217
:103838000ED206EBC40356F8342012F0100FE1D173
:103848005D6845F02005E3E75D68E1E73025DFE7DF
:103858000020F8BD43681868C1F34B1301F01F013D
:10386800C05801238B40184214BF01230023137052
:103878000020704710B443681C68C1F34B1001F076
:103888001F01235801228A4013432350002010BCF3
:10389800704710B443681C68C1F34B1001F01F0156
:1038A800235801228A4023EA02032350002010BC37
:1038B800704738B504460D46FFF7DCFF2946204619
:1038C800FFF7E7FF002038BD08B58368DB680BB158
:1038D800984708BD6FF05700FBE730B583B00C463A
:1038E800456803691868E9688368DB6873B101AAE9
:1038F800984700280ADB2A68D36823F40043D3607A
:103908002346002201992868FDF7FAFD03B030BD6F
:10391800F8B50C46476803695D68097901294ED0F6
:1039280002294FD14FF480636279012A4FD0022ACD
:103938004FD0002A48D04FF40052A679042E4BD01D
:1039480000294CD14FF0000CE17901294AD000211F
:10395800A5424AD03F68FE6806F4C06E734504D09D
:10396800FE6826F4C0663343FB6043681E6833690B
:1039780003F440539A4204D0336923F44053134369
:10398800336143681A68D36803F480539C4505D0B3
:10399800D36823F480534CEA0303D36043681A685E
:1039A800536903F44073994204D0536923F4407374
:1039B8001943516121682B6899422ED1F8BD4FF403
:1039C800C063B1E70023AFE74FF48052B5E70022A8
:1039D800B3E74FF44052B0E74FF4805CB4E74FF4DC
:1039E800805CB1E74FF44071B2E73E68F56825F4B2
:1039F800B05543EA0C032B43F360336923F4405377
:103A08001343336143681A68536923F440730B43C3
:103A180053612168FFF761FFD0E7FFF75EFF236876
:103A28002B60CBE703695B681B680B6043681B6806
:103A3800DB6803F4C063B3F5806F2AD0B3F5C06FB9
:103A480029D101230B7143681B681B6903F4405398
:103A5800B3F5805F23D0B3F5405F22D0EBB10323E9
:103A68004B7143681B68DA68DB6803F4C06312F4BF
:103A7800805F18D1E3B903238B7143681B685B69C6
:103A880003F44073B3F5407F14D00023CB710020BA
:103A980070470223D6E70023D4E70123E0E7002399
:103AA800DEE70223DCE70BB90423E5E70323E3E7BA
:103AB8000223E1E70123E9E710B582B04068036813
:103AC8001C6814F0080F05D01C680194019C5C6800
:103AD8000194019C1B6813F0200F03D0904700202D
:103AE80002B010BD4FF0FF30FAE710B54068036828
:103AF8001B6813F0800FFAD04FF01004EFF3118316
:103B080084F31288BFF36F8F1C4603681B6813F099
:103B1800800F04D184F31188BFF36F8FE7E79047D4
:103B280084F31188BFF36F8F10BD03685B680B7057
:103B3800704703680A785A60704784B0426813680F
:103B4800186810F0080000D00120196811F0010F62
:103B580001D040F00200196811F0020F01D040F0C6
:103B68000400196811F0040F01D040F02000196812
:103B780011F4807F01D040F0080010F0080F02D047
:103B88006FF48071196010F0010F06D0136819687E
:103B9800009100995B680093009B10F0020F06D01B
:103BA80013681968019101995B680193019B10F0F2
:103BB800040F06D013681968029102995B68029392
:103BC800029B10F0200F06D013681A680392039A1C
:103BD8005B680393039B04B0704770B5054644685F
:103BE80003695E682268D36823F40053D360606871
:103BF80000F04BF810B3A1686068FFF765FE226813
:103C080002F10C0353E8003F43F00C0302F10C00EF
:103C180040E800310029F3D131462846FFF778FE05
:103C2800237D23B12268536943F008035361226856
:103C3800D36843F40053D360002070BD6FF01200C6
:103C4800FBE700B583B001AAFFF7BDFD002805DB3F
:103C5800019B002219791868FFF7CEFD03B05DF8C3
:103C680004FB38B504464568FDF760FD00280BDB0A
:103C78000021286AFFF7E5FF002805DB2046FFF74B
:103C8800ACFF002800DB002038BD60B1C3685A785B
:103C980012F0010F03D01B781BB1002070470020E1
:103CA800704701207047002070474FF01002EFF373
:103CB800118382F31288BFF36F8FFEE708B5FFF711
:103CC800F4FF08B500F0F3F908BD08B500F0E1F914
:103CD80008BDF8B50646D51D25F0070501F14007D2
:103CE80015F1400305D3404080F311884FF00400DC
:103CF80002DFCC1821463046FCF7B4FCC31D23F084
:103D08000703C6F89470C6F89850C6F89C30E01AB5
:103D1800F8BD08B5FEF7C4FA08BD10B400248460E5
:103D2800037342738173C4738461C46110BC7047A8
:103D3800002070478068704790F90E3091F90E00A6
:103D4800834201D0C01A70470020704708B54FF071
:103D58001003EFF3118083F31288BFF36F8FFEF720
:103D68008BF908BD4A680B6813605A6000230B6022
:103D78004B60704710B50446FFF7DCFF2146FFF79C
:103D8800F1FF637B23F0020363730023A36010BD7C
:103D980003460068834200D070470020FCE738B52E
:103DA800044600234FF01002EFF3118582F31288C6
:103DB800BFF36F8F04E085F31188BFF36F8F012382
:103DC80043B92046FFF7B4FF0028F4D12046FEF798
:103DD8002BFAF0E738BD38B505462C68A5420ED059
:103DE8006CB12046FFF7C6FF04F1180000F0BCF8DC
:103DF8000023C4F8AC302046FEF716FAEDE738BDCC
:103E080070B504460E4600234FF01002EFF31185FB
:103E180082F31288BFF36F8F07E02046FEF704FA9B
:103E280085F31188BFF36F8F012393B9637B13F078
:103E3800280FF5D1A36813B12046FFF79BFF637BDA
:103E480023F004026273002EE7D023F01403637397
:103E5800E3E770BD08B501211838FFF7D1FF08BDA9
:103E680010B50446183000F07FF84FF01003EFF358
:103E7800118183F31288BFF36F8F637B13F0100FE8
:103E880004D081F31188BFF36F8F10BD0022204644
:103E9800FEF792FAF9E7031D43608360704708B59F
:103EA8004FF01003EFF3118183F31288BFF36F8F84
:103EB800037B13F0010F08D1437B13F0080F0FD0D9
:103EC80081F31188BFF36F8F09E081F31188BFF385
:103ED8006F8F404080F311884FF0040002DF08BD67
:103EE8000122FEF769FAFAE708B54FF01002EFF37E
:103EF800118382F31288BFF36F8FFCF7C5FEF4E7D6
:103F080010B50446FEF77EFB48B1024603694169D5
:103F180020691B18606941EB0001136151616268F7
:103F2800236813605A6000232360636010BD10B5D6
:103F3800FEF75EFB0446FEF771FB7CB123696269FC
:103F48001B1A62EBE072B3F1004F72F1000108DA5C
:103F5800002A01DB184610BD0023FBE76FF0004084
:103F6800F9E76FF00040F6E770B5044600234FF01C
:103F78001002EFF3118682F31288BFF36F8F6FF090
:103F8800150004E086F31188BFF36F8F01231D46E7
:103F98003BB92368002BF5D02046FFF7B1FF284630
:103FA800F0E770BD08B5FEF729FC08BD10B501396A
:103FB800044632B111F8013F00F8013B013A002BE9
:103FC800F7D1002100F073F8204610BD10B5024665
:103FD80001448A42134603D01C780132002CF8D1E0
:103FE800181A10BDF0B5C3F137070446FFB203F045
:103FF8001F031046082BE6B233D0102B3ED06508BD
:10400800A40844EA817445EAC1752D194FEA910262
:1040180042EB5102290941EA02716D1842EB121272
:10402800290A41EA02616D1842EB1222290C41EA81
:1040380002416D1842EB1242AD1842F10002EC0841
:1040480044EA4274D10804EB8402A6EB4205EDB2BF
:10405800092D0CD90134A5F10A0541F10001EDB291
:1040680012E0E40844EA417406F00705C90830354F
:1040780054EA010200F8015BBCD1F0BD240944EA0E
:10408800017406F00F050909092D84BFED19EDB279
:10409800EDE70A44914200F1FF3300D1704710B5B3
:1040A80011F8014B03F8014F9142F9D110BD0244B8
:1040B8000346934200D1704703F8011BF9E700005B
:0C40C80001480068704700002002002042
:0840D400E8C0FF7F01000000BD
:1040DC00D1050008000000000D1100087441000813
:1040EC00F9050008000000000000000088410008ED
:1040FC009D140008504200089D140008144200084A
:10410C00153200089C4100089D1400083C42000830
:10411C009D140008284200089D1400080042000865
:10412C009D140008EC4100089D140008D8410008BB
:10413C009D140008C44100089D140008B0410008FB
:10414C006B3C0008644200086B3C00087842000895
:10415C002913000800000000A5170008000000004B
:08416C00BD0E00080000000078
:104174005C460008000000002800002072000020B7
:10418400000000000048000814480008184800080F
:1041940086000020000000003C46000800000000EB
:1041A4000000000070000020400200206C4600085F
:1041B400FC460008B047000874000020C00200203C
:1041C4007C46000810470008B0470008760000202D
:1041D400D00200208C46000824470008B04700089D
:1041E40078000020E00200209C46000838470008C0
:1041F400B04700087A000020F0020020AC46000816
:104204004C470008B04700087C0000200003002051
:10421400BC46000860470008B04700087E00002044
:1042240010030020CC46000874470008B04700087B
:104234008000002020030020DC4600088847000896
:10424400B04700088200002030030020EC4600083C
:104254009C470008B0470008840000204003002069
:104264002848000848480008E04800088800002062
:10427400440000203848000894480008E04800083A
:084284008A0000205400002014
:10428C00000000008D2F0008000000008D2F00089A
:10429C00000000008D2F0008000000008D2F00088A
:1042AC00000000008D2F0008000000008D2F00087A
:1042BC0038460008E10E000834460008E10E0008FC
:1042CC0030460008E10E00082C460008E10E0008FC
:1042DC0028460008E10E0008000000008D2F0008A1
:1042EC00000000008D2F0008000000008D2F00083A
:1042FC00000000008D2F0008000000008D2F00082A
:10430C00000000008D2F0008000000008D2F000819
:10431C00000000008D2F0008000000008D2F000809
:10432C00000000008D2F0008000000008D2F0008F9
:10433C00000000008D2F000824460008E10E000844
:10434C00000000008D2F0008000000008D2F0008D9
:10435C00000000008D2F0008000000008D2F0008C9
:10436C00000000008D2F0008000000008D2F0008B9
:10437C00000000008D2F0008000000008D2F0008A9
:10438C00000000008D2F0008000000008D2F000899
:10439C00000000008D2F0008000000008D2F000889
:1043AC00000000008D2F0008000000008D2F000879
:1043BC00000000008D2F0008000000008D2F000869
:1043CC0020460008E10E0008000000008D2F0008B8
:1043DC00000000008D2F0008000000008D2F000849
:1043EC00000000008D2F0008000000008D2F000839
:1043FC00000000008D2F0008000000008D2F000829
:10440C00000000008D2F0008000000008D2F000818
:10441C00000000008D2F0008000000008D2F000808
:10442C00000000008D2F0008000000008D2F0008F8
:10443C00000000008D2F0008000000008D2F0008E8
:10444C00000000008D2F0008000000008D2F0008D8
:10445C00000000008D2F0008000000008D2F0008C8
:10446C00000000008D2F0008000000008D2F0008B8
:10447C00000000008D2F0008000000008D2F0008A8
:10448C00000000008D2F0008000000008D2F000898
:10449C00000000008D2F0008000000008D2F000888
:1044AC00000000008D2F0008000000008D2F000878
:1044BC00000000008D2F0008000000008D2F000868
:1044CC00000000008D2F0008000000008D2F000858
:1044DC00000000008D2F0008000000008D2F000848
:1044EC00000000008D2F0008000000008D2F000838
:1044FC00000000008D2F0008000000008D2F000828
:10450C00000000008D2F0008000000008D2F000817
:10451C00040000000F000000010000000800000073
:10452C002000000060000000700000000D00000082
:10453C000C0000000E000000500000007400000091
:10454C00A8000000FFFFFFFFFFFFFFFFFFFFFFFFC3
:04455C00FFFFFFFF5F
:1045600044000000004000004572726F723A206201
:104570007574746F6E206465766963652025732099
:104580006973206E6F742072656164790A0000009F
:104590004572726F722025643A206661696C6564A9
:1045A00020746F20636F6E6669677572652025736E
:1045B0002070696E2025640A000000001442000883
:1045C0000F000000144200080E0000001442000812
:1045D0000D000000504200080000000014420008D6
:1045E0000C000000000000200000000000000B068E
:1045F0000200000008460008464C4153485F300066
:104600005352414D5F30000000000008F84500089B
:1046100026000207000000200046000820000B11C1
:104620000A06000005050000040100000301000067
:10463000020100000101000000010000696E7465C4
:1046400072727570742D636F6E74726F6C6C6572BC
:1046500040343030313363303000000072636340E7
:104660003430303233383030000000006770696F0A
:104670004034303032323030300000006770696FC3
:104680004034303032316330300000006770696F81
:104690004034303032313830300000006770696F9C
:1046A0004034303032313430300000006770696F90
:1046B0004034303032313030300000006770696F84
:1046C0004034303032306330300000006770696F42
:1046D0004034303032303830300000006770696F5D
:1046E0004034303032303430300000006770696F51
:1046F000403430303230303030000000FFFF0000F6
:10470000002002400800000030000000000100000E
:10471000FFFF0000001C0240070000003000000006
:1047200080000000FFFF00000018024006000000AB
:104730003000000040000000FFFF000000140240B5
:10474000050000003000000020000000FFFF000016
:1047500000100240040000003000000010000000C3
:10476000FFFF0000000C02400300000030000000CA
:1047700008000000FFFF00000008024002000000E7
:104780003000000004000000FFFF000000040240B1
:10479000010000003000000002000000FFFF0000E8
:1047A0000000024000000000300000000100000096
:1047B000E9360008073500081335000825350008DC
:1047C0002F3500083B35000809140008493500085A
:1047D00000000000504200083C4200082842000847
:1047E0001442000800420008EC410008D8410008CB
:1047F000C4410008B04100080000000000000000B3
:1048000072657365742D636F6E74726F6C6C657214
:1048100000000000003802405D3800087D380008C4
:104820009B380008BB38000873657269616C4034BE
:10483000303030343430300073657269616C40342C
:1048400030303131303030000044004088410008C1
:10485000110400006C480008010000000000000086
:104860000000000000000000744800084000000044
:10487000000002007C480008010000008448000895
:104880000200000047000000000200006700000076
:10489000000000000010014088410008840400006E
:1048A000B8480008010000000000000000000000FF
:1048B00000000000C0480008440000001000000094
:1048C000C848000801000000D048000802000000AD
:1048D000C702000000020000E70200000000000024
:1048E0000917000819170008433B0008D5150008F0
:1048F0002D3A00080000000000000000010203043F
:104900000607080969646C65000000006D61696E46
:1049100000000000DC400008DC40000864410008A2
:104920006C41000874410008744100082A2A2A20BA
:10493000426F6F74696E67205A6570687972204F94
:1049400053206275696C642076332E362E30202A0F
:104950002A2A0A00286E756C6C29002A666C6F6121
:04496000742A0000B5
:10496400F12E00082D060008000000000B3200089C
:104974000000000000000000FFFFFFFFFFFFFFFF3B
:10498400FFFFFFFFFFFFFFFFDB320008FF320008DD
:1049940000000000A51100087933000800000000A1
:1049A40025330008000000004C00002000C2010074
:1049B40000010300000000005C00002000C20100B0
:1049C400000103000024F4006800002068000020B7
:1049D40000000000000000000000000000000000D3
:0C49E400000000000000000000000000C7
:0449F00015E015E0D9
:0400000508000A11D4
:00000001FF
