:020000040800F2
:10000000C01300201D130008250F00080913000865
:100010000913000809130008091300080000000074
:100020000000000000000000000000002114000893
:100030000913000800000000B9130008D5240008C7
:10004000ED150008ED150008ED150008ED15000888
:10005000ED150008ED150008ED150008ED15000878
:10006000ED150008ED150008ED150008ED15000868
:10007000ED150008ED150008ED150008ED15000858
:10008000ED150008ED150008ED150008ED15000848
:10009000ED150008ED150008ED150008ED15000838
:1000A000ED150008ED150008ED150008ED15000828
:1000B000ED150008ED150008ED150008ED15000818
:1000C000ED150008ED150008ED150008ED15000808
:1000D000ED150008ED150008ED150008ED150008F8
:1000E000ED150008ED150008ED150008ED150008E8
:1000F000ED150008ED150008ED150008ED150008D8
:10010000ED150008ED150008ED150008ED150008C7
:10011000ED150008ED150008ED150008ED150008B7
:10012000ED150008ED150008ED150008ED150008A7
:10013000ED150008ED150008ED150008ED15000897
:10014000ED150008ED150008ED150008ED15000887
:10015000ED150008ED150008ED150008ED15000877
:10016000ED150008ED150008ED150008ED15000867
:10017000ED150008ED150008ED150008ED15000857
:08018000ED150008ED15000863
:1001880081F0004102E000BF83F0004330B54FEA40
:1001980041044FEA430594EA050F08BF90EA020FAD
:1001A8001FBF54EA000C55EA020C7FEA645C7FEA40
:1001B800655C00F0E2804FEA5454D4EB5555B8BF63
:1001C8006D420CDD2C4480EA020281EA030382EAD4
:1001D800000083EA010180EA020281EA0303362D66
:1001E80088BF30BD11F0004F4FEA01314FF4801C39
:1001F8004CEA113102D0404261EB410113F0004F4B
:100208004FEA03334CEA133302D0524263EB430301
:1002180094EA050F00F0A780A4F10104D5F1200E9F
:100228000DDB02FA0EFC22FA05F2801841F10001FA
:1002380003FA0EF2801843FA05F359410EE0A5F1CE
:1002480020050EF1200E012A03FA0EFC28BF4CF0FF
:10025800020C43FA05F3C01851EBE37101F00045B5
:1002680007D54FF0000EDCF1000C7EEB00006EEBC2
:100278000101B1F5801F1BD3B1F5001F0CD349084C
:100288005FEA30004FEA3C0C04F101044FEA4452A3
:1002980012F5800F80F09A80BCF1004F08BF5FEA2A
:1002A800500C50F1000041EB045141EA050130BD0A
:1002B8005FEA4C0C404141EB0101013C28BFB1F51C
:1002C800801FE9D291F0000F04BF01460020B1FA67
:1002D80081F308BF2033A3F10B03B3F120020CDA3A
:1002E8000C3208DD02F1140CC2F10C0201FA0CF018
:1002F80021FA02F10CE002F11402D8BFC2F1200C7D
:1003080001FA02F120FA0CFCDCBF41EA0C01904032
:10031800E41AA2BF01EB0451294330BD6FEA04047B
:100328001F3C1CDA0C340EDC04F11404C4F1200266
:1003380020FA04F001FA02F340EA030021FA04F378
:1003480045EA030130BDC4F10C04C4F1200220FACF
:1003580002F001FA04F340EA0300294630BD21FA0D
:1003680004F0294630BD94F0000F83F4801306BFD3
:1003780081F480110134013D4EE77FEA645C18BFC7
:100388007FEA655C29D094EA050F08BF90EA020F5E
:1003980005D054EA000C04BF1946104630BD91EA56
:1003A800030F1EBF0021002030BD5FEA545C05D159
:1003B8004000494128BF41F0004130BD14F5800498
:1003C8003CBF01F5801130BD01F0004545F0FE410C
:1003D80041F470014FF0000030BD7FEA645C1ABF41
:1003E800194610467FEA655C1CBF0B46024650EA78
:1003F800013406BF52EA033591EA030F41F40021A4
:1004080030BD00BF90F0000F04BF0021704730B529
:100418004FF4806404F132044FF000054FF00001FE
:1004280050E700BF90F0000F04BF0021704730B5BF
:100438004FF4806404F1320410F0004548BF404294
:100448004FF000013EE700BF42004FEAE2014FEAE9
:1004580031014FEA02701FBF12F07F4393F07F4FC4
:1004680081F06051704732F07F4208BF704793F0C7
:100478007F4F04BF41F40021704730B54FF46074DA
:1004880001F0004521F000411CE700BF50EA0102DD
:1004980008BF704730B54FF000050AE050EA010286
:1004A80008BF704730B511F0004502D5404261EBF6
:1004B80041014FF4806404F132045FEA915C3FF437
:1004C800D8AE4FF003025FEADC0C18BF03325FEAD4
:1004D800DC0C18BF033202EBDC02C2F1200300FA85
:1004E80003FC20FA02F001FA03FE40EA0E0021FAAA
:1004F80002F11444BDE600BF70B54FF0FF0C4CF498
:10050800E06C1CEA11541DBF1CEA135594EA0C0F49
:1005180095EA0C0F00F0DEF82C4481EA030621EA84
:100528004C5123EA4C5350EA013518BF52EA0335BF
:1005380041F4801143F4801338D0A0FB02CE4FF071
:100548000005E1FB02E506F00042E0FB03E54FF0A1
:100558000006E1FB03569CF0000F18BF4EF0010E99
:10056800A4F1FF04B6F5007F64F5407404D25FEA95
:100578004E0E6D4146EB060642EAC62141EA555148
:100588004FEAC52040EA5E504FEACE2EB4F1FD0C8A
:1005980088BFBCF5E06F1ED8BEF1004F08BF5FEA08
:1005A800500E50F1000041EB045170BD06F00046BA
:1005B80046EA010140EA020081EA0301B4EB5C0467
:1005C800C2BFD4EB0C0541EA045170BD41F480115F
:1005D8004FF0000E013C00F3AB8014F1360FDEBF84
:1005E800002001F0004170BDC4F10004203C35DA60
:1005F8000C341BDC04F11404C4F1200500FA05F3E3
:1006080020FA04F001FA05F240EA020001F0004283
:1006180021F0004110EBD37021FA04F642EB0601F9
:100628005EEA430E08BF20EAD37070BDC4F10C0423
:10063800C4F1200500FA04F320FA05F001FA04F2E7
:1006480040EA020001F0004110EBD37041F10001D3
:100658005EEA430E08BF20EAD37070BDC4F12005DE
:1006680000FA05F24EEA020E20FA04F301FA05F246
:1006780043EA020321FA04F001F0004121FA04F2EE
:1006880020EA020000EBD3705EEA430E08BF20EABE
:10069800D37070BD94F0000F0FD101F000464000F8
:1006A80041EB010111F4801F08BF013CF7D041EA7A
:1006B800060195F0000F18BF704703F0004652007E
:1006C80043EB030313F4801F08BF013DF7D043EA4F
:1006D8000603704794EA0C0F0CEA135518BF95EA05
:1006E8000C0F0CD050EA410618BF52EA4306D1D18C
:1006F80081EA030101F000414FF0000070BD50EAAB
:10070800410606BF1046194652EA430619D094EA34
:100718000C0F02D150EA013613D195EA0C0F05D11E
:1007280052EA03361CBF104619460AD181EA030172
:1007380001F0004141F0FE4141F470014FF000002A
:1007480070BD41F0FE4141F4780170BD70B54FF0C5
:10075800FF0C4CF4E06C1CEA11541DBF1CEA135545
:1007680094EA0C0F95EA0C0F00F0A7F8A4EB050427
:1007780081EA030E52EA03354FEA013100F088801E
:100788004FEA03334FF0805545EA131343EA1263E7
:100798004FEA022245EA111545EA10654FEA00269C
:1007A8000EF000419D4208BF964244F1FD0404F555
:1007B800407402D25B084FEA3202B61A65EB0305B1
:1007C8005B084FEA32024FF480104FF4002CB6EB6E
:1007D800020E75EB030E22BFB61A754640EA0C00EE
:1007E8005B084FEA3202B6EB020E75EB030E22BF2E
:1007F800B61A754640EA5C005B084FEA3202B6EB6F
:10080800020E75EB030E22BFB61A754640EA9C002D
:100818005B084FEA3202B6EB020E75EB030E22BFFD
:10082800B61A754640EADC0055EA060E18D04FEABB
:10083800051545EA16754FEA06164FEAC30343EA5B
:1008480052734FEAC2025FEA1C1CC0D111F4801F28
:100858000BD141EA00014FF000004FF0004CB6E721
:1008680011F4801F04BF01430020B4F1FD0C88BFC0
:10087800BCF5E06F3FF6AFAEB5EB030C04BFB6EBCB
:10088800020C5FEA500C50F1000041EB045170BDBE
:100898000EF0004E4EEA113114EB5C04C2BFD4EBEB
:1008A8000C0541EA045170BD41F480114FF0000E6F
:1008B800013C90E645EA060E8DE60CEA135594EAEB
:1008C8000C0F08BF95EA0C0F3FF43BAF94EA0C0FEE
:1008D8000AD150EA01347FF434AF95EA0C0F7FF463
:1008E80025AF104619462CE795EA0C0F06D152EAB7
:1008F80003353FF4FDAE1046194622E750EA41069B
:1009080018BF52EA43067FF4C5AE50EA41047FF4AB
:100918000DAF52EA43057FF4EBAE12E77BB972B92B
:100928000029BEBF00204FF0004106E008BF0028A4
:100938001CBF6FF000414FF0FF3000F057B8ADF129
:10094800080C6DE904CE002909DB002B1ADB00F046
:100958004FF8DDF804E0DDE9022304B070474042B7
:1009680061EB4101002B1BDB00F042F8DDF804E0ED
:10097800DDE9022304B0404261EB4101524263EBDE
:1009880043037047524263EB430300F031F8DDF84C
:1009980004E0DDE9022304B0404261EB4101704705
:1009A800524263EB430300F023F8DDF804E0DDE98D
:1009B800022304B0524263EB4303704753B94AB968
:1009C800002908BF00281CBF4FF0FF314FF0FF304F
:1009D80000F00CB8ADF1080C6DE904CE00F008F891
:1009E800DDF804E0DDE9022304B07047704700BF7A
:1009F8002DE9F04786468C460846089E15467446FB
:100A08001946002B40F0C2808542B2FA82F245D9DD
:100A18004AB1C2F1200300FA02FC2EFA03F3954012
:100A280043EA0C0C94404FEA154EA8B2BCFBFEF802
:100A3800230C0EFB18CC08FB00F943EA0C4399453C
:100A480028D9EB1808F1FF3704D2994502D9A8F143
:100A580002072B44A3EB0903A4B2B3FBFEFC0EFB75
:100A68001C330CFB00F044EA0344A04214D92C19AF
:100A78000CF1FF3304D2A04202D9ACF102032C449A
:100A8800241A43EA07401EB1D4400023346073603F
:100A9800BDE8F0874746DDE76346F1E792BB431BB5
:100AA80001214FEA154EAFB2B3FBFEFC200C0EFB42
:100AB8001C330CFB07F840EA0343984562D9EB184E
:100AC8000CF1FF3004D2984502D9ACF102002B4456
:100AD800A3EB0803A4B2B3FBFEFC0EFB1C330CFB18
:100AE80007F744EA0344A7424ED92C190CF1FF3307
:100AF80004D2A74202D9ACF102032C44E41B43EA16
:100B08000040C0E7C2F1200320FA03F1954090406D
:100B18002EFA03F303434FEA154EAFB2B1FBFEFCC6
:100B28000EFB1C10190C0CFB07F841EA0041884524
:100B380004FA02F422D969180CF1FF3004D288456E
:100B480002D9ACF102002944A1EB08019BB2B1FB28
:100B5800FEFC0EFB1C110CFB07F743EA01439F4206
:100B68000ED9EB180CF1FF3104D29F4202D9ACF137
:100B780002012B44DB1B41EA004192E76046E3E7B0
:100B88006146F7E76046A3E76346B7E7834206D9BD
:100B980016B9002108467BE7C6E900E0F9E7B3FA91
:100BA80083F78FB9834201D3724508D8BEEB02049C
:100BB80060EB030301209C461EB9002168E7384614
:100BC800FAE7C6E9004CF8E7C7F1200CBB4022FA67
:100BD8000CF41C432EFA0CF120FA0CF3B840014334
:100BE8004FEA14490EFA07F5B3FBF9F81FFA84FE29
:100BF80009FB18300B0C08FB0EFA43EA00439A4530
:100C080002FA07F240D9E31808F1FF3004D29A45F6
:100C180002D9A8F102002344A3EB0A0389B2B3FB6B
:100C2800F9F809FB183308FB0EFE41EA03418E452B
:100C38002CD9611808F1FF3304D28E4502D9A8F1E6
:100C48000203214443EA0040A0FB0298A1EB0E01F5
:100C58004145CE46434602D306D14D4504D2B9EBB1
:100C6800020E68EB04030138002EA6D0B5EB0E0285
:100C780061EB030101FA0CFC22FA07F34CEA0303C7
:100C8800F940C6E9003198E74046C5E74346D9E749
:100C98002DE9F0438BB0044603F07BFFA3681B6982
:100CA80008AA0D2120469847A3681B6906AA0E21A9
:100CB80020469847A3681B6904AA10212046984734
:100CC8000898FFF7AFFB04460D460998FFF7AAFB03
:100CD80021A3D3E90023FFF739FD02460B4620463E
:100CE8002946FFF753FA04460D460698FFF79AFB84
:100CF80006460F460798FFF795FB17A3D3E900238D
:100D0800FFF724FD02460B4630463946FFF73EFA08
:100D180006460F460498FFF785FB804689460598E6
:100D2800FFF780FB0CA3D3E90023FFF70FFD024672
:100D38000B4640464946FFF729FACDE90201CDE9BD
:100D4800006722462B46064802F0FAFD0BB0BDE8C4
:100D5800F08300BFAFF300800000000080842E41C4
:100D6800807B00080000000038B50446002A43D004
:100D7800072A45D11D68E9174A0142EAD5624FEAB8
:100D8800451CBCEB050C62EB0102520242EADC5244
:100D98004FEA4C2C1CEB050C41EB02004FEA801E7D
:100DA8004EEA9C6E4FEA8C12B2EB0C026EEB000E10
:100DB800521941EB0E015868131841EBE071012BF1
:100DC80071F100020DDB124818180FA3D3E90023B4
:100DD80041F10001FFF7A2FD0146204601F094F819
:100DE80010E00C48181808A3D3E9002361F10001AA
:100DF800FFF794FD0146F0E7198804F03CFF01E095
:100E08006FF0850038BD00BF3AA3950000000000D0
:100E18009DD14A00632EB5FF08B50C4805F072FD58
:100E280060B10A4B19680A4802F08AFD0748FFF7C3
:100E38002FFF4FF47A7003F0B2FEF7E7034B1968FF
:100E4800044802F07DFD002008BD00BFC8750008F9
:100E5800D47B0008BC7B000808B5024B1B68984788
:100E680008BD00BF0000002000B585B00A46002379
:100E7800009301930293039302238DF80230044BED
:100E880001930146684602F009FE05B05DF804FBCF
:100E9800610E0008014B1860704700BF0000002079
:100EA80080B505460E461746984602F045FA0346B1
:100EB80006F07CFA0446DFF8189049F800304246FC
:100EC80039463046A84754F8090000F03DFA00BFFB
:100ED80008000000064B1A6842F400721A601A688B
:100EE80042F480621A60034B034A1A60002070477C
:100EF800003C0240540100200024F400034A5368D7
:100F080023F0020353600020704700BF002004E074
:100F1800014B036000207047E87B000808B5034BCD
:100F28001B68984700F048F808BD00BF040000207F
:100F380030BFFFF7FDBF00BF38B50446084D2A464D
:100F4800084906F05EF90848431E2B44B3FBF0F34A
:100F5800064A002100FB034006F061F938BD00BFD6
:100F680000000000C4780008010000000400000030
:100F780070B505460C480D4A0244013AB2FBF0F23E
:100F88000B4B0C4C1C44013CB4FBF3F404FB03F383
:100F980000FB02340E1B3046FFF7CEFF083EC5F8B3
:100FA800A86004F1080070BD010000000000000006
:100FB8000400000004000000044B99685869884246
:100FC80003D003494FF080520A607047880500201B
:100FD80004ED00E038B51546204B9B6A13F4805F9A
:100FE80019D116241D4B9B6A13F4006F00D01824E6
:100FF8001A4B9B6A13F4007F10D0184B9A6B9B6AAC
:1010080013F4004F09D0D9B1144A936A23F400436A
:101018009362192402E01724E4E719240F4B9B6A12
:1010280013F4806F00D01A240C4B9B6A13F4807F52
:1010380008D10A4B9B6A13F4005F04D01C2402E019
:101048001924EBE71B24054A936A43F47F43936210
:10105800012103F044FE2870204638BD00ED00E071
:10106800174B9B6A13F0007F25D11D20144B9B6AF8
:1010780013F0807F00D01F20114B9B6A13F4002FC0
:1010880000D021200E4B9B6A13F4802F00D0222021
:101098000B4B9B6A13F4003F00D02320084B9B6A3C
:1010A80013F4803F09D1064A936A6FEA03436FEA53
:1010B8001343936270471E20D8E72420F3E700BF4C
:1010C80000ED00E081690D4B5A6942F480725A6163
:1010D800BFF34F8FBFF36F8F31F8021C5A6922F4A8
:1010E80080725A61BFF34F8FBFF36F8F4DF6027353
:1010F800994201D0002070470120704700ED00E0C0
:1011080070B504461646324B9B6A13F0100F1AD17D
:1011180010252F4B9B6A13F0080F00D012252C4B7B
:101128009B6A13F0020F10D0294B586B9B6A13F07F
:10113800800F3DD000293FD0254A936A23F08003D1
:101148009362132503E01125E3E76FF01500204BA8
:101158009B6A13F0010F00D014251D4B9B6A13F0F6
:10116800200F00D015251A4B9B6A13F0100F04D1DD
:10117800174B9B6A13F0020F04D0154B5B6813F4EE
:10118800006F1BD1124B9B6A13F0200F04D0104A3A
:10119800536A23F4005353620D4A936A43F0FF03E2
:1011A80093620121204603F09AFD3070284670BDF5
:1011B8006FF015001325CAE71325C8E7214600F08C
:1011C800A3F90028DED080F309880225DAE700BFFA
:1011D80000ED00E038B5054600230B701A4BD86ABD
:1011E80010F002002DD10C46DB6A002B2ADB164BCF
:1011F800D86A10F0804025D02846FFF763FF08B171
:1012080028681FE0104B9B6A13F0FF0F0DD10E4B9F
:10121800986A10F47F400ED10B4B9B6AB3F5803F60
:1012280010D32846FFF71CFF0CE022460121284670
:10123800FFF766FF06E0224601212846FFF7CAFEAF
:1012480000E0002038BD00BF00ED00E030B58BB0F5
:101258000C46264B5968C1F30801002383F3118813
:10126800BFF36F8F02F07F43B3F17F4F15D102F0C8
:101278000C03082B14D012F0080F0BD000250DF129
:101288002702204603F030FD86469DF8273053B1EB
:101298000BB030BD04460125F1E700252C46EEE7EA
:1012A80000252C46EBE70DF1040C20686168A26864
:1012B800E368ACE80F0020696169A269E369ACE8FA
:1012C8000F0045B1C3F308025AB96FEA53236FEA16
:1012D8004323089305E0089B23F4FF7323F00103DD
:1012E800089301A9704603F0F0FCD1E700ED00E097
:1012F800024A536943F010035361704700ED00E060
:10130800EFF30880EFF3098101B57246FFF79EFFFE
:1013180001BD00BF00200A490870102080F3118821
:1013280008484FF40461401880F30988EFF31480EB
:101338000221084380F31488BFF36F8F00F09EF8F2
:10134800C90500200006002008B50A4B9B688342A7
:1013580002D005F080FC08BDEFF30583002BF8D020
:10136800054B5A6842F080525A605A6A22F4004289
:101378005A62EEE78805002000ED00E00A4A93680B
:10138800C3F8AC006FF00A01C3F8B01007494B6806
:1013980043F080534B60002383F31188BFF36F8FB2
:1013A8009368D3F8B00070478805002000ED00E08E
:1013B80016498A684FF030001044EFF3098C80E832
:1013C800F01F102080F31288BFF36F8F104F4FF07B
:1013D80000664A698A603E604FF0A80414192068C4
:1013E8000C4C2060D2F8AC000023C2F8AC3080F37B
:1013F800118804B5104600F017F9BDE8044002F161
:10140800300090E8F01F8CF30988704788050020A9
:1014180004ED00E0000400201EF0040F0CBFEFF301
:101428000880EFF30980816911F8021C0229FFD0B6
:1014380001B503F04EFC01BD002807DB00F01F02D8
:10144800400901239340024A42F82030704700BF08
:1014580000E100E0002808DB0901C9B200F16040A2
:1014680000F5614080F80013704700F00F00090193
:10147800C9B2014B1954704714ED00E008B50F4B81
:101488000F4A22F07F029A60BFF34F8FBFF36F8F2E
:10149800D3F8882022F47002C3F88820EFF314836D
:1014A80023F0040383F31488BFF36F8F01F07EFAEF
:1014B80001F0ACFF00F07CF801F0EEFA00ED00E07E
:1014C8000000000810B4A2F120040E4942F8081CDC
:1014D80021F0010142F8081C42F8203C019B42F827
:1014E8001C3C029B42F8183C039B42F8143C4FF00A
:1014F800807342F8043C04650023C0F8AC3010BC8B
:10150800704700BFA90E0008104B9B68BBB110F1D3
:10151800160F0BD0D3F89820A2F1400C844510D8B0
:10152800824210D98A4207D800207047D3F8982001
:101538008A4201D800207047D3F8980070470020ED
:101548007047002070470020704700BF88050020C2
:1015580008B50D4614460A4A9060D0F8A820094BF1
:101568001A6000F061F8204685F30988002163B607
:1015780081F31188BFF36F8F00220023FFF790FCDF
:101588008805002000040020014910220A607047E5
:1015980010ED00E072B6404080F31188BFF36F8F02
:1015A800BFF34F8F30BF62B6BFF36F8F704700BF76
:1015B800002206E003F00F030949194410230B76B3
:1015C8000132512A0ADC53B2002BF3DB03F16043EA
:1015D80003F56143102183F80013F1E7704700BF5A
:1015E800FCEC00E001B5EFF30580A0F110004FEA34
:1015F800C0000449014409C99847BDE801400249AF
:1016080008470000F0750008C10F000808B5034B33
:10161800034A0121034803F0CCFC08BD0000022066
:1016280000000020E87B000808B5D0F89830403B5F
:101638000448036040234360034B8360012103F0A7
:10164800BCFC08BD0404002000000B15084AC2F8C1
:1016580098000B6823F01F03034343F01003C2F8FC
:101668009C308B6843F00103C2F8A030704700BF7C
:1016780000ED00E0084BD3F89030C3F30723013B9B
:10168800984205D810B50446FFF7E0FF204610BD84
:101698006FF01500704700BF00ED00E010B5034C77
:1016A8000123227803F084FB207010BDC8050020B8
:1016B80008B500230B4A127803F07AFB10F1160FD5
:1016C8000FD0024606E0084BC3F898200021C3F863
:1016D800A0100132044BD3F89030C3F30723934290
:1016E800F1DC08BDC805002000ED00E0044B052230
:1016F800C3F89420BFF34F8FBFF36F8F704700BFBD
:1017080000ED00E0BFF35F8F024B0022C3F8942086
:10171800704700BF00ED00E038B51C4B1D681C4B3E
:10172800D3F89030C3F307239D422BD8FFF7EAFF85
:10173800002409E0154B5B6804EB440103EB8101CD
:101748002046FFF783FF0134A542F3D811480570FE
:1017580003F056FB10F1160F13D00E4B1A780C4BF2
:10176800D3F89030C3F307239A4207DA084BC3F83B
:1017780098200021C3F8A0100132F0E7FFF7B6FF68
:10178800002038BD4FF0FF30FBE700BFF47B0008B6
:1017980000ED00E0C805002008B5024B1B6898471B
:1017A800002008BD10040020034B1860034A9378FA
:1017B80043F00203937070471004002008000020D3
:1017C80008B5064921F00701C1F1005202F50032BF
:1017D800034803F027FA002008BD00BF471800207F
:1017E8001404002038B50546002401E00134E4B2B1
:1017F8006B78A34216D3287820441F28F6DC0123EF
:101808008340094A526933EA0202EFD1064A53611A
:10181800064B53F83020002AE8D003EBC003596880
:101828009047E3E738BD00BF003C0140200400209A
:10183800002399420ADD10B400EB030C044C04F8B1
:101848000C2001339942F7DC10BC7047704700BF89
:101858001800002008B50246054B1856012393408E
:10186800044A11680B43136003F061FA08BD00BF16
:1018780018000020003C01401F2806DC012282409D
:1018880002490B6823EA02030B607047003C0140E1
:1018980003292ED8DFE801F0020E19240122824024
:1018A800144B996821EA02019960D96821EA020279
:1018B800DA607047012282400E4B996811439960A3
:1018C800D96821EA0202DA60704701228240094B96
:1018D800D9681143D960996821EA02029A60704771
:1018E80001238340034A916819439160D1680B43EF
:1018F800D3607047003C014010B40D4B53F83030B2
:101908008B4209D08BB90A4B43F8301003EBC00364
:101918005A60002010BC7047054C04EBC00CDCF882
:1019280004409442EED10020F4E76FF00F00F1E795
:1019380020040020034B002243F8302003EBC003AF
:101948005A607047200400200C4B1B6813F0020FEC
:1019580009D10A4A136843F001031360074B1B6857
:1019680013F0020FFAD0054A936823F0030393603B
:10197800024B9B6813F00C0FFAD1704700380240F5
:101988000C4B1A6822F480221A601A6842F48032DA
:101998001A60084B1B6813F4003FFAD0054A536FCE
:1019A80043F001035367034B5B6F13F0020FFAD048
:1019B800704700BF0038024010B5144B9B6803F015
:1019C8000C03082B1AD0114C236823F08073236072
:1019D800636823F440336360636823F0706343F003
:1019E800E063636000F0DCF8236843F080732360F1
:1019F800064B1B6813F0007FFAD010BDFFF7A4FF59
:101A0800024A936823F0F0039360DCE70038024051
:101A180038B500F0DBF800F04FFE1F4B9B68C3F3AE
:101A280003131E4AD35C20FA03F513781C4C1C419F
:101A3800A54228D3FFF7A4FFFFF7BEFF164A936815
:101A480023F0F0039360936823F0030343F0020349
:101A58009360114B9B6803F00C03082BF9D1A54246
:101A680015D2104B0E4A1A600B4A936823F4E053C0
:101A780043F4A0539360936823F4604343F4004312
:101A88009360002038BD204600F084FED2E720464F
:101A980000F080FEE5E700BF0038024084800008BF
:101AA800007A030A54010020F8B50C461546394B54
:101AB8001E680421304603F0D9FA07460221304651
:101AC80003F0D4FA2368442B28D8002B5BD0013BC1
:101AD800432B5BD8DFE803F0364F5239445A5A5A41
:101AE8005A5A5A5A5A5A5A5A5A5A5A5A5A5A5A5A4E
:101AF8005A5A5A5A5A5A5A5A5A5A5A5A5A5A5A5A3E
:101B08005A5A5A5A5A5A5A2A5A5A5A2A5A5A5A2DBA
:101B18005A5A5A5A5A5A5A305A5A5A33A82B02D130
:101B28002E60002034E06FF0850031E02E60002048
:101B38002EE02E6000202BE02F60002028E0286097
:101B4800002025E02E60002022E000F025F8022386
:101B58004FF4A872082103F082FA2860002017E0E9
:101B680000F01AF807234FF4A872082103F077FA57
:101B7800286000200CE00020286009E04FF4FA43B8
:101B88002B60002004E06FF0850001E06FF0850015
:101B9800F8BD00BF540100200048704700127A00C9
:101BA80008B503F0DEFA074A5168074B0B4040F4CA
:101BB800A84040F0080003435360536823F44033BF
:101BC800536008BD003802400080BFFF82B0064B5A
:101BD8001A6C42F080521A641B6C03F08053019314
:101BE800019B02B0704700BF0038024010B50446A0
:101BF8000A2806D0E1B2064883685B689847204601
:101C080010BD034883685B680D219847F2E700BF61
:101C18007875000810B5044C2046FFF7C5FD20462E
:101C2800FFF738F910BD00BFF51B000808B50548D7
:101C380004F068FE18B1FFF7EDFF002008BD6FF053
:101C48001200FBE77875000808B5436831B107480A
:101C58008268126803F10C01904708BD0348826846
:101C6800526803F10C019047F7E700BF8874000839
:101C78005FFA81FC0CF102020A4B53F822200B0C8C
:101C880022EA114193FAA3F34BB1B3FA83F39840D4
:101C980001430CF1020C034A42F82C107047202330
:101CA800F5E700BF0038014070B582B004460D4624
:101CB8000A4A6B4692E8030083E8030008488268F2
:101CC800126819469047064610B1304602B070BDFA
:101CD8002946204603F00DFCF7E700BFC878000846
:101CE80088740008C3B20233074A52F82320030C51
:101CF80002EA104093FAA3F31BB1B3FA83F3D84076
:101D080070472023FBE700BF00380140F8B50C46B8
:101D1800114647680269B1F5001F1FD01D46B1F58D
:101D2800800F34D01D492046FFF7E6FD064688BBE4
:101D38002146B868FFF7B8FFB5F1806F23D0B5F139
:101D4800C06F22D0B5F1007F1BD031462046FFF787
:101D58009FFD2046FFF77EFD3046F8BD204603F084
:101D6800DFFBBB68984201D00026F5E72046FFF765
:101D780083FD2046FFF7DEFD00212046FFF788FDA2
:101D8800F2E70221E2E70121E0E70321DEE76FF055
:101D98008506E1E76FF00F06DEE700BF3552000861
:101DA80010B5044603695860074804F0ABFD38B124
:101DB80001212046FFF748FF002800DB002010BD66
:101DC8006FF01200FBE700BF88740008AF2817D82F
:101DD800F8B504460D46164603090B4A52F8237017
:101DE8005FB1384604F08EFD38B133462A4604F018
:101DF8000F01384603F0ABFBF8BD6FF01200FBE7AC
:101E08006FF01500704700BFDC7D000803690E29DC
:101E180020D0102938D00D2902D06FF085007047E6
:101E280000B5596A224880FB01ECC917C1EB6C1157
:101E38001160596A80FB0130CB17C3EB6013642033
:101E480000FB131342F2107101FB03F353600020EF
:101E58005DF804FB996A080A1649A1FB00C08009CD
:101E680010609B6A4FEA132CA1FB0C0189094FF4FF
:101E78007A7000FB11C1DBB200FB03F31B0A00FB05
:101E8800013353600020704793F8341060290CD157
:101E9800D96A890A1160DB6AC3F30903064901FBA1
:101EA80003F39B0A5360002070476FF0850070476A
:101EB8001F85EB51D34D621040420F00001100FB0B
:101EC80001F1064880FB0130CB17C3EBA043136038
:101ED800034800FB13115160704700BF83DE1B43AA
:101EE80040420F0000230A2B08D8064A32F8132074
:101EF800824201D00133F6E7184670476FF01500AB
:101F0800704700BFC87E000838B50446056988B226
:101F180003F0E2FE00280CDB064B53F820302B615F
:101F28006B681D69030103F0F0033022232120466A
:101F3800A84738BD4400002070B582B00446056942
:101F4800466833689847002849DB6B689B680DF141
:101F580007020F2120469847002840DB9DF80730EC
:101F6800332B3ED1337F13F0010F0BD01E4A42F2C0
:101F78008B41116044F61611516049F22D21916090
:101F88001A49D16013F0020F08D06B681E698023CC
:101F98001A461E212046B047002820DB0023009364
:101FA800ADF8043007238DF800306B685E680623AF
:101FB8006A4620212046B047002810DB0A4B1B68E0
:101FC8002B616B68DB680022232120469847002894
:101FD80005DB6B68DB68472220212046984702B062
:101FE80070BD6FF01500FAE74400002094B60100B8
:101FF80008B503694068054A5A60043003F024FFB5
:1020080008B1002008BD6FF01200FBE7E07E000871
:1020180010B50446B2F5004F2FD04FF0000C481809
:102028004CEB0C0C40184CF1000C4FEACC0C4CEA71
:10203800507CC00040184FEA83024FEA93734CF17A
:102048000001FEF7BBFC2449A1FB00235B091A0130
:1020580092B24FF0640C0CFB13031B013233A1FB4B
:102068000313C3F34F1303F0F0010A4492B203F0D1
:102078000F0313449BB2A36010BD4FF0000C481827
:102088004CEB0C02401842F10002D20042EA5072B6
:10209800C000401842F10001DA184CEB0C03FEF7BF
:1020A8008DFC0D49A1FB00235B091A0192B24FF088
:1020B800640C0CFB1303DB003233A1FB0313C3F3E3
:1020C8004F13590001F4F8710A4492B203F0070360
:1020D80013449BB2A360CFE71F85EB512DE9F04174
:1020E8000C46456803695E680B79012B5BD0022BAF
:1020F8005CD14FF480676279012A5CD0022A5CD0F7
:10210800002A55D04FF4005194F806E0BEF1040FB0
:1021180056D0002B57D14FF00008A3F1030C5FFAFB
:102128008CFCBCF1010F5ED913B1BEF1040F5DD078
:10213800B1F5805F4CD0B1F5405F4BD0002945D058
:1021480003239A4255D1B8F1000F45D1002F48D149
:1021580003239E4550D1E3798BB1012B4FD12B68D6
:102168002A4A93420BD0A2F54C42934207D002F57B
:102178008062934203D002F54C42934242D12A68CE
:10218800D36823F40053D360214603F08FFE2A68F6
:10219800D36843F40053D36094E8030086E803004F
:1021A8000020BDE8F0814FF4C067A4E70027A2E74C
:1021B8004FF48051A8E70021A6E74FF44051A3E768
:1021C8004FF48058A9E74FF48058A6E70123B8E7F1
:1021D8000023B6E70223B4E70FB90423B9E70323C2
:1021E800B7E70223B5E76FF08500DAE76FF08500FF
:1021F800D7E76FF08500D4E76FF08500D1E76FF07F
:102208008500CEE76FF08500CBE700BF00100140E6
:1022180008B5024A03F01EFF08BD00BFCF600008E2
:1022280000B583B08DF80710034A0DF1070103F0DC
:102238002AFF03B05DF804FBD760000838B545688D
:1022480004690748206004F05DFB28B120688368B2
:102258001B68E968984738BD6FF01200FBE700BFBC
:1022680088740008F0B58BB00D46D0F804C0066934
:1022780002AC624F0FCF0FC497E80F0084E80F003D
:10228800DCF800403368AB4200F0AF80AB88C3F3A2
:102298004512082A02D0102A40F0A98013F4004FF2
:1022A80019D1636823F010036360DCF80C10544BF9
:1022B8009B68DB68A3B101AA5148984700280FDB47
:1022C80001231846082B0ED8019ADA402968914252
:1022D80009D20133F5E7636843F010036360E4E76C
:1022E8006FF004004EE0082800F28480226822F093
:1022F80040022260013B0AAA02EB830353F8203C08
:10230800226822F0380213432360AB8813F0020FCF
:102318003AD0236843F002032360AB8813F0040F1C
:1023280037D0236843F001032360236823F4444330
:102338002360AB8813F0100F30D0236843F080037C
:102348002360236823F400532360AB685BB32368DE
:1023580043F400732360636823F004036360AB886D
:1023680013F0010F37D0236823F482732360AB88FE
:10237800C3F34513082B33D0236843F40063236069
:10238800356000200BB0F0BD236823F00203236002
:10239800C3E7236823F001032360C6E7236823F01B
:1023A80080032360CDE7AB8813F0010F08D02368C2
:1023B80023F400732360636823F004036360CEE7AB
:1023C800236823F4007343F480232360636843F095
:1023D80004036360C3E7236843F482732360C6E79A
:1023E800236823F400632360CAE70020CAE76FF07C
:1023F8008500C7E76FF01500C4E700BFD078000874
:102408008874000838B5056944680F4804F07AFAFA
:10241800B0B10D4883681B68E168984700280EDB57
:102428000021606804F04EFA002808DB284604F012
:102438002DFA002803DB284604F079F9002038BD7E
:102448006FF01200FBE700BF887400084FF0E0232C
:10245800996918699A6909B90C4B19680AB90B4B3B
:102468001A6810F4803F01D1914208D208490B68DC
:102478000648006803440B604FF0E0231B69034BD8
:102488001B689B1A024A1068184470478005002090
:102498007C0500200A4B102283F82320094B44F2C4
:1024A800A0121A600020084B18604FF0E02344F295
:1024B8009F125A6198611A6942F007021A617047BF
:1024C80000ED00E0800500207C05002010B5FFF736
:1024D800BDFF11480368114A516814681B1941F17E
:1024E800000113605160002202600D490A68981AC1
:1024F8000C4BA3FB0030800B44F2A01300FB03F34A
:10250800D2184B6843F100030A604B6001F046F8AB
:10251800FEF752FD10BD00BF7C0500209001002091
:10252800880100202D34A9F9F8B500294CD0B0F164
:10253800FF3F3ED03F4B1C6801284DDD40F2E6339B
:102548009842A8BF1846461E4FF01003EFF31185B6
:1025580083F31288BFF36F8FFFF778FF4FF0E02304
:102568009F69354A13685168C31841F10001136027
:1025780051600021314A1160314A11685A1A2DD42C
:1025880044F2A01000FB062202F583421F322D4EB2
:10259800A6FB0262920BC91A00FB021140F21A4311
:1025A8008B4238BF0B46284A914235D9214B1A60D5
:1025B80018E04FF0E022136923F0010313611D4B6B
:1025C8004FF07F421A6026E01A4B1C68B0F1FF3FBB
:1025D800B2D140F2E530B1E70026B5E7154B40F23D
:1025E8001A421A604FF0E0239969124A1268013AB8
:1025F8005A6100229A618F4211D2641A3C440E4AF1
:10260800136851681B1941F100011360516085F38B
:102618001188BFF36F8FF8BD064A1360E2E77F1A8F
:10262800054A13685168DB1941F1000113605160D4
:10263800EDE700BF80050020900100207C05002008
:10264800880100202D34A9F92094FF0038B54FF0F7
:102658001003EFF3118583F31288BFF36F8F084BD4
:102668001C68084B1B68E41AFFF7F0FE204485F34A
:102678001188BFF36F8F044BA3FB0030800B38BD6C
:1026880090010020880100202D34A9F938B54FF0B9
:102698001003EFF3118583F31288BFF36F8F054B97
:1026A8001C68FFF7D3FE204485F31188BFF36F8FB2
:1026B80038BD00BF9001002008B5334B9B6803F07C
:1026C8000C03042B5BD0082B5BD12F4B5A6802F00C
:1026D8003F025B6813F4800F2CD02B4B5868C0F373
:1026E80088104FEA401CBCEB000C6EEB0E0E4FEA54
:1026F8008E1343EA9C634FEA8C11B1EB0C0163EB38
:102708000E03DB0043EA5173C90011EB000C43F1DF
:102718000003590200234FEA4C2041EADC51FEF73E
:102728004DF9194B5B68C3F3014301335B00B0FB00
:10273800F3F027E0144B5868C0F388104FEA401CA8
:10274800BCEB000C6EEB0E0E4FEA8E1343EA9C6353
:102758004FEA8C11B1EB0C0163EB0E03DB0043EA8B
:102768005173C90011EB000C43F1000399020023D7
:102778004FEA8C2041EA9C51FEF720F9D1E7034843
:1027880000E0034808BD00BF0038024000127A008C
:102798000024F4000246002850D02A4B1B6813F48A
:1027A80080431DD0284B984204D8284B984212D910
:1027B800002300E0052383B125498A4201D903B9E2
:1027C800032324498A4200D94BB123498A4207D9B5
:1027D80033B9012304E00023EEE70423ECE70223E6
:1027E8001849096811F4804F14D11C498A4206D946
:1027F80003B9042316498A4201D903B903231549A9
:102808008A4200D92BB114498A4203D913B901234A
:1028180000E0022312490A6822F007021A430A60FC
:1028280002210F4A126802F007020139934201D0CF
:102838000029F6D1934203D0012070470120704748
:10284800002070470070004080D1F008000E270774
:10285800804A5D050087930380C3C901001BB70048
:10286800003C0240034B00E01433034A9342FBD37D
:10287800704700BF88740008F075000838B54FF03D
:102888001003EFF3118583F31288BFF36F8F064BA4
:102898009C6804F050F885F31188BFF36F8F2046C9
:1028A800FEF752FD38BD00BF8805002070B506460A
:1028B800134B53F8204009E0434219E0EA681370CB
:1028C800EA68537843F0010353700834731C0C4AC8
:1028D80052F82330A34212D965686DB12368002BE2
:1028E800EED02846984703460028E9D00028E3DBC5
:1028F800FF2BE3DDFF23E1E723689847E5E770BD99
:10290800A480000810B586B0B823114C03FB00441E
:1029180000EB400C00EB80000E4B03EB80030E4AEB
:102928000592012204920F22039200220292019240
:1029380000930A4B4FF4A072094901EBCC112046D1
:1029480000F02EF9637B23F00403637306B010BD17
:10295800980100208805002094800008056D000873
:10296800400E002008B50A4B01221A700320FFF719
:102978009DFF00F097FE0420FFF798FF00F074F920
:10298800FEF74AFA034A137B23F00103137308BDC9
:10299800C90500205002002008B50146014A024836
:1029A800FEF7D6FD6D2900085002002008B506483C
:1029B800064A121A002103F0C1FF0548054A121AF7
:1029C800002103F0BBFF08BD88010020CC050020D2
:1029D800000000100000001010B50446FFF792FF39
:1029E800B823114903FB0411104A04EB840302EBDA
:1029F8008303D9601C7404EB44110D4B03EB811362
:102A080003F5046304EB840402EB84025360094B6E
:102A1800BFF35B8F53E8001F013143E80012002A1F
:102A2800F8D1BFF35B8F10BD980100208805002006
:102A3800000600208405002070B586B000F0AAFBCF
:102A4800104D114B5D61114B059301230493002434
:102A580003940294019400940D4B4FF480620D4945
:102A6800284600F09DF806466B7B23F004036B7341
:102A7800284604F017F82046FFF7AEFF304606B0A8
:102A880070BD00BF50020020880500209C8000080F
:102A98006D290008C00F002000B5AFB00020FFF777
:102AA80005FF1C4B83F308881B4C636943F40073D0
:102AB8006361F02384F822300025E5772576657672
:102AC800A57684F82050636A43F4E0236362FEF736
:102AD8000FFCFEF759FD4FF0FF33A362E362FEF7E8
:102AE8001BFEFEF793FD01248DF80D408DF80C4078
:102AF800269527952995094BC3F808D0FFF7B2FE0C
:102B08002046FFF7D3FE0220FFF7D0FEFFF794FF21
:102B1800FFF742FF400E002000ED00E0880500208E
:102B28004FF01003EFF3118183F31288BFF36F8F17
:102B38000A4B1B6A834204D15A6F084B1A6207E09A
:102B4800134613B15A6F8242FAD10BB1426F5A67DA
:102B580081F31188BFF36F8F704700BF880500208D
:102B680010B5044640B11F2204F1780004F010FAB1
:102B7800002084F8970010BD014B9C68F3E700BF64
:102B88008805002008B553EA020102D103F004FFCA
:102B980008BD0249183000F081FCF9E7636B0008B2
:102BA8002DE9F04F85B004460F4615461E46DDF860
:102BB80038A0DDF83C90DDF84080DDF84CB000F13D
:102BC80058038365C365129B0422119903F0E8FE3C
:102BD8002A463946204603F0BFFE0546CDF8088050
:102BE800CDF80490CDF800A0334602463946204679
:102BF800FEF768FC002363656666C4F868A0C4F83D
:102C08006C90C4F870804FF01003EFF3118283F3D7
:102C18001288BFF36F8F134B196A61671C6282F3C6
:102C28001188BFF36F8FBBF1000F13D01F225946D5
:102C380004F1780004F0ACF9002384F89730094BCC
:102C48009B685BB1D3F8A430C4F8A430284605B01B
:102C5800BDE8F08F002384F87830F0E7C4F8A4309A
:102C6800F4E700BF8805002010B586B0184C14E0C2
:102C7800636A0593236A0493E3690393A369029340
:102C88006369019323690093E368A2686168206817
:102C9800FFF786FF23685C6530340E4B9C42E7D310
:102CA80000F0B4F80A4C00E030340A4B9C420BD2D6
:102CB800A26AE36AB3F1FF3F08BFB2F1FF3FF3D066
:102CC8002068FFF75FFFEFE700F0F4F906B010BDEA
:102CD8008078000880780008C3897F2B11D80E4BB4
:102CE8001B687BB190F90E200C4B1B689A420CDBD9
:102CF800437B13F01F0F0AD1094B984209D00123D7
:102D080000E0002303F0010070470023FAE70023E6
:102D1800F8E70023F6E700BFB8050020B405002057
:102D280098010020044BC01AC010044B03FB00F0AC
:102D3800034B01221A54704708030020ABAAAAAA21
:102D4800B0050020B3F1FF3F08BFB2F1FF3F00D14B
:102D5800704708B50249183000F0A0FB08BD00BF55
:102D6800636B000870B505460D4B1E7C06EB4603E9
:102D78000C4C04EBC304204604F000F80A4B002274
:102D88009A552846FFF7A8FF00B970BD074B1A6887
:102D9800013AD3170649204600F080FBF5E700BF4B
:102DA8008805002008030020B0050020B805002091
:102DB8002D2D000808B50B4659B9EFF3058242B925
:102DC800064A50699268904203D00846FEF7D6FA40
:102DD80003E083F31188BFF36F8F08BD88050020D7
:102DE80008B5034650B9EFF305823AB9064A516966
:102DF8009268914202D0FEF7C1FA03E083F311888A
:102E0800BFF36F8F08BD00BF8805002000234FF077
:102E18001002EFF3118182F31288BFF36F8F09E07C
:102E2800064B9A68D37B013BD37381F31188BFF3B8
:102E38006F8F0123002BF3D0704700BF8805002057
:102E480038B50446104803F026FE054670B184B92B
:102E58000E4B9B685A7B12F01F0F0AD1AA6942B920
:102E6800DA897F2A05D9094A53610BE0074BDD68E7
:102E7800EDE7064B9B68AB4202D02846FFF772FF8E
:102E8800024B5D6138BD00BFA00500208805002009
:102E980038B50546427B90F90D30002B0ADB6B7B79
:102EA80063F07F036B731B4B53F8184F9C4210D190
:102EB80000240EE002F07F0242730146164803F038
:102EC800B6FDECE763686B602C601D60656017E019
:102ED80000246CB12146284603F093FD0028F1DC5C
:102EE800002CF6D00B4BDB699C42F1D02468F0E74C
:102EF800084BDA6903F1180129606A601560DD6121
:102F0800044B9868A84214BF00200120FFF798FFDF
:102F180038BD00BF88050020A005002038B54FF057
:102F28001002EFF3118382F31288BFF36F8F1D46EF
:102F3800144B9C68144B1B68A34217D0124B0022F9
:102F48001A60104B1B7C114AD35C53B12046FFF723
:102F5800C3FE30B1637B13F01F0F0FD02046FFF77D
:102F680001FF85F31188BFF36F8F38BD2046FFF747
:102F7800F9FE85F31188BFF36F8FF6E72046FFF758
:102F880087FFEBE788050020AC050020B00500208E
:102F9800427B90F90D30002B33DB70B5044612F0FC
:102FA8001F0F01D1866906B170BD62F07F024273BE
:102FB800144B53F8185F9D4208D1354606E06B68FC
:102FC800636025601C606C6017E035466DB129466A
:102FD800204603F016FD0028F1DC002DF6D0094B41
:102FE800DB699D42F1D02D68F0E7064BDA6903F101
:102FF8001801216062601460DC610020FFF720FF87
:10300800D2E770478805002010B54FF01003EFF3A2
:10301800118483F31288BFF36F8F437B13F0040F7F
:1030280004D184F31188BFF36F8F10BD23F004031C
:103038004373FFF7ADFF21460148FFF7BBFEF4E7F6
:10304800BC05002010B50446427B90F90D30002BDA
:1030580008DB084B9868A04214BF00200120FFF746
:10306800EFFE10BD02F07F0242730146024803F0F2
:10307800DEFCEEE788050020A005002010B50C4610
:1030880011460A4882680A4B1A604FF01002EFF3A3
:10309800118382F31288BFF36F8FDDE90223806802
:1030A80003F08CFD2046FEF769F910BD8805002065
:1030B800AC05002010B500234FF01002EFF3118487
:1030C80082F31288BFF36F8F0CE0094B9A68D37BA9
:1030D8000133D3730020FFF7B3FE84F31188BFF3E5
:1030E8006F8F0123002BF0D003F095FC10BD00BFBB
:1030F8008805002038B5437B0B4213D104460D46A2
:103108000B43437303F09F02427312F0800F0AD1FE
:10311800082D10D00120FFF793FE102D02D0204675
:10312800FFF7FEFC38BD03F01F034373014609484F
:1031380003F07DFCECE7A36813B1204603F07FFCA5
:1031480004F1180003F01AFE04F1580003F0C6FC5D
:10315800E0E700BFA005002038B504460D4662B17F
:1031680008212046FFF7C6FF094B9B68A34206D0FB
:1031780085F31188BFF36F8F38BD1021F1E7EFF3A6
:103188000583002BF4D12846FEF7F8F8F4E700BFD2
:103198008805002008B5024803F059FD08BD00BFA6
:1031A8009C050020F8B54FF01003EFF3118683F368
:1031B8001288BFF36F8F1D4CA1684B7B03F07F0310
:1031C8004B7304F11807384603F031FCA5686B7B94
:1031D80063F07F036B73A469BC4208D1002406E046
:1031E80063686B602C601D60656017E000246CB13B
:1031F8002146284603F005FC0028F1DC002CF6D017
:103208000A4BDB699C42F1D02468F0E7074BDA6986
:1032180003F1180129606A601560DD610120FFF77C
:103228000FFE3046FEF7AAF8F8BD00BF880500205B
:103238002DE9F04150EA010338D004460E466FF0FC
:1032480001031B1A4FF0FF3262EB0102012B72F1EE
:1032580000022FDB6FF001052D1A4FF01003EFF37A
:10326800118883F31288BFF36F8F144FB868144B1B
:103278001860FFF7E7FEB868224633461149183050
:1032880000F00CF9BA68537B43F0100353734046BF
:10329800FEF774F803F090FD281A63EB0303012886
:1032A80073F1000300DA0020BDE8F081FFF77AFF30
:1032B8000020F9E703F080FD0519CEE78805002016
:1032C800AC050020636B000808B5B1F1FF3F08BFEB
:1032D800B0F1FF3F22D0FFF7ABFFC317093043F12E
:1032E80000030021C21820D20A441149A1FB02CED2
:1032F8002EF0030C0CEB9E0CA2EB0C02801A63F16F
:1033080000024FF0CC3300FB03F301FB0233A0FBB8
:1033180001010B44400840EAC37008BD054B98689A
:1033280003F058FC4FF0FF30F7E70121DCE700BF5E
:10333800CDCCCCCC88050020014B9868704700BFE5
:10334800880500202DE9104883B0089CDDE906BCFB
:10335800CDE900BCFFF792FE1CB1034B9B685B698B
:10336800236003B0BDE810888805002038B50446FE
:103378004FF01003EFF3118583F31288BFF36F8FBB
:1033880003F043FC48B10022C0F8B02003F08AFBE8
:1033980029460948FFF70EFD38BDA368E268934245
:1033A80008D001221344A360022104F1100003F0A5
:1033B80069FDEDE70022F5E7BC05002010B582B0F5
:1033C8004FF01004EFF3118184F31288BFF36F8F6D
:1033D800846844B1013C846081F31188BFF36F8F26
:1033E800002002B010BD53EA020406D000920193F7
:1033F80002460548FFF742FEF3E781F31188BFF361
:103408006F8F6FF00F00ECE7BC05002008B5094886
:10341800094A121A094903F095FA094A09490A485A
:1034280003F090FA09480A4A121A0A4903F08AFA7C
:1034380008BD00BF0000002084010020A88100080A
:1034480000000000A8810008000000200000001013
:10345800000000102C830008034B1868984200D025
:1034680070470020FCE700BF5801002030B1044A33
:103478005268904201D0006870470020704700BF32
:103488005801002008B5044B1B680BB1002008BD8B
:10349800FFF7DCF8FBE700BFBC050020B3F1FF3FF6
:1034A80008BFB2F1FF3F74D02DE9F04704469246B9
:1034B8001D46816000234FF01002EFF3118782F35D
:1034C8001288BFF36F8F26E01AF1010845F1000951
:1034D800FFF7D8FF18EB000349EBE0702361606148
:1034E8003BE0521A66EB0303026143614368636081
:1034F80020601C60446005E0264B5A6823606260C7
:1035080014605C60FFF7A8FF84423AD087F3118803
:10351800BFF36F8F0123002B39D153466FF00101A0
:10352800B1EB0A014FF0FF3060EB0502002ACBDB5C
:10353800194A116852685B1842EB05026FF00101E5
:10354800C91A60EB020308461A46012973F1000301
:1035580001DA0120002220616261FFF77DFF002867
:10356800CAD00269466921696369914273EB060E04
:10357800B7DB891A63EB060321616361FFF776FF06
:10358800EDE703F0DEFB0021FEF7CEFFBEE7BDE866
:10359800F0877047580100202003002070B54FF0D5
:1035A8001003EFF3118683F31288BFF36F8F2B4B51
:1035B8001860FFF751FF044624E0294A1368516850
:1035C8005B1941EBE5711360516000220023C4E9E7
:1035D8000423204603F09EFB86F31188BFF36F8F08
:1035E800A368204698474FF01003EFF3118683F342
:1035F8001288BFF36F8F194A13685B1B1360FFF7BC
:103608002BFF04463CB125696169144B1A68D3172E
:10361800AA428B41D1DA44B1236962690F4909682A
:103628005B1A62EBE172236162610D4A0B4D2868F7
:10363800136851681B1841EBE07113605160002456
:103648002C6003F07EFB2146FEF76EFF86F311889F
:10365800BFF36F8FFFF762FC70BD00BFBC05002091
:103668002003002010B500224FF01003EFF311845F
:1036780083F31288BFF36F8F134611460CE0FFF7F0
:1036880001FF074A13685168C31841EBE07184F3DE
:103698001188BFF36F8F0122002AF0D0184610BDA1
:1036A8002003002008B5024801F000FB08BD00BF58
:1036B800BC80000810B584B0084B029300248DF834
:1036C8000C4002AB00934FF0FF334FF48062044983
:1036D800044800F0F7F8204604B010BDE480000864
:1036E800001400202803002070B338B50D460446A6
:1036F8001B4B9B6883421BD000231A46D4F8D0305A
:10370800C3F38001C3F3C00013F0010F1FD001B150
:1037180002B300B109B300232B60D4F8BC3073B1F5
:103728001D60C4F8BC50204603F0DAFB012038BD08
:1037380003F00CF908B90123DFE70023DDE7C4F83B
:10374800BC50C4F8B850EEE76FF0150070476FF042
:103758001200ECE76FF00F00E9E76FF00F00E6E703
:1037680088050020F8B50646C36823F00203C36045
:10377800134B1D6885B12C6804B10DB1002710E00A
:103788002C46FBE72A4639460D4803F096FB05F11F
:103798000800FFF7EBFD09E02C46EFE72346254636
:1037A8001C4665B16B68B342ECD02F46002CF5D0AF
:1037B8002368002BF3D0002CF1D12346EFE7F8BDA6
:1037C800C005002070B584B0054616E0D5F8D030A5
:1037D80023F00402C5F8D02013F0040F5ED10023B3
:1037E80002934FF0FF324FF0FF33CDE9002305F18C
:1037F800C00231463248FFF7A5FD4FF01003EFF342
:10380800118683F31288BFF36F8F3246D5F8B8401C
:10381800002CDBD02368C5F8B830D5F8BC108C4232
:1038280039D0D5F8D03043F00203C5F8D030E3687A
:1038380043F00101E16023F0040343F00103E36076
:10384800636882F31188BFF36F8F204698474FF063
:103858001003EFF3118683F31288BFF36F8FE368C9
:1038680023F00103E36013F0100F21D1E36813F094
:10387800020F21D1D5F8D03023F00203C5F8D0309B
:10388800C3F3002386F31188BFF36F8F002BB4D1E5
:10389800FFF788FCB1E7C5F8BC30C2E705F1C804FA
:1038A80000220121204603F0FBF90028F8D196E711
:1038B800204603F04FFBD9E72046FFF753FFD9E72F
:1038C800C8050020F0B589B004460E9D0020C4F854
:1038D800B800C4F8BC0004F1C000C4F8C000C4F8C3
:1038E800C40004F1C800C4F8C800C4F8CC00FDB195
:1038F8002879F8B90120C4F8D0004FF0FF364FF00E
:10390800FF37CDE9066700200490039302900190E9
:1039180000940A4B204603F04EF825B1296811B1EE
:103928002046FFF71DF9204603F036F809B0F0BD30
:103938000120E0E740F20110DDE700BFCD370008C5
:103948000FB407B5064B04AA186852F8041B019275
:1039580000F0A4F803B05DF804EB04B0704700BFB2
:10396800247C00082DE9F04101260746B24201DC1B
:10397800BDE8F0813B461F4613F8014B002CF7D0F9
:10398800252CF8D11C78252C07F10207F2D000234A
:10399800DFF804819C461D461F2D18D8A4F1200E7F
:1039A800BEF1100F09D9A4F1300EBEF1090F1ED8CF
:1039B8000A2404FB03E3202504E028FA0EFE1EF087
:1039C800010F06D017F8014B002CE5D128E07F2D18
:1039D8001CD8A4F1300EBEF1090FE9D9242C10D15E
:1039E800BCF1000F46D0B34246D00023EAE724F0EA
:1039F800040EBEF12A0FF8D06C2C09D145F08005D1
:103A0800E0E724F0040EBEF12A0FEED06C2C22D091
:103A18006C2C1BD8682C23D06A2C28D04C2C26D090
:103A2800BCF1000FA4D0B445A0D144F02007A7F101
:103A3800650CBCF1020F0B6801D9612F1ED1073349
:103A480023F0070308330B6001368EE7742CB9D0D6
:103A58007A2CB7D0E4E72C0648BF45F40075CDE7CB
:103A6800EC0548BF45F4007545F48075AAE745F4B0
:103A78002075A7E79C46B8E76324D6E7692C02D0EF
:103A880007D8632C03D02F0601D5AC05D7D404334F
:103A9800D9E7732CF6E700BF892801002DE9F04F1C
:103AA80095B043680393837880469807CDE9081258
:103AB80017D50D920B4600251F78A7B1252F16D0D4
:103AC80001330793039B414638469847002805F180
:103AD800010580F2558498F8023043F0040388F811
:103AE80002304FF0FF35284615B0BDE8F08F5F78FB
:103AF8009A1C252F0792E5D000242646A246A34605
:103B0800BBF11F0F32D8A7F12003102B0AD8DFE82A
:103B180003F02409092A0909091B090909220927A7
:103B280009091900A7F13003092B2DD92A2F39D1FA
:103B380054B90D9B1BF0400F53F8042B0D9329D05B
:103B4800164601E04BF0010B079B13F8017B079326
:103B5800002FD5D15BE04BF0020B4BF0040BF3E7E1
:103B68004BF0080BF0E74BF0100BEDE7BBF17F0FC4
:103B78003FD8A7F13003092BD8D81BF0400F03D04A
:103B88000A2202FB0636DFE70A2202FB0A3A4BF05A
:103B9800200BD9E7B2F1000AF9DACAF1000A4BF0B2
:103BA800280BD1E72E2F05D11BF0400F9BD14BF0EE
:103BB800400BC9E7242F1CD1002C00F04481099B3D
:103BC8000D931BF0400F0AD1524608980DA9FFF734
:103BD800C9FE0D9B1A1DD3F800A00D92B4E732461A
:103BE80008980DA9FFF7BEFE0D9B1A1D1E680D92C1
:103BF800AAE76C2F00F0148100F20B81682F00F007
:103C080017816A2F00F01C814C2F00F0198134B104
:103C1800099B08980D9322460DA9FFF7A3FE002ED5
:103C280047F02003B8BF2BF0400B0593A3F16503C1
:103C3800BCBF1FFA8BFB0026022B40F2098147F01C
:103C48002003612B40F08482FF4307F02003069392
:103C58000D9B073323F007031BF0400FD3E9000146
:103C680003F10802069B00930D9214BF33464FF0F0
:103C7800FF330EAA03F0DBFA431CDBB24BF4C0544B
:103C88000493DDF8389070230646A3460127059370
:103C980009F10903122B0CD909F16303C62B40F271
:103CA800138109F2E73340F2CE72934294BF03279F
:103CB80004279DF83C2002F00C0312F0010240F0AA
:103CC8001E811BF0020F40F017811BF0040400F066
:103CD800FD80002B40F0168120231BF4405F21D18A
:103CE800049A5032002E6A4408BF0126133A0499F8
:103CF80021B112F8011D302900F03B811BF0100F93
:103D0800049A18BF324619F1040FC0F23781B14541
:103D180080F234814A454BF4005B40F3318109F16C
:103D28000106961B1BF400520A9200F02B8129EA27
:103D3800E974013403B10134002E00F02A81721CA9
:103D48001444A245CCBFAAEB040400241BF0090FBD
:103D580004D12C44A54240F02181002443B11846E7
:103D68004146039B9847002805F10105FFF6B3AECD
:103D78001BF4006F13D0039B41463020984700285E
:103D8800FFF6A9AE069BC3F178004146039B00F0FD
:103D9800F8009847002805F10205FFF69CAE1BF0D5
:103DA800080F05D12C44AC4240F00481254600247C
:103DB8000A9B002B00F02E8129EAE97AA9EB0A0276
:103DC8007642049B0592934284BF0EABD3180AF146
:103DD800FF3A8CBF58793020564505F1010700F3AA
:103DE800F380039B41469847059A002802F1010297
:103DF800FFF671AEBAF1FF3F09D1039B0592414628
:103E08002E2098470028FFF666AE059AAF1C3D465F
:103E1800D7E7742F3FF498AE7A2F3FF495AEF6E6C5
:103E28001BF0800F18BF4BF4007B4BF0800B8BE628
:103E38001BF4807F18BF4BF4007B4BF4807B83E638
:103E48004BF4207B80E62646B3465446B2467BE6D2
:103E5800FF4307F0200306930D9B073323F0070366
:103E680003F10802D3E90001059B0D921BF0400FF6
:103E780008BF0626652B13D1731C0022DBB24BF456
:103E8800805B1446112BCDE9002428BF11230EAA0C
:103E980000F014FBC3B2DDF8389004930227F7E66C
:103EA800059B662B05D14BF4005B34460122112398
:103EB800E8E7F3B2012B4FF000024FF0650738BF77
:103EC800012314460597DDE70227F2E6002B3FF4AD
:103ED80004AFBAF1030F3BDC9DF83C309A4E13F067
:103EE800080F9A4B08BF1E46B1464F4619F8010BFA
:103EF800B0BBAE1B374488E033BB2B23EDE62BBBAE
:103F08002D23EAE62022BAF1040F13DD1BF0080F77
:103F1800AAF104040FD12C44039B049241462020AB
:103F28009847002805F10105FFF6D5ADA542049A8A
:103F3800F2D19AB10024039B4146104698470028C5
:103F480005F10105C8DAC6E52B22DCE72D22DAE700
:103F58001BF0080FAAF10304BED1DCE71446BBE747
:103F6800069BC01A4146039BC0B298470028BCDA9A
:103F7800B1E504990139C9B20491B8E6561ED1E6F3
:103F88000026CFE61BF4006F0CBF032405243C4435
:103F9800D0E61BF0100F18BF0134D2E60B93414650
:103FA800039B2020984700280B9B05F10105BFF6CD
:103FB800D1AE90E5039B414630209847002805F193
:103FC8000105BFF6F0AE86E5D1450AD19DF83D3032
:103FD800352B1DD805D19DF83C3013F0100F08BFC4
:103FE8003120039B414698470028FFF674AD1BF02B
:103FF800100F0AD0BAF1FF3F07D1AF1C41462E205F
:10400800039B98470028FFF666AD3D463C443DE2D9
:104018003120E6E79DF83D0031281EBF9DF83C3071
:1040280023F010038DF83C304146039B9847002845
:10403800FFF651AD002E6BDD039B41462E209847BD
:104048000028FFF648AD4FF0010A049B9A45BBBF14
:104058000EAB534430205879039B414698470028BB
:10406800D346FFF638AD0AF1010A5645EDDA0235B6
:104078005D44DDE90532981A4146039BC0B2984772
:104088000028FFF628ADB9F1000F04DB4ED19DF8EA
:104098003C30DB064AD5C9F100092D20039B414677
:1040A80098470028FFF617AD042F41D14FF47A77CF
:1040B80099FBF7F606F13000039B4146C0B29847DA
:1040C800002805F10305FFF606AD07FB16996427DE
:1040D80099FBF7F606F13000039B4146C0B29847BA
:1040E800002805F10105FFF6F6AC07FB16990A272B
:1040F80099FBF7F606F13000039B4146C0B298479A
:10410800002805F10105FFF6E6AC07FB169915E056
:104118001BF0100F01D10135ABE7039B41462E2060
:104128009847002805F10205A3DAD4E42B20B5E767
:10413800032F05F10205CAD0012FD8D109F13000AB
:104148006F1C4146C0B25BE79C810008988100085B
:10415800A7F16303122B00F2FB80DFE813F01300D2
:104168005300F900F900F900F9005300F900F900CB
:10417800F900F900F9001401F400F900F900280029
:10418800F900B5000D9B1A1D1B680D928DF838308B
:1041980001240EAF1BF0080F2AD007EB04093E4696
:1041A8004E4527D1EF1B3744AAEB04042DE70D9B9E
:1041B8001A1D0D921F68AB4B002F08BF1F461BF03E
:1041C800400F14BF31464FF0FF31384602F0F0FE81
:1041D8000446DFE7039B4146202098470028FFF666
:1041E8007AAC013EB442F5D35544AD1BB246D4E790
:1041F8005646F7E716F8010B039B414698470028F7
:10420800CEDA68E41BF0800F0D9B35D01BF4007FDD
:104218002DD0073323F00703D3E9000103F1080287
:104228000D922BF0100900291FFA89F936DA40425D
:1042380061EB410149F480690DF1380B0A235A46B4
:1042480002F0C2FE19F0400FA0EB0B0B65D029F06D
:1042580001025E4592B240F3B380002F00F0AA80BD
:1042680019F010033446914626D002345CE01A1D3A
:1042780018680D92C117D4E71A1D1BF4807F1968BE
:104288000D9201D10846F5E71BF4007F15BF48B22F
:1042980008B241F3C01141F3C031C2E750EA01034B
:1042A800CAD11BF0400FC7D0002EC5D12BF0110B7F
:1042B8001FFA8BF93446B34640F2064319EA030362
:1042C8001CBF013400232FE02BF0100B1FFA8BFBCF
:1042D8000A231BF080040D9A58D01BF400711DBFEF
:1042E800073222F0070202F10801101D19BF0D91D3
:1042F800D2E900010D90106850EA010253D12BF069
:1043080016091BF0400F1FFA89F950D0002E4ED124
:104318002BF0170B1FFA8BF9B34619F0100353D083
:10432800002F4FD10BF1010419F0080F5FD119F0DC
:10433800010F06D0A2456EDDAAEB040404EB0B06C0
:10434800544622464EE04BF0100B10237827C0E766
:1043580047F02003782B04D1C7F1780343F010030A
:10436800B7E7039B4146252098470028FFF6B3ABE3
:10437800039B4146384698470028FFF6ACAB023508
:10438800079BFFF799BB08230027A2E7111D0D9192
:104398001BF480711068AFD01BF400711ABFC0B253
:1043A800214680B2A8E72BF0060B1FFA8BF90DF116
:1043B800380B44E729F011091FFA89F934467BE7DD
:1043C8009146AAE75C4650E75C4675E7CDE90423C9
:1043D8004146039B202098470028FFF67CAB049AAF
:1043E800059B01329245F1DC2C1BA5181446EBB154
:1043F800039B4146302098470028FFF66CAB67B90D
:1044080001352F462E44F31B5B4521DC5D460EAE7D
:1044180055BB5F44C8E65E4693E7023541463846D9
:10442800039B98470028ECDAFFF755BB40F2064398
:1044380019EA030FE5D019F0020F14BF2B20202032
:1044480019F4806F05F10105414618BF2D20E7E7F3
:10445800039B414630209847002807F10107D2DA2C
:10446800FFF739BBA0810008013D039B705D414601
:1044780098470028CCDAFFF72EBB039B4146202043
:104488009847002805F10105FFF625AB631B002BB3
:10449800F3DC75E71FB502AB0093074A4FF0CC3346
:1044A80002F075FEDDE90201C00840EA4170C90862
:1044B80005B05DF804FB00BFCDCCCCCC2DE9F04FA6
:1044C8009BB0044605920A460A93C2F30A559DF822
:1044D80090300B93D20FC1F313030992090D7DB9E4
:1044E80050EA03021BD1059A30235371099B1560CA
:1044F80043F002031371012738461BB0BDE8F08F63
:1045080040F2FF7295424AD10343099B059A14BFB2
:1045180043F0080343F0040313710027ECE700F0AD
:10452800010208924FEA83080122AC4D48EA9078CC
:1045380087009A461646C5F1000B5846069200F0C9
:1045480011FAB5F1FF3FACBF8146A0F10109ABEB11
:10455800090B09EB05035846049300F009FA16A95C
:10456800A0F17D05584600F023FA12AB069A019394
:10457800A9EB050510AB0292009320462B4616AA1C
:10458800514602F049FDB9F1010F04460D4600F20B
:10459800D280089B002B40F0C58001276BE043F4D4
:1045A800801A00F001024FEA8A080343A5F2354554
:1045B800089248EA90784FEA800749D140F2FE73A2
:1045C80019420CBF01260026002D3246B3DB2846CF
:1045D80000F0C2F9032DC8BF0138049000F0C8F9F3
:1045E800049B7C305D1B054416A9184600F054FA5C
:1045F80012AB019310AB009320462B46029616AAE5
:10460800514602F009FD049B152B04460D4600F2A5
:10461800868014AB724A009338464FF0CC3341463B
:1046280002F0B5FD149B159A9B0843EA827303EBCD
:104638008303BB42DDE9109A0CD13846414600F0AD
:104648009FF9049B83428CBF00270127002612E0B4
:104658000126B9E7089B002B51D1013F48F1FF31F2
:10466800B81B61F1000100F08BF9049B089F83429D
:104678008CBF002601260B9B002B40F09080DDF8B4
:1046880028B04FF00008CDE906884FF00A0ADDE9A6
:104698001001FFF7FFFE129B0E93CDE90C0118469F
:1046A8001399FFF7F7FE0C9B0D9A0F9198420B4652
:1046B8009341814680F08D8020462946FFF7EAFE27
:1046C8000E9A0AFB09F3934214BF002606F001066E
:1046D8000C9B10930D9BCDE911390F9B1393079BEE
:1046E800B8F1000F14BF002707F0010701330AFBD8
:1046F80010485FFA88F8079304460D46C7E7B81CC8
:1047080048F1000100F03CF9049B83428CBF002073
:104718000120B9EB00006AF10002CDE91002002780
:104728003E46A8E7109B119A013B42F1FF32CDE9C2
:10473800103201278AE7B9F13E0FF0D84FF0FF3366
:10474800A9F1200003FA09F203FA00F0C9F12001E7
:1047580023FA01F102430A4303FA09F327EA03079C
:1047680028EA020857EA08070CBF012700276DE767
:1047780000FB02FCA1FB0012013362448C4275EB82
:10478800020CF5D2049ADDF828B01344259A134494
:10479800012BB8BF01239B45A8BF9B4671E70A219F
:1047A800002201230846E9E70AFB03F0A2FB0A23DB
:1047B80001310344944275EB0300F5D2594511DDEC
:1047C800BBF1000F02D154EA05030BD00123069375
:1047D80072E70A2200230121ECE700BFCCFBFFFFB0
:1047E800CDCCCCCC002E2FD04FF00A0A129B1399B7
:1047F8000D931846FFF74EFE0D9B0C910AFB00F235
:104808009A42814620D1DDE91001FFF743FE0E9060
:104818000D9120462946FFF73DFE0D9B0E9A1092FA
:10482800CDE911390C9B1393079BB8F1000F14BF06
:10483800002707F0010701330AFB10485FFA88F8E0
:10484800079304460D46D1E7DDF81090079B99447D
:10485800002F59D0B8F1050F56D114F0010349D1F2
:10486800069A32B9DDE912239D4208BF94425ED010
:10487800069B18194FF00A0445F100010022012691
:104888002546A04271EB020754D2E3B1B3451ADAC8
:104898000B9B63B1259ADDF828B006EB0903134496
:1048A80023EAE3739B45A8BF9B465E450BDD0530B5
:1048B8004FF00A024FF0000341F10001FCF77EF8C7
:1048C80009F10109013E5E45A8BF5E4637B20FFAFD
:1048D80089F9059B09FA86F607F10508013E98440F
:1048E8004FF00009B9452CDB059B1A461E60099B51
:1048F800137101E6069B2BB9DDE912239D4208BF1F
:10490800944209D00123B4E7069B53B9DDE9122389
:104918009D4208BF944204D1089B002BF2D1002E7F
:10492800F0D0B8F1040F94BF00230123A1E74FF0A2
:104938000408F1E705FB02F7A4FB054201363A44F7
:104948009FE70A220023FCF739F8303208F8012DD6
:1049580009F10109C6E700BF014B5843800C7047B5
:1049680041340100014B5843000D7047FB2E0B00EA
:10497800024B5843C00C0130704700BF4F931200E0
:104988000A4A70B503464FF0CC3600204FF0333555
:1049980006FB03F402FB0144A3FB023121449D42C0
:1049A80075EB010401D30130F2E770BDCDCCCCCC5E
:1049B8002DE9F04F1A23354EB0FBF3FA03FB1A0327
:1049C80089B004460D4606EB0A1653B9D6E900230A
:1049D800C1E90023D6E90201C5E9020109B0BDE831
:1049E800F08F2B4A02EBC303D3E9008904AB009391
:1049F800D6E902234046494602F0C9FB06AB0093BC
:104A0800D6E9002383460F464046494602F0BFFBDD
:104A1800DDE9066216EB0B0652EB07084FF00003C0
:104A280028BF0123814633B1049B059A013342F123
:104A38000002CDE9043220460391FFF799FF0746AB
:104A48001A2000FB0AF0FFF793FF3F1A324643464D
:104A580003990097484602F0B5FB4FEA141C0D4A2B
:104A6800640004F01E0352F82C40DC4004F00304F8
:104A7800241841F10001C5E90041DDE9042300974C
:104A88003046414602F09EFBA6E700BFC079000809
:104A9800F0780008F08000082DE9F04F1A27DFF8B9
:104AA800E4A000F11905B5FBF7F56F433A1A4FEA90
:104AB800051B89B004460E460AEB05150AD1D5E94F
:104AC8000023C1E90023D5E90201C6E9020109B0C2
:104AD800BDE8F08F2C4B03EBC203D3E9008904AB8C
:104AE8000093D5E902234046494602F050FB5AF8A4
:104AF8000B206B68013ACDE9020106A963F10003B6
:104B080000914046494602F042FBDDE906528A46DA
:104B180002996D18039952EB01084FF0000328BF62
:104B28000123814633B1049B059A013342F1000207
:104B3800CDE904323846FFF71BFF07462046FFF74A
:104B480017FF3F1A2A46434600974846514602F047
:104B580039FB4FEA141C0D4A640004F01E0352F896
:104B68002C40DC4004F003040134241841F1000116
:104B7800C6E90041DDE9042300972846414602F0D2
:104B880021FBA2E7907A0008F07800084481000829
:104B9800704708B58368DB683A21984708BD08B5AF
:104BA80020EAE073D9178A0042EA93729800C01885
:104BB80041EB020100184941FEF786FB08BD10B51C
:104BC800131D50F8234074B9C3680124944023434B
:104BD800C360043240F82210CB001A1D89B28152FA
:104BE8000633C15210BDE2000432835A4FEAC10CA9
:104BF8000CF1040E20F80E300CF1060C20F80C40D5
:104C0800DB00063389B2C1528152EBE708B500EBED
:104C1800C1035A885208B2FA82F2C2F11F02FFF7A2
:104C2800CEFF08BD70B50346043AC81D20F0070042
:104C38000A4422F00702121AD5081860856000237A
:104C4800C360B5FA85F1C1F1200EC1F124018900D4
:104C5800CE1DF10805E003F1040C002440F82C40B7
:104C680001337345F7DB4C00A4B244804FF0000CCD
:104C7800A0F800C044F0010444806B1A4FEA430EC8
:104C880026F00704A51C20F805E0015322F00704CC
:104C9800951C20F805C002440353538843F00103D0
:104CA8005380FFF7B3FF70BD002070470FB400B505
:104CB80083B004A951F8040B0191FCF7D5F803B0AF
:104CC8005DF804EB04B07047704708B5FDF7D6FDF2
:104CD80008BD08B501460068FFF7F7FF08BD0020CA
:104CE800704700230B70704708B500231370CB1E64
:104CF800092B1AD8DFE803F005090D11191919193C
:104D080019141146FCF766FA10E00021FCF7F8F9CF
:104D18000CE00021FCF75EF908E0FCF7A1F905E0DA
:104D28001146FFF7DEFF002000E0002008BD08B5AF
:104D380040B2FCF781FB08BD08B5013140B2FCF771
:104D480089FB08BD08B500210120FFF7BEFF08BD9B
:104D580043685A1E134206D11F2B06D903681A420C
:104D680005D00020704700207047002070470120C0
:104D7800704700B585B00B6801934B688A68202B93
:104D880012D9B3F1004F11D8013BB3FA83F3C3F141
:104D98001F035B0003F03E031343039301A9FCF7D1
:104DA80069FC05B05DF804FB0823F5E73E23F3E74B
:104DB8002DE9F84380460F4699461646002509E036
:104DC8002146F0B2FFF7D5FF064610F1160F14D0B2
:104DD80001360135BD4210DA05EB450408EB8404C1
:104DE8006268002AF5D0B9F1000FE9D02046FFF734
:104DF800AFFF0028E4D16FF015063046BDE8F88310
:104E0800F0B585B0054603A8FCF782F806460024ED
:104E180025E0B3F5801F40F0C680576809589368AD
:104E2800202B64D9B3F1004F63D8013BB3FA83F365
:104E3800C3F11F035B0003F03E0343F0885343F4C0
:104E4800302300970191029369462878FCF712FCF9
:104E58000028C0F2A8802B7801332B700134A642B9
:104E680040F2A5802001039901EB0412D3681B0DC1
:104E78001B05B3F5000F5ED01DD8B3F5001F3AD05F
:104E8800B3F5800FC5D1576809589368202B4ED9C0
:104E9800B3F1004F4DD8013BB3FA83F3C3F11F03BD
:104EA8005B0003F03E0343F0E06343F400330097F4
:104EB80001910293C8E7B3F1807F56D0B3F1007F28
:104EC80071D1576809589368202B68D9B3F1004FFE
:104ED80067D8013BB3FA83F3C3F11F035B0003F008
:104EE8003E0343F48023009701910293ACE7082323
:104EF800A3E73E23A1E7576809589368202B12D9E6
:104F0800B3F1004F11D8013BB3FA83F3C3F11F0388
:104F18005B0003F03E0343F0885343F400230097FB
:104F28000191029390E70823F5E73E23F3E708236E
:104F3800B9E73E23B7E7576809589368202B10D97B
:104F4800B3F1004F0FD8013BB3FA83F3C3F11F034A
:104F58005B0003F03E0343F08273009701910293D4
:104F680072E70823F7E73E23F5E75768095893687F
:104F7800202B10D9B3F1004F0FD8013BB3FA83F3BC
:104F8800C3F11F035B0003F03E0343F088730097EF
:104F98000191029358E70823F7E73E23F5E7082332
:104FA8009FE73E239DE76FF0150005B0F0BD002098
:104FB800FBE708B5FCF772FB08BD08B5FCF778FB02
:104FC80008BD08B5FCF7E8FB002008BD08B50622B7
:104FD80001210020FCF72CFC002211460620FFF7D7
:104FE800ABFE072201210846FCF722FC00221146ED
:104FF8000720FFF7A1FE082201210220FCF718FC78
:10500800002211460820FFF797FE092201210320FC
:10501800FCF70EFC002211460920FFF78DFE0A223C
:1050280001210420FCF704FC002211460A20FFF7A6
:1050380083FE172205210846FCF7FAFB00221146D9
:105048001720FFF779FE282206210A20FCF7F0FB3B
:10505800002211462820FFF76FFE002008BDB0FB94
:10506800F1F002FB00F0B0FBF3F07047B0FBF1F099
:105078007047012806D038B10338022807D96FF0E5
:1050880085007047002070476FF08500704700204A
:1050980070470B68A3F13002782A09D803F18043DE
:1050A80003F50E334A6819680A431A6000207047EE
:1050B8006FF0850070470B68A3F13002782A0AD890
:1050C80003F1804303F50E3349681A6822EA0102A6
:1050D8001A60002070476FF08500704710B50C46C5
:1050E8000868FFF7C6FF00281FDB6368FF2B1DD089
:1050F800DAB202F1804202F50E32C3F34231C3F351
:1051080004239940136823EA010313606168CBB252
:1051180003F1804303F50E33C1F30242C1F30421C6
:105128008A4019680A431A60002010BD0020FCE775
:1051380008B50868A0F13003782B0BD800F180403F
:1051480000F50E3002684B68934301D0012008BD7A
:105158000220FCE7FFF78DFF08B10120F7E70220E6
:10516800F5E74FF4800070470B4639B111681960B4
:1051780041688A4209D000231360704713680360AE
:1051880041688A42F7D14360F5E74360F3E708B521
:105198000A460368002101E019461B682BB19342B7
:1051A800FAD1FFF7E1FF012000E0002008BD70B54B
:1051B80004460D461646036833B1FFF7E8FF70B999
:1051C8001EB96FF0150006E032B123682B60256028
:1051D800636843B1002070BD6FF01500FBE7002E37
:1051E800F3D10020F7E765600020F4E770B50E46BC
:1051F8001546016821B10C683CB131B90C4604E090
:105208000C4602E0234621461C4671B18A682A40B2
:1052180002D04B6830469847002CF3D02368002B07
:10522800F1D0002CEFD12346EDE770BD08B50B4651
:1052380001228240496803F10800FFF7D7FF08BD43
:1052480010F4003F1BD010230B6010F0020F04D0A5
:1052580010F0040F2CD050230B6010F0100F05D065
:105268000B6843F400730B600020704710F0200FA8
:1052780021D00B6843F480630B600020704710F462
:10528800803F11D000230B6010F0100F04D04FF4B2
:1052980000730B600020704710F0200F0DD04FF402
:1052A80080630B600020704730230B60002070473C
:1052B8006FF08500704700207047002070474368F2
:1052C8005B681B690B600020704743685B6858691E
:1052D80042400A4042405A610020704743685B6878
:1052E80099610020704743685B6809049961002050
:1052F800704743685A6853694B40536100207047B0
:1053080008B500690830FFF752FF08BD10B40468FB
:1053180091FAA1F39BB1B3FA83F35B004FF0030C4E
:105328000CFA03F324EA030391FAA1F149B1B1FAA3
:1053380081F149008A401343036010BC7047202361
:10534800EBE72021F5E710B4846891FAA1F39BB14B
:10535800B3FA83F35B004FF0030C0CFA03F324EA6F
:10536800030391FAA1F149B1B1FA81F149008A40E8
:105378001343836010BC70472023EBE72021F5E737
:1053880010B4C46891FAA1F39BB1B3FA83F35B003C
:105398004FF0030C0CFA03F324EA030391FAA1F18A
:1053A80049B1B1FA81F149008A401343C36010BC86
:1053B80070472023EBE72021F5E710B4046A91FA3F
:1053C800A1F39BB1B3FA83F39B004FF00F0C0CFAD7
:1053D80003F324EA030391FAA1F149B1B1FA81F187
:1053E80089008A401343036210BC70472023EBE70F
:1053F8002021F5E710B4446A090A91FAA1F39BB198
:10540800B3FA83F39B004FF00F0C0CFA03F324EA72
:10541800030491FAA1F149B1B1FA81F189008A40F6
:105428001443446210BC70472023EBE72021F5E7C2
:105438002DE9F8430F461546984643685E680124EF
:105448008C4002F03009C2F38013706820EA04002F
:105458008B4018437060C2F3C11221463046FFF7F3
:1054680072FFC5F3412221463046FFF789FFB9F1A3
:10547800200F07D04FEA191221463046FFF746FFA2
:10548800BDE8F883072F05DC424621463046FFF782
:1054980094FFEFE7424621463046FFF7ABFFE9E7C6
:1054A800F0B583B007460D46144601A91046FFF72C
:1054B800C7FE064670B914F4003F05D014F4002F57
:1054C8000BD114F4802F0ED10023019A29463846B7
:1054D800FFF7AEFF304603B0F0BD0121A9403846C2
:1054E800FFF7FCFEF0E70121A9403846FFF7FBFE75
:1054F800EAE708B54A4201F0030302F0030258BF85
:10550800534204339B000F2202FA03F30A46002990
:1055180004DB43EAA201FCF7ABFB08BDCA1CF8E7B1
:1055280008B5424200F0030302F0030258BF534299
:1055380004339B000F2202FA03F30246002804DB1F
:1055480043EAA200FCF7CEFB08BDC21CF8E7F8B599
:1055580007460E4614461D46FFF76AFF112D01D077
:105568000020F8BD14F4006407D1002CF8D1012103
:10557800B1403846FFF7B7FEF2E70121B14038469F
:10558800FFF7ACFEECE700B50368136001E00833F1
:105598001360136890F804C0D0F800E00EEBCC0C50
:1055A800634505D293F805C08C45F0D1002001E091
:1055B8006FF001005DF804FBF8B506460F460024BD
:1055C800254614E002F01F0110291FD011291BD015
:1055D800530A1B01DBB2C2F3431002F01F02294633
:1055E8001843FCF7F3FB002813DB0134E4B2BC4298
:1055F8000ED206EBC40356F8342012F0100FE1D196
:105608005D6845F02005E3E75D68E1E73025DFE701
:105618000020F8BD43681868C1F34B1301F01F015F
:10562800C05801238B40184214BF01230023137074
:105638000020704710B443681C68C1F34B1001F098
:105648001F01235801228A4013432350002010BC15
:10565800704710B443681C68C1F34B1001F01F0178
:10566800235801228A4023EA02032350002010BC59
:10567800704738B504460D46FFF7DCFF294620463B
:10568800FFF7E7FF002038BD03885A00C2EBE102AC
:10569800B0F902C00CFB02F2C3EB211101FB01F3CC
:1056A8001B13B0F9041001FB03F39B1303EBE22374
:1056B800036303EB830380331B12436270472DE9B6
:1056C800F0410446026BD317B2F5FA3C43F1FF33BD
:1056D8000CFB03F0ACFB0C2707EB4007B4F91000F8
:1056E8004FEAE07E02FB0EFE00FB07EEA2FB006025
:1056F8008644B4F90E004FEAE07800FB03F50CFB92
:105708000855A0FB0C0845446D0445EAD035400413
:1057180080194EEB050EB4F90C500EEBC50EB4F91A
:105728000A50EE1702FB06F605FB0766A2FB0525E5
:105738002E44120A42EA0662B4F90850EF1705FB34
:1057480003F30CFB0733A5FB0C5C63441B0343EA20
:1057580015532D03521943EB262303F50043E6881E
:10576800A2FB062506FB03556A10EB1753EA6505ED
:1057780062D0C1F580156910ED072D1A61EB0E0E88
:1057880015EB050C4EEB0E011CEB050C4EEB010165
:10579800880140EA9C604FEA8C161CEB060C41EB32
:1057A8000001890041EA9C714FEA8C0C1CEB050C46
:1057B8004EEB0101890041EA9C714FEA8C004019C7
:1057C8004EEB0101FBF7AAF80346B4F916604FEA5D
:1057D800E67C420B42EAC1424F1306FB07F502FB87
:1057E8000C55A6FB026C654402FB05F506FB075544
:1057F800A2FB06263544520E42EAC512B4F91460DB
:105808004FEAE67C06FB01F70CFB0070A6FB03677A
:105818003844F60C46EA40369B1841EB65619B1903
:1058280041EBE0411B0A43EA0163B4F9122003EBA0
:105838000213A362BDE8F0810023A362FAE7036BB9
:10584800A3F5963CB0F91E301B05C3EB8133B0F9C4
:1058580020200CFB123303F58043DA1390F9223031
:105868000CFB03F39B12017F0CFB01F1C91201F53C
:10587800004101FB03F39B1203F50013B0F91A1062
:1058880001FB03F303F500539B1302FB03F3DA1345
:1058980002FB02F2D211017E01FB02F2A3EB2213FA
:1058A800B3F1C85FA8BF4FF0C8531B13C36270475A
:1058B80070B588B005460469406883695E68182336
:1058C80002AA8821B047002828DBBDF808302380C9
:1058D800BDF90A306380BDF90C30A380BDF80E30E5
:1058E800E380BDF910302381BDF912306381BDF921
:1058F8001430A381BDF91630E381BDF91830238235
:10590800BDF91A306382BDF91C30A382BDF91E307F
:10591800E38294F83430602B02D0002008B070BDC8
:10592800686883695E68012304F11802A121B04701
:105938000028F3DB686883695D6807236A46E1210C
:10594800A8470028EADB9DF801209DF8003043EACB
:10595800022363839DF8023023779DF803109DF896
:10596800042002F00F0343EA0113E3839DF8053096
:105978001B0143EA121323849DF9063084F8223070
:105988000020CBE730B583B0054600238DF80730FB
:105998001E200021FDF798FC686883695C68012374
:1059A8000DF10702F321A047002805DB9DF8073019
:1059B80013F0090FECD1002003B030BD30B583B02F
:1059C80004460569FFF7DEFF00282EDB95F8343022
:1059D800602B2CD006236068826954686A46F721D8
:1059E800A047002821DB9DF800309DF801402401E4
:1059F80044EA03349DF8023044EA13149DF8032066
:105A08009DF804301B0143EA02339DF8051043EA70
:105A180011112846FFF738FE21462846FFF74FFEAA
:105A280095F83430602B04D0002003B030BD082333
:105A3800D1E79DF806109DF8073043EA0121284672
:105A4800FFF7FDFE0020F0E770B5044605694068E1
:105A580083691B68984700283ADB606883695E6839
:105A6800012305F13402D021B047002830DB95F836
:105A78003430602B03D0582B01D0562B32D16068BC
:105A880083699B68B622E02198472046FFF77AFF92
:105A980000281DDB2046FFF70BFF002818DB95F8D0
:105AA8003430602B15D0606883699B685722F421D5
:105AB800984700280CDB606883699B68A822F52159
:105AC8009847002804DB0A200021FDF7FDFB002091
