:020000040800F2
:1000000040130020AD0A0008B5060008990A000850
:10001000990A0008990A0008990A000800000000DF
:10002000000000000000000000000000B10B00080C
:10003000990A000800000000490B0008051E00088E
:100040007D0D00087D0D00087D0D00087D0D000868
:100050007D0D00087D0D00087D0D00087D0D000858
:100060007D0D00087D0D00087D0D00087D0D000848
:100070007D0D00087D0D00087D0D00087D0D000838
:100080007D0D00087D0D00087D0D00087D0D000828
:100090007D0D00087D0D00087D0D00087D0D000818
:1000A0007D0D00087D0D00087D0D00087D0D000808
:1000B0007D0D00087D0D00087D0D00087D0D0008F8
:1000C0007D0D00087D0D00087D0D00087D0D0008E8
:1000D0007D0D00087D0D00087D0D00087D0D0008D8
:1000E0007D0D00087D0D00087D0D00087D0D0008C8
:1000F0007D0D00087D0D00087D0D00087D0D0008B8
:100100007D0D00087D0D00087D0D00087D0D0008A7
:100110007D0D00087D0D00087D0D00087D0D000897
:100120007D0D00087D0D00087D0D00087D0D000887
:100130007D0D00087D0D00087D0D00087D0D000877
:100140007D0D00087D0D00087D0D00087D0D000867
:100150007D0D00087D0D00087D0D00087D0D000857
:100160007D0D00087D0D00087D0D00087D0D000847
:100170007D0D00087D0D00087D0D00087D0D000837
:080180007D0D00087D0D000853
:100188007BB972B90029BEBF00204FF0004106E0DC
:1001980008BF00281CBF6FF000414FF0FF3000F08F
:1001A80057B8ADF1080C6DE904CE002909DB002B26
:1001B8001ADB00F04FF8DDF804E0DDE9022304B0B3
:1001C8007047404261EB4101002B1BDB00F042F815
:1001D800DDF804E0DDE9022304B0404261EB4101AF
:1001E800524263EB43037047524263EB430300F010
:1001F80031F8DDF804E0DDE9022304B0404261EBA8
:1002080041017047524263EB430300F023F8DDF8E5
:1002180004E0DDE9022304B0524263EB4303704774
:1002280053B94AB9002908BF00281CBF4FF0FF3155
:100238004FF0FF3000F00CB8ADF1080C6DE904CEBA
:1002480000F008F8DDF804E0DDE9022304B07047A7
:10025800704700BF2DE9F04786468C460846089E41
:10026800154674461946002B40F0C2808542B2FA02
:1002780082F245D94AB1C2F1200300FA02FC2EFAF3
:1002880003F3954043EA0C0C94404FEA154EA8B28C
:10029800BCFBFEF8230C0EFB18CC08FB00F943EA64
:1002A8000C43994528D9EB1808F1FF3704D2994532
:1002B80002D9A8F102072B44A3EB0903A4B2B3FBAC
:1002C800FEFC0EFB1C330CFB00F044EA0344A04286
:1002D80014D92C190CF1FF3304D2A04202D9ACF185
:1002E80002032C44241A43EA07401EB1D4400023D9
:1002F80034607360BDE8F0874746DDE76346F1E7A1
:1003080092BB431B01214FEA154EAFB2B3FBFEFC73
:10031800200C0EFB1C330CFB07F840EA03439845FE
:1003280062D9EB180CF1FF3004D2984502D9ACF130
:1003380002002B44A3EB0803A4B2B3FBFEFC0EFBA4
:100348001C330CFB07F744EA0344A7424ED92C1987
:100358000CF1FF3304D2A74202D9ACF102032C44BA
:10036800E41B43EA0040C0E7C2F1200320FA03F18E
:10037800954090402EFA03F303434FEA154EAFB26F
:10038800B1FBFEFC0EFB1C10190C0CFB07F841EA34
:100398000041884504FA02F422D969180CF1FF30AB
:1003A80004D2884502D9ACF102002944A1EB080126
:1003B8009BB2B1FBFEFC0EFB1C110CFB07F743EADA
:1003C80001439F420ED9EB180CF1FF3104D29F4232
:1003D80002D9ACF102012B44DB1B41EA004192E750
:1003E8006046E3E76146F7E76046A3E76346B7E799
:1003F800834206D916B9002108467BE7C6E900E022
:10040800F9E7B3FA83F78FB9834201D3724508D865
:10041800BEEB020460EB030301209C461EB90021D9
:1004280068E73846FAE7C6E9004CF8E7C7F1200C58
:10043800BB4022FA0CF41C432EFA0CF120FA0CF300
:10044800B84001434FEA14490EFA07F5B3FBF9F82F
:100458001FFA84FE09FB18300B0C08FB0EFA43EA5E
:1004680000439A4502FA07F240D9E31808F1FF3031
:1004780004D29A4502D9A8F102002344A3EB0A0347
:1004880089B2B3FBF9F809FB183308FB0EFE41EA01
:1004980003418E452CD9611808F1FF3304D28E45EB
:1004A80002D9A8F10203214443EA0040A0FB0298C4
:1004B800A1EB0E014145CE46434602D306D14D4538
:1004C80004D2B9EB020E68EB04030138002EA6D063
:1004D800B5EB0E0261EB030101FA0CFC22FA07F3FB
:1004E8004CEA0303F940C6E9003198E74046C5E7FE
:1004F8004346D9E70000000038B5044611461A46BD
:10050800042909D8032949D219B9198804F0F5FC36
:1005180001E06FF0850038BD072942D11D68E91751
:10052800480140EAD5606B015B1B60EB01004002AB
:1005380040EAD3505B025B1941EB00004FEA801E92
:100548004EEA936E4FEA831CBCEB030C6EEB000E75
:100558001CEB050C41EB0E01526812EB0C0341EB4E
:10056800E271012B71F100020DDB114818180EA37E
:10057800D3E9002341F10001FFF702FE01462046BE
:1005880001F032F8C7E70B48181807A3D3E900238E
:1005980061F10001FFF7F4FD0146F0E701F0D8F83A
:1005A800B9E76FF08500B6E73AA3950000000000B0
:1005B8009DD14A00632EB5FF08B5084805F093FDA4
:1005C80030B1064B1968064802F0B6FD002008BD98
:1005D800024B1968034802F0AFFDF7E7746D000895
:1005E800307300081873000808B5024B1B68984759
:1005F80008BD00BF0000002000B585B00A460023F2
:10060800009301930293039302238DF80230044B65
:1006180001930146684602F03DFE05B05DF804FB13
:10062800F1050008014B1860704700BF000000206A
:1006380080B505460E461746984602F091FA0346DD
:1006480006F09CFA0446DFF8189049F80030424654
:1006580039463046A84754F8090000F03DFA00BF73
:1006680008000000064B1A6842F400721A601A6803
:1006780042F480621A60034B034A1A6000207047F4
:10068800003C0240E40000200024F400034A5368C0
:1006980023F0020353600020704700BF002004E0ED
:1006A800014B0360002070474473000808B5034BF2
:1006B8001B68984700F048F808BD00BF04000020F8
:1006C80030BFFFF7FDBF00BF38B50446084D2A46C6
:1006D800084906F07EF90848431E2B44B3FBF0F3A3
:1006E800064A002100FB034006F081F938BD00BF2F
:1006F800000000005C700008010000000400000019
:1007080070B505460C480D4A0244013AB2FBF0F2B6
:100718000B4B0C4C1C44013CB4FBF3F404FB03F3FB
:1007280000FB02340E1B3046FFF7CEFF083EC5F82B
:10073800A86004F1080070BD01000000000000007E
:100748000400000004000000044B996858698842BE
:1007580003D003494FF080520A60704724050020F7
:1007680004ED00E038B51546204B9B6A13F4805F12
:1007780019D116241D4B9B6A13F4006F00D018245E
:100788001A4B9B6A13F4007F10D0184B9A6B9B6A24
:1007980013F4004F09D0D9B1144A936A23F40043E3
:1007A8009362192402E01724E4E719240F4B9B6A8B
:1007B80013F4806F00D01A240C4B9B6A13F4807FCB
:1007C80008D10A4B9B6A13F4005F04D01C2402E092
:1007D8001924EBE71B24054A936A43F47F43936289
:1007E800012103F062FE2870204638BD00ED00E0CC
:1007F800174B9B6A13F0007F25D11D20144B9B6A71
:1008080013F0807F00D01F20114B9B6A13F4002F38
:1008180000D021200E4B9B6A13F4802F00D0222099
:100828000B4B9B6A13F4003F00D02320084B9B6AB4
:1008380013F4803F09D1064A936A6FEA03436FEACB
:100848001343936270471E20D8E72420F3E700BFC4
:1008580000ED00E081690D4B5A6942F480725A61DB
:10086800BFF34F8FBFF36F8F31F8021C5A6922F420
:1008780080725A61BFF34F8FBFF36F8F4DF60273CB
:10088800994201D0002070470120704700ED00E038
:1008980070B504461646324B9B6A13F0100F1AD1F6
:1008A80010252F4B9B6A13F0080F00D012252C4BF4
:1008B8009B6A13F0020F10D0294B586B9B6A13F0F8
:1008C800800F3DD000293FD0254A936A23F080034A
:1008D8009362132503E01125E3E76FF01500204B21
:1008E8009B6A13F0010F00D014251D4B9B6A13F06F
:1008F800200F00D015251A4B9B6A13F0100F04D156
:10090800174B9B6A13F0020F04D0154B5B6813F466
:10091800006F1BD1124B9B6A13F0200F04D0104AB2
:10092800536A23F4005353620D4A936A43F0FF035A
:1009380093620121204603F0B8FD3070284670BD4F
:100948006FF015001325CAE71325C8E7214600F004
:10095800A3F90028DED080F309880225DAE700BF72
:1009680000ED00E038B5054600230B701A4BD86A35
:1009780010F002002DD10C46DB6A002B2ADB164B47
:10098800D86A10F0804025D02846FFF763FF08B1E9
:1009980028681FE0104B9B6A13F0FF0F0DD10E4B18
:1009A800986A10F47F400ED10B4B9B6AB3F5803FD9
:1009B80010D32846FFF71CFF0CE0224601212846E9
:1009C800FFF766FF06E0224601212846FFF7CAFE28
:1009D80000E0002038BD00BF00ED00E030B58BB06E
:1009E8000C46264B5968C1F30801002383F311888C
:1009F800BFF36F8F02F07F43B3F17F4F15D102F041
:100A08000C03082B14D012F0080F0BD000250DF1A1
:100A18002702204603F04EFD86469DF8273053B145
:100A28000BB030BD04460125F1E700252C46EEE762
:100A380000252C46EBE70DF1040C20686168A268DC
:100A4800E368ACE80F0020696169A269E369ACE872
:100A58000F0045B1C3F308025AB96FEA53236FEA8E
:100A68004323089305E0089B23F4FF7323F0010355
:100A7800089301A9704603F00EFDD1E700ED00E0F0
:100A8800024A536943F010035361704700ED00E0D8
:100A9800EFF30880EFF3098101B57246FFF79EFF77
:100AA80001BD00BF00200A490870102080F311889A
:100AB80008484FF40461401880F30988EFF3148064
:100AC8000221084380F31488BFF36F8F00F09EF86B
:100AD800650500208005002008B50A4B9B68834205
:100AE80002D005F08EFC08BDEFF30583002BF8D08B
:100AF800054B5A6842F080525A605A6A22F4004202
:100B08005A62EEE72405002000ED00E00A4A9368E7
:100B1800C3F8AC006FF00A01C3F8B01007494B687E
:100B280043F080534B60002383F31188BFF36F8F2A
:100B38009368D3F8B00070472405002000ED00E06A
:100B480016498A684FF030001044EFF3098C80E8AA
:100B5800F01F102080F31288BFF36F8F104F4FF0F3
:100B680000664A698A603E604FF0A804141920683C
:100B78000C4C2060D2F8AC000023C2F8AC3080F3F3
:100B8800118804B5104600F017F9BDE8044002F1D9
:100B9800300090E8F01F8CF3098870472405002086
:100BA80004ED00E0880300201EF0040F0CBFEFF3F3
:100BB8000880EFF30980816911F8021C0229FFD02F
:100BC80001B503F06CFC01BD002807DB00F01F0233
:100BD800400901239340024A42F82030704700BF81
:100BE80000E100E0002808DB0901C9B200F160401B
:100BF80000F5614080F80013704700F00F0009010C
:100C0800C9B2014B1954704714ED00E008B50F4BF9
:100C18000F4A22F07F029A60BFF34F8FBFF36F8FA6
:100C2800D3F8882022F47002C3F88820EFF31483E5
:100C380023F0040383F31488BFF36F8F01F04EFB96
:100C480002F02CF900F07CF801F0BEFB00ED00E0AA
:100C58000000000810B4A2F120040E4942F8081C54
:100C680021F0010142F8081C42F8203C019B42F89F
:100C78001C3C029B42F8183C039B42F8143C4FF082
:100C8800807342F8043C04650023C0F8AC3010BC03
:100C9800704700BF39060008104B9B68BBB110F1C4
:100CA800160F0BD0D3F89820A2F1400C844510D829
:100CB800824210D98A4207D800207047D3F898207A
:100CC8008A4201D800207047D3F898007047002066
:100CD8007047002070470020704700BF240500209F
:100CE80008B50D4614460A4A9060D0F8A820094B6A
:100CF8001A6000F061F8204685F30988002163B680
:100D080081F31188BFF36F8F00220023FFF790FC57
:100D18002405002088030020014910220A6070473A
:100D280010ED00E072B6404080F31188BFF36F8F7A
:100D3800BFF34F8F30BF62B6BFF36F8F704700BFEE
:100D4800002206E003F00F030949194410230B762B
:100D58000132512A0ADC53B2002BF3DB03F1604362
:100D680003F56143102183F80013F1E7704700BFD2
:100D7800FCEC00E001B5EFF30580A0F110004FEAAC
:100D8800C0000449014409C99847BDE80140024927
:100D980008470000886D00085107000808B5034B94
:100DA800034A0121034803F0EAFC08BD00000220C1
:100DB800000000204473000808B5D0F89830403B84
:100DC8000448036040234360034B8360012103F020
:100DD800DAFC08BD8C03002000000B15084AC2F895
:100DE80098000B6823F01F03034343F01003C2F875
:100DF8009C308B6843F00103C2F8A030704700BFF5
:100E080000ED00E0084BD3F89030C3F30723013B13
:100E1800984205D810B50446FFF7E0FF204610BDFC
:100E28006FF01500704700BF00ED00E010B5034CEF
:100E38000123227803F0A2FB207010BD6405002076
:100E480008B500230B4A127803F098FB10F1160F2F
:100E58000FD0024606E0084BC3F898200021C3F8DB
:100E6800A0100132044BD3F89030C3F30723934208
:100E7800F1DC08BD6405002000ED00E0044B05220C
:100E8800C3F89420BFF34F8FBFF36F8F704700BF35
:100E980000ED00E0BFF35F8F024B0022C3F89420FF
:100EA800704700BF00ED00E038B51C4B1D681C4BB7
:100EB800D3F89030C3F307239D422BD8FFF7EAFFFE
:100EC800002409E0154B5B6804EB440103EB810146
:100ED8002046FFF783FF0134A542F3D81148057077
:100EE80003F074FB10F1160F13D00E4B1A780C4B4D
:100EF800D3F89030C3F307239A4207DA084BC3F8B4
:100F080098200021C3F8A0100132F0E7FFF7B6FFE0
:100F1800002038BD4FF0FF30FBE700BF50730008DA
:100F280000ED00E06405002008B5024B1B689847F7
:100F3800002008BD98030020034B1860034A9378EB
:100F480043F00203937070479803002008000020C4
:100F580008B5064921F00701C1F1005202F5003237
:100F6800034803F045FA002008BD00BFC71700205A
:100F78009C03002038B50546002401E00134E4B2A2
:100F88006B78A34216D3287820441F28F6DC012367
:100F98008340094A526933EA0202EFD1064A536193
:100FA800064B53F83020002AE8D003EBC0035968F9
:100FB8009047E3E738BD00BF003C0140A80300208C
:100FC800002399420ADD10B400EB030C044C04F82A
:100FD8000C2001339942F7DC10BC7047704700BF02
:100FE8001800002008B50246054B18560123934007
:100FF800044A11680B43136003F07FFA08BD00BF71
:1010080018000020003C01401F2806DC0122824015
:1010180002490B6823EA02030B607047003C014059
:1010280003292ED8DFE801F0020E1924012282409C
:10103800144B996821EA02019960D96821EA0202F1
:10104800DA607047012282400E4B9968114399601B
:10105800D96821EA0202DA60704701228240094B0E
:10106800D9681143D960996821EA02029A607047E9
:1010780001238340034A916819439160D1680B4367
:10108800D3607047003C014010B40D4B53F830302A
:101098008B4209D08BB90A4B43F8301003EBC003DD
:1010A8005A60002010BC7047054C04EBC00CDCF8FB
:1010B80004409442EED10020F4E76FF00F00F1E70E
:1010C800A8030020034B002243F8302003EBC003A1
:1010D8005A607047A80300200C4B1B6813F0020FDE
:1010E80009D10A4A136843F001031360074B1B68D0
:1010F80013F0020FFAD0054A936823F003039360B4
:10110800024B9B6813F00C0FFAD17047003802406D
:101118000C4B1A6822F480221A601A6842F4803252
:101128001A60084B1B6813F4003FFAD0054A536F46
:1011380043F001035367034B5B6F13F0020FFAD0C0
:10114800704700BF0038024010B5144B9B6803F08D
:101158000C03082B1AD0114C236823F080732360EA
:10116800636823F440336360636823F0706343F07B
:10117800E063636000F0DCF8236843F08073236069
:10118800064B1B6813F0007FFAD010BDFFF7A4FFD1
:10119800024A936823F0F0039360DCE700380240CA
:1011A80038B500F0DBF800F01FFF1F4B9B68C3F356
:1011B80003131E4AD35C20FA03F513781C4C1C4118
:1011C800A54228D3FFF7A4FFFFF7BEFF164A93688E
:1011D80023F0F0039360936823F0030343F00203C2
:1011E8009360114B9B6803F00C03082BF9D1A542BF
:1011F80015D2104B0E4A1A600B4A936823F4E05339
:1012080043F4A0539360936823F4604343F400438A
:101218009360002038BD204600F054FFD2E72046F6
:1012280000F050FFE5E700BF00380240587700089B
:10123800007A030AE4000020F8B50C461546394B3D
:101248001E680421304603F0F7FA074602213046AB
:1012580003F0F2FA2368442B28D8002B5BD0013B1B
:10126800432B5BD8DFE803F0364F5239445A5A5AB9
:101278005A5A5A5A5A5A5A5A5A5A5A5A5A5A5A5AC6
:101288005A5A5A5A5A5A5A5A5A5A5A5A5A5A5A5AB6
:101298005A5A5A5A5A5A5A2A5A5A5A2A5A5A5A2D33
:1012A8005A5A5A5A5A5A5A305A5A5A33A82B02D1A9
:1012B8002E60002034E06FF0850031E02E600020C1
:1012C8002EE02E6000202BE02F60002028E0286010
:1012D800002025E02E60002022E000F025F80223FF
:1012E8004FF4A872082103F0A0FA2860002017E044
:1012F80000F01AF807234FF4A872082103F095FAB2
:10130800286000200CE00020286009E04FF4FA4330
:101318002B60002004E06FF0850001E06FF085008D
:10132800F8BD00BFE40000200048704700127A00B2
:1013380008B503F0FCFA074A5168074B0B4040F424
:10134800A84040F0080003435360536823F4403337
:10135800536008BD003802400080BFFF82B0064BD2
:101368001A6C42F080521A641B6C03F0805301938C
:10137800019B02B0704700BF0038024010B5044618
:101388000A2806D0E1B2064883685B689847204679
:1013980010BD034883685B680D219847F2E700BFDA
:1013A800386D000810B5044C2046FFF7C5FD2046EF
:1013B800FFF738F910BD00BF8513000808B50548C8
:1013C80004F091FE18B1FFF7EDFF002008BD6FF0A3
:1013D8001200FBE7386D000808B5436831B10748CB
:1013E8008268126803F10C01904708BD03488268BF
:1013F800526803F10C019047F7E700BF486C0008FA
:101408005FFA81FC0CF102020A4B53F822200B0C04
:1014180022EA114193FAA3F34BB1B3FA83F398404C
:1014280001430CF1020C034A42F82C1070472023A8
:10143800F5E700BF0038014070B582B004460D469C
:101448000A4A6B4692E8030083E80300084882686A
:10145800126819469047064610B1304602B070BD72
:101468002946204603F02BFCF7E700BF6070000810
:10147800486C0008C3B20233074A52F82320030C11
:1014880002EA104093FAA3F31BB1B3FA83F3D840EE
:1014980070472023FBE700BF00380140F8B50C4631
:1014A800114647680269B1F5001F1FD01D46B1F506
:1014B800800F34D01D492046FFF7E6FD064688BB5D
:1014C8002146B868FFF7B8FFB5F1806F23D0B5F1B2
:1014D800C06F22D0B5F1007F1BD031462046FFF700
:1014E8009FFD2046FFF77EFD3046F8BD204603F0FD
:1014F800FDFBBB68984201D00026F5E72046FFF7C0
:1015080083FD2046FFF7DEFD00212046FFF788FD1A
:10151800F2E70221E2E70121E0E70321DEE76FF0CD
:101528008506E1E76FF00F06DEE700BF014A000815
:1015380010B5044603695860074804F0D4FD38B173
:1015480001212046FFF748FF002800DB002010BDDE
:101558006FF01200FBE700BF486C0008AF2817D8EF
:10156800F8B504460D46164603090B4A52F823708F
:101578005FB1384604F0B7FD38B133462A4604F067
:101588000F01384603F0C9FBF8BD6FF01200FBE706
:101598006FF01500704700BF38750008001100FB98
:1015A80001F1064880FB0130CB17C3EBA043136061
:1015B800034800FB13115160704700BF83DE1B43D3
:1015C80040420F0000230A2B08D8064A32F813209D
:1015D800824201D00133F6E7184670476FF01500D4
:1015E800704700BFE475000838B50446056988B23D
:1015F80003F0B4FC00280CDB064B53F820302B61B9
:101608006B681D69030103F0F00330222321204693
:10161800A84738BD44000020F0B583B004460569EA
:10162800466833689847002851DB6B689B680DF162
:1016380007020F2120469847002848DB9DF807300D
:10164800332B4AD196F82E3013F0010F0BD0244AD1
:1016580042F28B41116044F61611516049F22D2176
:1016680091602049D16013F0020F08D06B681F69A0
:1016780080231A461E212046B847002827DB00236E
:101688000093ADF8043007238DF800306B685F686D
:1016980006236A4620212046B847002817DB104B4E
:1016A8001B682B616B68DB68002223212046984762
:1016B80000280CDBF36963B1204600F0B5F8002878
:1016C80005DB6B68DB68472220212046984703B07A
:1016D800F0BD736A002BEFD1F3E76FF01500F6E762
:1016E8004400002094B6010008B503694068054A23
:1016F8005A60043003F0EAFC08B1002008BD6FF01E
:101708001200FBE7FC75000808B5436803F11C00EC
:1017180039B193F82C20044B53F8221003F0FCFC49
:1017280008BD4FF40011F9E71076000808B54368C2
:1017380003F1240039B193F82D20044B53F82210FB
:1017480003F0EAFC08BD4FF40011F9E71076000831
:10175800F0B583B00446154606694768032915D0D5
:1017680012687F2A56D87368DB6897F82E1011F034
:10177800040F4DD03321D2B2204698477368DB68F6
:101788002A783B212046984703B0F0BD73689B68D0
:101798000DF10702232198470028F5DB9DF8073053
:1017A800C3F3011302219940C8B22A686B681B4D24
:1017B80005FB0233013B1A4AA0FB0202984272F170
:1017C800000222DBC9B2802292FBF1F203FB02F293
:1017D800144BA3FB0232C2F387528DF807207368BB
:1017E800DB6897F82E1011F0040F0CD03221204638
:1017F80098477368DB689DF8072042F080023A2119
:1018080020469847C0E73621F1E76FF01500BBE79F
:101818003721B0E76FF08500B6E700BF40420F0000
:101828003AA39500EFBE7D6DF0B583B00446066916
:10183800456870613F4B7365E86904F054FC58B91A
:10184800EB69002B73D1686A04F04DFCF0B96B6A40
:10185800CBB9002003B0F0BD4FF4803105F11C0076
:1018680003F08AFC0028F5DB95F82020012393403B
:10187800314AF261336206F11801E86903F087FC26
:101888000028E0DAE6E76FF01200E3E74FF4803172
:1018980005F1240003F070FC0028DBDB95F8282014
:1018A80001239340254AB262F36206F12401686A73
:1018B80003F06DFC0028CDDB7368DB6895F82E20FB
:1018C80012F0040F2DD0302100222046984700281E
:1018D800C0DB7368DB68002238212046984700285F
:1018E800B8DB0023ADF8043073685F6895F82E30D4
:1018F80013F0040F17D03221022301AA2046B8475B
:101908000028A7DB95F82E3013F0080FA2D07268D4
:10191800D56813F0040F08D0082224212046A847D0
:1019280098E73421D0E73621E6E70222F5E76FF0A1
:1019380012008FE705560008615400082754000874
:1019480010B50446B2F5004F2FD04FF0000C4818E0
:101958004CEB0C0C40184CF1000C4FEACC0C4CEA48
:10196800507CC00040184FEA83024FEA93734CF151
:101978000001FEF755FC2449A1FB00235B091A016D
:1019880092B24FF0640C0CFB13031B013233A1FB22
:101998000313C3F34F1303F0F0010A4492B203F0A8
:1019A8000F0313449BB2A36010BD4FF0000C4818FE
:1019B8004CEB0C02401842F10002D20042EA50728D
:1019C800C000401842F10001DA184CEB0C03FEF796
:1019D80027FC0D49A1FB00235B091A0192B24FF0C5
:1019E800640C0CFB1303DB003233A1FB0313C3F3BA
:1019F8004F13590001F4F8710A4492B203F0070337
:101A080013449BB2A360CFE71F85EB512DE9F0414A
:101A18000C46456803695E680B79012B5BD0022B85
:101A28005CD14FF480676279012A5CD0022A5CD0CD
:101A3800002A55D04FF4005194F806E0BEF1040F87
:101A480056D0002B57D14FF00008A3F1030C5FFAD2
:101A58008CFCBCF1010F5ED913B1BEF1040F5DD04F
:101A6800B1F5805F4CD0B1F5405F4BD0002945D02F
:101A780003239A4255D1B8F1000F45D1002F48D120
:101A880003239E4550D1E3798BB1012B4FD12B68AD
:101A98002A4A93420BD0A2F54C42934207D002F552
:101AA8008062934203D002F54C42934242D12A68A5
:101AB800D36823F40053D360214603F0E8FD2A6875
:101AC800D36843F40053D36094E8030086E8030026
:101AD8000020BDE8F0814FF4C067A4E70027A2E723
:101AE8004FF48051A8E70021A6E74FF44051A3E73F
:101AF8004FF48058A9E74FF48058A6E70123B8E7C8
:101B08000023B6E70223B4E70FB90423B9E7032398
:101B1800B7E70223B5E76FF08500DAE76FF08500D5
:101B2800D7E76FF08500D4E76FF08500D1E76FF055
:101B38008500CEE76FF08500CBE700BF00100140BD
:101B480008B5024A03F077FE08BD00BFB158000887
:101B580000B583B08DF80710034A0DF1070103F0B3
:101B680083FE03B05DF804FBB958000838B5456832
:101B780004690748206004F0B6FA28B12068836831
:101B88001B68E968984738BD6FF01200FBE700BF93
:101B9800486C0008F0B58BB00D46D0F804C0066953
:101BA80002AC624F0FCF0FC497E80F0084E80F0014
:101BB800DCF800403368AB4200F0AF80AB88C3F379
:101BC8004512082A02D0102A40F0A98013F4004FC9
:101BD80019D1636823F010036360DCF80C10544BD0
:101BE8009B68DB68A3B101AA5148984700280FDB1E
:101BF80001231846082B0ED8019ADA402968914229
:101C080009D20133F5E7636843F010036360E4E742
:101C18006FF004004EE0082800F28480226822F069
:101C280040022260013B0AAA02EB830353F8203CDE
:101C3800226822F0380213432360AB8813F0020FA6
:101C48003AD0236843F002032360AB8813F0040FF3
:101C580037D0236843F001032360236823F4444307
:101C68002360AB8813F0100F30D0236843F0800353
:101C78002360236823F400532360AB685BB32368B5
:101C880043F400732360636823F004036360AB8844
:101C980013F0010F37D0236823F482732360AB88D5
:101CA800C3F34513082B33D0236843F40063236040
:101CB800356000200BB0F0BD236823F002032360D9
:101CC800C3E7236823F001032360C6E7236823F0F2
:101CD80080032360CDE7AB8813F0010F08D0236899
:101CE80023F400732360636823F004036360CEE782
:101CF800236823F4007343F480232360636843F06C
:101D080004036360C3E7236843F482732360C6E770
:101D1800236823F400632360CAE70020CAE76FF052
:101D28008500C7E76FF01500C4E700BF68700008BA
:101D3800486C000838B5056944680F4804F0D3F9C1
:101D4800B0B10D4883681B68E168984700280EDB2E
:101D58000021606804F0A7F9002808DB284604F091
:101D680086F9002803DB284604F0D2F8002038BDA5
:101D78006FF01200FBE700BF486C00084FF0E0234B
:101D8800996918699A6909B90C4B19680AB90B4B12
:101D98001A6810F4803F01D1914208D208490B68B3
:101DA8000648006803440B604FF0E0231B69034BAF
:101DB8001B689B1A024A1068184470471C050020CB
:101DC800180500200A4B102283F82320094B44F2FF
:101DD800A0121A600020084B18604FF0E02344F26C
:101DE8009F125A6198611A6942F007021A61704796
:101DF80000ED00E01C0500201805002010B5FFF7D5
:101E0800BDFF11480368114A516814681B1941F154
:101E1800000113605160002202600D490A68981A97
:101E28000C4BA3FB0030800B44F2A01300FB03F320
:101E3800D2184B6843F100030A604B6001F0F6F8D2
:101E4800FEF782FC10BD00BF180500201801002015
:101E5800100100202D34A9F9F8B500294CD0B0F1B3
:101E6800FF3F3ED03F4B1C6801284DDD40F2E63372
:101E78009842A8BF1846461E4FF01003EFF311858D
:101E880083F31288BFF36F8FFFF778FF4FF0E023DB
:101E98009F69354A13685168C31841F100011360FE
:101EA80051600021314A1160314A11685A1A2DD403
:101EB80044F2A01000FB062202F583421F322D4E89
:101EC800A6FB0262920BC91A00FB021140F21A43E8
:101ED8008B4238BF0B46284A914235D9214B1A60AC
:101EE80018E04FF0E022136923F0010313611D4B42
:101EF8004FF07F421A6026E01A4B1C68B0F1FF3F92
:101F0800B2D140F2E530B1E70026B5E7154B40F213
:101F18001A421A604FF0E0239969124A1268013A8E
:101F28005A6100229A618F4211D2641A3C440E4AC7
:101F3800136851681B1941F100011360516085F362
:101F48001188BFF36F8FF8BD064A1360E2E77F1A66
:101F5800054A13685168DB1941F1000113605160AB
:101F6800EDE700BF1C05002018010020180500201F
:101F7800100100202D34A9F92094FF0038B54FF046
:101F88001003EFF3118583F31288BFF36F8F084BAB
:101F98001C68084B1B68E41AFFF7F0FE204485F321
:101FA8001188BFF36F8F044BA3FB0030800B38BD43
:101FB80018010020100100202D34A9F938B54FF080
:101FC8001003EFF3118583F31288BFF36F8F054B6E
:101FD8001C68FFF7D3FE204485F31188BFF36F8F89
:101FE80038BD00BF1801002008B5334B9B6803F0CB
:101FF8000C03042B5BD0082B5BD12F4B5A6802F0E3
:102008003F025B6813F4800F2CD02B4B5868C0F349
:1020180088104FEA401CBCEB000C6EEB0E0E4FEA2A
:102028008E1343EA9C634FEA8C11B1EB0C0163EB0E
:102038000E03DB0043EA5173C90011EB000C43F1B6
:102048000003590200234FEA4C2041EADC51FEF715
:10205800E7F8194B5B68C3F3014301335B00B0FB3E
:10206800F3F027E0144B5868C0F388104FEA401C7F
:10207800BCEB000C6EEB0E0E4FEA8E1343EA9C632A
:102088004FEA8C11B1EB0C0163EB0E03DB0043EA62
:102098005173C90011EB000C43F1000399020023AE
:1020A8004FEA8C2041EA9C51FEF7BAF8D1E7034881
:1020B80000E0034808BD00BF0038024000127A0063
:1020C8000024F4000246002850D02A4B1B6813F461
:1020D80080431DD0284B984204D8284B984212D9E7
:1020E800002300E0052383B125498A4201D903B9B9
:1020F800032324498A4200D94BB123498A4207D98C
:1021080033B9012304E00023EEE70423ECE70223BC
:102118001849096811F4804F14D11C498A4206D91C
:1021280003B9042316498A4201D903B9032315497F
:102138008A4200D92BB114498A4203D913B9012321
:1021480000E0022312490A6822F007021A430A60D3
:1021580002210F4A126802F007020139934201D0A6
:102168000029F6D1934203D001207047012070471F
:10217800002070470070004080D1F008000E27074B
:10218800804A5D050087930380C3C901001BB7001F
:10219800003C0240034B00E01433034A9342FBD354
:1021A800704700BF486C0008886D000838B54FF0CC
:1021B8001003EFF3118583F31288BFF36F8F064B7B
:1021C8009C6803F0A9FF85F31188BFF36F8F204641
:1021D800FEF782FC38BD00BF2405002070B5064616
:1021E800134B53F8204009E0434219E0EA681370A2
:1021F800EA68537843F0010353700834731C0C4A9F
:1022080052F82330A34212D965686DB12368002BB8
:10221800EED02846984703460028E9D00028E3DB9B
:10222800FF2BE3DDFF23E1E723689847E5E770BD6F
:102238007877000810B586B0B823114C03FB00442A
:1022480000EB400C00EB80000E4B03EB80030E4AC2
:102258000592012204920F22039200220292019217
:1022680000930A4B4FF4A072094901EBCC112046A8
:1022780000F02EF9637B23F00403637306B010BDEE
:10228800200100202405002068770008B1640008B8
:10229800C00D002008B50A4B01221A700320FFF771
:1022A8009DFF00F027FF0420FFF798FF00F074F966
:1022B800FEF782F9034A137B23F00103137308BD69
:1022C80065050020D801002008B50146014A0248EA
:1022D800FEF706FD9D220008D801002008B5064833
:1022E800064A121A002103F01AFF0548054A121A75
:1022F800002103F014FF08BD10010020680500202C
:10230800000000100000001010B50446FFF792FF0F
:10231800B823114903FB0411104A04EB840302EBB0
:102328008303D9601C7404EB44110D4B03EB811338
:1023380003F5046304EB840402EB84025360094B45
:10234800BFF35B8F53E8001F013143E80012002AF6
:10235800F8D1BFF35B8F10BD2001002024050020B9
:10236800800500202005002070B586B000F0AAFB8B
:10237800104D114B5D61114B05930123049300240B
:1023880003940294019400940D4B4FF480620D491C
:10239800284600F09DF806466B7B23F004036B7318
:1023A800284603F070FF2046FFF7AEFF304606B020
:1023B80070BD00BFD80100202405002070770008F8
:1023C8009D220008400F002000B5AFB00020FFF7A5
:1023D80005FF1C4B83F308881B4C636943F40073A7
:1023E8006361F02384F822300025E5772576657649
:1023F800A57684F82050636A43F4E0236362FEF70D
:102408003FFBFEF789FC4FF0FF33A362E362FEF760
:102418004BFDFEF7C3FC01248DF80D408DF80C40F0
:10242800269527952995094BC3F808D0FFF7B2FEE2
:102438002046FFF7D3FE0220FFF7D0FEFFF794FFF8
:10244800FFF742FFC00D002000ED00E0240500204A
:102458004FF01003EFF3118183F31288BFF36F8FEE
:102468000A4B1B6A834204D15A6F084B1A6207E071
:10247800134613B15A6F8242FAD10BB1426F5A67B1
:1024880081F31188BFF36F8F704700BF24050020C8
:1024980010B5044640B11F2204F1780004F060F939
:1024A800002084F8970010BD014B9C68F3E700BF3B
:1024B8002405002008B553EA020102D103F05DFEAD
:1024C80008BD0249183000F031FDF9E745630008FE
:1024D8002DE9F04F85B004460F4615461E46DDF837
:1024E80038A0DDF83C90DDF84080DDF84CB000F114
:1024F80058038365C365129B0422119903F041FEBA
:102508002A463946204603F018FE0546CDF80880CD
:10251800CDF80490CDF800A033460246394620464F
:10252800FEF798FB002363656666C4F868A0C4F8E4
:102538006C90C4F870804FF01003EFF3118283F3AE
:102548001288BFF36F8F134B196A61671C6282F39D
:102558001188BFF36F8FBBF1000F13D01F225946AC
:1025680004F1780004F0FCF8002384F89730094B54
:102578009B685BB1D3F8A430C4F8A430284605B0F2
:10258800BDE8F08F002384F87830F0E7C4F8A43071
:10259800F4E700BF2405002010B586B0184C14E0FD
:1025A800636A0593236A0493E3690393A369029317
:1025B8006369019323690093E368A26861682068EE
:1025C800FFF786FF23685C6530340E4B9C42E7D3E7
:1025D80000F0B4F80A4C00E030340A4B9C420BD2AD
:1025E800A26AE36AB3F1FF3F08BFB2F1FF3FF3D03D
:1025F8002068FFF75FFFEFE700F0F4F906B010BDC1
:102608001870000818700008C3897F2B11D80E4B6A
:102618001B687BB190F90E200C4B1B689A420CDBAF
:10262800437B13F01F0F0AD1094B984209D00123AD
:1026380000E0002303F0010070470023FAE70023BD
:10264800F8E70023F6E700BF5405002050050020F6
:1026580020010020044BC01AC010044B03FB00F0FB
:10266800034B01221A54704790020020ABAAAAAA71
:102678004C050020B3F1FF3F08BFB2F1FF3F00D186
:10268800704708B50249183000F050FC08BD00BF7B
:102698004563000870B505460D4B1E7C06EB4603E6
:1026A8000C4C04EBC304204603F0BFFF0A4B002286
:1026B8009A552846FFF7A8FF00B970BD074B1A685E
:1026C800013AD3170649204600F030FCF5E700BF71
:1026D80024050020900200204C050020540500200D
:1026E8005D26000808B50B4659B9EFF3058242B9D3
:1026F800064A50699268904203D00846FEF706FAE7
:1027080003E083F31188BFF36F8F08BD2405002011
:1027180008B5034650B9EFF305823AB9064A51693C
:102728009268914202D0FEF7F1F903E083F3118831
:10273800BFF36F8F08BD00BF2405002000234FF0B2
:102748001002EFF3118182F31288BFF36F8F09E053
:10275800064B9A68D37B013BD37381F31188BFF38F
:102768006F8F0123002BF3D0704700BF2405002092
:1027780038B50446104803F07FFD054670B184B9AA
:102788000E4B9B685A7B12F01F0F0AD1AA6942B9F7
:10279800DA897F2A05D9094A53610BE0074BDD68BE
:1027A800EDE7064B9B68AB4202D02846FFF772FF65
:1027B800024B5D6138BD00BF3C05002024050020A8
:1027C80038B50546427B90F90D30002B0ADB6B7B50
:1027D80063F07F036B731B4B53F8184F9C4210D167
:1027E80000240EE002F07F0242730146164803F00F
:1027F8000FFDECE763686B602C601D60656017E097
:1028080000246CB12146284603F0ECFC0028F1DCDA
:10281800002CF6D00B4BDB699C42F1D02468F0E722
:10282800084BDA6903F1180129606A601560DD61F7
:10283800044B9868A84214BF00200120FFF798FFB6
:1028480038BD00BF240500203C05002038B54FF0F6
:102858001002EFF3118382F31288BFF36F8F1D46C6
:10286800144B9C68144B1B68A34217D0124B0022D0
:102878001A60104B1B7C114AD35C53B12046FFF7FA
:10288800C3FE30B1637B13F01F0F0FD02046FFF754
:1028980001FF85F31188BFF36F8F38BD2046FFF71E
:1028A800F9FE85F31188BFF36F8FF6E72046FFF72F
:1028B80087FFEBE724050020480500204C05002091
:1028C800427B90F90D30002B33DB70B5044612F0D3
:1028D8001F0F01D1866906B170BD62F07F02427395
:1028E800144B53F8185F9D4208D1354606E06B68D3
:1028F800636025601C606C6017E035466DB1294641
:10290800204603F06FFC0028F1DC002DF6D0094BBF
:10291800DB699D42F1D02D68F0E7064BDA6903F1D7
:102928001801216062601460DC610020FFF720FF5D
:10293800D2E770472405002010B54FF01003EFF3DD
:10294800118483F31288BFF36F8F437B13F0040F56
:1029580004D184F31188BFF36F8F10BD23F00403F3
:102968004373FFF7ADFF21460148FFF7BBFEF4E7CD
:102978005805002010B50446427B90F90D30002B15
:1029880008DB084B9868A04214BF00200120FFF71D
:10299800EFFE10BD02F07F0242730146024803F0C9
:1029A80037FCEEE7240500203C05002010B50C4656
:1029B80011460A4882680A4B1A604FF01002EFF37A
:1029C800118382F31288BFF36F8FDDE902238068D9
:1029D80003F0E5FC2046FEF799F810BD2405002019
:1029E8004805002010B500234FF01002EFF31184C2
:1029F80082F31288BFF36F8F0CE0094B9A68D37B80
:102A08000133D3730020FFF7B3FE84F31188BFF3BB
:102A18006F8F0123002BF0D003F0EEFB10BD00BF39
:102A28002405002038B5437B0B4213D104460D46DC
:102A38000B43437303F09F02427312F0800F0AD1D5
:102A4800082D10D00120FFF793FE102D02D020464C
:102A5800FFF7FEFC38BD03F01F0343730146094826
:102A680003F0D6FBECE7A36813B1204603F0D8FBCC
:102A780004F1180003F0D9FD04F1580003F01FFC1D
:102A8800E0E700BF3C05002038B504460D4662B1BA
:102A980008212046FFF7C6FF094B9B68A34206D0D2
:102AA80085F31188BFF36F8F38BD1021F1E7EFF37D
:102AB8000583002BF4D12846FEF728F8F4E700BF79
:102AC8002405002008B5024803F097FC08BD00BFA4
:102AD80038050020F8B54FF01003EFF3118683F3A3
:102AE8001288BFF36F8F1D4CA1684B7B03F07F03E7
:102AF8004B7304F11807384603F08AFBA5686B7B13
:102B080063F07F036B73A469BC4208D1002406E01C
:102B180063686B602C601D60656017E000246CB111
:102B28002146284603F05EFB0028F1DC002CF6D095
:102B38000A4BDB699C42F1D02468F0E7074BDA695D
:102B480003F1180129606A601560DD610120FFF753
:102B58000FFE3046FDF7DAFFF8BD00BF2405002060
:102B6800014B9868704700BF240500202DE91048E4
:102B780083B0089CDDE906BCCDE900BCFFF716FF71
:102B88001CB1034B9B685B69236003B0BDE81088E8
:102B98002405002038B504464FF01003EFF31185E3
:102BA80083F31288BFF36F8F03F005FC48B100224E
:102BB800C0F8B02003F067FB29460948FFF792FDEB
:102BC80038BDA368E268934208D001221344A36089
:102BD800022104F1100003F0A8FDEDE70022F5E75B
:102BE8005805002010B582B04FF01004EFF31181A2
:102BF80084F31288BFF36F8F846844B1013C84600A
:102C080081F31188BFF36F8F002002B010BD53EA23
:102C1800020406D00092019302460548FFF7C6FE5B
:102C2800F3E781F31188BFF36F8F6FF00F00ECE7C4
:102C38005805002070B338B50D4604461B4B9B68F9
:102C480083421BD000231A46D4F8D030C3F3800146
:102C5800C3F3C00013F0010F1FD001B102B300B1DC
:102C680009B300232B60D4F8BC3073B11D60C4F8DD
:102C7800BC50204603F037FC012038BD03F057FA5A
:102C880008B90123DFE70023DDE7C4F8BC50C4F826
:102C9800B850EEE76FF0150070476FF01200ECE7E0
:102CA8006FF00F00E9E76FF00F00E6E7240500205A
:102CB800F8B50646C36823F00203C360134B1D68CA
:102CC80085B12C6804B10DB1002710E02C46FBE754
:102CD8002A4639460D4803F0F3FB05F10800FFF7D3
:102CE80059FF09E02C46EFE7234625461C4665B107
:102CF8006B68B342ECD02F46002CF5D02368002B2C
:102D0800F3D0002CF1D12346EFE7F8BD5805002099
:102D180070B584B0054616E0D5F8D03023F004022B
:102D2800C5F8D02013F0040F5ED1002302934FF0B2
:102D3800FF324FF0FF33CDE9002305F1C0023146E1
:102D48003248FFF713FF4FF01003EFF3118683F3B8
:102D58001288BFF36F8F3246D5F8B840002CDBD00D
:102D68002368C5F8B830D5F8BC108C4239D0D5F8EE
:102D7800D03043F00203C5F8D030E36843F00101D6
:102D8800E16023F0040343F00103E360636882F326
:102D98001188BFF36F8F204698474FF01003EFF369
:102DA800118683F31288BFF36F8FE36823F0010362
:102DB800E36013F0100F21D1E36813F0020F21D163
:102DC800D5F8D03023F00203C5F8D030C3F3002380
:102DD80086F31188BFF36F8F002BB4D1FFF77AFE0B
:102DE800B1E7C5F8BC30C2E705F1C80400220121EB
:102DF800204603F02BFB0028F8D196E7204603F085
:102E0800B8FBD9E72046FFF753FFD9E76005002054
:102E180008B50146014803F0CAFB08BDB00200200E
:102E2800F0B589B004460E9D0020C4F8B800C4F877
:102E3800BC0004F1C000C4F8C000C4F8C40004F128
:102E4800C800C4F8C800C4F8CC00FDB12879F8B9A6
:102E58000120C4F8D0004FF0FF364FF0FF37CDE91E
:102E680006670020049003930290019000940A4B97
:102E7800204603F091F925B1296811B12046FFF7E2
:102E880007FB204603F079F909B0F0BD0120E0E71F
:102E980040F20110DDE700BF192D000808B5094808
:102EA800094A121A094903F03EF9094A09490A4828
:102EB80003F039F909480A4A121A0A4903F033F9A2
:102EC80008BD00BF00000020100100207C78000829
:102ED800000000007C7800080000002000000010BE
:102EE800000000108C790008034B1868984200D045
:102EF80070470020FCE700BFE800002030B1044A1A
:102F08005268904201D0006870470020704700BFA7
:102F1800E800002008B5044B1B680BB1002008BD71
:102F2800FFF72CF8FBE700BF60050020B3F1FF3F77
:102F380008BFB2F1FF3F74D02DE9F047044692462E
:102F48001D46816000234FF01002EFF3118782F3D2
:102F58001288BFF36F8F26E01AF1010845F10009C6
:102F6800FFF7D8FF18EB000349EBE07023616061BD
:102F78003BE0521A66EB03030261436143686360F6
:102F880020601C60446005E0264B5A68236062603C
:102F980014605C60FFF7A8FF84423AD087F3118879
:102FA800BFF36F8F0123002B39D153466FF0010116
:102FB800B1EB0A014FF0FF3060EB0502002ACBDBD2
:102FC800194A116852685B1842EB05026FF001015B
:102FD800C91A60EB020308461A46012973F1000377
:102FE80001DA0120002220616261FFF77DFF0028DD
:102FF800CAD00269466921696369914273EB060E7A
:10300800B7DB891A63EB060321616361FFF776FF7B
:10301800EDE703F0EDFA0021FEF71EFFBEE7BDE87D
:10302800F0877047E8000020A802002070B54FF034
:103038001003EFF3118683F31288BFF36F8F2B4BC6
:103048001860FFF751FF044624E0294A13685168C5
:103058005B1941EBE5711360516000220023C4E95C
:103068000423204603F0ADFA86F31188BFF36F8F6F
:10307800A368204698474FF01003EFF3118683F3B7
:103088001288BFF36F8F194A13685B1B1360FFF731
:103098002BFF04463CB125696169144B1A68D317A4
:1030A800AA428B41D1DA44B1236962690F490968A0
:1030B8005B1A62EBE172236162610D4A0B4D28686D
:1030C800136851681B1841EBE071136051600024CC
:1030D8002C6003F08DFA2146FEF7BEFE86F31188B8
:1030E800BFF36F8FFFF7B2FB70BD00BF6005002014
:1030F800A802002008B5024801F0BEF908BD00BFCB
:103108009077000810B584B0084B029300248DF81E
:103118000C4002AB00934FF0FF334FF48062044938
:103128000448FFF77DFE204604B010BDB8770008BC
:1031380080130020B00200200FB407B5064B04AA84
:10314800186852F8041B019200F0A4F803B05DF867
:1031580004EB04B0704700BF807300082DE9F0410C
:1031680001260746B24201DCBDE8F0813B461F4616
:1031780013F8014B002CF7D0252CF8D11C78252CFE
:1031880007F10207F2D00023DFF804819C461D46B0
:103198001F2D18D8A4F1200EBEF1100F09D9A4F1E3
:1031A800300EBEF1090F1ED80A2404FB03E32025C4
:1031B80004E028FA0EFE1EF0010F06D017F8014BA6
:1031C800002CE5D128E07F2D1CD8A4F1300EBEF1EB
:1031D800090FE9D9242C10D1BCF1000F46D0B34215
:1031E80046D00023EAE724F0040EBEF12A0FF8D0F7
:1031F8006C2C09D145F08005E0E724F0040EBEF1FF
:103208002A0FEED06C2C22D06C2C1BD8682C23D023
:103218006A2C28D04C2C26D0BCF1000FA4D0B44581
:10322800A0D144F02007A7F1650CBCF1020F0B6890
:1032380001D9612F1ED1073323F0070308330B6030
:1032480001368EE7742CB9D07A2CB7D0E4E72C0677
:1032580048BF45F40075CDE7EC0548BF45F4007557
:1032680045F48075AAE745F42075A7E79C46B8E7BA
:103278006324D6E7692C02D007D8632C03D02F0625
:1032880001D5AC05D7D40433D9E7732CF6E700BFD2
:10329800892801002DE9F04F95B04368039383789E
:1032A80080469807CDE9081217D50D920B460025E0
:1032B8001F78A7B1252F16D001330793039B4146EA
:1032C80038469847002805F1010580F2558498F89A
:1032D800023043F0040388F802304FF0FF352846E7
:1032E80015B0BDE8F08F5F789A1C252F0792E5D0BE
:1032F80000242646A246A346BBF11F0F32D8A7F1E9
:103308002003102B0AD8DFE803F02409092A090949
:10331800091B09090922092709091900A7F130031E
:10332800092B2DD92A2F39D154B90D9B1BF0400FE9
:1033380053F8042B0D9329D0164601E04BF0010BEE
:10334800079B13F8017B0793002FD5D15BE04BF067
:10335800020B4BF0040BF3E74BF0080BF0E74BF0D4
:10336800100BEDE7BBF17F0F3FD8A7F13003092B16
:10337800D8D81BF0400F03D00A2202FB0636DFE73D
:103388000A2202FB0A3A4BF0200BD9E7B2F1000AF5
:10339800F9DACAF1000A4BF0280BD1E72E2F05D134
:1033A8001BF0400F9BD14BF0400BC9E7242F1CD1D9
:1033B800002C00F04481099B0D931BF0400F0AD1AB
:1033C800524608980DA9FFF7C9FE0D9B1A1DD3F8A0
:1033D80000A00D92B4E7324608980DA9FFF7BEFE8B
:1033E8000D9B1A1D1E680D92AAE76C2F00F0148120
:1033F80000F20B81682F00F017816A2F00F01C8102
:103408004C2F00F0198134B1099B08980D9322467E
:103418000DA9FFF7A3FE002E47F02003B8BF2BF03D
:10342800400B0593A3F16503BCBF1FFA8BFB002675
:10343800022B40F2098147F02003612B40F084827F
:10344800FF4307F0200306930D9B073323F0070380
:103458001BF0400FD3E9000103F10802069B00931B
:103468000D9214BF33464FF0FF330EAA03F0C7FA8C
:10347800431CDBB24BF4C0540493DDF8389070233E
:103488000646A3460127059309F10903122B0CD917
:1034980009F16303C62B40F2138109F2E73340F2C6
:1034A800CE72934294BF032704279DF83C2002F074
:1034B8000C0312F0010240F01E811BF0020F40F0D5
:1034C80017811BF0040400F0FD80002B40F01681EA
:1034D80020231BF4405F21D1049A5032002E6A4405
:1034E80008BF0126133A049921B112F8011D3029A9
:1034F80000F03B811BF0100F049A18BF324619F1F7
:10350800040FC0F23781B14580F234814A454BF44B
:10351800005B40F3318109F10106961B1BF4005250
:103528000A9200F02B8129EAE974013403B10134CD
:10353800002E00F02A81721C1444A245CCBFAAEBCD
:10354800040400241BF0090F04D12C44A54240F0C8
:103558002181002443B118464146039B984700281F
:1035680005F10105FFF6B3AE1BF4006F13D0039B02
:103578004146302098470028FFF6A9AE069BC3F1C4
:1035880078004146039B00F0F8009847002805F1B1
:103598000205FFF69CAE1BF0080F05D12C44AC4287
:1035A80040F00481254600240A9B002B00F02E8160
:1035B80029EAE97AA9EB0A027642049B059293422A
:1035C80084BF0EABD3180AF1FF3A8CBF587930206C
:1035D800564505F1010700F3F380039B41469847E0
:1035E800059A002802F10102FFF671AEBAF1FF3F19
:1035F80009D1039B059241462E2098470028FFF6E3
:1036080066AE059AAF1C3D46D7E7742F3FF498AED7
:103618007A2F3FF495AEF6E61BF0800F18BF4BF4F7
:10362800007B4BF0800B8BE61BF4807F18BF4BF4BC
:10363800007B4BF4807B83E64BF4207B80E62646B8
:10364800B3465446B2467BE6FF4307F02003069391
:103658000D9B073323F0070303F10802D3E90001A8
:10366800059B0D921BF0400F08BF0626652B13D152
:10367800731C0022DBB24BF4805B1446112BCDE99E
:10368800002428BF11230EAA00F014FBC3B2DDF8F2
:10369800389004930227F7E6059B662B05D14BF477
:1036A800005B344601221123E8E7F3B2012B4FF007
:1036B80000024FF0650738BF012314460597DDE780
:1036C8000227F2E6002B3FF404AFBAF1030F3BDC0C
:1036D8009DF83C309A4E13F0080F9A4B08BF1E46CF
:1036E800B1464F4619F8010BB0BBAE1B374488E012
:1036F80033BB2B23EDE62BBB2D23EAE62022BAF1C0
:10370800040F13DD1BF0080FAAF104040FD12C4499
:10371800039B0492414620209847002805F10105A3
:10372800FFF6D5ADA542049AF2D19AB10024039BC5
:10373800414610469847002805F10105C8DAC6E554
:103748002B22DCE72D22DAE71BF0080FAAF103048D
:10375800BED1DCE71446BBE7069BC01A4146039B73
:10376800C0B298470028BCDAB1E504990139C9B25A
:103778000491B8E6561ED1E60026CFE61BF4006F8A
:103788000CBF032405243C44D0E61BF0100F18BFDF
:103798000134D2E60B934146039B2020984700282A
:1037A8000B9B05F10105BFF6D1AE90E5039B4146A1
:1037B80030209847002805F10105BFF6F0AE86E5F0
:1037C800D1450AD19DF83D30352B1DD805D19DF83E
:1037D8003C3013F0100F08BF3120039B4146984737
:1037E8000028FFF674AD1BF0100F0AD0BAF1FF3FA6
:1037F80007D1AF1C41462E20039B98470028FFF6AF
:1038080066AD3D463C443DE23120E6E79DF83D008B
:1038180031281EBF9DF83C3023F010038DF83C3052
:103828004146039B98470028FFF651AD002E6BDDFB
:10383800039B41462E2098470028FFF648AD4FF0DD
:10384800010A049B9A45BBBF0EAB534430205879FC
:10385800039B414698470028D346FFF638AD0AF146
:10386800010A5645EDDA02355D44DDE90532981A5C
:103878004146039BC0B298470028FFF628ADB9F12E
:10388800000F04DB4ED19DF83C30DB064AD5C9F168
:1038980000092D20039B414698470028FFF617ADE5
:1038A800042F41D14FF47A7799FBF7F606F13000EF
:1038B800039B4146C0B29847002805F10305FFF66F
:1038C80006AD07FB1699642799FBF7F606F1300059
:1038D800039B4146C0B29847002805F10105FFF651
:1038E800F6AC07FB16990A2799FBF7F606F13000A4
:1038F800039B4146C0B29847002805F10105FFF631
:10390800E6AC07FB169915E01BF0100F01D1013545
:10391800ABE7039B41462E209847002805F1020596
:10392800A3DAD4E42B20B5E7032F05F10205CAD0AA
:10393800012FD8D109F130006F1C4146C0B25BE7B6
:10394800707800086C780008A7F16303122B00F266
:10395800FB80DFE813F013005300F900F900F900C9
:10396800F9005300F900F900F900F900F900140111
:10397800F400F900F9002800F900B5000D9B1A1DA4
:103988001B680D928DF8383001240EAF1BF0080F1C
:103998002AD007EB04093E464E4527D1EF1B374492
:1039A800AAEB04042DE70D9B1A1D0D921F68AB4B63
:1039B800002F08BF1F461BF0400F14BF31464FF0C1
:1039C800FF31384602F0DCFE0446DFE7039B414640
:1039D800202098470028FFF67AAC013EB442F5D380
:1039E8005544AD1BB246D4E75646F7E716F8010B27
:1039F800039B414698470028CEDA68E41BF0800F05
:103A08000D9B35D01BF4007F2DD0073323F007031F
:103A1800D3E9000103F108020D922BF010090029E7
:103A28001FFA89F936DA404261EB410149F48069AD
:103A38000DF1380B0A235A4602F0AEFE19F0400F7A
:103A4800A0EB0B0B65D029F001025E4592B240F362
:103A5800B380002F00F0AA8019F010033446914675
:103A680026D002345CE01A1D18680D92C117D4E7FD
:103A78001A1D1BF4807F19680D9201D10846F5E7DD
:103A88001BF4007F15BF48B208B241F3C01141F3DF
:103A9800C031C2E750EA0103CAD11BF0400FC7D0BA
:103AA800002EC5D12BF0110B1FFA8BF93446B34603
:103AB80040F2064319EA03031CBF013400232FE038
:103AC8002BF0100B1FFA8BFB0A231BF080040D9AB6
:103AD80058D01BF400711DBF073222F0070202F113
:103AE8000801101D19BF0D91D2E900010D90106851
:103AF80050EA010253D12BF016091BF0400F1FFAB0
:103B080089F950D0002E4ED12BF0170B1FFA8BF9E4
:103B1800B34619F0100353D0002F4FD10BF1010415
:103B280019F0080F5FD119F0010F06D0A2456EDD1C
:103B3800AAEB040404EB0B06544622464EE04BF075
:103B4800100B10237827C0E747F02003782B04D107
:103B5800C7F1780343F01003B7E7039B41462520DC
:103B680098470028FFF6B3AB039B41463846984771
:103B78000028FFF6ACAB0235079BFFF799BB08237B
:103B88000027A2E7111D0D911BF480711068AFD0BA
:103B98001BF400711ABFC0B2214680B2A8E72BF00F
:103BA800060B1FFA8BF90DF1380B44E729F01109C0
:103BB8001FFA89F934467BE79146AAE75C4650E745
:103BC8005C4675E7CDE904234146039B20209847CE
:103BD8000028FFF67CAB049A059B01329245F1DC84
:103BE8002C1BA5181446EBB1039B4146302098477F
:103BF8000028FFF66CAB67B901352F462E44F31B3E
:103C08005B4521DC5D460EAE55BB5F44C8E65E46AB
:103C180093E7023541463846039B98470028ECDA7B
:103C2800FFF755BB40F2064319EA030FE5D019F038
:103C3800020F14BF2B20202019F4806F05F1010515
:103C4800414618BF2D20E7E7039B4146302098479F
:103C5800002807F10107D2DAFFF739BB74780008AA
:103C6800013D039B705D414698470028CCDAFFF779
:103C78002EBB039B414620209847002805F10105EB
:103C8800FFF625AB631B002BF3DC75E71FB502AB12
:103C98000093074A4FF0CC3302F061FEDDE90201E0
:103CA800C00840EA4170C90805B05DF804FB00BFD0
:103CB800CDCCCCCC2DE9F04F9BB0044605920A46FA
:103CC8000A93C2F30A559DF890300B93D20FC1F3B3
:103CD80013030992090D7DB950EA03021BD1059A15
:103CE80030235371099B156043F0020313710127B8
:103CF80038461BB0BDE8F08F40F2FF7295424AD1BA
:103D08000343099B059A14BF43F0080343F00403D7
:103D180013710027ECE700F0010208924FEA8308CC
:103D28000122AC4D48EA907887009A461646C5F1BC
:103D3800000B5846069200F011FAB5F1FF3FACBFF0
:103D48008146A0F10109ABEB090B09EB05035846C5
:103D5800049300F009FA16A9A0F17D05584600F071
:103D680023FA12AB069A0193A9EB050510AB029250
:103D7800009320462B4616AA514602F035FDB9F1AC
:103D8800010F04460D4600F2D280089B002B40F03C
:103D9800C58001276BE043F4801A00F001024FEA66
:103DA8008A080343A5F23545089248EA90784FEA15
:103DB800800749D140F2FE7319420CBF0126002644
:103DC800002D3246B3DB284600F0C2F9032DC8BFE8
:103DD8000138049000F0C8F9049B7C305D1B054451
:103DE80016A9184600F054FA12AB019310AB0093D1
:103DF80020462B46029616AA514602F0F5FC049B73
:103E0800152B04460D4600F2868014AB724A0093C7
:103E180038464FF0CC33414602F0A1FD149B159A69
:103E28009B0843EA827303EB8303BB42DDE9109AE4
:103E38000CD13846414600F09FF9049B83428CBF61
:103E480000270127002612E00126B9E7089B002B6E
:103E580051D1013F48F1FF31B81B61F1000100F079
:103E68008BF9049B089F83428CBF002601260B9B7D
:103E7800002B40F09080DDF828B04FF00008CDE925
:103E880006884FF00A0ADDE91001FFF7FFFE129BD2
:103E98000E93CDE90C0118461399FFF7F7FE0C9B1A
:103EA8000D9A0F9198420B469341814680F08D8080
:103EB80020462946FFF7EAFE0E9A0AFB09F39342C9
:103EC80014BF002606F001060C9B10930D9BCDE94C
:103ED80011390F9B1393079BB8F1000F14BF0027EC
:103EE80007F0010701330AFB10485FFA88F80793C7
:103EF80004460D46C7E7B81C48F1000100F03CF93C
:103F0800049B83428CBF00200120B9EB00006AF1BA
:103F18000002CDE9100200273E46A8E7109B119A3F
:103F2800013B42F1FF32CDE9103201278AE7B9F1AE
:103F38003E0FF0D84FF0FF33A9F1200003FA09F241
:103F480003FA00F0C9F1200123FA01F102430A4300
:103F580003FA09F327EA030728EA020857EA0807D9
:103F68000CBF012700276DE700FB02FCA1FB001234
:103F7800013362448C4275EB020CF5D2049ADDF8E9
:103F880028B01344259A1344012BB8BF01239B453D
:103F9800A8BF9B4671E70A21002201230846E9E7EA
:103FA8000AFB03F0A2FB0A2301310344944275EB98
:103FB8000300F5D2594511DDBBF1000F02D154EAD7
:103FC80005030BD00123069372E70A22002301217F
:103FD800ECE700BFCCFBFFFFCDCCCCCC002E2FD024
:103FE8004FF00A0A129B13990D931846FFF74EFEDD
:103FF8000D9B0C910AFB00F29A42814620D1DDE923
:104008001001FFF743FE0E900D9120462946FFF759
:104018003DFE0D9B0E9A1092CDE911390C9B13931E
:10402800079BB8F1000F14BF002707F00107013301
:104038000AFB10485FFA88F8079304460D46D1E753
:10404800DDF81090079B9944002F59D0B8F1050F5F
:1040580056D114F0010349D1069A32B9DDE9122389
:104068009D4208BF94425ED0069B18194FF00A047F
:1040780045F10001002201262546A04271EB020706
:1040880054D2E3B1B3451ADA0B9B63B1259ADDF834
:1040980028B006EB0903134423EAE3739B45A8BF42
:1040A8009B465E450BDD05304FF00A024FF00003DA
:1040B80041F10001FCF7B4F809F10109013E5E4540
:1040C800A8BF5E4637B20FFA89F9059B09FA86F64A
:1040D80007F10508013E98444FF00009B9452CDB6B
:1040E800059B1A461E60099B137101E6069B2BB9B6
:1040F800DDE912239D4208BF944209D00123B4E7A9
:10410800069B53B9DDE912239D4208BF944204D1AE
:10411800089B002BF2D1002EF0D0B8F1040F94BF09
:1041280000230123A1E74FF00408F1E705FB02F79C
:10413800A4FB054201363A449FE70A220023FCF714
:104148006FF8303208F8012D09F10109C6E700BF00
:10415800014B5843800C704741340100014B5843D0
:10416800000D7047FB2E0B00024B5843C00C01306A
:10417800704700BF4F9312000A4A70B503464FF0CC
:10418800CC3600204FF0333506FB03F402FB014424
:10419800A3FB023121449D4275EB010401D3013098
:1041A800F2E770BDCDCCCCCC2DE9F04F1A23354EBB
:1041B800B0FBF3FA03FB1A0389B004460D4606EB7D
:1041C8000A1653B9D6E90023C1E90023D6E902014A
:1041D800C5E9020109B0BDE8F08F2B4A02EBC30321
:1041E800D3E9008904AB0093D6E902234046494647
:1041F80002F0B5FB06AB0093D6E9002383460F46D1
:104208004046494602F0ABFBDDE9066216EB0B06B9
:1042180052EB07084FF0000328BF0123814633B152
:10422800049B059A013342F10002CDE9043220468D
:104238000391FFF799FF07461A2000FB0AF0FFF7E2
:1042480093FF3F1A3246434603990097484602F0C7
:10425800A1FB4FEA141C0D4A640004F01E0352F837
:104268002C40DC4004F00304241841F10001C5E9A6
:104278000041DDE9042300973046414602F08AFBFD
:10428800A6E700BF5871000888700008C4770008C6
:104298002DE9F04F1A27DFF8E4A000F11905B5FB66
:1042A800F7F56F433A1A4FEA051B89B004460E46E4
:1042B8000AEB05150AD1D5E90023C1E90023D5E9A0
:1042C8000201C6E9020109B0BDE8F08F2C4B03EBEF
:1042D800C203D3E9008904AB0093D5E90223404621
:1042E800494602F03CFB5AF80B206B68013ACDE9CD
:1042F800020106A963F1000300914046494602F015
:104308002EFBDDE906528A4602996D18039952EB95
:1043180001084FF0000328BF0123814633B1049BF5
:10432800059A013342F10002CDE904323846FFF71D
:104338001BFF07462046FFF717FF3F1A2A4643464A
:1043480000974846514602F025FB4FEA141C0D4AD7
:10435800640004F01E0352F82C40DC4004F003040F
:104368000134241841F10001C6E90041DDE90423C4
:1043780000972846414602F00DFBA2E72872000884
:104388008870000818780008704710B5131D50F899
:10439800234074B9C368012494402343C3600432A2
:1043A80040F82210CB001A1D89B281520633C1523F
:1043B80010BDE2000432835A4FEAC10C0CF1040E1E
:1043C80020F80E300CF1060C20F80C40DB00063308
:1043D80089B2C1528152EBE708B500EBC1035A8894
:1043E8005208B2FA82F2C2F11F02FFF7CEFF08BDEF
:1043F80070B50346043AC81D20F007000A4422F0AD
:104408000702121AD508186085600023C360B5FA40
:1044180085F1C1F1200EC1F124018900CE1DF108FA
:1044280005E003F1040C002440F82C4001337345E7
:10443800F7DB4C00A4B244804FF0000CA0F800C099
:1044480044F0010444806B1A4FEA430E26F0070437
:10445800A51C20F805E0015322F00704951C20F85C
:1044680005C002440353538843F001035380FFF708
:10447800B3FF70BD002070470FB400B583B004A926
:1044880051F8040B0191FCF7B7F803B05DF804EBA1
:1044980004B07047704708B5FDF788FE08BD08B539
:1044A80001460068FFF7F7FF08BD002070470023AA
:1044B8000B70704708B500231370CB1E092B1AD850
:1044C800DFE803F005090D11191919191914114616
:1044D800FCF748FA10E00021FCF7DAF90CE00021BB
:1044E800FCF740F908E0FCF783F905E01146FFF70F
:1044F800DEFF002000E0002008BD08B540B2FCF750
:1045080063FB08BD08B5013140B2FCF76BFB08BD81
:1045180008B500210120FFF7BEFF08BD43685A1EF9
:10452800134206D11F2B06D903681A4205D0002072
:10453800704700207047002070470120704700B581
:1045480085B00B6801934B688A68202B12D9B3F1A8
:10455800004F11D8013BB3FA83F3C3F11F035B008B
:1045680003F03E031343039301A9FCF74BFC05B08A
:104578005DF804FB0823F5E73E23F3E72DE9F8434C
:1045880080460F4699461646002509E02146F0B2B6
:10459800FFF7D5FF064610F1160F14D00136013586
:1045A800BD4210DA05EB450408EB84046268002A72
:1045B800F5D0B9F1000FE9D02046FFF7AFFF00288A
:1045C800E4D16FF015063046BDE8F883F0B585B044
:1045D800054603A8FCF764F80646002425E0B3F571
:1045E800801F40F0C680576809589368202B64D90B
:1045F800B3F1004F63D8013BB3FA83F3C3F11F0350
:104608005B0003F03E0343F0885343F430230097E4
:104618000191029369462878FCF7F4FB0028C0F260
:10462800A8802B7801332B700134A64240F2A58074
:104638002001039901EB0412D3681B0D1B05B3F588
:10464800000F5ED01DD8B3F5001F3AD0B3F5800F28
:10465800C5D1576809589368202B4ED9B3F1004F3C
:104668004DD8013BB3FA83F3C3F11F035B0003F09A
:104678003E0343F0E06343F4003300970191029353
:10468800C8E7B3F1807F56D0B3F1007F71D1576886
:1046980009589368202B68D9B3F1004F67D8013BBC
:1046A800B3FA83F3C3F11F035B0003F03E0343F443
:1046B8008023009701910293ACE70823A3E73E23E8
:1046C800A1E7576809589368202B12D9B3F1004F16
:1046D80011D8013BB3FA83F3C3F11F035B0003F066
:1046E8003E0343F0885343F400230097019102935B
:1046F80090E70823F5E73E23F3E70823B9E73E23CD
:10470800B7E7576809589368202B10D9B3F1004FC1
:104718000FD8013BB3FA83F3C3F11F035B0003F027
:104728003E0343F0827300970191029372E70823D6
:10473800F7E73E23F5E7576809589368202B10D907
:10474800B3F1004F0FD8013BB3FA83F3C3F11F0352
:104758005B0003F03E0343F08873009701910293D6
:1047680058E70823F7E73E23F5E708239FE73E23AA
:104778009DE76FF0150005B0F0BD0020FBE708B518
:10478800FCF754FB08BD08B5FCF75AFB08BD08B593
:10479800FCF7CAFB002008BD08B50622012100204D
:1047A800FCF70EFC002211460620FFF7ABFE07229D
:1047B80001210846FCF704FC002211460720FFF7F8
:1047C800A1FE082201210220FCF7FAFB0022114673
:1047D8000820FFF797FE092201210320FCF7F0FBD0
:1047E800002211460920FFF78DFE0A22012104202C
:1047F800FCF7E6FB002211460A20FFF783FE17228A
:1048080005210846FCF7DCFB002211461720FFF7BC
:1048180079FE282206210A20FCF7D2FB0022114645
:104828002820FFF76FFE002008BDB0FBF1F002FB67
:1048380000F0B0FBF3F07047B0FBF1F070470128CF
:1048480006D038B10338022807D96FF085007047C1
:10485800002070476FF085007047002070470B6894
:10486800A3F13002782A09D803F1804303F50E3307
:104878004A6819680A431A60002070476FF085007B
:1048880070470B68A3F13002782A0AD803F18043F5
:1048980003F50E3349681A6822EA01021A600020FB
:1048A80070476FF08500704710B50C460868FFF731
:1048B800C6FF00281FDB6368FF2B1DD0DAB202F1A8
:1048C800804202F50E32C3F34231C3F30423994008
:1048D800136823EA010313606168CBB203F18043D4
:1048E80003F50E33C1F30242C1F304218A4019686B
:1048F8000A431A60002010BD0020FCE708B50868CC
:10490800A0F13003782B0BD800F1804000F50E3071
:1049180002684B68934301D0012008BD0220FCE7E0
:10492800FFF78DFF08B10120F7E70220F5E74FF404
:10493800800070470B4639B11168196041688A4296
:1049480009D00023136070471368036041688A42E6
:10495800F7D14360F5E74360F3E708B50A46036813
:10496800002101E019461B682BB19342FAD1FFF7E9
:10497800E1FF012000E0002008BD70B504460D46A7
:104988001646036833B1FFF7E8FF70B91EB96FF038
:10499800150006E032B123682B602560636843B1D7
:1049A800002070BD6FF01500FBE7002EF3D100204A
:1049B800F7E765600020F4E770B50E461546016814
:1049C80021B10C683CB131B90C4604E00C4602E058
:1049D800234621461C4671B18A682A4002D04B689A
:1049E80030469847002CF3D02368002BF1D0002CD8
:1049F800EFD12346EDE770BD08B50B460122824092
:104A0800496803F10800FFF7D7FF08BD10F4003F1D
:104A18001BD010230B6010F0020F04D010F0040F0D
:104A28002CD050230B6010F0100F05D00B6843F406
:104A380000730B600020704710F0200F21D00B6826
:104A480043F480630B600020704710F4803F11D05E
:104A580000230B6010F0100F04D04FF400730B60AC
:104A68000020704710F0200F0DD04FF480630B60CA
:104A78000020704730230B60002070476FF08500DE
:104A88007047002070470020704743685B681B69C7
:104A98000B600020704743685B68586942400A40D1
:104AA80042405A610020704743685B689961002062
:104AB800704743685B680904996100207047436840
:104AC8005A6853694B4053610020704708B5006924
:104AD8000830FFF752FF08BD10B4046891FAA1F33B
:104AE8009BB1B3FA83F35B004FF0030C0CFA03F3AA
:104AF80024EA030391FAA1F149B1B1FA81F149001D
:104B08008A401343036010BC70472023EBE7202141
:104B1800F5E710B4846891FAA1F39BB1B3FA83F373
:104B28005B004FF0030C0CFA03F324EA030391FA39
:104B3800A1F149B1B1FA81F149008A401343836078
:104B480010BC70472023EBE72021F5E710B4C468B8
:104B580091FAA1F39BB1B3FA83F35B004FF0030C16
:104B68000CFA03F324EA030391FAA1F149B1B1FA6B
:104B780081F149008A401343C36010BC7047202369
:104B8800EBE72021F5E710B4046A91FAA1F39BB191
:104B9800B3FA83F39B004FF00F0C0CFA03F324EAEB
:104BA800030391FAA1F149B1B1FA81F189008A4070
:104BB8001343036210BC70472023EBE72021F5E77D
:104BC80010B4446A090A91FAA1F39BB1B3FA83F3CA
:104BD8009B004FF00F0C0CFA03F324EA030491FA3C
:104BE800A1F149B1B1FA81F189008A4014434462C4
:104BF80010BC70472023EBE72021F5E72DE9F843A7
:104C08000F461546984643685E6801248C4002F0BA
:104C18003009C2F38013706820EA04008B401843FF
:104C28007060C2F3C11221463046FFF772FFC5F328
:104C3800412221463046FFF789FFB9F1200F07D0FE
:104C48004FEA191221463046FFF746FFBDE8F883C0
:104C5800072F05DC424621463046FFF794FFEFE771
:104C6800424621463046FFF7ABFFE9E7F0B583B08F
:104C780007460D46144601A91046FFF7C7FE06462B
:104C880070B914F4003F05D014F4002F0BD114F4BC
:104C9800802F0ED10023019A29463846FFF7AEFF30
:104CA800304603B0F0BD0121A9403846FFF7FCFEAD
:104CB800F0E70121A9403846FFF7FBFEEAE708B50F
:104CC8004A4201F0030302F0030258BF534204337F
:104CD8009B000F2202FA03F30A46002904DB43EA89
:104CE800A201FCF78DFB08BDCA1CF8E708B54242D3
:104CF80000F0030302F0030258BF534204339B0041
:104D08000F2202FA03F30246002804DB43EAA2005A
:104D1800FCF7B0FB08BDC21CF8E7F8B507460E461D
:104D280014461D46FFF76AFF112D01D00020F8BD7B
:104D380014F4006407D1002CF8D10121B1403846A1
:104D4800FFF7B7FEF2E70121B1403846FFF7ACFEA6
:104D5800ECE700B50368136001E0083313601368DB
:104D680090F804C0D0F800E00EEBCC0C634505D2F7
:104D780093F805C08C45F0D1002001E06FF00100E8
:104D88005DF804FBF8B506460F460024254614E0F6
:104D980002F01F0110291FD011291BD0530A1B0133
:104DA800DBB2C2F3431002F01F0229461843FCF796
:104DB800D5FB002813DB0134E4B2BC420ED206EB6B
:104DC800C40356F8342012F0100FE1D15D6845F0A5
:104DD8002005E3E75D68E1E73025DFE70020F8BD5F
:104DE80043681868C1F34B1301F01F01C058012331
:104DF8008B40184214BF0123002313700020704712
:104E080010B443681C68C1F34B1001F01F0123580C
:104E180001228A4013432350002010BC704710B46D
:104E280043681C68C1F34B1001F01F01235801228D
:104E38008A4023EA02032350002010BC704738B58B
:104E480004460D46FFF7DCFF29462046FFF7E7FF3B
:104E5800002038BD6FF085007047F8B51546066923
:104E680003291ED8DFE801F0020B050800273C469D
:104E780013E002273C4610E0022700240DE001273A
:104E88003C460AE0231D06EB43032A463169B3F981
:104E98000100FCF783FB01340835A742F2DA002051
:104EA800F8BD6FF08500FBE738B5046963681D68D5
:104EB800072304F108022721A847002809DB00235B
:104EC80000E00233052BFCD9237A13F00F0F00D032
:104ED800002038BD08B53A2906D0032907D00C2987
:104EE80008D1FFF7B7FF08BDFFF7DEFFFBE7FFF7C5
:104EF800DBFFF8E76FF03C00F5E770B582B00546D8
:104F080006690846FCF75EFB041E1DDB73689B6898
:104F18000DF10702202128469847031E19DB9DF84A
:104F2800072012F0080301D1082C14D00BB10A2C69
:104F38000DD07368DB6802F00F022401E4B222434B
:104F48002021284698470446204602B070BD013CFF
:104F5800EFE71C46F8E76FF08504F5E70146002007
:104F6800032806DC421C01239340994203D01046D3
:104F7800F6E76FF015007047032903D808B5FBF76B
:104F8800BBFA08BD6FF08500704710B58C46134614
:104F9800014651F8040B826814686246A04710BDA8
:104FA80010B50A46014651F8040B83681C680023B3
:104FB800A04710BD70B58CB0406861F07F048DF8D3
:104FC8002C4000268DF82D600BAC099402240A941D
:104FD80009AD079501250895039604950592069352
:104FE80003AA01920294402B0DD8AB4203D961F079
:104FF8003F018DF82C1001AA07A90430FFF7C5FF5F
:1050080020B90CB070BD6FF00400FAE76FF004002F
:10501800F7E710B588B0406801F07F018DF81C10E3
:1050280007AC0394012404940592069303AA019201
:1050380002220292402B0CD8A34203D941F040012E
:105048008DF81C1001A90430FFF7AAFF20B908B099
:1050580010BD6FF00400FAE76FF00400F7E708B539
:10506800FFF7A8FF08BD08B5FFF7D3FF08BD08B5CF
:105078000123FFF79FFF08BD00B583B08DF8072017
:1050880001230DF10702FFF7C4FF03B05DF804FB2D
:10509800F0B583B005460E4614461F4601230DF1B0
:1050A8000702FFF787FFE14349B29DF807203C401C
:1050B80002EA01031C438DF8074001230DF10702A2
:1050C80031462846FFF7A5FF03B0F0BD10B50446EA
:1050D800006801F008F8034620B1E06810B101F05B
:1050E80002F80346184610BD38B5836805699C69FF
:1050F8007CB112F4000F06D02D6801238B401D42AD
:1051080001D082F0C06202F0C06302F0B072A04722
:1051180038BD6FF05700FBE708B503460A4600683C
:105128001979FFF7E1FF08BD38B5134685680469AA
:1051380012F4801F07D012F4402F04D012F0010F90
:1051480001D082F4402323F4801213F0010F0AD017
:1051580023684FF0010C0CFA01FC43EA0C032360AE
:105168002B68984738BD23684FF0010C0CFA01FCF6
:1051780023EA0C032360F3E708B503468C4600686E
:105188001979DA8842EA0C02FFF7CEFF08BD08B5A4
:105198008368DB6913B10122984708BD6FF0570097
:1051A800FBE72DE9F0410446056946680121FCF753
:1051B800BDFA2F6CD5F8388096F82E3013F0040F0E
:1051C8003DD0302196F82E20C2F3011292016B686F
:1051D800DB6842F02A022046984700282DDB96F823
:1051E8002E3013F004032CD0222163B34022B8F1EF
:1051F800000F2AD013466868D0F810802046C047B0
:1052080000281ADB1FB315236A68D2F8108015220C
:1052180038212046C04700280FDB96F82E3013F0BF
:10522800040F16D02221B7B180236A68156980223D
:105238002046A847002800DB0020BDE8F081342183
:10524800C0E72521D1E72022D1E70023D3E70023B7
:10525800DAE72521E7E70023E7E700B501F01F02B9
:1052680001239340490900EB8100D943BFF35B8FC9
:1052780050E8002F02EA010C40E800CEBEF1000F12
:10528800F6D1BFF35B8F134214BF012000205DF8F5
:1052980004FB2DE9F04704461F4640682569C369A9
:1052A800B3B3894616464FF400111C30FFF734FF9C
:1052B80005F14808BFF35B8F58E8003F23F010035F
:1052C80048E80032002AF7D1BFF35B8F6B68D3F848
:1052D80010A00023102222212046D0472E636F639E
:1052E800A6B1002812DBA5F84C90BFF35B8F58E8F5
:1052F800003F43F0010348E80032002AF7D1BFF32A
:105308005B8F05F15000FDF783FD0020BDE8F087B5
:105318006FF08500FAE72DE9F04782B04668056925
:10532800736A002B70D004460F4690464FF4001164
:1053380006F12400FFF7F0FE05F14809BFF35B8F83
:1053480059E8003F23F0200349E80032002AF7D14A
:10535800BFF35B8F96F82E3013F0040F07D06B68FD
:10536800D3F810A00023102222212046D0476B68D2
:10537800DB6896F82E2012F0040F39D03021002275
:10538800204698476B68DB680022382120469847FA
:105398006B689B6896F82E2012F0040F2AD03121F2
:1053A8000DF10702204698476B689B680DF10702CC
:1053B800392120469847B8F80030022B1CD0052B1D
:1053C8001ED097B1002810DBBFF35B8F59E8003F70
:1053D80043F0020349E80032002AF7D1BFF35B8F9C
:1053E80005F15000FDF714FD002002B0BDE8F0877C
:1053F8003421C4E73521D3E7AF63C5F83C80E0E743
:105408002F64C5F84480DCE76FF08500EDE708B548
:10541800FFF781FF08BD08B5FFF77DFF08BD10B590
:105428000C4601F12403BFF35B8F53E8001F41F0E2
:10543800200143E80012002AF7D1BFF35B8F54F82C
:10544800103C58684FF400112430FFF765FE04F152
:105458002C00FDF7DDFC10BD10B50C4601F1300342
:10546800BFF35B8F53E8001F41F0100143E80012BF
:10547800002AF7D1BFF35B8F54F8043C58684FF407
:1054880000111C30FFF748FE04F13800FDF7C0FC9E
:1054980010BD70B584B0044600238DF80730056947
:1054A8006B689B680DF1070220219847002827DBCD
:1054B8006B68DB689DF8072002F00F022021204668
:1054C800984700281CDB6B681E68072302AA27215F
:1054D8002046B047002813DB01212046FCF714F9C9
:1054E8006B68DB689DF80720202120469847002834
:1054F80006DB6B681D6910231A4622212046A8473F
:1055080004B070BD70B582B0044606694568EB69A1
:1055180033B1002106F14800FFF79FFE002852D161
:105528006B6A33B1012106F14800FFF796FE0028A7
:105538004DD1EB6933B1042106F14800FFF78DFE28
:10554800002848D16B6A002B50D0052106F148008D
:10555800FFF783FE002849D000238DF8073095F81F
:105568002E3013F0080F0BD07268956813F0040FF3
:105578003ED031210DF107022046A847002835DB2F
:10558800B26B32B19DF807309B0902D0F16B20460F
:10559800904773689B680DF10702392120469847A8
:1055A800002823DB336C3BB19DF8072012F0100F65
:1055B80002D0716C20469847B36BDBB101212046BD
:1055C800FCF7B4F812E02046FFF763FF0EE0204630
:1055D800FFF7E7FD0AE0336B13B1716B204698477C
:1055E800336B1BB101212046FCF78EF802B070BD69
:1055F8003521BFE7336C002BE0D1F7E708B550F849
:105608003C0CFFF77FFF08BD08B50B4611461A880A
:10561800012A07D0022A0FD0052A11D11A46FFF70E
:10562800FAFE08BDB3F802C0BCF1030FF2D10A4676
:105638006146FFF72EFEF4E71A46FFF7E8FEF0E7AB
:105648006FF08500EDE708B58368DB680BB1984714
:1056580008BD6FF05700FBE730B583B00C464568CE
:1056680003691868E9688368DB6873B101AA984719
:1056780000280ADB2A68D36823F40043D360234652
:10568800002201992868FCF75BF903B030BDF8B532
:105698000C46476803695D68097901294ED00229DB
:1056A8004FD14FF480636279012A4FD0022A4FD03C
:1056B800002A48D04FF40052A679042E4BD0002976
:1056C8004CD14FF0000CE17901294AD00021A542C4
:1056D8004AD03F68FE6806F4C06E734504D0FE6881
:1056E80026F4C0663343FB6043681E68336903F4DD
:1056F80040539A4204D0336923F44053134333612F
:1057080043681A68D36803F480539C4505D0D3686E
:1057180023F480534CEA0303D36043681A6853693F
:1057280003F44073994204D0536923F44073194336
:10573800516121682B6899422ED1F8BD4FF4C0639E
:10574800B1E70023AFE74FF48052B5E70022B3E793
:105758004FF44052B0E74FF4805CB4E74FF4805CFC
:10576800B1E74FF44071B2E73E68F56825F4B055EB
:1057780043EA0C032B43F360336923F44053134388
:10578800336143681A68536923F440730B435361C8
:105798002168FFF761FFD0E7FFF75EFF23682B6002
:1057A800CBE703695B681B680B6043681B68DB68B1
:1057B80003F4C063B3F5806F2AD0B3F5C06F29D165
:1057C80001230B7143681B681B6903F44053B3F54D
:1057D800805F23D0B3F5405F22D0EBB103234B7138
:1057E80043681B68DA68DB6803F4C06312F4805FFF
:1057F80018D1E3B903238B7143681B685B6903F411
:105808004073B3F5407F14D00023CB71002070475C
:105818000223D6E70023D4E70123E0E70023DEE7ED
:105828000223DCE70BB90423E5E70323E3E70223BC
:10583800E1E70123E9E710B582B0406803681C6816
:1058480014F0080F05D01C680194019C5C68019451
:10585800019C1B6813F0200F03D09047002002B072
:1058680010BD4FF0FF30FAE710B5406803681B68B9
:1058780013F0800FFAD04FF01004EFF3118384F384
:105888001288BFF36F8F1C4603681B6813F0800FE4
:1058980004D184F31188BFF36F8FE7E7904784F34F
:1058A8001188BFF36F8F10BD03685B680B7070477A
:1058B80003680A785A60704784B0426813681868A9
:1058C80010F0080000D00120196811F0010F01D074
:1058D80040F00200196811F0020F01D040F00400F6
:1058E800196811F0040F01D040F02000196811F474
:1058F800807F01D040F0080010F0080F02D06FF44C
:105908008071196010F0010F06D0136819680091B2
:1059180000995B680093009B10F0020F06D0136893
:105928001968019101995B680193019B10F0040FBC
:1059380006D013681968029102995B680293029B6A
:1059480010F0200F06D013681A680392039A5B6858
:105958000393039B04B0704770B505464468036918
:105968005E682268D36823F40053D360606800F04F
:10597800BAFB10B3A1686068FFF765FE226802F100
:105988000C0353E8003F43F00C0302F10C0040E81D
:1059980000310029F3D131462846FFF778FE237DF0
:1059A80023B12268536943F0080353612268D3681E
:1059B80043F40053D360002070BD6FF01200FBE782
:1059C80000B583B001AAFFF7C4F9002805DB019BE5
:1059D800002219791868FFF7D5F903B05DF804FBC0
:1059E80038B504464568FCF7C1F800280BDB0021F0
:1059F800286AFFF7E5FF002805DB2046FFF7ACFF24
:105A0800002800DB002038BD38B5134685680469D6
:105A180012F4801F07D012F4402F04D012F0010FA7
:105A280001D082F4402323F4801213F0010F0AD02E
:105A380023684FF0010C0CFA01FC43EA0C032360C5
:105A48002B68984738BD23684FF0010C0CFA01FC0D
:105A580023EA0C032360F3E708B503468C46006885
:105A68001979DA8842EA0C02FFF7CEFF08BD08B5BB
:105A780032B1012303FA01F18368DB68984708BD56
:105A8800012303FA01F183681B699847F7E710B50A
:105A980003691C6801238B401C4202D0B2FA82F2CF
:105AA8005209FFF7E4FF10BD30B404E00834046085
:105AB8000C68013C0C600C684CB1046865689D4238
:105AC800F4D3B5FBF3F515600368186801E000200E
