:020000040800F2
:100000000021002019190008211500080519000811
:10001000051900080519000805190008000000006E
:100020000000000000000000000000001D1A000891
:100030000519000800000000B5190008293C000857
:10004000E91B0008E91B0008E91B0008E91B000880
:10005000E91B0008E91B0008E91B0008E91B000870
:10006000E91B0008E91B0008E91B0008E91B000860
:10007000E91B0008E91B0008E91B0008E91B000850
:10008000E91B0008E91B0008E91B0008E91B000840
:10009000E91B0008E91B0008E91B0008E91B000830
:1000A000E91B0008E91B0008E91B0008E91B000820
:1000B000E91B0008E91B0008E91B0008E91B000810
:1000C000E91B0008E91B0008E91B0008E91B000800
:1000D000E91B0008E91B0008E91B0008E91B0008F0
:1000E000E91B0008E91B0008E91B0008E91B0008E0
:1000F000E91B0008E91B0008E91B0008E91B0008D0
:10010000E91B0008E91B0008E91B0008E91B0008BF
:10011000E91B0008E91B0008E91B0008E91B0008AF
:10012000E91B0008E91B0008E91B0008E91B00089F
:10013000E91B0008E91B0008E91B0008E91B00088F
:10014000E91B0008E91B0008E91B0008E91B00087F
:10015000E91B0008E91B0008E91B0008E91B00086F
:10016000E91B0008E91B0008E91B0008E91B00085F
:10017000E91B0008E91B0008E91B0008E91B00084F
:10018000E91B0008E91B0008E91B0008E91B00083F
:10019000E91B0008E91B0008E91B0008E91B00082F
:1001A000E91B0008E91B0008E91B0008E91B00081F
:1001B000E91B0008E91B0008E91B0008E91B00080F
:1001C000E91B0008E91B0008E91B0008E91B0008FF
:0801D000E91B0008E91B00080F
:1001D80080F0004002E000BF81F0004142001FBFF4
:1001E8005FEA410392EA030F7FEA226C7FEA236CFD
:1001F8006AD04FEA1262D2EB1363C1BFD2184140F2
:1002080048404140B8BF5B42192B88BF704710F087
:10021800004F40F4000020F07F4018BF404211F02A
:10022800004F41F4000121F07F4118BF494292EA92
:10023800030F3FD0A2F1010241FA03FC10EB0C00BE
:10024800C3F1200301FA03F100F0004302D549424B
:1002580060EB4000B0F5000F13D3B0F1807F06D3F8
:1002680040084FEA310102F10102FE2A51D2B1F1F0
:10027800004F40EBC25008BF20F0010040EA0300E5
:100288007047490040EB0000013A28BFB0F5000F65
:10029800EDD2B0FA80FCACF1080CB2EB0C0200FA1B
:1002A8000CF0AABF00EBC25052421843BCBFD0406A
:1002B8001843704792F0000F81F4000106BF80F4E4
:1002C80000000132013BB5E74FEA41037FEA226CA7
:1002D80018BF7FEA236C21D092EA030F04D092F072
:1002E800000F08BF0846704790EA010F1CBF0020A6
:1002F800704712F07F4F04D1400028BF40F0004003
:10030800704712F100723CBF00F50000704700F022
:10031800004343F0FE4040F4000070477FEA226249
:1003280016BF08467FEA23630146420206BF5FEA1A
:10033800412390EA010F40F4800070474FF000031A
:1003480004E000BF10F0004348BF40425FEA000CE1
:1003580008BF704743F0964301464FF000001CE089
:1003680050EA010208BF70474FF000030AE000BFDF
:1003780050EA010208BF704711F0004302D540421D
:1003880061EB41015FEA010C02BF8446014600208F
:1003980043F0B64308BFA3F18053A3F50003BCFAAA
:1003A8008CF2083AA3EBC25310DB01FA02FC634457
:1003B80000FA02FCC2F12002BCF1004F20FA02F25E
:1003C80043EB020008BF20F00100704702F1200251
:1003D80001FA02FCC2F1200250EA4C0021FA02F2B2
:1003E80043EB020008BF20EADC7070474FF0FF0CB7
:1003F8001CEAD0521EBF1CEAD15392EA0C0F93EAB2
:100408000C0F6FD01A4480EA010C400218BF5FEA53
:1004180041211ED04FF0006343EA501043EA5111C6
:10042800A0FB01310CF00040B1F5000F3EBF4900C0
:1004380041EAD3715B0040EA010062F17F02FD2AC4
:100448001DD8B3F1004F40EBC25008BF20F00100A7
:10045800704790F0000F0CF0004C08BF49024CEABE
:10046800502040EA51207F3AC2BFD2F1FF0340EA50
:10047800C250704740F400004FF00003013A5DDCC1
:1004880012F1190FDCBF00F000407047C2F1000202
:10049800410021FA02F1C2F1200200FA02FC5FEAEF
:1004A800310040F1000053EA4C0308BF20EADC7039
:1004B800704792F0000F00F0004C02BF400010F4AB
:1004C800000F013AF9D040EA0C0093F0000F01F058
:1004D800004C02BF490011F4000F013BF9D041EA7A
:1004E8000C018FE70CEAD15392EA0C0F18BF93EA7C
:1004F8000C0F0AD030F0004C18BF31F0004CD8D1A6
:1005080080EA010000F00040704790F0000F17BF2C
:1005180090F0004F084691F0000F91F0004F14D072
:1005280092EA0C0F01D142020FD193EA0C0F03D1CA
:100538004B0218BF084608D180EA010000F00040CD
:1005480040F0FE4040F40000704740F0FE4040F4A8
:10055800400070474FF0FF0C1CEAD0521EBF1CEA47
:10056800D15392EA0C0F93EA0C0F69D0A2EB030265
:1005780080EA010C49024FEA402037D04FF08053FF
:1005880043EA111143EA10130CF000408B4238BFC4
:100598005B0042F17D024FF4000C8B4224BF5B1AD2
:1005A80040EA0C00B3EB510F24BFA3EB510340EA20
:1005B8005C00B3EB910F24BFA3EB910340EA9C00CE
:1005C800B3EBD10F24BFA3EBD10340EADC001B013E
:1005D80018BF5FEA1C1CE0D1FD2A3FF650AF8B42E2
:1005E80040EBC25008BF20F0010070470CF0004CEF
:1005F8004CEA50207F32C2BFD2F1FF0340EAC2501A
:10060800704740F400004FF00003013A37E792F0DA
:10061800000F00F0004C02BF400010F4000F013A38
:10062800F9D040EA0C0093F0000F01F0004C02BF33
:10063800490011F4000F013BF9D041EA0C0195E79C
:100648000CEAD15392EA0C0F08D142027FF47DAF35
:1006580093EA0C0F7FF470AF084676E793EA0C0F25
:1006680004D14B023FF44CAF08466EE730F0004C23
:1006780018BF31F0004CCAD130F000427FF45CAFB3
:1006880031F000437FF43CAF5FE700BF7BB972B93C
:100698000029BEBF00204FF0004106E008BF002837
:1006A8001CBF6FF000414FF0FF3000F057B8ADF1BC
:1006B800080C6DE904CE002909DB002B1ADB00F0D9
:1006C8004FF8DDF804E0DDE9022304B0704740424A
:1006D80061EB4101002B1BDB00F042F8DDF804E080
:1006E800DDE9022304B0404261EB4101524263EB71
:1006F80043037047524263EB430300F031F8DDF8DF
:1007080004E0DDE9022304B0404261EB4101704797
:10071800524263EB430300F023F8DDF804E0DDE91F
:10072800022304B0524263EB4303704753B94AB9FA
:10073800002908BF00281CBF4FF0FF314FF0FF30E1
:1007480000F00CB8ADF1080C6DE904CE00F008F823
:10075800DDF804E0DDE9022304B07047704700BF0C
:100768002DE9F04786468C460846089E154674468D
:100778001946002B40F0C2808542B2FA82F245D970
:100788004AB1C2F1200300FA02FC2EFA03F39540A5
:1007980043EA0C0C94404FEA154EA8B2BCFBFEF895
:1007A800230C0EFB18CC08FB00F943EA0C439945CF
:1007B80028D9EB1808F1FF3704D2994502D9A8F1D6
:1007C80002072B44A3EB0903A4B2B3FBFEFC0EFB08
:1007D8001C330CFB00F044EA0344A04214D92C1942
:1007E8000CF1FF3304D2A04202D9ACF102032C442D
:1007F800241A43EA07401EB1D440002334607360D2
:10080800BDE8F0874746DDE76346F1E792BB431B47
:1008180001214FEA154EAFB2B3FBFEFC200C0EFBD4
:100828001C330CFB07F840EA0343984562D9EB18E0
:100838000CF1FF3004D2984502D9ACF102002B44E8
:10084800A3EB0803A4B2B3FBFEFC0EFB1C330CFBAA
:1008580007F744EA0344A7424ED92C190CF1FF3399
:1008680004D2A74202D9ACF102032C44E41B43EAA8
:100878000040C0E7C2F1200320FA03F19540904000
:100888002EFA03F303434FEA154EAFB2B1FBFEFC59
:100898000EFB1C10190C0CFB07F841EA00418845B7
:1008A80004FA02F422D969180CF1FF3004D2884501
:1008B80002D9ACF102002944A1EB08019BB2B1FBBB
:1008C800FEFC0EFB1C110CFB07F743EA01439F4299
:1008D8000ED9EB180CF1FF3104D29F4202D9ACF1CA
:1008E80002012B44DB1B41EA004192E76046E3E743
:1008F8006146F7E76046A3E76346B7E7834206D950
:1009080016B9002108467BE7C6E900E0F9E7B3FA23
:1009180083F78FB9834201D3724508D8BEEB02042E
:1009280060EB030301209C461EB9002168E73846A6
:10093800FAE7C6E9004CF8E7C7F1200CBB4022FAF9
:100948000CF41C432EFA0CF120FA0CF3B8400143C6
:100958004FEA14490EFA07F5B3FBF9F81FFA84FEBB
:1009680009FB18300B0C08FB0EFA43EA00439A45C2
:1009780002FA07F240D9E31808F1FF3004D29A4589
:1009880002D9A8F102002344A3EB0A0389B2B3FBFE
:10099800F9F809FB183308FB0EFE41EA03418E45BE
:1009A8002CD9611808F1FF3304D28E4502D9A8F179
:1009B8000203214443EA0040A0FB0298A1EB0E0188
:1009C8004145CE46434602D306D14D4504D2B9EB44
:1009D800020E68EB04030138002EA6D0B5EB0E0218
:1009E80061EB030101FA0CFC22FA07F34CEA03035A
:1009F800F940C6E9003198E74046C5E74346D9E7DC
:100A080010B53E4B1B78002B38D13D4B1B7853B3A8
:100A180000230EE03B4A106803EB430100EB010C96
:100A2800394AB2F800E0927820F801E08CF8022008
:100A38000133364A12689A42ECDC354883681B68F1
:100A480030490968984710BD2E4A106803EB4301E6
:100A580000EB010C2F4AB2F800E0927820F801E090
:100A68008CF802200133294A12689A42ECDC2848A3
:100A780083681B68234909689847E4E7204B1B787B
:100A88006BB300230EE01F4A106803EB430100EB31
:100A9800010C1D4AB2F800E0927820F801E08CF8C9
:100AA80002200133194A126802EBD271B3EB610FCD
:100AB800E9DB174883681B68124909689847C2E749
:100AC800104A106803EB430100EB010C114AB2F81D
:100AD80000E0927820F801E08CF8022001330B4AFC
:100AE800126802EBD271B3EB610FE9DB0848836847
:100AF8001B68044909689847A5E700BFF00A002069
:100B0800F20A002098060020A4060020A80600206B
:100B180008AA00089C06002010B5214B1B78FBB1E1
:100B2800204B1B6803EBD3735B100EE01E4A106862
:100B380003EB430100EB010C1C4AB2F800E0927889
:100B480020F801E08CF802200133164A12689A4214
:100B5800ECDC174883681B6813490968984710BD7F
:100B6800104B1B6803EBD3735B100EE00E4A106842
:100B780003EB430100EB010C0E4AB2F800E0927857
:100B880020F801E08CF802200133064A12689A42E4
:100B9800ECDC074883681B68034909689847DEE767
:100BA800F10A0020A806002098060020A0060020D0
:100BB80008AA00089C06002008B54822034809F046
:100BC80054FD034804F03AFA08BD00BF500600205F
:100BD800F405002008B5024804F030FA08BD00BF4B
:100BE8000406002000B583B00E4B01221A700E488F
:100BF80004F024FA0D4B1B6823EAE373D81782002C
:100C080042EA93729900C91840EB02004A1840EB77
:100C1800000300920193064804F016FC03B05DF847
:100C280004FB00BFF20A0020E4050020D0050020E4
:100C38009802002000B583B00E4B01221A700E48AE
:100C480004F0FCF90D4B1B6823EAE373D817820004
:100C580042EA93729900C91840EB02004A1840EB27
:100C6800000300920193064804F0EEFB03B05DF820
:100C780004FB00BFF10A0020D4050020C4050020B1
:100C88002802002008B5054B00221A70044804F019
:100C9800D5F9044809F018FB08BD00BFF20A002086
:100CA800E40500209802002008B5054B00221A70C0
:100CB800044804F0C3F9044809F006FB08BD00BF66
:100CC800F10A0020D40500202802002070B582B067
:100CD8009F4B1B7A2BB19E4B1B7A012B14D002B071
:100CE80070BD9B4B9C7A5B7A44EA0324994B1C6049
:100CF800012104EB440001F09DF8974B1860214650
:100D0800964804F017FCE6E7924B1B687BB19448C1
:100D180009F0DAFA934809F0D7FA934809F0D4FAB7
:100D2800924809F0D1FA0023914A137012E09148D1
:100D380004F012FCD3E7884A116803EB430201EB85
:100D4800020C8D48B0F800E0807821F802E08CF8B9
:100D5800020001337F4A12689A42ECDC87488468B3
:100D680023687D4909689847794B5B7A0BBB784AB9
:100D7800917A834B1970D17A5970127B9A7000233B
:100D88000EE0754A116803EB430201EB020C7C4844
:100D9800B0F800E0807821F802E08CF80200013316
:100DA8006C4A12689A42ECDC23686B4909687348FC
:100DB8009847674B5B7A012B5FD0654B5B7A022BB8
:100DC80000F09D80624B5B7A032B88D1684B01222F
:100DD8001A705F4B997A6A4A1170D97A5170197BE7
:100DE8009170597C674A1170997C5170D97C9170C7
:100DF8009A7B597B42EA012263490A601C7CD97BB1
:100E080044EA012461490C60597D187D41EA0021BA
:100E18005F480160D87D9B7D40EA03235D480360FD
:100E280022445D48026019445C4E3160002400256C
:100E380022EAE27293009B182CBF01220022DB18E1
:100E480052410093019222462B46454804F0FCFA91
:100E5800316821EAE171CA17900040EA91708B006D
:100E68005B1842EB0002DB185241009301922246C4
:100E78002B463D4804F0E8FA31E7354B997A404A69
:100E88001170D97A5170197B9170597B3D4A117054
:100E9800997B5170DB7B937000220EE02E4B196812
:100EA80002EB420301EB030C3548B0F800E0807810
:100EB80021F803E08CF802000132264B1B6803EB93
:100EC800D3735910B2EB630FE8DB0EE0224B1A68BC
:100ED80001EB410302EB030C2A48B0F800E08078EC
:100EE80022F803E08CF8020001311A4B1A688A4292
:100EF800ECDC236818490968204898475DE7144BDB
:100F0800997A1F4A1170D97A5170197B91709A7B1E
:100F1800597B42EA01221C490A60197CDB7B41EAC1
:100F280003231A490B601A441B4B1A6022EAE27227
:100F380093009B182CBF01220022DB18524100931A
:100F4800019200220023064804F07EFA3AE700BF27
:100F580050060020A80600209806002070B000085F
:100F6800D002002098020020600200202802002001
:100F7800F00A00208CB000089C06002008AA00088F
:100F8800A4060020A0060020D0050020CC050020E3
:100F9800C4050020C0050020C8050020BC050020AD
:100FA8002DE9F04782B0624C204605F00CFCA5689C
:100FB8002B69604F3A460D21204698472B695E4EB3
:100FC80032460E21204698472B69DFF870A1524619
:100FD8001021204698472B69DFF8648142461D217D
:100FE80020469847574C204605F0EDFBA3681B693F
:100FF800DFF854914A461121204698473868FFF790
:10100800A1F904467868FFF79DF95049FFF7A2FA5D
:1010180001462046FFF7E2F807464D4B1860306856
:10102800FFF790F904467068FFF78CF94749FFF716
:1010380091FA01462046FFF7D1F80646454B18605D
:10104800DAF80000FFF77EF90446DAF80400FFF743
:1010580079F93E49FFF77EFA01462046FFF7BEF8C8
:1010680005463D4B1860D8F80000FFF76BF90446B9
:10107800D8F80400FFF766F93449FFF76BFA014620
:101088002046FFF7ABF80446344B1860D9F8000047
:10109800FFF758F98046D9F80400FFF753F92B49B0
:1010A800FFF758FA01464046FFF798F82C4B1860AE
:1010B8002C49C7F307620A72C7F307424A72C7F39B
:1010C80007228A72CF72C6F307620A73C6F3074211
:1010D8004A73C6F307228A73CE73C5F307620A748C
:1010E800C5F307424A74C5F307228A74CD74C4F362
:1010F80007620A75C4F307424A75C4F307228A7562
:10110800CC75C0F307630B76C0F307434B76C0F387
:1011180007238B76C8760023019300934FF0FF32A4
:101128004FF0FF33104800F0D3FF02B0BDE8F0875E
:101138001CAA0008480600204006002038060020A7
:101148003006002030AA0008280600200024744930
:1011580024060020200600201C0600201806002077
:101168001406002000000020F4A9000870B586B01D
:10117800834808F054FD002800F0CB80814808F02F
:101188004EFD002800F0CB807F4808F048FD00287D
:1011980000F0C9807D4808F042FD002800F0C780B3
:1011A8007A488368DB6804219847794B18600028DF
:1011B80040F0C180754883685B689847744B186035
:1011C800002840F0BC80734808F029FD002800F092
:1011D800BA80704808F023FD002800F0B8806D48F8
:1011E80008F01DFD002800F0B6804FF480316A48F1
:1011F80005F017FB664B18600028C0F2B0804FF46A
:101208008031664805F00DFB614B18600028C0F27C
:10121800AA804FF48031624805F003FB5C4B1860EC
:101228000028C0F2A4805B4E0421304605F010FB74
:1012380005460521304605F00BFB044606213046DD
:1012480005F006FB640044EA80032B4343F0A00347
:101258001802544A116863F31C01116000220392BA
:1012680004920592134660F31C03039313464FF44C
:101278007F4161F31C03049301238DF81430434824
:1012880083689C6903AB4849A047414B1860002814
:1012980071DB464D284608F09FFF00240094022386
:1012A8004FF400624249284603F0D0FE41494248C3
:1012B80008F06CFF4149424808F068FF414942483C
:1012C80008F064FF4149424808F060FF414D22465A
:1012D8004149284608F0ECFF42F210720023CDE99C
:1012E8000023284604F0B0F822463C493C4808F060
:1012F800DFFF22463B493C4808F0DAFF22463B49DB
:101308003B4808F0D5FF22463A493B4808F0D0FF51
:1013180002E03A4804F00EF9002006B070BD3848E3
:1013280004F008F9F8E7374804F004F9F4E7364818
:1013380004F000F9F0E7354804F0FCF8ECE734482D
:1013480004F0F8F8E8E7334804F0F4F8E4E7324842
:1013580004F0F0F8E0E7314804F0ECF8DCE7304856
:1013680004F0E8F8D8E72F4804F0E4F8D4E72E486A
:1013780004F0E0F8D0E72D4804F0DCF8CCE700BF33
:101388001CAA000830AA000808AA0008F4A9000846
:10139800B805002090A9000838B2000830B200084B
:1013A80028B2000800000020C10B000850010020EE
:1013B800000B0020A90F000804060020D50C000827
:1013C800F4050020090A0008E4050020210B0008A4
:1013D800D405002008030020DD0B0008ED0B0008F1
:1013E800D00200208D0C0008980200203D0C000857
:1013F80060020020B10C000828020020B0B00008EC
:10140800C4B00008DCB00008F4B0000814B100084B
:101418002CB1000840B1000860B1000880B1000894
:10142800A0B10008C4B10008E8B100080CB2000877
:1014380008B5024B1B68984708BD00BF480000204C
:1014480000B585B00A4600230093019302930393E5
:1014580002238DF80230044B01930146684604F0DC
:1014680037F905B05DF804FB39140008014B186022
:10147800704700BF4800002080B505460E46174655
:10148800984603F0C1FB034609F0C4F90446DFF8A7
:10149800189049F80030424639463046A84754F873
:1014A800090000F04FFA00BF0800000082B00D4BA1
:1014B8000D4A1A600D4A536843F0010353600C4B00
:1014C8009A6D42F080529A659B6D03F080530193A8
:1014D800019B084A936843F480439360002002B05C
:1014E800704700BF200100200024F400002004E021
:1014F8000010024000700040034A536823F00203C2
:1015080053600020704700BF002004E0014B0360D7
:101518000020704740B2000808B5034B1B68984785
:1015280000F048F808BD00BF4C00002030BFFFF7AE
:10153800FDBF00BF38B50446084D2A46084909F0E2
:1015480094F80848431E2B44B3FBF0F3064A0021E5
:1015580000FB034009F097F838BD00BF0000000009
:10156800B8AD0008010000000800000070B505468D
:101578000C480D4A0244013AB2FBF0F20B4B0C4CFA
:101588001C44013CB4FBF3F404FB03F300FB0234FA
:101598000E1B3046FFF7CEFF083EC5F8A86004F1E1
:1015A800080070BD010000000000000004000000F9
:1015B80008000000044B99685869884203D0034921
:1015C8004FF080520A607047B00A002004ED00E036
:1015D80038B51546204B9B6A13F4805F19D1162441
:1015E8001D4B9B6A13F4006F00D018241A4B9B6A9A
:1015F80013F4007F10D0184B9A6B9B6A13F4004FBA
:1016080009D0D9B1144A936A23F400439362192488
:1016180002E01724E4E719240F4B9B6A13F4806F48
:1016280000D01A240C4B9B6A13F4807F08D10A4B14
:101638009B6A13F4005F04D01C2402E01924EBE732
:101648001B24054A936A43F47F439362012105F002
:10165800C7FA2870204638BD00ED00E0174B9B6A9A
:1016680013F0007F25D11D20144B9B6A13F0807F57
:1016780000D01F20114B9B6A13F4002F00D02120AB
:101688000E4B9B6A13F4802F00D022200B4B9B6AD1
:1016980013F4003F00D02320084B9B6A13F4803FCB
:1016A80009D1064A936A6FEA03436FEA13439362C8
:1016B80070471E20D8E72420F3E700BF00ED00E0C4
:1016C80081690D4B5A6942F480725A61BFF34F8F9A
:1016D800BFF36F8F31F8021C5A6922F480725A6185
:1016E800BFF34F8FBFF36F8F4DF60273994201D04E
:1016F800002070470120704700ED00E070B50446F7
:101708001646324B9B6A13F0100F1AD110252F4B37
:101718009B6A13F0080F00D012252C4B9B6A13F01C
:10172800020F10D0294B586B9B6A13F0800F3DD0E5
:1017380000293FD0254A936A23F08003936213253A
:1017480003E01125E3E76FF01500204B9B6A13F0C7
:10175800010F00D014251D4B9B6A13F0200F00D0F9
:1017680015251A4B9B6A13F0100F04D1174B9B6A6F
:1017780013F0020F04D0154B5B6813F4006F1BD1F4
:10178800124B9B6A13F0200F04D0104A536A23F4BB
:10179800005353620D4A936A43F0FF039362012199
:1017A800204605F01DFA3070284670BD6FF0150010
:1017B8001325CAE71325C8E7214600F0A3F9002836
:1017C800DED080F309880225DAE700BF00ED00E0EB
:1017D80038B5054600230B701A4BD86A10F0020082
:1017E8002DD10C46DB6A002B2ADB164BD86A10F089
:1017F800804025D02846FFF763FF08B128681FE01E
:10180800104B9B6A13F0FF0F0DD10E4B986A10F422
:101818007F400ED10B4B9B6AB3F5803F10D328460F
:10182800FFF71CFF0CE0224601212846FFF766FF60
:1018380006E0224601212846FFF7CAFE00E0002004
:1018480038BD00BF00ED00E030B58BB00C46264B2C
:101858005968C1F30801002383F31188BFF36F8F20
:1018680002F07F43B3F17F4F15D102F00C03082B30
:1018780014D012F0080F0BD000250DF127022046D6
:1018880005F0B3F986469DF8273053B10BB030BD4B
:1018980004460125F1E700252C46EEE700252C46F5
:1018A800EBE70DF1040C20686168A268E368ACE816
:1018B8000F0020696169A269E369ACE80F0045B1CE
:1018C800C3F308025AB96FEA53236FEA4323089314
:1018D80005E0089B23F4FF7323F00103089301A993
:1018E800704605F073F9D1E700ED00E0024A53694C
:1018F80043F010035361704700ED00E0EFF30880F8
:10190800EFF3098101B57246FFF79EFF01BD00BFE5
:1019180000200A490870102080F3118808484FF405
:101928000461401880F30988EFF31480022108430A
:1019380080F31488BFF36F8F00F09EF8F40A00203C
:101948004013002008B50A4B9B68834202D008F078
:101958002CFB08BDEFF30583002BF8D0054B5A6824
:1019680042F080525A605A6A22F400425A62EEE704
:10197800B00A002000ED00E00A4A9368C3F8AC0002
:101988006FF00A01C3F8B01007494B6843F0805361
:101998004B60002383F31188BFF36F8F9368D3F8EC
:1019A800B0007047B00A002000ED00E016498A68D0
:1019B8004FF030001044EFF3098C80E8F01F10203E
:1019C80080F31288BFF36F8F104F4FF000664A699B
:1019D8008A603E604FF0A804141920680C4C2060FF
:1019E800D2F8AC000023C2F8AC3080F3118804B5FB
:1019F800104600F017F9BDE8044002F1300090E805
:101A0800F01F8CF309887047B00A002004ED00E04D
:101A1800AC0600201EF0040F0CBFEFF30880EFF3B4
:101A28000980816911F8021C0229FFD001B505F06F
:101A3800D1F801BD002807DB00F01F02400901238F
:101A48009340024A42F82030704700BF00E100E0AE
:101A5800002808DB0901C9B200F1604000F56140C7
:101A680080F80013704700F00F000901C9B2014B5C
:101A78001954704714ED00E008B50F4B0F4A22F0D7
:101A88007F029A60BFF34F8FBFF36F8FD3F8882020
:101A980022F47002C3F88820EFF3148323F00403C0
:101AA80083F31488BFF36F8F02F096FB03F00CFBEF
:101AB80000F07CF802F0FCFB00ED00E000000008FC
:101AC80010B4A2F120040E4942F8081C21F00101CB
:101AD80042F8081C42F8203C019B42F81C3C029B3F
:101AE80042F8183C039B42F8143C4FF0807342F8CC
:101AF800043C04650023C0F8AC3010BC704700BF3C
:101B080081140008104B9B68BBB110F1160F0BD065
:101B1800D3F89820A2F1400C844510D8824210D9FD
:101B28008A4207D800207047D3F898208A4201D803
:101B380000207047D3F898007047002070470020B5
:101B480070470020704700BFB00A002008B50D4656
:101B580014460A4A9060D0F8A820094B1A6000F091
:101B680061F8204685F30988002163B681F311885E
:101B7800BFF36F8F00220023FFF77EFCB00A00201E
:101B8800AC060020014910220A60704710ED00E001
:101B980072B6404080F31188BFF36F8FBFF34F8F49
:101BA80030BF62B6BFF36F8F704700BF002206E0F8
:101BB80003F00F030949194410230B760132652AF3
:101BC8000ADC53B2002BF3DB03F1604303F56143F6
:101BD800102183F80013F1E7704700BFFCEC00E028
:101BE80001B5EFF30580A0F110004FEAC0000449E9
:101BF800014409C99847BDE8014002490847000067
:101C080044AA0008BD15000808B5034B034A012182
:101C1800034805F04FF908BD0080002000000020AF
:101C280040B2000808B5D0F89830403B044803603B
:101C380040234360034B8360012105F03FF908BD51
:101C4800B006002000000B15084AC2F898000B687F
:101C580023F01F03034343F01003C2F89C308B6842
:101C680043F00103C2F8A030704700BF00ED00E068
:101C7800084BD3F89030C3F30723013B984205D8AB
:101C880010B50446FFF7E0FF204610BD6FF01500C1
:101C9800704700BF00ED00E010B5034C0123227827
:101CA80005F007F8207010BDF30A002008B50023DE
:101CB8000B4A127804F0FDFF10F1160F0FD0024600
:101CC80006E0084BC3F898200021C3F8A0100132A1
:101CD800044BD3F89030C3F307239342F1DC08BDDB
:101CE800F30A002000ED00E0044B0522C3F894201D
:101CF800BFF34F8FBFF36F8F704700BF00ED00E059
:101D0800BFF35F8F024B0022C3F89420704700BFD7
:101D180000ED00E038B51C4B1D681C4BD3F8903023
:101D2800C3F307239D422BD8FFF7EAFF002409E0FD
:101D3800154B5B6804EB440103EB81012046FFF778
:101D480083FF0134A542F3D81148057004F0D9FF88
:101D580010F1160F13D00E4B1A780C4BD3F89030A5
:101D6800C3F307239A4207DA084BC3F898200021E7
:101D7800C3F8A0100132F0E7FFF7B6FF002038BD26
:101D88004FF0FF30FBE700BF4CB2000800ED00E069
:101D9800F30A002008B5024B1B689847002008BDCD
:101DA800BC060020034B1860034A937843F00203F3
:101DB80093707047BC0600205000002008B54FF013
:101DC800FF324FF0FF33024805F081F808BD00BF2D
:101DD8006000002008B5064921F00701C1F1005252
:101DE80002F50042034804F09EFE002008BD00BF33
:101DF80087250020C006002038B50446FFF7DEFF1F
:101E080022460821084804F017FE054620B1074875
:101E180002F098FF284638BD002CF8D008F0FAFCEC
:101E2800034B0C221A50F2E7C00600206000002085
:101E38000C00000038B50023A0FB014159B963B973
:101E48002046FFF7D9FF054618B12246002108F0C1
:101E58001AFC284638BD0123F1E708F0DBFC024BE9
:101E68000C221A500025F4E70C00000038B505468E
:101E7800002401E00134E4B26B78A34216D3287839
:101E880020441F28F6DC01238340094A526933EABB
:101E98000202EFD1064A5361064B53F83020002A5C
:101EA800E8D003EBC00359689047E3E738BD00BFAB
:101EB80000040140CC060020002399420ADD10B43A
:101EC80000EB030C044C04F80C2001339942F7DCB6
:101ED80010BC7047704700BF7400002008B5024668
:101EE800054B185601239340044A11680B431360AD
:101EF80004F09EFE08BD00BF7400002000040140ED
:101F08001F2806DC0122824002490B6823EA0203EB
:101F18000B6070470004014003292ED8DFE801F068
:101F2800020E192401228240144B996821EA020109
:101F38009960D96821EA0202DA607047012282407A
:101F48000E4B996811439960D96821EA0202DA6058
:101F5800704701228240094BD9681143D9609968BA
:101F680021EA02029A60704701238340034A91687C
:101F780019439160D1680B43D36070470004014056
:101F880010B40D4B53F830308B4209D08BB90A4B43
:101F980043F8301003EBC0035A60002010BC7047B0
:101FA800054C04EBC00CDCF804409442EED1002050
:101FB800F4E76FF00F00F1E7CC060020034B002296
:101FC80043F8302003EBC0035A607047CC0600206A
:101FD8002DE9F041069CB3F804C05D88AC441FFAB3
:101FE8008CFCA58866883544ADB286B201FB00FE3C
:101FF800364FA7FB0E7ECEF38F1EA6EB0E0E1FFAF2
:102008008EFEE788774541D2B3F80680F04528BFB1
:10201800F046A6EB080E1FFA8EFE0EF1FF3E1FFAE1
:102028008EFEF44534D2A6EB0C081FFA88F808F1A6
:10203800FF381FFA88F8DD88454540D3A2F80680A6
:102048004FEA5C05B4F802E0BEEB5C0F04D2B3F8CB
:1020580002E0AE4528BFAE46A2F802E0ACEB0E0E99
:102068001FFA8EFEA2F804E09B889E451DD9938036
:10207800ACEB030353804FF47A730CFB0333B3FBCD
:10208800F0F0814219D2401ABDE8F081B846C0E7A5
:10209800754508D9761BB6B2013E1FFA86F8474542
:1020A80010D8AC46CAE7F446C8E7A3889E45E2D2F2
:1020B8009380ACEB03035380DDE7081AE4E74FF0A5
:1020C800FF30E1E74FF0FF30DEE700BFD34D62108D
:1020D8002DE9F0438BB004460F4616461D4612986C
:1020E800D4F8088050B1D8F81480139B019300905D
:1020F8002B462046C0470BB0BDE8F0830DF10C0914
:1021080001220021484607F0CCFFD8F81480CDF80A
:102118000490094B009332462B4639462046C04767
:102128000028E8D14FF0FF324FF0FF33484602F065
:102138006FFE0998DFE700BFFB7000082DE9F0414A
:1021480084B09846866887680D4B9A4215D80D4624
:10215800144630363A3783689B6A03A9984710B10A
:1021680004B0BDE8F081CDF8048000943B463246C7
:102178002946039804F0F8FEF2E76FF01500EFE740
:1021880040420F002DE9F04184B098468668876880
:102198000D4B9A4215D80D46144648365237836877
:1021A8009B6A03A9984710B104B0BDE8F081CDF847
:1021B800048000943B4632462946039804F0D4FE36
:1021C800F2E76FF01500EFE700127A002DE9F04F03
:1021D80097B006468846174699464368D3F818A02C
:1021E8004822002102A808F04EFA01AA39463046D2
:1021F80005F02FF888B317B0BDE8F08F9DF80D10E3
:1022080041F010018DF80D1067E0BDF85220C2F3BF
:102218008A02029962F31C01029170E09DF80D3068
:1022280013F0010F00F08780DAF8083003EBCB02D7
:1022380053F83B30526813B102A9304698472246FA
:102248004946304605F011F80028D4D101AA39468C
:10225800304604F0FEFF0028CDD1019C14F07F0F1A
:10226800C9D0C4F3052404EBC40508EBC505ADB219
:1022780073685B69D3F808B0082314AA2946304666
:10228800D8470028B7D19DF85630C3F3030203F0AE
:102298000F038DF80C209DF8532012F0200F05D065
:1022A8009DF80D1041F002018DF80D109DF85610A3
:1022B80011F0200F05D09DF80D0040F004008DF8B6
:1022C8000D0011F0100F05D09DF80D1041F0080118
:1022D8008DF80D1012F0800F90D19DF857B00BF0CB
:1022E8007F0B12F0400F90D0029A149961F31C02F0
:1022F80002929DF80D2042F001028DF80D200F2B5F
:1023080028BF0F23104AD35C402B98D89DF80D2086
:1023180012F0020F82D105F1080103337268526985
:10232800956803F4FE7304AA89B23046A8470028CA
:102338003FF474AF5FE7DAF8043003EBCB0253F8ED
:102348003B30526877E700BFBCB20008F0B583B0F5
:102358000446056910354FF0FF324FF0FF33284629
:1023680002F06CFC01AA1821204604F072FF064610
:1023780028B1284602F0E6FC304603B0F0BD019AC9
:1023880022F0100201921821204604F06EFF064642
:102398000028EED101F024FD074601AA18212046A5
:1023A80004F057FF06460028E3D1019B13F0080FFD
:1023B800DFD001F015FDC01B0C4B984208D801AACC
:1023C8001821204604F045FF06460028EDD0D0E746
:1023D800019A42F0100201921821204604F045FFAC
:1023E80006460028C5D16FF00A06C2E74066030119
:1023F80070B505692B793BBB06460C4610354FF086
:10240800FF324FF0FF33284602F018FC2288013AC9
:10241800A388013B1B0203F47F4343EA4263E2883B
:10242800013A02F07F02134321890139084A02EA7E
:1024380001421A431C21304604F017FF044628467F
:1024480002F080FC204670BD6FF00F04FAE700BF71
:102458000000FF0130B583B00446056901AA502188
:1024680004F0F7FE80B103B030BD204605F01DF939
:1024780018E0204604F0A6FF18E001AA50212046E3
:1024880004F0E7FE0028EED10D4A019B1A40EAD07D
:102498005021204604F0E9FE0028E4D1019B13F006
:1024A800607FE2D1019B13F4805FE2D1019B13F4BA
:1024B800004FE2D005F1240002F082FCDDE700BF06
:1024C8000090823B2DE9F04F87B007468846914639
:1024D8000093D0F804A0DAF81850066909790B4679
:1024E8000F2928BF0F237B4A12F803B00023049357
:1024F800059398F80530C3F340009DF8132060F366
:1025080045128DF81320D2B263F386128DF813208A
:102518009DF8162061F303028DF81620C3F3C0015D
:10252800D2B261F304128DF81620C3F38001D2B23F
:1025380061F345128DF81620D2B242F080028DF870
:1025480016200F2B00F2B080326812F0040F03D16E
:1025580013F00C0F40F0AB80BBF1400F00F2AA80E3
:1025680013F0040F33D098F804300F2B00F2A58035
:102578003379002B00F0A48003A9384604F06FFEDD
:10258800044600287FD1039B13F0800F40F09B8006
:1025980006F12403184601934A46009B02F038FCD2
:1025A8000446002840F0928006F13C094FF0FF32C3
:1025B8004FF0FF33484602F041FB2B7BA3420DDD71
:1025C8002B68264653F8343053B10134F5E798F8B0
:1025D8000430082BCCD96FF0150454E04FF0FF36C7
:1025E8008DF8176098F8053013F0010F4FD0D8F820
:1025F8000020049B62F31C030493BAF83A1006EB1C
:10260800C603DB009BB2009319447B685B69DC68F6
:10261800082304AA89B23846A047044668BB98F83C
:10262800053013F0020F13D1BAF83A300099194463
:1026380089B208310BF103037A685269D46803F44C
:10264800FE7308F1080289B23846A0470446A0B9CB
:102658002B68109A43F836202B6803EBC603119AAF
:102668005A600122B240D021384604F0FEFD0446EB
:10267800B0B12B68002243F83620484602F062FBCE
:10268800019802F09DFB204607B0BDE8F08FD8F80E
:102698000020BDF8123062F38C03ADF81230ACE7BD
:1026A800484602F04FFBEEE76FF08504EBE76FF06A
:1026B8008504E8E76FF01504E5E76FF01504E2E735
:1026C8006FF07204DFE76FF07104DCE76FF00A0463
:1026D800D9E700BFBCB20008F0B589B00446466827
:1026E800B7690569002305930693ADF81C3002937A
:1026F8000393ADF8103005F1100007F0CBFC05F19D
:102708003C0007F0C7FC05F12400397B0A4607F0B6
:10271800C8FC306820B107F082FA002800F0028176
:102728002046FFF713FE002840F0FF804FF47A722E
:102738000023204604F0EDFD002840F0F9802046F3
:1027480005F0DFF801AA1821204604F082FD0346AF
:1027580010B1184609B0F0BD019A22F469720192CD
:102768001821204604F081FD03460028F1D101AA72
:102778001021204604F06DFD03460028E9D1019A96
:1027880022F0100201921021204604F06EFD03464B
:102798000028DED101AA0C21204604F05AFD034688
:1027A8000028D6D1019A42F4000201920C21204659
:1027B80004F05BFD03460028CBD101AA482120463E
:1027C80004F047FD03460028C3D196F849201202B9
:1027D80002F4FE42019B1A4301924821204604F06C
:1027E80044FD03460028B4D101AA8021204604F004
:1027F80030FD03460028ACD1019A42F0280301932A
:1028080042F02B0201928021204604F02EFD03465F
:1028180000289ED1B389002B48D1B6F84230002B4E
:102828004FD1F389002B5FD196F84730002B66D142
:1028380005A9204604F081FC00287CD102A9204685
:1028480004F08CFC002879D13E4A0192542120469C
:1028580004F00BFD034600287FF47BAF9922019218
:102868005821204604F001FD034600287FF471AF8B
:10287800032201925C21204604F0F7FC034600285D
:102888007FF467AF4FF0FF320192E021204604F059
:10289800ECFC034600287FF45CAF63685B691B6946
:1028A800F26B002120469847034652E7B26805A913
:1028B8002046FFF743FC10F1160FB2D16FF0040366
:1028C80047E7B6F84020ADF814200022ADF81620EE
:1028D800ADF81830B6F84430ADF81A30B26805A92A
:1028E800204604F00CFC9CE7326902A92046FFF759
:1028F80049FC10F1160F9BD16FF0040329E796F8F5
:102908004620ADF808200022ADF80A20ADF80C30BA
:1029180096F84830ADF80E30326902A9204604F026
:10292800EEFB85E76FF0120313E76FF0040310E77F
:102938006FF004030DE76FF012030AE76FF012035C
:1029480007E700BF99908203F82842D8A8282ED319
:10295800A0F1A803502B3CD8DFE803F0573B3B3BE2
:102968003D3B3B3B3D3B3B3B413B3B3B433B3B3B9D
:102978003D3B3B3B3B3B3B3B3B3B3B3B3D3B3B3B9B
:10298800453B3B3B473B3B3B493B3B3B4B3B3B3B5B
:102998004D3B3B3B4F3B3B3B513B3B3B3B3B3B3B43
:1029A8003B3B3B3B3D3B3B3B533B3B3B5500842840
:1029B8000FD00ED3A4280CD888280BD3A0F18802F6
:1029C80092B201239340134A1A4002BB13F0805F6E
:1029D80003D1704770478420704790207047982033
:1029E80070479C207047C8207047CC207047D02083
:1029F8007047D4207047D8207047DC207047E0200B
:102A08007047E4207047E82070479420704784207E
:102A1800DFE700BF0101110110B50C464FF040700F
:102A280001F096FA78B1094AD2F8002512B9206067
:102A3800002010BD054AD2F800255200B0FBF2F381
:102A480023600020F5E76FF00400F2E70060004023
:102A580038B504464368DD6C0D4807F0E0F8A0B1CE
:102A68000B4883681B68E9689847002802DB2B7EBF
:102A78000BB9002038BD204604F043FF2B7E5B08CD
:102A8800044AC2F800350020F4E76FF01200F1E7BD
:102A9800F0A8000800600040104B1B6813F4806F1A
:102AA8000ED10E4A136843F48073136001E0012BC2
:102AB80006D00A4B1B6813F48063F8D00123F6E7AD
:102AC800064A936823F0030343F001039360034B22
:102AD8009B6803F00C03042BF9D1704700100240E7
:102AE8001B4B1A6822F480221A601A6842F480325A
:102AF8001A6001E0012A06D0154B1A6812F4003258
:102B0800F8D00122F6E71249D1F8943043F00103D6
:102B1800C1F8943001E0012B07D00D4BD3F8943065
:102B280013F00203F7D01346F5E70949D1F89820C6
:102B380042F00102C1F8982001E0012A07D0044AB6
:102B4800D2F8982012F00202F7D01A46F5E770473B
:102B58000010024010B51C4B9B6803F00C030C2BB3
:102B68001FD0194C236823F080732360E36823F097
:102B7800805323F4003343F08053E360E36843F465
:102B88008033E360E36823F4C003E360E36843F45D
:102B98008013E36000F0FAF8236843F08073236041
:102BA80009E0FFF779FF084A936823F0F003936080
:102BB800D7E7012B06D0044B1B6813F00073F8D03D
:102BC8000123F6E710BD00BF0010024038B500F041
:102BD800FDF801F01BF91E4B9B68C3F303131D4A54
:102BE800D35C03F01F0320FA03F5137803F01F03E7
:102BF800194C1C41A54222D3FFF772FFFFF7AAFF29
:102C0800134B9A6822F0F0029A609A6842F0030225
:102C18009A600F4B9B6803F00C030C2BF9D1A5426B
:102C280011D20E4B0C4A1A60094B9A6822F4E062E2
:102C38009A609A6822F460529A60002038BD204653
:102C480001F0B4F9D8E7204601F0B0F9E9E700BF90
:102C580000100240F0B7000880FE210A2001002081
:102C680070B50C461546444B1E680121304605F0E8
:102C780053F92368082B79D0013B5F2B79D8DFE81B
:102C880003F03C5D6065716D68783F4953787878EA
:102C980078787878787878787878787878787878AC
:102CA800787878787878787878787878787878789C
:102CB800787878787878787878787878787878788C
:102CC800787878787878787878307878783078780C
:102CD8007833787878787878783678787836787835
:102CE80078392E60002046E02E60002043E02860FE
:102CF800002040E0286000203DE02E6000203AE0FF
:102D080000F040F802235522042105F0FEF828605F
:102D1800002030E000F036F802235522042105F0A7
:102D2800F4F82860002026E000F02CF80223552251
:102D3800042105F0EAF8286000201CE00020286043
:102D480019E04FF4FA432B60002014E000202860BB
:102D580011E005F0E4F8286000200CE0074B2B6038
:102D6800002008E0064B2B60002004E06FF085008F
:102D780001E06FF0850070BD200100200024F40000
:102D8800006CDC02004870470024F40008B50C4AC7
:102D9800D2F8803023F48073C2F8803005F039F916
:102DA800084AD168084B0B4040F4AA4040F0300074
:102DB8000343D360D36843F08073D36008BD00BF7A
:102DC80000700040001002400C80FFF982B0064BF2
:102DD8009A6D42F080529A659B6D03F0805301937F
:102DE800019B02B0704700BF0010024010B50446B6
:102DF8000A2806D0E1B2064883685B6898472046EF
:102E080010BD034883685B680D219847F2E700BF4F
:102E1800B8A9000810B5044C2046FEF7C3FF2046A9
:102E2800FEF724FB10BD00BFF52D000808B50548C6
:102E380006F0F5FE18B1FFF7EDFF002008BD6FF0B2
:102E48001200FBE7B8A9000808B5436831B1074884
:102E58008268126803F10C01904708BD0348826834
:102E6800526803F10C019047F7E700BFF0A800088B
:102E780001F0030C0CF102020B4B53F822200B0C4F
:102E880022EA114193FAA3F35BB1B3FA83F303F097
:102E98001F03984001430CF1020C034A42F82C101E
:102EA80070472023F3E700BF0000014070B582B0EF
:102EB80004460D460A4A6B4692E8030083E803007D
:102EC80008488268126819469047064610B130468D
:102ED80002B070BD2946204605F061FAF7E700BF49
:102EE800B8AD0008F0A8000800F003030233084A50
:102EF80052F82320030C02EA104093FAA3F32BB1F3
:102F0800B3FA83F303F01F03D84070472023F9E78F
:102F180000000140F8B50C46114647680269B1F552
:102F2800001F1FD01D46B1F5800F34D01D49204623
:102F3800FFF726F8064688BB2146B868FFF7B6FFB4
:102F4800B5F1806F23D0B5F1C06F22D0B5F1007F05
:102F58001BD031462046FEF7DFFF2046FEF7BEFFB6
:102F68003046F8BD204605F031FABB68984201D0DA
:102F78000026F5E72046FEF7C3FF2046FFF71EF8B8
:102F880000212046FEF7C8FFF2E70221E2E701210F
:102F9800E0E70321DEE76FF08506E1E76FF00F0653
:102FA800DEE700BFE380000810B5044603695860F7
:102FB800074806F034FE38B101212046FFF744FFE8
:102FC800002800DB002010BD6FF01200FBE700BFF7
:102FD800F0A80008104B984213D00AD90F4B98421A
:102FE80015D003F5C31303F52063984211D10A20C5
:102FF80070470B4B984206D00A4B984205D10420E3
:10300800704706207047022070470020704708204C
:1030180070470020704700BF40420F0040E1330076
:10302800A0860100801A06002DE9F84F8A464768F5
:10303800D0F81090D7F80CB0002400E00134FB69F8
:10304800A3421AD9BE6904EB44054FEA850806EB8A
:1030580085056868FFF7BEFFD9F830305B0883EA5A
:10306800500313F0070FE9D156F808305345E5D15E
:10307800AB68CBF81030002049E0D9F83030C3F302
:103088004203012B0BD0022B47D140F214554FF4C9
:1030980016774FF4FA7640F2771C01210BE041F2E3
:1030A8005C254FF47A6740F2E2464FF4FA7CF4E785
:1030B80001310F292FD8BAFBF1F21B4BB3FBF2F306
:1030C800B7FBF3F2B5FBF3F0BCFBF3F4B6FBF3F399
:1030D800013AFF2AECD80138FF28E9D80F2C18D874
:1030E800013B0F2B15D84D1E1B0503F4700343EA53
:1030F8000573240404F470242343120292B2134388
:10310800C0B203430F290BD8CBF810300020BDE81C
:10311800F88F0131CDE70023F4E76FF01500F6E7EB
:103128006FF01500F3E700BF00CA9A3B104B9842B6
:1031380013D00AD90F4B984215D003F5C31303F5E2
:103148002063984211D10A2070470B4B984206D051
:103158000A4B984205D10420704706207047022088
:10316800704700207047082070470020704700BF54
:1031780040420F0040E13300A0860100801A06009B
:1031880010B544680021606905F0C7FB002805DB1D
:10319800044883681B686168984700B910BD6FF0E0
:1031A8000400FBE7F0A80008F0B583B00E464368BA
:1031B8000569DF68002201925968194B9B68DB6832
:1031C80053B3044601AA16489847002824DB2E6307
:1031D80005F118064FF0FF324FF0FF33304601F08B
:1031E80017FE3B6823F001033B6095F85210204618
:1031F80005F0A3FB01992046FFF716FF044695F852
:1032080051301BB13B6843F001033B60304601F08D
:10321800D7FD204603B0F0BD6FF00404F9E700BF06
:10322800F0A8000870B50446466805694FF0FF32FB
:103238000021284606F035FF3368204698470023CA
:1032480085F8503085F8523005F1180001221146F2
:1032580006F027FF0C4806F0E2FC88B12046FFF78D
:103268008FFF3069FFF762FF40F010012046FFF73B
:103278009BFF002803DB012385F85030002070BD38
:103288006FF01200FBE700BFF0A800082DE9F0413D
:1032980084B00E46154605F065FB044690F82000FC
:1032A80094F82170A2690292E169039102AB00933C
:1032B8000123019394F82230DB004FF0000CA5FBAA
:1032C800033EBEF1000F06D1BCF1000F06D19942B2
:1032D8000CD2002303E04FF0010CF5E700233BB1CB
:1032E8004FF00008A84542D2002128E00123F6E764
:1032F8006FF00B0543E008EB480316F803E00023E2
:103308000FE008EB4803334493F801E0F7E708EBD4
:103318004803334493F802E0F1E7BC4602F803C0DF
:103328000133072B08DCC3F1070C2EFA0CFC1CF048
:10333800010FF2D08446F1E708320131C9B294F89E
:1033480022308B4210D9636A13F801E0BEF1030FF3
:1033580019D801A353F82EF007330008FF320008EC
:103368000B3300081733000808F10108BAE769466B
:10337800204605F0EDFA0546208D01F00FFC2846A1
:1033880004B0BDE8F0816FF01505F8E7AF2817D84D
:10339800F8B504460D46164603090B4A52F8237041
:1033A8005FB1384606F03BFC38B133462A4604F094
:1033B8000F01384605F021F8F8BD6FF01200FBE761
:1033C8006FF01500704700BFD4B5000870B5C36B27
:1033D80003EB830C0CF1800C4FEA2C2C0388A1EB37
:1033E800031290F904E00CFB0EFE2A4C84FB0E132A
:1033F8004FEAEE7ECEEB631EA2EB6E02B0F802E05F
:1034080090F905100CFB01F184FB0153C917C1EBBE
:10341800631190F906300CFB03F384FB0365DB179B
:10342800C3EB65130CFB03F39D1184FB0565DB17E8
:10343800C3EB6513194401F5804101FB0EFE4FEA09
:10344800AE2E0EFB02F2C17990F908300CFB03F3A3
:1034580084FB0354DB17C3EB641303EBC1131B1189
:10346800911301FB01F1891201FB03F302EB6303E2
:103478009B124FF47A7202FB03F30749B1EB233F27
:1034880004DB1A13002A02DA002200E0024A02636F
:1034980070BD00BF1F85EB51A086010038B50446FA
:1034A80090F92700C3179D0045EA90754FEA800CF4
:1034B8001CEB000C43EB050340F23C501CEB000CEA
:1034C80043F10003154850F82150ACFB05C005FB3B
:1034D80003004FEA1C4C4CEA004C0514D20312F1CD
:1034E8007F4263EB030312EB0C0243EB20430C48CF
:1034F80050F82100A0FB0CC100FB05114FEA5C2C21
:103508004CEAC15C500840EAC3705D1010EB0C0037
:1035180045EB6121FDF7BAF8606338BD68B600086D
:1035280028B6000810B50246B1F5C87F01D94FF496
:10353800C87192F90C3003EB830303EB8303214832
:1035480080FB0340DB17C3EBA01C92F9093003F59D
:103558004473B2F90A0000F5163000F2991000FB26
:1035680001F1194880FB014EC917C1EBEE0101F5C5
:10357800481180FB01E0C917C1EBA00101FB03F36F
:1035880003EBD373581000EB0C2092F8253004336A
:1035980090FBF3F092F9263003EB831203EB42031E
:1035A80003F5803390FBF3F0FA3800EB001040008D
:1035B8003230064B83FB0023C017C0EB6310C0B248
:1035C80010BD00BFD34D6210676666661F85EB515C
:1035D80003690D3910294FD8DFE801F009234E3669
:1035E8004E4E4E4E4E4E4E4E4E4E4E4E490000B52D
:1035F800996A234880FB01ECC917C1EB6C11116073
:10360800996A80FB0130CB17C3EB6013642000FB81
:10361800131342F2107101FB03F3536000205DF8AD
:1036280004FBD86A1749A1FB00C080091060D86A5A
:10363800A1FB00139B094FF47A7101FB130301FBF3
:1036480003F3536000207047186B0E49A1FB00C0BC
:1036580080091060186BA1FB00139B094FF47A7165
:1036680001FB130301FB03F35360002070475B6BFE
:1036780013600020506070476FF08500704700BFEE
:103688001F85EB51D34D62100369112915D1198893
:10369800C1F30B03090B8B40094880FB0310D917B2
:1036A800C1EB60111160642000FB113342F210710C
:1036B80001FB03F35360002070476FF085007047EB
:1036C8001F85EB512DE9F84305460C46D0F80480D8
:1036D8000369D3F804900B79012B14D0022B15D170
:1036E8004FF480616279012A15D0022A15D07AB187
:1036F8004FF40056A779022F12D0042F16D0002BB2
:1037080061D1002014E04FF4C061EBE70021E9E744
:103718004FF48056EEE70026ECE74FF44056E9E711
:103728000BB1002004E04FF0805001E04FF48050CE
:10373800A3F1030C5FFA8CFCBCF1010F62D90BB149
:10374800042F62D0B6F5805F42D0B6F5405F41D015
:10375800002E3BD003239A425AD105F035FD87420B
:1037680059D1E379C3B1012B36D0032B56D1D8F800
:1037780000302D4A93420FD0A2F5744293420BD0E9
:1037880002F58062934207D002F58062934203D02B
:1037980002F55052934244D1D8F80020136823F020
:1037A800010313602146284605F023FDD8F80020C0
:1037B800136843F00103136094E8030089E80300E9
:1037C8000020BDE8F8834FF48050B1E70123C2E739
:1037D8000023C0E70223BEE7D8F8002012498A4236
:1037E800DAD0A1F574418A42D6D001F580618A42C7
:1037F800D2D001F580618A42CED001F550518A427B
:10380800B3D1C9E76FF08500DBE76FF08500D8E733
:103818006FF08500D5E76FF08500D2E76FF085007F
:10382800CFE76FF08500CCE70038014008B5024AC1
:1038380005F0DCFD08BD00BF5B94000800B583B04F
:103848008DF80710034A0DF1070105F0E3FD03B0F9
:103858005DF804FB6394000838B5456804690748B7
:10386800206006F0DCF928B1206883681B68E968E5
:10387800984738BD6FF01200FBE700BFF0A80008BA
:1038880070B50546446803695E682268136823F0CA
:1038980001031360606806F0C2F900287ED0A168B1
:1038A800606805F05CFC226852E8003F43F00C03B6
:1038B80042E800310029F7D13146284605F099FC45
:1038C800237D23B12268936843F008039360637DE6
:1038D80023B12268536843F400435360A37D23B1A6
:1038E8002268536843F480335360E37D23B1226830
:1038F800536843F400335360237E002B30D0236891
:10390800294A93420FD0A2F5744293420BD002F594
:103918008062934207D002F58062934203D002F599
:10392800505293423DD16B681A68936843F48043C0
:1039380093602268617E136823F0787343EA4153E9
:1039480013602268A17E136823F4F81343EA014345
:103958001360E37E23B12268936843F400439360C5
:10396800237F23B12268136843F000531360226851
:10397800136843F00103136000E03BB92168CB6989
:1039880013F40013F9D00123F7E72AB9CA6912F42E
:103998008002FAD01A46F8E7002070BD6FF01200D6
:1039A800FBE76FF01500F8E700380140F0B58BB081
:1039B8000D46D0F804C0066902AC654F0FCF0FC49E
:1039C80097E80F0084E80F00DCF800403368AB424A
:1039D80000F0B680AB88C3F34512082A02D0102A3B
:1039E80040F0B08013F4004F19D1636823F010033E
:1039F8006360DCF80C10574B9B68DB68A3B101AA25
:103A08005448984700280FDB01231846082B0ED886
:103A1800019ADA402968914209D20133F5E76368CF
:103A280043F010036360E4E76FF0040053E00828F4
:103A380000F28B80226822F040022260013B0AAA31
:103A480002EB830353F8203C226822F03802134328
:103A58002360AB8813F0020F3FD0236843F00203C2
:103A68002360AB8813F0040F3CD0236843F00103B4
:103A78002360236823F444432360AB8813F0100FBA
:103A880035D0236843F080032360236823F4005370
:103A98002360AB68002B2FD0236843F400732360A6
:103AA800636823F004036360AB8813F0010F3BD015
:103AB800236823F482732360AB88C3F34513082B70
:103AC80037D0636843F470636360636843F480537A
:103AD8006360356000200BB0F0BD236823F002035B
:103AE8002360BEE7236823F001032360C1E723684E
:103AF80023F080032360C8E7AB8813F0010F08D0D8
:103B0800236823F400732360636823F0040363606D
:103B1800CAE7236823F4007343F4802323606368AF
:103B280043F004036360BFE7236843F482732360B0
:103B3800C2E7636823F4706343F4E0636360C4E737
:103B48000020C8E76FF08500C5E76FF01500C2E7F1
:103B5800C0AD0008F0A8000838B5056944680F48EA
:103B680006F05DF8B0B10D4883681B68E1689847B6
:103B780000280EDB0021606806F031F8002808DB19
:103B8800284606F010F8002803DB284605F055FF04
:103B9800002038BD6FF01200FBE700BFF0A8000856
:103BA8004FF0E023996918699A6909B90C4B1968AB
:103BB8000AB90B4B1A6810F4803F01D1914208D220
:103BC80008490B680648006803440B604FF0E0237F
:103BD8001B69034B1B689B1A024A106818447047FC
:103BE800A80A0020A40A00200A4B102283F82320E8
:103BF800094B44F268221A600020084B18604FF005
:103C0800E02344F267225A6198611A6942F0070278
:103C18001A61704700ED00E0A80A0020A40A0020FD
:103C280010B5FFF7BDFF11480368114A51681468C1
:103C38001B1941F1000113605160002202600D4917
:103C48000A68981A0C4BA3FB0030800B44F26823D7
:103C580000FB03F3D2184B6843F100030A604B6082
:103C680001F0EEFAFDF7A6FC10BD00BFA40A002083
:103C78004803002040030020A548B9F6F8B50029FC
:103C88004CD0B0F1FF3F3ED03F4B1C6801284DDDC2
:103C980040F2DA339842A8BF1846461E4FF0100388
:103CA800EFF3118583F31288BFF36F8FFFF778FF67
:103CB8004FF0E0239F69354A13685168C31841F1F2
:103CC8000001136051600021314A1160314A1168C6
:103CD8005A1A2DD444F2682000FB062202F58442C9
:103CE80067322D4EA6FB0262920BC91A00FB021125
:103CF80040F226438B4238BF0B46284A914235D9B9
:103D0800214B1A6018E04FF0E022136923F00103F9
:103D180013611D4B4FF07F421A6026E01A4B1C6856
:103D2800B0F1FF3FB2D140F2D930B1E70026B5E794
:103D3800154B40F226421A604FF0E0239969124A67
:103D48001268013A5A6100229A618F4211D2641AAC
:103D58003C440E4A136851681B1941F10001136075
:103D6800516085F31188BFF36F8FF8BD064A136061
:103D7800E2E77F1A054A13685168DB1941F100012F
:103D880013605160EDE700BFA80A00204803002037
:103D9800A40A002040030020A548B9F62882FF00A5
:103DA80038B54FF01003EFF3118583F31288BFF392
:103DB8006F8F084B1C68084B1B68E41AFFF7F0FE6E
:103DC800204485F31188BFF36F8F044BA3FB0030A9
:103DD800800B38BD4803002040030020A548B9F6F1
:103DE80038B54FF01003EFF3118583F31288BFF352
:103DF8006F8F054B1C68FFF7D3FE204485F31188AD
:103E0800BFF36F8F38BD00BF480300201E4B9B686F
:103E180003F00C03042B33D01B4B9B6803F00C03FB
:103E2800082B2FD0184B9B6803F00C030C2B01D0E8
:103E380000207047144BDA6802F00302DB68C3F312
:103E480003130133032A11D01048B0FBF3F00E4BD3
:103E5800DB68C3F3062303FB00F00B4BDB68C3F3FB
:103E6800416301335B00B0FBF3F070470748B0FBD8
:103E7800F3F0054BDB68C3F3062303FB00F0ECE724
:103E88000248704701487047001002400024F400BF
:103E9800044B9B68C3F30313034AD35C03F01F036B
:103EA800D840704700100240F0B70008044B9B68E8
:103EB800C3F30223034AD35C03F01F03D8407047BF
:103EC80000100240E8B700080A4AD368D068C0F377
:103ED8000620094B03FB00F0D368C3F30313013337
:103EE800B0FBF3F0D368C3F3416301335B00B0FB6D
:103EF800F3F07047001002400024F40008B5054BA9
:103F08009B6803F00C030C2B01D0034808BDFFF796
:103F1800DBFFFBE7001002400024F4000A4AD368E4
:103F2800D068C0F30620094B03FB00F0D368C3F345
:103F380003130133B0FBF3F0D368C3F341530133E8
:103F48005B00B0FBF3F07047001002400024F4005F
:103F580008B5144BD3F888301840B0F1807F0DD0E5
:103F6800B0F1007F16D010B14FF0FF3008BD0D4BF7
:103F7800186810F40030F9D00B48F7E7094B1868B7
:103F880010F00070F2D0D86810F48010EED0FFF76F
:103F9800C5FFEBE7FFF7B2FFFFF77AFFFFF786FFF2
:103FA800E4E700BF001002400024F400421E2B4B3F
:103FB8009A4251D82A4B1B6803F4C063B3F5007FBB
:103FC80007D0284B98422ED8274B984240D800213A
:103FD8002AE0264B984216D8254B984215D8254BEF
:103FE800984214D8244B984213D8244B984212D89C
:103FF800234B984211D8234B984210D8224B984211
:104008000FD8002110E008210EE007210CE006215E
:104018000AE0052108E0042106E0032104E002216A
:1040280002E0012100E00221184A136823F00F037F
:104038000B4313600222154B1B6803F00F03013A70
:10404800994201D0002AF6D1994203D00120704745
:104058000121E9E700207047012070477FFE210A0F
:10406800007000400024F40000127A0000688909FA
:10407800003B5808000E270700E1F50500B4C4040A
:1040880000879303005A6202002D3101002002408C
:10409800034B00E01433034A9342FBD3704700BF3D
:1040A800F0A8000844AA000838B54FF01003EFF351
:1040B800118583F31288BFF36F8F064B9C6805F058
:1040C800C7FD85F31188BFF36F8F2046FDF73AFCD3
:1040D80038BD00BFB00A002070B50646134B53F830
:1040E800204009E0434219E0EA681370EA6853780F
:1040F80043F0010353700834731C0C4A52F8233000
:10410800A34212D965686DB12368002BEED028460A
:10411800984703460028E9D00028E3DBFF2BE3DDBE
:10412800FF23E1E723689847E5E770BD10B800086A
:1041380010B586B0B823114C03FB004400EB400CCB
:1041480000EB80000E4B03EB80030E4A0592012220
:1041580004920F22039200220292019200930A4BCA
:104168004FF4A072094901EBCC11204600F024F964
:10417800637B23F00403637306B010BD5003002073
:10418800B00A002000B8000859A00008801B0020D1
:1041980008B50A4B01221A700320FFF79DFF01F0B2
:1041A80095F90420FFF798FF00F06AF9FCF7DEFFA5
:1041B800034A137B23F00103137308BDF40A00209C
:1041C8000804002008B50146014A0248FDF7BEFC74
:1041D800994100080804002008B50348034A121A48
:1041E800002105F038FD08BD50010020F80A002024
:1041F80010B50446FFF79CFFB823114903FB0411CF
:10420800104A04EB840302EB8303D9601C7404EBAB
:1042180044110D4B03EB811303F5046304EB840491
:1042280002EB84025360094BBFF35B8F53E8001F16
:10423800013143E80012002AF8D1BFF35B8F10BDAB
:1042480050030020B00A002040130020AC0A0020D0
:1042580070B586B000F008FC104D114B5D61114B34
:104268000593012304930024039402940194009479
:104278000D4B4FF480620D49284600F09DF8064624
:104288006B7B23F004036B73284605F0B2FD2046D0
:10429800FFF7AEFF304606B070BD00BF080400202F
:1042A800B00A002008B8000899410008001D002045
:1042B80000B5AFB00020FFF70FFF1C4B83F3088851
:1042C8001B4C636943F400736361F02384F8223064
:1042D8000025E57725766576A57684F82050636A0B
:1042E80043F4E0236362FDF701FBFDF74BFC4FF05D
:1042F800FF33A362E362FDF70DFDFDF785FC0124A2
:104308008DF80D408DF80C40269527952995094B79
:10431800C3F808D0FFF7BCFE2046FFF7DDFE0220F9
:10432800FFF7DAFEFFF794FFFFF74CFF801B002032
:1043380000ED00E0B00A00204FF01003EFF3118108
:1043480083F31288BFF36F8F0A4B1B6A834204D131
:104358005A6F084B1A6207E0134613B15A6F82422C
:10436800FAD10BB1426F5A6781F31188BFF36F8F8F
:10437800704700BFB00A002010B5044640B11F22A4
:1043880004F1780006F038F8002084F8970010BD92
:10439800014B9C68F3E700BFB00A002008B553EA58
:1043A800020102D105F085FC08BD0249183000F071
:1043B800C7FEF9E7B19E00082DE9F04F85B0044625
:1043C8000F4615461E46DDF838A0DDF83C90DDF8AE
:1043D8004080DDF84CB000F158038365C365129B3B
:1043E8000422119905F069FC2A463946204605F051
:1043F80040FC0546CDF80880CDF80490CDF800A023
:104408003346024639462046FDF75AFB00236365CA
:104418006666C4F868A0C4F86C90C4F870804FF061
:104428001003EFF3118283F31288BFF36F8F134BDE
:10443800196A61671C6282F31188BFF36F8FBBF141
:10444800000F13D01F22594604F1780005F0D4FF5D
:10445800002384F89730094B9B685BB1D3F8A430EC
:10446800C4F8A430284605B0BDE8F08F002384F8CE
:104478007830F0E7C4F8A430F4E700BFB00A0020B1
:1044880010B586B0184C14E0636A0593236A049348
:10449800E3690393A3690293636901932369009312
:1044A800E368A26861682068FFF786FF23685C6597
:1044B80030340E4B9C42E7D300F0B4F80A4C00E0CD
:1044C80030340A4B9C420BD2A26AE36AB3F1FF3F35
:1044D80008BFB2F1FF3FF3D02068FFF75FFFEFE7B7
:1044E80000F052FA06B010BD74AD000874AD0008B3
:1044F800C3897F2B11D80E4B1B687BB190F90E2016
:104508000C4B1B689A420CDB437B13F01F0F0AD13C
:10451800094B984209D0012300E0002303F0010071
:1045280070470023FAE70023F8E70023F6E700BF07
:10453800E00A0020DC0A002050030020044BC01AC7
:10454800C010044B03FB00F0034B01221A547047C0
:10455800C0040020ABAAAAAAD80A0020B3F1FF3FE2
:1045680008BFB2F1FF3F00D1704708B502491830C3
:1045780000F0E6FD08BD00BFB19E000870B5054615
:104588000D4B1E7C06EB46030C4C04EBC304204683
:1045980005F05CFE0A4B00229A552846FFF7A8FF53
:1045A80000B970BD074B1A68013AD317064920466F
:1045B80000F0C6FDF5E700BFB00A0020C0040020E7
:1045C800D80A0020E00A00204545000808B50B4637
:1045D80059B9EFF3058242B9064A50699268904288
:1045E80003D00846FDF7C8F903E083F31188BFF349
:1045F8006F8F08BDB00A002008B5034650B9EFF325
:1046080005823AB9064A51699268914202D0FDF78B
:10461800B3F903E083F31188BFF36F8F08BD00BFC0
:10462800B00A002000234FF01002EFF3118182F34B
:104638001288BFF36F8F09E0064B9A68D37B013B62
:10464800D37381F31188BFF36F8F0123002BF3D04D
:10465800704700BFB00A002038B50446104805F07E
:10466800C1FB054670B184B90E4B9B685A7B12F0AA
:104678001F0F0AD1AA6942B9DA897F2A05D9094ADE
:1046880053610BE0074BDD68EDE7064B9B68AB42D7
:1046980002D02846FFF772FF024B5D6138BD00BFAC
:1046A800C80A0020B00A002038B50546427B90F9B8
:1046B8000D30002B0ADB6B7B63F07F036B731B4BA6
:1046C80053F8184F9C4210D100240EE002F07F02EC
:1046D80042730146164805F051FBECE763686B60CE
:1046E8002C601D60656017E000246CB121462846E7
:1046F80005F014FB0028F1DC002CF6D00B4BDB692D
:104708009C42F1D02468F0E7084BDA6903F11801FC
:1047180029606A601560DD61044B9868A84214BF7F
:1047280000200120FFF798FF38BD00BFB00A002025
:10473800C80A002038B54FF01002EFF3118382F356
:104748001288BFF36F8F1D46144B9C68144B1B686F
:10475800A34217D0124B00221A60104B1B7C114A3F
:10476800D35C53B12046FFF7C3FE30B1637B13F02F
:104778001F0F0FD02046FFF701FF85F31188BFF305
:104788006F8F38BD2046FFF7F9FE85F31188BFF318
:104798006F8FF6E72046FFF787FFEBE7B00A0020A8
:1047A800D40A0020D80A0020427B90F90D30002B53
:1047B80033DB70B5044612F01F0F01D1866906B1CC
:1047C80070BD62F07F024273144B53F8185F9D422C
:1047D80008D1354606E06B68636025601C606C6034
:1047E80017E035466DB12946204605F097FA0028AE
:1047F800F1DC002DF6D0094BDB699D42F1D02D6824
:10480800F0E7064BDA6903F1180121606260146071
:10481800DC610020FFF720FFD2E77047B00A0020D4
:1048280010B54FF01003EFF3118483F31288BFF330
:104838006F8F437B13F0040F04D184F31188BFF307
:104848006F8F10BD23F004034373FFF7ADFF2146BC
:104858000148FFF7BBFEF4E7E40A002010B5044660
:10486800427B90F90D30002B08DB084B9868A0427A
:1048780014BF00200120FFF7EFFE10BD02F07F02F9
:1048880042730146024805F079FAEEE7B00A0020C3
:10489800C80A002010B50C4611460A4882680A4B1F
:1048A8001A604FF01002EFF3118382F31288BFF3FE
:1048B8006F8FDDE90223806805F027FB2046FDF7AE
:1048C8005BF810BDB00A0020D40A00202DE9F84397
:1048D80005460F4600234FF01002EFF3118682F3CE
:1048E8001288BFF36F8F184629E063686B602C60ED
:1048F8001D60656017E044466CB12146284605F006
:104908000DFA0028F1DC002CF6D01D4BDB699C4227
:10491800F1D02468F0E71A4BDA6903F1180129602D
:104928006A601560DD610120FFF796FE012001E055
:10493800AF73002086F31188BFF36F8F0123E3B9AB
:104948006B7B13F01F0FF3D1D5F81880B8F1000F67
:10495800EED103F07F036B73DFF8289029464846B1
:1049680005F00CFAAF736B7B63F07F036B73D9F8B8
:1049780000404C45C0D14446BEE7BDE8F88300BFBF
:10498800B00A0020C80A002010B500234FF010021A
:10499800EFF3118482F31288BFF36F8F0CE0094B99
:1049A8009A68D37B0133D3730020FFF755FE84F355
:1049B8001188BFF36F8F0123002BF0D005F0D2F9D7
:1049C80010BD00BFB00A002038B5437B0B4213D19D
:1049D80004460D460B43437303F09F02427312F0E3
:1049E800800F0AD1082D10D00120FFF735FE102DB9
:1049F80002D02046FFF7A0FC38BD03F01F03437325
:104A08000146094805F0BAF9ECE7A36813B1204656
:104A180005F0BCF904F1180005F018FC04F1580081
:104A280005F003FAE0E700BFC80A002038B50446DD
:104A38000D4662B108212046FFF7C6FF094B9B6867
:104A4800A34206D085F31188BFF36F8F38BD1021BC
:104A5800F1E7EFF30583002BF4D12846FCF78CFF30
:104A6800F4E700BFB00A002008B5024805F099FA3B
:104A780008BD00BFC40A0020F8B54FF01003EFF3DB
:104A8800118683F31288BFF36F8F1D4CA1684B7B8F
:104A980003F07F034B7304F11807384605F06EF9ED
:104AA800A5686B7B63F07F036B73A469BC4208D174
:104AB800002406E063686B602C601D60656017E089
:104AC80000246CB12146284605F028F90028F1DCBD
:104AD800002CF6D00A4BDB699C42F1D02468F0E741
:104AE800074BDA6903F1180129606A601560DD6116
:104AF8000120FFF7B1FD3046FCF73EFFF8BD00BFCF
:104B0800B00A00202DE9F04150EA010338D00446EC
:104B18000E466FF001031B1A4FF0FF3262EB0102E1
:104B2800012B72F100022FDB6FF001052D1A4FF0F7
:104B38001003EFF3118883F31288BFF36F8F144FBC
:104B4800B868144B1860FFF789FEB86822463346E8
:104B58001149183000F0F4FABA68537B43F0100397
:104B680053734046FCF708FF05F08EFB281A63EBE9
:104B78000303012873F1000300DA0020BDE8F08187
:104B8800FFF77AFF0020F9E705F07EFB0519CEE76D
:104B9800B00A0020D40A0020B19E000808B5C21748
:104BA800633042F10001C0F31303020D42EA0132FF
:104BB800C2F31302134403EB113303EB11730F4ACF
:104BC800A2FB03C2D20802EB820202EB82029B1A0A
:104BD800C01A61F100020A490A4B00FB03F301FB0A
:104BE8000233A0FB01010B44800840EA8370C1171F
:104BF800FFF788FF642303FB00F008BD1F85EB5116
:104C0800295C8FC2F5285C8F014B9868704700BFFC
:104C1800B00A00202DE9104883B0089CDDE906BCE5
:104C2800CDE900BCFFF736FE1CB1034B9B685B69FE
:104C3800236003B0BDE81088B00A00202DE9F041D8
:104C480082B004461E464FF01003EFF3118583F33C
:104C58001288BFF36F8F2B46C16899B9002951D1CB
:104C6800364A926892F90E2022610131E160334A96
:104C78009268A26083F31188BFF36F8F002002B09F
:104C8800BDE8F081174680682C4A92689042E5D0CA
:104C980056EA070138D090F90E80414692F90E0085
:104CA80005F0E2F9804536DC4FF0000800970196E0
:104CB800224629462248FFF7EDFD0028DFD04FF0B5
:104CC8001003EFF3118583F31288BFF36F8F2E461D
:104CD800A36843B323689C4223D013B3216993F993
:104CE8000E0005F0C1F90146204605F0C8F9E8B9FB
:104CF800B8F1000F1AD186F31188BFF36F8F6FF0E8
:104D08000A00BCE72269AFE785F31188BFF36F8F0C
:104D18006FF00F00B3E70146204605F0B0F9804672
:104D2800C4E72169E0E7B8F1000FE4D02946044858
:104D3800FFF74CFC6FF00A00A1E700BFB00A0020A3
:104D4800E40A002083688BB370B504461A4A926857
:104D580093422ED1C368012B03D9013BC3600020C5
:104D680070BD4FF01003EFF3118583F31288BFF382
:104D78006F8F016905F083F9204605F0F0F8A0600F
:104D880068B190F90E3023610024C0F8B04005F0F6
:104D980030F829460948FFF719FC2046E0E70020CB
:104DA800E06085F31188BFF36F8FD9E76FF01500C6
:104DB80070474FF0FF30D3E7B00A0020E40A002024
:104DC80038B504464FF01003EFF3118583F31288CA
:104DD800BFF36F8F05F0C3F848B10022C0F8B020C8
:104DE80005F007F829460948FFF7F0FB38BDA36826
:104DF800E268934208D001221344A360022104F11F
:104E0800100005F0D6FAEDE70022F5E7E40A0020E5
:104E180010B582B04FF01004EFF3118184F31288BB
:104E2800BFF36F8F846844B1013C846081F31188BB
:104E3800BFF36F8F002002B010BD53EA020406D002
:104E48000092019302460548FFF724FDF3E781F33A
:104E58001188BFF36F8F6FF00F00ECE7E40A0020B2
:104E680070B338B50D4604461B4B9B6883421BD074
:104E780000231A46D4F8D030C3F38001C3F3C0002E
:104E880013F0010F1FD001B102B300B109B3002321
:104E98002B60D4F8BC3073B11D60C4F8BC502046F8
:104EA80005F025F9012038BD04F0DDFE08B901231D
:104EB800DFE70023DDE7C4F8BC50C4F8B850EEE7DC
:104EC8006FF0150070476FF01200ECE76FF00F00FD
:104ED800E9E76FF00F00E6E7B00A0020F8B50646EC
:104EE800C36823F00203C360134B1D6885B12C68A7
:104EF80004B10DB1002710E02C46FBE72A463946DD
:104F08000D4805F0E1F805F10800FFF759FF09E041
:104F18002C46EFE7234625461C4665B16B68B3422D
:104F2800ECD02F46002CF5D02368002BF3D0002CB2
:104F3800F1D12346EFE7F8BDE40A002070B584B04C
:104F4800054616E0D5F8D03023F00402C5F8D02085
:104F580013F0040F5ED1002302934FF0FF324FF09D
:104F6800FF33CDE9002305F1C00231463248FFF78F
:104F780051FE4FF01003EFF3118683F31288BFF34D
:104F88006F8F3246D5F8B840002CDBD02368C5F8BF
:104F9800B830D5F8BC108C4239D0D5F8D03043F0B1
:104FA8000203C5F8D030E36843F00101E16023F063
:104FB800040343F00103E360636882F31188BFF3DD
:104FC8006F8F204698474FF01003EFF3118683F355
:104FD8001288BFF36F8FE36823F00103E36013F0D7
:104FE800100F21D1E36813F0020F21D1D5F8D0308A
:104FF80023F00203C5F8D030C3F3002386F31188E9
:10500800BFF36F8F002BB4D1FFF736FDB1E7C5F8BA
:10501800BC30C2E705F1C80400220121204604F093
:10502800E9FF0028F8D196E7204605F0A6F8D9E769
:105038002046FFF753FFD9E7EC0A002008B50146E0
:10504800014805F0BFF808BDE0040020F0B589B0BC
:1050580004460E9D0020C4F8B800C4F8BC0004F152
:10506800C000C4F8C000C4F8C40004F1C800C4F803
:10507800C800C4F8CC00FDB12879F8B90120C4F8FB
:10508800D0004FF0FF364FF0FF37CDE9066700201C
:10509800049003930290019000940A4B204604F078
:1050A80017FE25B1296811B12046FFF765F920469A
:1050B80004F0FFFD09B0F0BD0120E0E740F2011067
:1050C800DDE700BF454F000808B50648064A121A32
:1050D800064904F0C4FD064A0649074804F0BFFD26
:1050E80008BD00BF000000204E01002014B90008D0
:1050F8000000000014B9000800000020034B1868E5
:10510800984200D070470020FCE700BF240100202F
:1051180030B1044A5268904201D0006870470020BC
:10512800704700BF2401002008B5044B1B680BB171
:10513800002008BDFEF734FEFBE700BFEC0A0020A4
:10514800B3F1FF3F08BFB2F1FF3F74D02DE9F0473C
:10515800044692461D46816000234FF01002EFF38B
:10516800118782F31288BFF36F8F26E01AF10108C6
:1051780045F10009FFF7D8FF18EB000349EBE07091
:10518800236160613BE0521A66EB030302614361ED
:105198004368636020601C60446005E0264B5A68E1
:1051A8002360626014605C60FFF7A8FF84423AD015
:1051B80087F31188BFF36F8F0123002B39D1534632
:1051C8006FF00101B1EB0A014FF0FF3060EB05020F
:1051D800002ACBDB194A116852685B1842EB0502BA
:1051E8006FF00101C91A60EB020308461A4601294B
:1051F80073F1000301DA0120002220616261FFF7E8
:105208007DFF0028CAD00269466921696369914215
:1052180073EB060EB7DB891A63EB06032161636142
:10522800FFF776FFEDE704F0F4FF0021FEF726FD17
:10523800BEE7BDE8F087704724010020D8040020AD
:1052480070B54FF01003EFF3118683F31288BFF3A4
:105258006F8F2B4B1860FFF751FF044624E0294A53
:10526800136851685B1941EBE571136051600022C6
:105278000023C4E90423204604F0B4FF86F3118810
:10528800BFF36F8FA368204698474FF01003EFF3E2
:10529800118683F31288BFF36F8F194A13685B1B5B
:1052A8001360FFF72BFF04463CB125696169144B75
:1052B8001A68D317AA428B41D1DA44B123696269CB
:1052C8000F4909685B1A62EBE172236162610D4A5A
:1052D8000B4D2868136851681B1841EBE071136087
:1052E800516000242C6004F094FF2146FEF7C6FCB0
:1052F80086F31188BFF36F8FFFF71CFA70BD00BFEC
:10530800EC0A0020D804002010B500224FF010034A
:10531800EFF3118483F31288BFF36F8F134611469E
:105328000CE0FFF701FF074A13685168C31841EB07
:10533800E07184F31188BFF36F8F0122002AF0D047
:10534800184610BDD8040020F8B54FF01002EFF34E
:10535800118382F31288BFF36F8F1A461D460368C4
:1053680023B182F31188BFF36F8FF8BD0446826AB8
:10537800C36A52EA030105D0B3F1FF3F08BFB2F197
:10538800FF3F29D1236B01332363236A7BB185F364
:105398001188BFF36F8F236A204698474FF0100299
:1053A800EFF3118382F31288BFF36F8F1D4604F168
:1053B8001803A469A3423FD0002C3DD0204604F036
:1053C800B7FC0023C4F8B03085F31188BFF36F8FA2
:1053D800204604F00EFDC8E716461F46012A73F161
:1053E800000301DA01260027013E47F1FF3704F0E8
:1053F8004FFF013041F10001801947EB01010128FD
:1054080071F1000108DA6FF001024FF0FF330D4926
:105418002046FFF795FEB5E704F03AFF013041F169
:105428000001801947EB01036FF00102121A4FF0D7
:10543800FF3161EB0303EAE785F31188BFF36F8F50
:1054480093E700BF51530008F8B51D464FF010030D
:10545800EFF3118783F31288BFF36F8FB5F1FF3F26
:1054680008BFB2F1FF3F1FD00646144629466FF029
:105478000102121B4FF0FF3262EB0502002A18DB13
:10548800304604F0E3FEDDE90623C6E90A230023DB
:10549800336322462B460C493046FFF751FE87F30B
:1054A8001188BFF36F8FF8BD87F31188BFF36F8F33
:1054B800F9E7012C71F1000101DA01240025013C12
:1054C80045F1FF35DCE700BF5153000808B5024835
:1054D80001F06DFB08BD00BF28B8000810B5064CE8
:1054E80005E0A2686168204604F07EFF1434034B8F
:1054F8009C42F6D3002010BD4E0100204E01002032
:1055080010B584B0084B029300248DF80C4002AB10
:1055180000934FF0FF334FF4806204490448FFF7CB
:1055280095FD204604B010BD50B800084021002069
:10553800E00400200FB407B5064B04AA186852F817
:10554800041B019200F0C4F803B05DF804EB04B04A
:10555800704700BF7CB20008F8B50E4B1D68AB78E9
:105568009B07064612D56F6816F8014B29462CB9D9
:105578000A20B847002805DB204609E02046B8473E
:105588000028F1DAAB7843F00403AB704FF0FF303A
:10559800F8BD00BF7CB200082DE9F041012607469E
:1055A800B24201DCBDE8F0813B461F4613F8014BCF
:1055B800002CF7D0252CF8D11C78252C07F10207F0
:1055C800F2D00023DFF804819C461D461F2D18D811
:1055D800A4F1200EBEF1100F09D9A4F1300EBEF1CE
:1055E800090F1ED80A2404FB03E3202504E028FA47
:1055F8000EFE1EF0010F06D017F8014B002CE5D166
:1056080028E07F2D1CD8A4F1300EBEF1090FE9D98E
:10561800242C10D1BCF1000F46D0B34246D0002351
:10562800EAE724F0040EBEF12A0FF8D06C2C09D159
:1056380045F08005E0E724F0040EBEF12A0FEED015
:105648006C2C22D06C2C1BD8682C23D06A2C28D028
:105658004C2C26D0BCF1000FA4D0B445A0D144F006
:105668002007A7F1650CBCF1020F0B6801D9612F67
:105678001ED1073323F0070308330B6001368EE78A
:10568800742CB9D07A2CB7D0E4E72C0648BF45F47F
:105698000075CDE7EC0548BF45F4007545F4807505
:1056A800AAE745F42075A7E79C46B8E76324D6E740
:1056B800692C02D007D8632C03D02F0601D5AC057E
:1056C800D7D40433D9E7732CF6E700BF8928010043
:1056D8002DE9F04F95B04368039383788046980787
:1056E800CDE9081217D50D920B4600251F78A7B1F2
:1056F800252F16D001330793039B41463846984718
:10570800002805F1010580F2558498F8023043F02D
:10571800040388F802304FF0FF35284615B0BDE87D
:10572800F08F5F789A1C252F0792E5D00024264633
:10573800A246A346BBF11F0F32D8A7F12003102BB6
:105748000AD8DFE803F02409092A0909091B09090D
:105758000922092709091900A7F13003092B2DD9B6
:105768002A2F39D154B90D9B1BF0400F53F8042B45
:105778000D9329D0164601E04BF0010B079B13F857
:10578800017B0793002FD5D15BE04BF0020B4BF068
:10579800040BF3E74BF0080BF0E74BF0100BEDE7C9
:1057A800BBF17F0F3FD8A7F13003092BD8D81BF0E6
:1057B800400F03D00A2202FB0636DFE70A2202FB6B
:1057C8000A3A4BF0200BD9E7B2F1000AF9DACAF12C
:1057D800000A4BF0280BD1E72E2F05D11BF0400F04
:1057E8009BD14BF0400BC9E7242F1CD1002C00F0B3
:1057F8004481099B0D931BF0400F0AD1524608982B
:105808000DA9FFF7C9FE0D9B1A1DD3F800A00D9234
:10581800B4E7324608980DA9FFF7BEFE0D9B1A1D86
:105828001E680D92AAE76C2F00F0148100F20B811C
:10583800682F00F017816A2F00F01C814C2F00F0B0
:10584800198134B1099B08980D9322460DA9FFF7D9
:10585800A3FE002E47F02003B8BF2BF0400B0593A2
:10586800A3F16503BCBF1FFA8BFB0026022B40F295
:10587800098147F02003612B40F08482FF4307F041
:10588800200306930D9B073323F007031BF0400FFB
:10589800D3E9000103F10802069B00930D9214BF9F
:1058A80033464FF0FF330EAA04F0F5FE431CDBB27B
:1058B8004BF4C0540493DDF8389070230646A34691
:1058C8000127059309F10903122B0CD909F1630388
:1058D800C62B40F2138109F2E73340F2CE729342AD
:1058E80094BF032704279DF83C2002F00C0312F014
:1058F800010240F01E811BF0020F40F017811BF0DF
:10590800040400F0FD80002B40F0168120231BF4D6
:10591800405F21D1049A5032002E6A4408BF012604
:10592800133A049921B112F8011D302900F03B8186
:105938001BF0100F049A18BF324619F1040FC0F279
:105948003781B14580F234814A454BF4005B40F31E
:10595800318109F10106961B1BF400520A9200F0EE
:105968002B8129EAE974013403B10134002E00F0D7
:105978002A81721C1444A245CCBFAAEB040400245B
:105988001BF0090F04D12C44A54240F021810024CA
:1059980043B118464146039B9847002805F1010585
:1059A800FFF6B3AE1BF4006F13D0039B41463020C3
:1059B80098470028FFF6A9AE069BC3F17800414638
:1059C800039B00F0F8009847002805F10205FFF650
:1059D8009CAE1BF0080F05D12C44AC4240F004816A
:1059E800254600240A9B002B00F02E8129EAE97A3B
:1059F800A9EB0A027642049B0592934284BF0EAB40
:105A0800D3180AF1FF3A8CBF58793020564505F172
:105A1800010700F3F380039B41469847059A002845
:105A280002F10102FFF671AEBAF1FF3F09D1039B03
:105A3800059241462E2098470028FFF666AE059A43
:105A4800AF1C3D46D7E7742F3FF498AE7A2F3FF44A
:105A580095AEF6E61BF0800F18BF4BF4007B4BF0B9
:105A6800800B8BE61BF4807F18BF4BF4007B4BF454
:105A7800807B83E64BF4207B80E62646B34654467B
:105A8800B2467BE6FF4307F0200306930D9B0733DE
:105A980023F0070303F10802D3E90001059B0D92E7
:105AA8001BF0400F08BF0626652B13D1731C00227C
:105AB800DBB24BF4805B1446112BCDE9002428BFE0
:105AC80011230EAA00F014FBC3B2DDF8389004933A
